{
	"sgdm.sol": {
		"sgdm": {
			"abi": [
				{
					"inputs": [
						{
							"internalType": "address",
							"name": "_targetToken",
							"type": "address"
						},
						{
							"internalType": "address",
							"name": "_uen_management_contract_address",
							"type": "address"
						},
						{
							"internalType": "address",
							"name": "_admin_management_contract_address",
							"type": "address"
						},
						{
							"internalType": "address",
							"name": "_whitelist_management_contract_address",
							"type": "address"
						}
					],
					"stateMutability": "nonpayable",
					"type": "constructor"
				},
				{
					"inputs": [
						{
							"internalType": "address",
							"name": "spender",
							"type": "address"
						},
						{
							"internalType": "uint256",
							"name": "allowance",
							"type": "uint256"
						},
						{
							"internalType": "uint256",
							"name": "needed",
							"type": "uint256"
						}
					],
					"name": "ERC20InsufficientAllowance",
					"type": "error"
				},
				{
					"inputs": [
						{
							"internalType": "address",
							"name": "sender",
							"type": "address"
						},
						{
							"internalType": "uint256",
							"name": "balance",
							"type": "uint256"
						},
						{
							"internalType": "uint256",
							"name": "needed",
							"type": "uint256"
						}
					],
					"name": "ERC20InsufficientBalance",
					"type": "error"
				},
				{
					"inputs": [
						{
							"internalType": "address",
							"name": "approver",
							"type": "address"
						}
					],
					"name": "ERC20InvalidApprover",
					"type": "error"
				},
				{
					"inputs": [
						{
							"internalType": "address",
							"name": "receiver",
							"type": "address"
						}
					],
					"name": "ERC20InvalidReceiver",
					"type": "error"
				},
				{
					"inputs": [
						{
							"internalType": "address",
							"name": "sender",
							"type": "address"
						}
					],
					"name": "ERC20InvalidSender",
					"type": "error"
				},
				{
					"inputs": [
						{
							"internalType": "address",
							"name": "spender",
							"type": "address"
						}
					],
					"name": "ERC20InvalidSpender",
					"type": "error"
				},
				{
					"anonymous": false,
					"inputs": [
						{
							"indexed": true,
							"internalType": "address",
							"name": "owner",
							"type": "address"
						},
						{
							"indexed": true,
							"internalType": "address",
							"name": "spender",
							"type": "address"
						},
						{
							"indexed": false,
							"internalType": "uint256",
							"name": "value",
							"type": "uint256"
						}
					],
					"name": "Approval",
					"type": "event"
				},
				{
					"anonymous": false,
					"inputs": [
						{
							"indexed": true,
							"internalType": "address",
							"name": "from",
							"type": "address"
						},
						{
							"indexed": true,
							"internalType": "address",
							"name": "to",
							"type": "address"
						},
						{
							"indexed": false,
							"internalType": "uint256",
							"name": "value",
							"type": "uint256"
						}
					],
					"name": "Transfer",
					"type": "event"
				},
				{
					"inputs": [
						{
							"internalType": "address",
							"name": "_to",
							"type": "address"
						},
						{
							"internalType": "uint256",
							"name": "_amount",
							"type": "uint256"
						}
					],
					"name": "admin_withdraw",
					"outputs": [
						{
							"internalType": "bool",
							"name": "",
							"type": "bool"
						}
					],
					"stateMutability": "nonpayable",
					"type": "function"
				},
				{
					"inputs": [
						{
							"internalType": "uint256",
							"name": "",
							"type": "uint256"
						}
					],
					"name": "admins",
					"outputs": [
						{
							"internalType": "address",
							"name": "",
							"type": "address"
						}
					],
					"stateMutability": "view",
					"type": "function"
				},
				{
					"inputs": [
						{
							"internalType": "address",
							"name": "_owner",
							"type": "address"
						},
						{
							"internalType": "address",
							"name": "_spender",
							"type": "address"
						}
					],
					"name": "allowance",
					"outputs": [
						{
							"internalType": "uint256",
							"name": "",
							"type": "uint256"
						}
					],
					"stateMutability": "view",
					"type": "function"
				},
				{
					"inputs": [
						{
							"internalType": "address",
							"name": "",
							"type": "address"
						},
						{
							"internalType": "uint256",
							"name": "",
							"type": "uint256"
						}
					],
					"name": "approve",
					"outputs": [
						{
							"internalType": "bool",
							"name": "",
							"type": "bool"
						}
					],
					"stateMutability": "pure",
					"type": "function"
				},
				{
					"inputs": [
						{
							"internalType": "address",
							"name": "_owner",
							"type": "address"
						}
					],
					"name": "balanceOf",
					"outputs": [
						{
							"internalType": "uint256",
							"name": "balance",
							"type": "uint256"
						}
					],
					"stateMutability": "view",
					"type": "function"
				},
				{
					"inputs": [
						{
							"internalType": "string",
							"name": "_uen",
							"type": "string"
						}
					],
					"name": "balance_of_uen",
					"outputs": [
						{
							"internalType": "uint256",
							"name": "",
							"type": "uint256"
						}
					],
					"stateMutability": "view",
					"type": "function"
				},
				{
					"inputs": [],
					"name": "check_whitelist",
					"outputs": [
						{
							"internalType": "string",
							"name": "",
							"type": "string"
						}
					],
					"stateMutability": "view",
					"type": "function"
				},
				{
					"inputs": [],
					"name": "decimals",
					"outputs": [
						{
							"internalType": "uint8",
							"name": "",
							"type": "uint8"
						}
					],
					"stateMutability": "pure",
					"type": "function"
				},
				{
					"inputs": [
						{
							"internalType": "string",
							"name": "_uen",
							"type": "string"
						}
					],
					"name": "get_name",
					"outputs": [
						{
							"internalType": "string",
							"name": "",
							"type": "string"
						}
					],
					"stateMutability": "view",
					"type": "function"
				},
				{
					"inputs": [],
					"name": "name",
					"outputs": [
						{
							"internalType": "string",
							"name": "",
							"type": "string"
						}
					],
					"stateMutability": "view",
					"type": "function"
				},
				{
					"inputs": [
						{
							"internalType": "string",
							"name": "_uen",
							"type": "string"
						},
						{
							"internalType": "uint256",
							"name": "_amount",
							"type": "uint256"
						}
					],
					"name": "send_token_to_uen",
					"outputs": [
						{
							"internalType": "bool",
							"name": "",
							"type": "bool"
						}
					],
					"stateMutability": "nonpayable",
					"type": "function"
				},
				{
					"inputs": [],
					"name": "symbol",
					"outputs": [
						{
							"internalType": "string",
							"name": "",
							"type": "string"
						}
					],
					"stateMutability": "view",
					"type": "function"
				},
				{
					"inputs": [],
					"name": "targetToken",
					"outputs": [
						{
							"internalType": "contract IERC20",
							"name": "",
							"type": "address"
						}
					],
					"stateMutability": "view",
					"type": "function"
				},
				{
					"inputs": [],
					"name": "token_address",
					"outputs": [
						{
							"internalType": "address",
							"name": "",
							"type": "address"
						}
					],
					"stateMutability": "view",
					"type": "function"
				},
				{
					"inputs": [],
					"name": "totalSupply",
					"outputs": [
						{
							"internalType": "uint256",
							"name": "",
							"type": "uint256"
						}
					],
					"stateMutability": "view",
					"type": "function"
				},
				{
					"inputs": [
						{
							"internalType": "address",
							"name": "_to",
							"type": "address"
						},
						{
							"internalType": "uint256",
							"name": "_amount",
							"type": "uint256"
						}
					],
					"name": "transfer",
					"outputs": [
						{
							"internalType": "bool",
							"name": "",
							"type": "bool"
						}
					],
					"stateMutability": "nonpayable",
					"type": "function"
				},
				{
					"inputs": [
						{
							"internalType": "address",
							"name": "_from",
							"type": "address"
						},
						{
							"internalType": "address",
							"name": "_to",
							"type": "address"
						},
						{
							"internalType": "uint256",
							"name": "_amount",
							"type": "uint256"
						}
					],
					"name": "transferFrom",
					"outputs": [
						{
							"internalType": "bool",
							"name": "",
							"type": "bool"
						}
					],
					"stateMutability": "nonpayable",
					"type": "function"
				},
				{
					"inputs": [
						{
							"internalType": "string",
							"name": "_uen_target",
							"type": "string"
						},
						{
							"internalType": "uint256",
							"name": "_amount",
							"type": "uint256"
						}
					],
					"name": "uen_send",
					"outputs": [
						{
							"internalType": "bool",
							"name": "",
							"type": "bool"
						}
					],
					"stateMutability": "nonpayable",
					"type": "function"
				},
				{
					"inputs": [
						{
							"internalType": "string",
							"name": "",
							"type": "string"
						}
					],
					"name": "uen_to_balance",
					"outputs": [
						{
							"internalType": "uint256",
							"name": "",
							"type": "uint256"
						}
					],
					"stateMutability": "view",
					"type": "function"
				}
			],
			"devdoc": {
				"errors": {
					"ERC20InsufficientAllowance(address,uint256,uint256)": [
						{
							"details": "Indicates a failure with the `spender`’s `allowance`. Used in transfers.",
							"params": {
								"allowance": "Amount of tokens a `spender` is allowed to operate with.",
								"needed": "Minimum amount required to perform a transfer.",
								"spender": "Address that may be allowed to operate on tokens without being their owner."
							}
						}
					],
					"ERC20InsufficientBalance(address,uint256,uint256)": [
						{
							"details": "Indicates an error related to the current `balance` of a `sender`. Used in transfers.",
							"params": {
								"balance": "Current balance for the interacting account.",
								"needed": "Minimum amount required to perform a transfer.",
								"sender": "Address whose tokens are being transferred."
							}
						}
					],
					"ERC20InvalidApprover(address)": [
						{
							"details": "Indicates a failure with the `approver` of a token to be approved. Used in approvals.",
							"params": {
								"approver": "Address initiating an approval operation."
							}
						}
					],
					"ERC20InvalidReceiver(address)": [
						{
							"details": "Indicates a failure with the token `receiver`. Used in transfers.",
							"params": {
								"receiver": "Address to which tokens are being transferred."
							}
						}
					],
					"ERC20InvalidSender(address)": [
						{
							"details": "Indicates a failure with the token `sender`. Used in transfers.",
							"params": {
								"sender": "Address whose tokens are being transferred."
							}
						}
					],
					"ERC20InvalidSpender(address)": [
						{
							"details": "Indicates a failure with the `spender` to be approved. Used in approvals.",
							"params": {
								"spender": "Address that may be allowed to operate on tokens without being their owner."
							}
						}
					]
				},
				"events": {
					"Approval(address,address,uint256)": {
						"details": "Emitted when the allowance of a `spender` for an `owner` is set by a call to {approve}. `value` is the new allowance."
					},
					"Transfer(address,address,uint256)": {
						"details": "Emitted when `value` tokens are moved from one account (`from`) to another (`to`). Note that `value` may be zero."
					}
				},
				"kind": "dev",
				"methods": {
					"decimals()": {
						"details": "Returns the number of decimals used to get its user representation. For example, if `decimals` equals `2`, a balance of `505` tokens should be displayed to a user as `5.05` (`505 / 10 ** 2`). Tokens usually opt for a value of 18, imitating the relationship between Ether and Wei. This is the default value returned by this function, unless it's overridden. NOTE: This information is only used for _display_ purposes: it in no way affects any of the arithmetic of the contract, including {IERC20-balanceOf} and {IERC20-transfer}."
					},
					"name()": {
						"details": "Returns the name of the token."
					},
					"symbol()": {
						"details": "Returns the symbol of the token, usually a shorter version of the name."
					},
					"totalSupply()": {
						"details": "See {IERC20-totalSupply}."
					}
				},
				"version": 1
			},
			"evm": {
				"assembly": "    /* \"sgdm.sol\":1251:8665  contract sgdm is ERC20 {... */\n  mstore(0x40, 0x80)\n    /* \"sgdm.sol\":1842:2506  constructor (address _targetToken, address _uen_management_contract_address, address _admin_management_contract_address, address _whitelist_management_contract_address) ERC20 (\"SGDm\", \"SGDm\") {... */\n  callvalue\n  dup1\n  iszero\n  tag_1\n  jumpi\n  0x00\n  dup1\n  revert\ntag_1:\n  pop\n  mload(0x40)\n  sub(codesize, bytecodeSize)\n  dup1\n  bytecodeSize\n  dup4\n  codecopy\n  dup2\n  dup2\n  add\n  0x40\n  mstore\n  dup2\n  add\n  swap1\n  tag_2\n  swap2\n  swap1\n  tag_3\n  jump\t// in\ntag_2:\n    /* \"@openzeppelin/contracts/token/ERC20/ERC20.sol\":1896:2009  constructor(string memory name_, string memory symbol_) {... */\n  mload(0x40)\n  dup1\n  0x40\n  add\n  0x40\n  mstore\n  dup1\n  0x04\n  dup2\n  mstore\n  0x20\n  add\n  0x5347446d00000000000000000000000000000000000000000000000000000000\n  dup2\n  mstore\n  pop\n  mload(0x40)\n  dup1\n  0x40\n  add\n  0x40\n  mstore\n  dup1\n  0x04\n  dup2\n  mstore\n  0x20\n  add\n  0x5347446d00000000000000000000000000000000000000000000000000000000\n  dup2\n  mstore\n  pop\n    /* \"@openzeppelin/contracts/token/ERC20/ERC20.sol\":1970:1975  name_ */\n  dup2\n    /* \"@openzeppelin/contracts/token/ERC20/ERC20.sol\":1962:1967  _name */\n  0x03\n    /* \"@openzeppelin/contracts/token/ERC20/ERC20.sol\":1962:1975  _name = name_ */\n  swap1\n  dup2\n  tag_7\n  swap2\n  swap1\n  tag_8\n  jump\t// in\ntag_7:\n  pop\n    /* \"@openzeppelin/contracts/token/ERC20/ERC20.sol\":1995:2002  symbol_ */\n  dup1\n    /* \"@openzeppelin/contracts/token/ERC20/ERC20.sol\":1985:1992  _symbol */\n  0x04\n    /* \"@openzeppelin/contracts/token/ERC20/ERC20.sol\":1985:2002  _symbol = symbol_ */\n  swap1\n  dup2\n  tag_9\n  swap2\n  swap1\n  tag_8\n  jump\t// in\ntag_9:\n  pop\n    /* \"@openzeppelin/contracts/token/ERC20/ERC20.sol\":1896:2009  constructor(string memory name_, string memory symbol_) {... */\n  pop\n  pop\n    /* \"sgdm.sol\":2092:2104  _targetToken */\n  dup4\n    /* \"sgdm.sol\":2071:2082  targetToken */\n  0x05\n  0x00\n    /* \"sgdm.sol\":2071:2105  targetToken = IERC20(_targetToken) */\n  0x0100\n  exp\n  dup2\n  sload\n  dup2\n  0xffffffffffffffffffffffffffffffffffffffff\n  mul\n  not\n  and\n  swap1\n  dup4\n  0xffffffffffffffffffffffffffffffffffffffff\n  and\n  mul\n  or\n  swap1\n  sstore\n  pop\n    /* \"sgdm.sol\":2181:2213  _uen_management_contract_address */\n  dup3\n    /* \"sgdm.sol\":2139:2162  uen_management_contract */\n  0x09\n  0x00\n    /* \"sgdm.sol\":2139:2214  uen_management_contract = Iuen_management(_uen_management_contract_address) */\n  0x0100\n  exp\n  dup2\n  sload\n  dup2\n  0xffffffffffffffffffffffffffffffffffffffff\n  mul\n  not\n  and\n  swap1\n  dup4\n  0xffffffffffffffffffffffffffffffffffffffff\n  and\n  mul\n  or\n  swap1\n  sstore\n  pop\n    /* \"sgdm.sol\":2305:2339  _admin_management_contract_address */\n  dup2\n    /* \"sgdm.sol\":2259:2284  admin_management_contract */\n  0x07\n  0x00\n    /* \"sgdm.sol\":2259:2340  admin_management_contract = Iadmin_management(_admin_management_contract_address) */\n  0x0100\n  exp\n  dup2\n  sload\n  dup2\n  0xffffffffffffffffffffffffffffffffffffffff\n  mul\n  not\n  and\n  swap1\n  dup4\n  0xffffffffffffffffffffffffffffffffffffffff\n  and\n  mul\n  or\n  swap1\n  sstore\n  pop\n    /* \"sgdm.sol\":2353:2378  admin_management_contract */\n  0x07\n  0x00\n  swap1\n  sload\n  swap1\n  0x0100\n  exp\n  swap1\n  div\n  0xffffffffffffffffffffffffffffffffffffffff\n  and\n    /* \"sgdm.sol\":2353:2389  admin_management_contract.get_admins */\n  0xffffffffffffffffffffffffffffffffffffffff\n  and\n  0x8794b69d\n    /* \"sgdm.sol\":2353:2391  admin_management_contract.get_admins() */\n  mload(0x40)\n  dup2\n  0xffffffff\n  and\n  0xe0\n  shl\n  dup2\n  mstore\n  0x04\n  add\n  0x00\n  mload(0x40)\n  dup1\n  dup4\n  sub\n  dup2\n  dup7\n  gas\n  staticcall\n  iszero\n  dup1\n  iszero\n  tag_12\n  jumpi\n  returndatasize\n  0x00\n  dup1\n  returndatacopy\n  revert(0x00, returndatasize)\ntag_12:\n  pop\n  pop\n  pop\n  pop\n  mload(0x40)\n  returndatasize\n  0x00\n  dup3\n  returndatacopy\n  returndatasize\n  not(0x1f)\n  0x1f\n  dup3\n  add\n  and\n  dup3\n  add\n  dup1\n  0x40\n  mstore\n  pop\n  dup2\n  add\n  swap1\n  tag_13\n  swap2\n  swap1\n  tag_14\n  jump\t// in\ntag_13:\n    /* \"sgdm.sol\":2344:2350  admins */\n  0x08\n    /* \"sgdm.sol\":2344:2391  admins = admin_management_contract.get_admins() */\n  swap1\n  dup1\n  mload\n  swap1\n  0x20\n  add\n  swap1\n  tag_15\n  swap3\n  swap2\n  swap1\n  tag_16\n  jump\t// in\ntag_15:\n  pop\n    /* \"sgdm.sol\":2463:2501  _whitelist_management_contract_address */\n  dup1\n    /* \"sgdm.sol\":2431:2449  whitelist_contract */\n  0x0a\n  0x00\n    /* \"sgdm.sol\":2431:2502  whitelist_contract = Iwhitelist(_whitelist_management_contract_address) */\n  0x0100\n  exp\n  dup2\n  sload\n  dup2\n  0xffffffffffffffffffffffffffffffffffffffff\n  mul\n  not\n  and\n  swap1\n  dup4\n  0xffffffffffffffffffffffffffffffffffffffff\n  and\n  mul\n  or\n  swap1\n  sstore\n  pop\n    /* \"sgdm.sol\":1842:2506  constructor (address _targetToken, address _uen_management_contract_address, address _admin_management_contract_address, address _whitelist_management_contract_address) ERC20 (\"SGDm\", \"SGDm\") {... */\n  pop\n  pop\n  pop\n  pop\n    /* \"sgdm.sol\":1251:8665  contract sgdm is ERC20 {... */\n  jump(tag_17)\ntag_16:\n  dup3\n  dup1\n  sload\n  dup3\n  dup3\n  sstore\n  swap1\n  0x00\n  mstore\n  keccak256(0x00, 0x20)\n  swap1\n  dup2\n  add\n  swap3\n  dup3\n  iszero\n  tag_18\n  jumpi\n  swap2\n  0x20\n  mul\n  dup3\n  add\ntag_19:\n  dup3\n  dup2\n  gt\n  iszero\n  tag_20\n  jumpi\n  dup3\n  mload\n  dup3\n  exp(0x0100, 0x00)\n  dup2\n  sload\n  dup2\n  0xffffffffffffffffffffffffffffffffffffffff\n  mul\n  not\n  and\n  swap1\n  dup4\n  0xffffffffffffffffffffffffffffffffffffffff\n  and\n  mul\n  or\n  swap1\n  sstore\n  pop\n  swap2\n  0x20\n  add\n  swap2\n  swap1\n  0x01\n  add\n  swap1\n  jump(tag_19)\ntag_20:\ntag_18:\n  pop\n  swap1\n  pop\n  tag_21\n  swap2\n  swap1\n  tag_22\n  jump\t// in\ntag_21:\n  pop\n  swap1\n  jump\t// out\ntag_22:\ntag_23:\n  dup1\n  dup3\n  gt\n  iszero\n  tag_24\n  jumpi\n  0x00\n  dup2\n  0x00\n  swap1\n  sstore\n  pop\n  0x01\n  add\n  jump(tag_23)\ntag_24:\n  pop\n  swap1\n  jump\t// out\n    /* \"#utility.yul\":7:82   */\ntag_25:\n    /* \"#utility.yul\":40:46   */\n  0x00\n    /* \"#utility.yul\":73:75   */\n  0x40\n    /* \"#utility.yul\":67:76   */\n  mload\n    /* \"#utility.yul\":57:76   */\n  swap1\n  pop\n    /* \"#utility.yul\":7:82   */\n  swap1\n  jump\t// out\n    /* \"#utility.yul\":88:205   */\ntag_26:\n    /* \"#utility.yul\":197:198   */\n  0x00\n    /* \"#utility.yul\":194:195   */\n  dup1\n    /* \"#utility.yul\":187:199   */\n  revert\n    /* \"#utility.yul\":211:328   */\ntag_27:\n    /* \"#utility.yul\":320:321   */\n  0x00\n    /* \"#utility.yul\":317:318   */\n  dup1\n    /* \"#utility.yul\":310:322   */\n  revert\n    /* \"#utility.yul\":334:460   */\ntag_28:\n    /* \"#utility.yul\":371:378   */\n  0x00\n    /* \"#utility.yul\":411:453   */\n  0xffffffffffffffffffffffffffffffffffffffff\n    /* \"#utility.yul\":404:409   */\n  dup3\n    /* \"#utility.yul\":400:454   */\n  and\n    /* \"#utility.yul\":389:454   */\n  swap1\n  pop\n    /* \"#utility.yul\":334:460   */\n  swap2\n  swap1\n  pop\n  jump\t// out\n    /* \"#utility.yul\":466:562   */\ntag_29:\n    /* \"#utility.yul\":503:510   */\n  0x00\n    /* \"#utility.yul\":532:556   */\n  tag_66\n    /* \"#utility.yul\":550:555   */\n  dup3\n    /* \"#utility.yul\":532:556   */\n  tag_28\n  jump\t// in\ntag_66:\n    /* \"#utility.yul\":521:556   */\n  swap1\n  pop\n    /* \"#utility.yul\":466:562   */\n  swap2\n  swap1\n  pop\n  jump\t// out\n    /* \"#utility.yul\":568:690   */\ntag_30:\n    /* \"#utility.yul\":641:665   */\n  tag_68\n    /* \"#utility.yul\":659:664   */\n  dup2\n    /* \"#utility.yul\":641:665   */\n  tag_29\n  jump\t// in\ntag_68:\n    /* \"#utility.yul\":634:639   */\n  dup2\n    /* \"#utility.yul\":631:666   */\n  eq\n    /* \"#utility.yul\":621:684   */\n  tag_69\n  jumpi\n    /* \"#utility.yul\":680:681   */\n  0x00\n    /* \"#utility.yul\":677:678   */\n  dup1\n    /* \"#utility.yul\":670:682   */\n  revert\n    /* \"#utility.yul\":621:684   */\ntag_69:\n    /* \"#utility.yul\":568:690   */\n  pop\n  jump\t// out\n    /* \"#utility.yul\":696:839   */\ntag_31:\n    /* \"#utility.yul\":753:758   */\n  0x00\n    /* \"#utility.yul\":784:790   */\n  dup2\n    /* \"#utility.yul\":778:791   */\n  mload\n    /* \"#utility.yul\":769:791   */\n  swap1\n  pop\n    /* \"#utility.yul\":800:833   */\n  tag_71\n    /* \"#utility.yul\":827:832   */\n  dup2\n    /* \"#utility.yul\":800:833   */\n  tag_30\n  jump\t// in\ntag_71:\n    /* \"#utility.yul\":696:839   */\n  swap3\n  swap2\n  pop\n  pop\n  jump\t// out\n    /* \"#utility.yul\":845:1665   */\ntag_3:\n    /* \"#utility.yul\":942:948   */\n  0x00\n    /* \"#utility.yul\":950:956   */\n  dup1\n    /* \"#utility.yul\":958:964   */\n  0x00\n    /* \"#utility.yul\":966:972   */\n  dup1\n    /* \"#utility.yul\":1015:1018   */\n  0x80\n    /* \"#utility.yul\":1003:1012   */\n  dup6\n    /* \"#utility.yul\":994:1001   */\n  dup8\n    /* \"#utility.yul\":990:1013   */\n  sub\n    /* \"#utility.yul\":986:1019   */\n  slt\n    /* \"#utility.yul\":983:1103   */\n  iszero\n  tag_73\n  jumpi\n    /* \"#utility.yul\":1022:1101   */\n  tag_74\n  tag_26\n  jump\t// in\ntag_74:\n    /* \"#utility.yul\":983:1103   */\ntag_73:\n    /* \"#utility.yul\":1142:1143   */\n  0x00\n    /* \"#utility.yul\":1167:1231   */\n  tag_75\n    /* \"#utility.yul\":1223:1230   */\n  dup8\n    /* \"#utility.yul\":1214:1220   */\n  dup3\n    /* \"#utility.yul\":1203:1212   */\n  dup9\n    /* \"#utility.yul\":1199:1221   */\n  add\n    /* \"#utility.yul\":1167:1231   */\n  tag_31\n  jump\t// in\ntag_75:\n    /* \"#utility.yul\":1157:1231   */\n  swap5\n  pop\n    /* \"#utility.yul\":1113:1241   */\n  pop\n    /* \"#utility.yul\":1280:1282   */\n  0x20\n    /* \"#utility.yul\":1306:1370   */\n  tag_76\n    /* \"#utility.yul\":1362:1369   */\n  dup8\n    /* \"#utility.yul\":1353:1359   */\n  dup3\n    /* \"#utility.yul\":1342:1351   */\n  dup9\n    /* \"#utility.yul\":1338:1360   */\n  add\n    /* \"#utility.yul\":1306:1370   */\n  tag_31\n  jump\t// in\ntag_76:\n    /* \"#utility.yul\":1296:1370   */\n  swap4\n  pop\n    /* \"#utility.yul\":1251:1380   */\n  pop\n    /* \"#utility.yul\":1419:1421   */\n  0x40\n    /* \"#utility.yul\":1445:1509   */\n  tag_77\n    /* \"#utility.yul\":1501:1508   */\n  dup8\n    /* \"#utility.yul\":1492:1498   */\n  dup3\n    /* \"#utility.yul\":1481:1490   */\n  dup9\n    /* \"#utility.yul\":1477:1499   */\n  add\n    /* \"#utility.yul\":1445:1509   */\n  tag_31\n  jump\t// in\ntag_77:\n    /* \"#utility.yul\":1435:1509   */\n  swap3\n  pop\n    /* \"#utility.yul\":1390:1519   */\n  pop\n    /* \"#utility.yul\":1558:1560   */\n  0x60\n    /* \"#utility.yul\":1584:1648   */\n  tag_78\n    /* \"#utility.yul\":1640:1647   */\n  dup8\n    /* \"#utility.yul\":1631:1637   */\n  dup3\n    /* \"#utility.yul\":1620:1629   */\n  dup9\n    /* \"#utility.yul\":1616:1638   */\n  add\n    /* \"#utility.yul\":1584:1648   */\n  tag_31\n  jump\t// in\ntag_78:\n    /* \"#utility.yul\":1574:1648   */\n  swap2\n  pop\n    /* \"#utility.yul\":1529:1658   */\n  pop\n    /* \"#utility.yul\":845:1665   */\n  swap3\n  swap6\n  swap2\n  swap5\n  pop\n  swap3\n  pop\n  jump\t// out\n    /* \"#utility.yul\":1671:1770   */\ntag_32:\n    /* \"#utility.yul\":1723:1729   */\n  0x00\n    /* \"#utility.yul\":1757:1762   */\n  dup2\n    /* \"#utility.yul\":1751:1763   */\n  mload\n    /* \"#utility.yul\":1741:1763   */\n  swap1\n  pop\n    /* \"#utility.yul\":1671:1770   */\n  swap2\n  swap1\n  pop\n  jump\t// out\n    /* \"#utility.yul\":1776:1956   */\ntag_33:\n    /* \"#utility.yul\":1824:1901   */\n  0x4e487b7100000000000000000000000000000000000000000000000000000000\n    /* \"#utility.yul\":1821:1822   */\n  0x00\n    /* \"#utility.yul\":1814:1902   */\n  mstore\n    /* \"#utility.yul\":1921:1925   */\n  0x41\n    /* \"#utility.yul\":1918:1919   */\n  0x04\n    /* \"#utility.yul\":1911:1926   */\n  mstore\n    /* \"#utility.yul\":1945:1949   */\n  0x24\n    /* \"#utility.yul\":1942:1943   */\n  0x00\n    /* \"#utility.yul\":1935:1950   */\n  revert\n    /* \"#utility.yul\":1962:2142   */\ntag_34:\n    /* \"#utility.yul\":2010:2087   */\n  0x4e487b7100000000000000000000000000000000000000000000000000000000\n    /* \"#utility.yul\":2007:2008   */\n  0x00\n    /* \"#utility.yul\":2000:2088   */\n  mstore\n    /* \"#utility.yul\":2107:2111   */\n  0x22\n    /* \"#utility.yul\":2104:2105   */\n  0x04\n    /* \"#utility.yul\":2097:2112   */\n  mstore\n    /* \"#utility.yul\":2131:2135   */\n  0x24\n    /* \"#utility.yul\":2128:2129   */\n  0x00\n    /* \"#utility.yul\":2121:2136   */\n  revert\n    /* \"#utility.yul\":2148:2468   */\ntag_35:\n    /* \"#utility.yul\":2192:2198   */\n  0x00\n    /* \"#utility.yul\":2229:2230   */\n  0x02\n    /* \"#utility.yul\":2223:2227   */\n  dup3\n    /* \"#utility.yul\":2219:2231   */\n  div\n    /* \"#utility.yul\":2209:2231   */\n  swap1\n  pop\n    /* \"#utility.yul\":2276:2277   */\n  0x01\n    /* \"#utility.yul\":2270:2274   */\n  dup3\n    /* \"#utility.yul\":2266:2278   */\n  and\n    /* \"#utility.yul\":2297:2315   */\n  dup1\n    /* \"#utility.yul\":2287:2368   */\n  tag_83\n  jumpi\n    /* \"#utility.yul\":2353:2357   */\n  0x7f\n    /* \"#utility.yul\":2345:2351   */\n  dup3\n    /* \"#utility.yul\":2341:2358   */\n  and\n    /* \"#utility.yul\":2331:2358   */\n  swap2\n  pop\n    /* \"#utility.yul\":2287:2368   */\ntag_83:\n    /* \"#utility.yul\":2415:2417   */\n  0x20\n    /* \"#utility.yul\":2407:2413   */\n  dup3\n    /* \"#utility.yul\":2404:2418   */\n  lt\n    /* \"#utility.yul\":2384:2402   */\n  dup2\n    /* \"#utility.yul\":2381:2419   */\n  sub\n    /* \"#utility.yul\":2378:2462   */\n  tag_84\n  jumpi\n    /* \"#utility.yul\":2434:2452   */\n  tag_85\n  tag_34\n  jump\t// in\ntag_85:\n    /* \"#utility.yul\":2378:2462   */\ntag_84:\n    /* \"#utility.yul\":2199:2468   */\n  pop\n    /* \"#utility.yul\":2148:2468   */\n  swap2\n  swap1\n  pop\n  jump\t// out\n    /* \"#utility.yul\":2474:2615   */\ntag_36:\n    /* \"#utility.yul\":2523:2527   */\n  0x00\n    /* \"#utility.yul\":2546:2549   */\n  dup2\n    /* \"#utility.yul\":2538:2549   */\n  swap1\n  pop\n    /* \"#utility.yul\":2569:2572   */\n  dup2\n    /* \"#utility.yul\":2566:2567   */\n  0x00\n    /* \"#utility.yul\":2559:2573   */\n  mstore\n    /* \"#utility.yul\":2603:2607   */\n  0x20\n    /* \"#utility.yul\":2600:2601   */\n  0x00\n    /* \"#utility.yul\":2590:2608   */\n  keccak256\n    /* \"#utility.yul\":2582:2608   */\n  swap1\n  pop\n    /* \"#utility.yul\":2474:2615   */\n  swap2\n  swap1\n  pop\n  jump\t// out\n    /* \"#utility.yul\":2621:2714   */\ntag_37:\n    /* \"#utility.yul\":2658:2664   */\n  0x00\n    /* \"#utility.yul\":2705:2707   */\n  0x20\n    /* \"#utility.yul\":2700:2702   */\n  0x1f\n    /* \"#utility.yul\":2693:2698   */\n  dup4\n    /* \"#utility.yul\":2689:2703   */\n  add\n    /* \"#utility.yul\":2685:2708   */\n  div\n    /* \"#utility.yul\":2675:2708   */\n  swap1\n  pop\n    /* \"#utility.yul\":2621:2714   */\n  swap2\n  swap1\n  pop\n  jump\t// out\n    /* \"#utility.yul\":2720:2827   */\ntag_38:\n    /* \"#utility.yul\":2764:2772   */\n  0x00\n    /* \"#utility.yul\":2814:2819   */\n  dup3\n    /* \"#utility.yul\":2808:2812   */\n  dup3\n    /* \"#utility.yul\":2804:2820   */\n  shl\n    /* \"#utility.yul\":2783:2820   */\n  swap1\n  pop\n    /* \"#utility.yul\":2720:2827   */\n  swap3\n  swap2\n  pop\n  pop\n  jump\t// out\n    /* \"#utility.yul\":2833:3226   */\ntag_39:\n    /* \"#utility.yul\":2902:2908   */\n  0x00\n    /* \"#utility.yul\":2952:2953   */\n  0x08\n    /* \"#utility.yul\":2940:2950   */\n  dup4\n    /* \"#utility.yul\":2936:2954   */\n  mul\n    /* \"#utility.yul\":2975:3072   */\n  tag_90\n    /* \"#utility.yul\":3005:3071   */\n  0xffffffffffffffffffffffffffffffffffffffffffffffffffffffffffffffff\n    /* \"#utility.yul\":2994:3003   */\n  dup3\n    /* \"#utility.yul\":2975:3072   */\n  tag_38\n  jump\t// in\ntag_90:\n    /* \"#utility.yul\":3093:3132   */\n  tag_91\n    /* \"#utility.yul\":3123:3131   */\n  dup7\n    /* \"#utility.yul\":3112:3121   */\n  dup4\n    /* \"#utility.yul\":3093:3132   */\n  tag_38\n  jump\t// in\ntag_91:\n    /* \"#utility.yul\":3081:3132   */\n  swap6\n  pop\n    /* \"#utility.yul\":3165:3169   */\n  dup1\n    /* \"#utility.yul\":3161:3170   */\n  not\n    /* \"#utility.yul\":3154:3159   */\n  dup5\n    /* \"#utility.yul\":3150:3171   */\n  and\n    /* \"#utility.yul\":3141:3171   */\n  swap4\n  pop\n    /* \"#utility.yul\":3214:3218   */\n  dup1\n    /* \"#utility.yul\":3204:3212   */\n  dup7\n    /* \"#utility.yul\":3200:3219   */\n  and\n    /* \"#utility.yul\":3193:3198   */\n  dup5\n    /* \"#utility.yul\":3190:3220   */\n  or\n    /* \"#utility.yul\":3180:3220   */\n  swap3\n  pop\n    /* \"#utility.yul\":2909:3226   */\n  pop\n  pop\n    /* \"#utility.yul\":2833:3226   */\n  swap4\n  swap3\n  pop\n  pop\n  pop\n  jump\t// out\n    /* \"#utility.yul\":3232:3309   */\ntag_40:\n    /* \"#utility.yul\":3269:3276   */\n  0x00\n    /* \"#utility.yul\":3298:3303   */\n  dup2\n    /* \"#utility.yul\":3287:3303   */\n  swap1\n  pop\n    /* \"#utility.yul\":3232:3309   */\n  swap2\n  swap1\n  pop\n  jump\t// out\n    /* \"#utility.yul\":3315:3375   */\ntag_41:\n    /* \"#utility.yul\":3343:3346   */\n  0x00\n    /* \"#utility.yul\":3364:3369   */\n  dup2\n    /* \"#utility.yul\":3357:3369   */\n  swap1\n  pop\n    /* \"#utility.yul\":3315:3375   */\n  swap2\n  swap1\n  pop\n  jump\t// out\n    /* \"#utility.yul\":3381:3523   */\ntag_42:\n    /* \"#utility.yul\":3431:3440   */\n  0x00\n    /* \"#utility.yul\":3464:3517   */\n  tag_95\n    /* \"#utility.yul\":3482:3516   */\n  tag_96\n    /* \"#utility.yul\":3491:3515   */\n  tag_97\n    /* \"#utility.yul\":3509:3514   */\n  dup5\n    /* \"#utility.yul\":3491:3515   */\n  tag_40\n  jump\t// in\ntag_97:\n    /* \"#utility.yul\":3482:3516   */\n  tag_41\n  jump\t// in\ntag_96:\n    /* \"#utility.yul\":3464:3517   */\n  tag_40\n  jump\t// in\ntag_95:\n    /* \"#utility.yul\":3451:3517   */\n  swap1\n  pop\n    /* \"#utility.yul\":3381:3523   */\n  swap2\n  swap1\n  pop\n  jump\t// out\n    /* \"#utility.yul\":3529:3604   */\ntag_43:\n    /* \"#utility.yul\":3572:3575   */\n  0x00\n    /* \"#utility.yul\":3593:3598   */\n  dup2\n    /* \"#utility.yul\":3586:3598   */\n  swap1\n  pop\n    /* \"#utility.yul\":3529:3604   */\n  swap2\n  swap1\n  pop\n  jump\t// out\n    /* \"#utility.yul\":3610:3879   */\ntag_44:\n    /* \"#utility.yul\":3720:3759   */\n  tag_100\n    /* \"#utility.yul\":3751:3758   */\n  dup4\n    /* \"#utility.yul\":3720:3759   */\n  tag_42\n  jump\t// in\ntag_100:\n    /* \"#utility.yul\":3781:3872   */\n  tag_101\n    /* \"#utility.yul\":3830:3871   */\n  tag_102\n    /* \"#utility.yul\":3854:3870   */\n  dup3\n    /* \"#utility.yul\":3830:3871   */\n  tag_43\n  jump\t// in\ntag_102:\n    /* \"#utility.yul\":3822:3828   */\n  dup5\n    /* \"#utility.yul\":3815:3819   */\n  dup5\n    /* \"#utility.yul\":3809:3820   */\n  sload\n    /* \"#utility.yul\":3781:3872   */\n  tag_39\n  jump\t// in\ntag_101:\n    /* \"#utility.yul\":3775:3779   */\n  dup3\n    /* \"#utility.yul\":3768:3873   */\n  sstore\n    /* \"#utility.yul\":3686:3879   */\n  pop\n    /* \"#utility.yul\":3610:3879   */\n  pop\n  pop\n  pop\n  jump\t// out\n    /* \"#utility.yul\":3885:3958   */\ntag_45:\n    /* \"#utility.yul\":3930:3933   */\n  0x00\n    /* \"#utility.yul\":3885:3958   */\n  swap1\n  jump\t// out\n    /* \"#utility.yul\":3964:4153   */\ntag_46:\n    /* \"#utility.yul\":4041:4073   */\n  tag_105\n  tag_45\n  jump\t// in\ntag_105:\n    /* \"#utility.yul\":4082:4147   */\n  tag_106\n    /* \"#utility.yul\":4140:4146   */\n  dup2\n    /* \"#utility.yul\":4132:4138   */\n  dup5\n    /* \"#utility.yul\":4126:4130   */\n  dup5\n    /* \"#utility.yul\":4082:4147   */\n  tag_44\n  jump\t// in\ntag_106:\n    /* \"#utility.yul\":4017:4153   */\n  pop\n    /* \"#utility.yul\":3964:4153   */\n  pop\n  pop\n  jump\t// out\n    /* \"#utility.yul\":4159:4345   */\ntag_47:\n    /* \"#utility.yul\":4219:4339   */\ntag_108:\n    /* \"#utility.yul\":4236:4239   */\n  dup2\n    /* \"#utility.yul\":4229:4234   */\n  dup2\n    /* \"#utility.yul\":4226:4240   */\n  lt\n    /* \"#utility.yul\":4219:4339   */\n  iszero\n  tag_110\n  jumpi\n    /* \"#utility.yul\":4290:4329   */\n  tag_111\n    /* \"#utility.yul\":4327:4328   */\n  0x00\n    /* \"#utility.yul\":4320:4325   */\n  dup3\n    /* \"#utility.yul\":4290:4329   */\n  tag_46\n  jump\t// in\ntag_111:\n    /* \"#utility.yul\":4263:4264   */\n  0x01\n    /* \"#utility.yul\":4256:4261   */\n  dup2\n    /* \"#utility.yul\":4252:4265   */\n  add\n    /* \"#utility.yul\":4243:4265   */\n  swap1\n  pop\n    /* \"#utility.yul\":4219:4339   */\n  jump(tag_108)\ntag_110:\n    /* \"#utility.yul\":4159:4345   */\n  pop\n  pop\n  jump\t// out\n    /* \"#utility.yul\":4351:4894   */\ntag_48:\n    /* \"#utility.yul\":4452:4454   */\n  0x1f\n    /* \"#utility.yul\":4447:4450   */\n  dup3\n    /* \"#utility.yul\":4444:4455   */\n  gt\n    /* \"#utility.yul\":4441:4887   */\n  iszero\n  tag_113\n  jumpi\n    /* \"#utility.yul\":4486:4524   */\n  tag_114\n    /* \"#utility.yul\":4518:4523   */\n  dup2\n    /* \"#utility.yul\":4486:4524   */\n  tag_36\n  jump\t// in\ntag_114:\n    /* \"#utility.yul\":4570:4599   */\n  tag_115\n    /* \"#utility.yul\":4588:4598   */\n  dup5\n    /* \"#utility.yul\":4570:4599   */\n  tag_37\n  jump\t// in\ntag_115:\n    /* \"#utility.yul\":4560:4568   */\n  dup2\n    /* \"#utility.yul\":4556:4600   */\n  add\n    /* \"#utility.yul\":4753:4755   */\n  0x20\n    /* \"#utility.yul\":4741:4751   */\n  dup6\n    /* \"#utility.yul\":4738:4756   */\n  lt\n    /* \"#utility.yul\":4735:4784   */\n  iszero\n  tag_116\n  jumpi\n    /* \"#utility.yul\":4774:4782   */\n  dup2\n    /* \"#utility.yul\":4759:4782   */\n  swap1\n  pop\n    /* \"#utility.yul\":4735:4784   */\ntag_116:\n    /* \"#utility.yul\":4797:4877   */\n  tag_117\n    /* \"#utility.yul\":4853:4875   */\n  tag_118\n    /* \"#utility.yul\":4871:4874   */\n  dup6\n    /* \"#utility.yul\":4853:4875   */\n  tag_37\n  jump\t// in\ntag_118:\n    /* \"#utility.yul\":4843:4851   */\n  dup4\n    /* \"#utility.yul\":4839:4876   */\n  add\n    /* \"#utility.yul\":4826:4837   */\n  dup3\n    /* \"#utility.yul\":4797:4877   */\n  tag_47\n  jump\t// in\ntag_117:\n    /* \"#utility.yul\":4456:4887   */\n  pop\n  pop\n    /* \"#utility.yul\":4441:4887   */\ntag_113:\n    /* \"#utility.yul\":4351:4894   */\n  pop\n  pop\n  pop\n  jump\t// out\n    /* \"#utility.yul\":4900:5017   */\ntag_49:\n    /* \"#utility.yul\":4954:4962   */\n  0x00\n    /* \"#utility.yul\":5004:5009   */\n  dup3\n    /* \"#utility.yul\":4998:5002   */\n  dup3\n    /* \"#utility.yul\":4994:5010   */\n  shr\n    /* \"#utility.yul\":4973:5010   */\n  swap1\n  pop\n    /* \"#utility.yul\":4900:5017   */\n  swap3\n  swap2\n  pop\n  pop\n  jump\t// out\n    /* \"#utility.yul\":5023:5192   */\ntag_50:\n    /* \"#utility.yul\":5067:5073   */\n  0x00\n    /* \"#utility.yul\":5100:5151   */\n  tag_121\n    /* \"#utility.yul\":5148:5149   */\n  0x00\n    /* \"#utility.yul\":5144:5150   */\n  not\n    /* \"#utility.yul\":5136:5141   */\n  dup5\n    /* \"#utility.yul\":5133:5134   */\n  0x08\n    /* \"#utility.yul\":5129:5142   */\n  mul\n    /* \"#utility.yul\":5100:5151   */\n  tag_49\n  jump\t// in\ntag_121:\n    /* \"#utility.yul\":5096:5152   */\n  not\n    /* \"#utility.yul\":5181:5185   */\n  dup1\n    /* \"#utility.yul\":5175:5179   */\n  dup4\n    /* \"#utility.yul\":5171:5186   */\n  and\n    /* \"#utility.yul\":5161:5186   */\n  swap2\n  pop\n    /* \"#utility.yul\":5074:5192   */\n  pop\n    /* \"#utility.yul\":5023:5192   */\n  swap3\n  swap2\n  pop\n  pop\n  jump\t// out\n    /* \"#utility.yul\":5197:5492   */\ntag_51:\n    /* \"#utility.yul\":5273:5277   */\n  0x00\n    /* \"#utility.yul\":5419:5448   */\n  tag_123\n    /* \"#utility.yul\":5444:5447   */\n  dup4\n    /* \"#utility.yul\":5438:5442   */\n  dup4\n    /* \"#utility.yul\":5419:5448   */\n  tag_50\n  jump\t// in\ntag_123:\n    /* \"#utility.yul\":5411:5448   */\n  swap2\n  pop\n    /* \"#utility.yul\":5481:5484   */\n  dup3\n    /* \"#utility.yul\":5478:5479   */\n  0x02\n    /* \"#utility.yul\":5474:5485   */\n  mul\n    /* \"#utility.yul\":5468:5472   */\n  dup3\n    /* \"#utility.yul\":5465:5486   */\n  or\n    /* \"#utility.yul\":5457:5486   */\n  swap1\n  pop\n    /* \"#utility.yul\":5197:5492   */\n  swap3\n  swap2\n  pop\n  pop\n  jump\t// out\n    /* \"#utility.yul\":5497:6892   */\ntag_8:\n    /* \"#utility.yul\":5614:5651   */\n  tag_125\n    /* \"#utility.yul\":5647:5650   */\n  dup3\n    /* \"#utility.yul\":5614:5651   */\n  tag_32\n  jump\t// in\ntag_125:\n    /* \"#utility.yul\":5716:5734   */\n  0xffffffffffffffff\n    /* \"#utility.yul\":5708:5714   */\n  dup2\n    /* \"#utility.yul\":5705:5735   */\n  gt\n    /* \"#utility.yul\":5702:5758   */\n  iszero\n  tag_126\n  jumpi\n    /* \"#utility.yul\":5738:5756   */\n  tag_127\n  tag_33\n  jump\t// in\ntag_127:\n    /* \"#utility.yul\":5702:5758   */\ntag_126:\n    /* \"#utility.yul\":5782:5820   */\n  tag_128\n    /* \"#utility.yul\":5814:5818   */\n  dup3\n    /* \"#utility.yul\":5808:5819   */\n  sload\n    /* \"#utility.yul\":5782:5820   */\n  tag_35\n  jump\t// in\ntag_128:\n    /* \"#utility.yul\":5867:5934   */\n  tag_129\n    /* \"#utility.yul\":5927:5933   */\n  dup3\n    /* \"#utility.yul\":5919:5925   */\n  dup3\n    /* \"#utility.yul\":5913:5917   */\n  dup6\n    /* \"#utility.yul\":5867:5934   */\n  tag_48\n  jump\t// in\ntag_129:\n    /* \"#utility.yul\":5961:5962   */\n  0x00\n    /* \"#utility.yul\":5985:5989   */\n  0x20\n    /* \"#utility.yul\":5972:5989   */\n  swap1\n  pop\n    /* \"#utility.yul\":6017:6019   */\n  0x1f\n    /* \"#utility.yul\":6009:6015   */\n  dup4\n    /* \"#utility.yul\":6006:6020   */\n  gt\n    /* \"#utility.yul\":6034:6035   */\n  0x01\n    /* \"#utility.yul\":6029:6647   */\n  dup2\n  eq\n  tag_131\n  jumpi\n    /* \"#utility.yul\":6691:6692   */\n  0x00\n    /* \"#utility.yul\":6708:6714   */\n  dup5\n    /* \"#utility.yul\":6705:6782   */\n  iszero\n  tag_132\n  jumpi\n    /* \"#utility.yul\":6757:6766   */\n  dup3\n    /* \"#utility.yul\":6752:6755   */\n  dup8\n    /* \"#utility.yul\":6748:6767   */\n  add\n    /* \"#utility.yul\":6742:6768   */\n  mload\n    /* \"#utility.yul\":6733:6768   */\n  swap1\n  pop\n    /* \"#utility.yul\":6705:6782   */\ntag_132:\n    /* \"#utility.yul\":6808:6875   */\n  tag_133\n    /* \"#utility.yul\":6868:6874   */\n  dup6\n    /* \"#utility.yul\":6861:6866   */\n  dup3\n    /* \"#utility.yul\":6808:6875   */\n  tag_51\n  jump\t// in\ntag_133:\n    /* \"#utility.yul\":6802:6806   */\n  dup7\n    /* \"#utility.yul\":6795:6876   */\n  sstore\n    /* \"#utility.yul\":6664:6886   */\n  pop\n    /* \"#utility.yul\":5999:6886   */\n  jump(tag_130)\n    /* \"#utility.yul\":6029:6647   */\ntag_131:\n    /* \"#utility.yul\":6081:6085   */\n  0x1f\n    /* \"#utility.yul\":6077:6086   */\n  not\n    /* \"#utility.yul\":6069:6075   */\n  dup5\n    /* \"#utility.yul\":6065:6087   */\n  and\n    /* \"#utility.yul\":6115:6152   */\n  tag_134\n    /* \"#utility.yul\":6147:6151   */\n  dup7\n    /* \"#utility.yul\":6115:6152   */\n  tag_36\n  jump\t// in\ntag_134:\n    /* \"#utility.yul\":6174:6175   */\n  0x00\n    /* \"#utility.yul\":6188:6396   */\ntag_135:\n    /* \"#utility.yul\":6202:6209   */\n  dup3\n    /* \"#utility.yul\":6199:6200   */\n  dup2\n    /* \"#utility.yul\":6196:6210   */\n  lt\n    /* \"#utility.yul\":6188:6396   */\n  iszero\n  tag_137\n  jumpi\n    /* \"#utility.yul\":6281:6290   */\n  dup5\n    /* \"#utility.yul\":6276:6279   */\n  dup10\n    /* \"#utility.yul\":6272:6291   */\n  add\n    /* \"#utility.yul\":6266:6292   */\n  mload\n    /* \"#utility.yul\":6258:6264   */\n  dup3\n    /* \"#utility.yul\":6251:6293   */\n  sstore\n    /* \"#utility.yul\":6332:6333   */\n  0x01\n    /* \"#utility.yul\":6324:6330   */\n  dup3\n    /* \"#utility.yul\":6320:6334   */\n  add\n    /* \"#utility.yul\":6310:6334   */\n  swap2\n  pop\n    /* \"#utility.yul\":6379:6381   */\n  0x20\n    /* \"#utility.yul\":6368:6377   */\n  dup6\n    /* \"#utility.yul\":6364:6382   */\n  add\n    /* \"#utility.yul\":6351:6382   */\n  swap5\n  pop\n    /* \"#utility.yul\":6225:6229   */\n  0x20\n    /* \"#utility.yul\":6222:6223   */\n  dup2\n    /* \"#utility.yul\":6218:6230   */\n  add\n    /* \"#utility.yul\":6213:6230   */\n  swap1\n  pop\n    /* \"#utility.yul\":6188:6396   */\n  jump(tag_135)\ntag_137:\n    /* \"#utility.yul\":6424:6430   */\n  dup7\n    /* \"#utility.yul\":6415:6422   */\n  dup4\n    /* \"#utility.yul\":6412:6431   */\n  lt\n    /* \"#utility.yul\":6409:6588   */\n  iszero\n  tag_138\n  jumpi\n    /* \"#utility.yul\":6482:6491   */\n  dup5\n    /* \"#utility.yul\":6477:6480   */\n  dup10\n    /* \"#utility.yul\":6473:6492   */\n  add\n    /* \"#utility.yul\":6467:6493   */\n  mload\n    /* \"#utility.yul\":6525:6573   */\n  tag_139\n    /* \"#utility.yul\":6567:6571   */\n  0x1f\n    /* \"#utility.yul\":6559:6565   */\n  dup10\n    /* \"#utility.yul\":6555:6572   */\n  and\n    /* \"#utility.yul\":6544:6553   */\n  dup3\n    /* \"#utility.yul\":6525:6573   */\n  tag_50\n  jump\t// in\ntag_139:\n    /* \"#utility.yul\":6517:6523   */\n  dup4\n    /* \"#utility.yul\":6510:6574   */\n  sstore\n    /* \"#utility.yul\":6432:6588   */\n  pop\n    /* \"#utility.yul\":6409:6588   */\ntag_138:\n    /* \"#utility.yul\":6634:6635   */\n  0x01\n    /* \"#utility.yul\":6630:6631   */\n  0x02\n    /* \"#utility.yul\":6622:6628   */\n  dup9\n    /* \"#utility.yul\":6618:6632   */\n  mul\n    /* \"#utility.yul\":6614:6636   */\n  add\n    /* \"#utility.yul\":6608:6612   */\n  dup9\n    /* \"#utility.yul\":6601:6637   */\n  sstore\n    /* \"#utility.yul\":6036:6647   */\n  pop\n  pop\n  pop\n    /* \"#utility.yul\":5999:6886   */\ntag_130:\n  pop\n    /* \"#utility.yul\":5589:6892   */\n  pop\n  pop\n  pop\n    /* \"#utility.yul\":5497:6892   */\n  pop\n  pop\n  jump\t// out\n    /* \"#utility.yul\":6898:7015   */\ntag_52:\n    /* \"#utility.yul\":7007:7008   */\n  0x00\n    /* \"#utility.yul\":7004:7005   */\n  dup1\n    /* \"#utility.yul\":6997:7009   */\n  revert\n    /* \"#utility.yul\":7021:7123   */\ntag_53:\n    /* \"#utility.yul\":7062:7068   */\n  0x00\n    /* \"#utility.yul\":7113:7115   */\n  0x1f\n    /* \"#utility.yul\":7109:7116   */\n  not\n    /* \"#utility.yul\":7104:7106   */\n  0x1f\n    /* \"#utility.yul\":7097:7102   */\n  dup4\n    /* \"#utility.yul\":7093:7107   */\n  add\n    /* \"#utility.yul\":7089:7117   */\n  and\n    /* \"#utility.yul\":7079:7117   */\n  swap1\n  pop\n    /* \"#utility.yul\":7021:7123   */\n  swap2\n  swap1\n  pop\n  jump\t// out\n    /* \"#utility.yul\":7129:7410   */\ntag_54:\n    /* \"#utility.yul\":7212:7239   */\n  tag_143\n    /* \"#utility.yul\":7234:7238   */\n  dup3\n    /* \"#utility.yul\":7212:7239   */\n  tag_53\n  jump\t// in\ntag_143:\n    /* \"#utility.yul\":7204:7210   */\n  dup2\n    /* \"#utility.yul\":7200:7240   */\n  add\n    /* \"#utility.yul\":7342:7348   */\n  dup2\n    /* \"#utility.yul\":7330:7340   */\n  dup2\n    /* \"#utility.yul\":7327:7349   */\n  lt\n    /* \"#utility.yul\":7306:7324   */\n  0xffffffffffffffff\n    /* \"#utility.yul\":7294:7304   */\n  dup3\n    /* \"#utility.yul\":7291:7325   */\n  gt\n    /* \"#utility.yul\":7288:7350   */\n  or\n    /* \"#utility.yul\":7285:7373   */\n  iszero\n  tag_144\n  jumpi\n    /* \"#utility.yul\":7353:7371   */\n  tag_145\n  tag_33\n  jump\t// in\ntag_145:\n    /* \"#utility.yul\":7285:7373   */\ntag_144:\n    /* \"#utility.yul\":7393:7403   */\n  dup1\n    /* \"#utility.yul\":7389:7391   */\n  0x40\n    /* \"#utility.yul\":7382:7404   */\n  mstore\n    /* \"#utility.yul\":7172:7410   */\n  pop\n    /* \"#utility.yul\":7129:7410   */\n  pop\n  pop\n  jump\t// out\n    /* \"#utility.yul\":7416:7545   */\ntag_55:\n    /* \"#utility.yul\":7450:7456   */\n  0x00\n    /* \"#utility.yul\":7477:7497   */\n  tag_147\n  tag_25\n  jump\t// in\ntag_147:\n    /* \"#utility.yul\":7467:7497   */\n  swap1\n  pop\n    /* \"#utility.yul\":7506:7539   */\n  tag_148\n    /* \"#utility.yul\":7534:7538   */\n  dup3\n    /* \"#utility.yul\":7526:7532   */\n  dup3\n    /* \"#utility.yul\":7506:7539   */\n  tag_54\n  jump\t// in\ntag_148:\n    /* \"#utility.yul\":7416:7545   */\n  swap2\n  swap1\n  pop\n  jump\t// out\n    /* \"#utility.yul\":7551:7862   */\ntag_56:\n    /* \"#utility.yul\":7628:7632   */\n  0x00\n    /* \"#utility.yul\":7718:7736   */\n  0xffffffffffffffff\n    /* \"#utility.yul\":7710:7716   */\n  dup3\n    /* \"#utility.yul\":7707:7737   */\n  gt\n    /* \"#utility.yul\":7704:7760   */\n  iszero\n  tag_150\n  jumpi\n    /* \"#utility.yul\":7740:7758   */\n  tag_151\n  tag_33\n  jump\t// in\ntag_151:\n    /* \"#utility.yul\":7704:7760   */\ntag_150:\n    /* \"#utility.yul\":7790:7794   */\n  0x20\n    /* \"#utility.yul\":7782:7788   */\n  dup3\n    /* \"#utility.yul\":7778:7795   */\n  mul\n    /* \"#utility.yul\":7770:7795   */\n  swap1\n  pop\n    /* \"#utility.yul\":7850:7854   */\n  0x20\n    /* \"#utility.yul\":7844:7848   */\n  dup2\n    /* \"#utility.yul\":7840:7855   */\n  add\n    /* \"#utility.yul\":7832:7855   */\n  swap1\n  pop\n    /* \"#utility.yul\":7551:7862   */\n  swap2\n  swap1\n  pop\n  jump\t// out\n    /* \"#utility.yul\":7868:7985   */\ntag_57:\n    /* \"#utility.yul\":7977:7978   */\n  0x00\n    /* \"#utility.yul\":7974:7975   */\n  dup1\n    /* \"#utility.yul\":7967:7979   */\n  revert\n    /* \"#utility.yul\":8008:8740   */\ntag_58:\n    /* \"#utility.yul\":8115:8120   */\n  0x00\n    /* \"#utility.yul\":8140:8221   */\n  tag_154\n    /* \"#utility.yul\":8156:8220   */\n  tag_155\n    /* \"#utility.yul\":8213:8219   */\n  dup5\n    /* \"#utility.yul\":8156:8220   */\n  tag_56\n  jump\t// in\ntag_155:\n    /* \"#utility.yul\":8140:8221   */\n  tag_55\n  jump\t// in\ntag_154:\n    /* \"#utility.yul\":8131:8221   */\n  swap1\n  pop\n    /* \"#utility.yul\":8241:8246   */\n  dup1\n    /* \"#utility.yul\":8270:8276   */\n  dup4\n    /* \"#utility.yul\":8263:8268   */\n  dup3\n    /* \"#utility.yul\":8256:8277   */\n  mstore\n    /* \"#utility.yul\":8304:8308   */\n  0x20\n    /* \"#utility.yul\":8297:8302   */\n  dup3\n    /* \"#utility.yul\":8293:8309   */\n  add\n    /* \"#utility.yul\":8286:8309   */\n  swap1\n  pop\n    /* \"#utility.yul\":8357:8361   */\n  0x20\n    /* \"#utility.yul\":8349:8355   */\n  dup5\n    /* \"#utility.yul\":8345:8362   */\n  mul\n    /* \"#utility.yul\":8337:8343   */\n  dup4\n    /* \"#utility.yul\":8333:8363   */\n  add\n    /* \"#utility.yul\":8386:8389   */\n  dup6\n    /* \"#utility.yul\":8378:8384   */\n  dup2\n    /* \"#utility.yul\":8375:8390   */\n  gt\n    /* \"#utility.yul\":8372:8494   */\n  iszero\n  tag_156\n  jumpi\n    /* \"#utility.yul\":8405:8484   */\n  tag_157\n  tag_57\n  jump\t// in\ntag_157:\n    /* \"#utility.yul\":8372:8494   */\ntag_156:\n    /* \"#utility.yul\":8520:8526   */\n  dup4\n    /* \"#utility.yul\":8503:8734   */\ntag_158:\n    /* \"#utility.yul\":8537:8543   */\n  dup2\n    /* \"#utility.yul\":8532:8535   */\n  dup2\n    /* \"#utility.yul\":8529:8544   */\n  lt\n    /* \"#utility.yul\":8503:8734   */\n  iszero\n  tag_160\n  jumpi\n    /* \"#utility.yul\":8612:8615   */\n  dup1\n    /* \"#utility.yul\":8641:8689   */\n  tag_161\n    /* \"#utility.yul\":8685:8688   */\n  dup9\n    /* \"#utility.yul\":8673:8683   */\n  dup3\n    /* \"#utility.yul\":8641:8689   */\n  tag_31\n  jump\t// in\ntag_161:\n    /* \"#utility.yul\":8636:8639   */\n  dup5\n    /* \"#utility.yul\":8629:8690   */\n  mstore\n    /* \"#utility.yul\":8719:8723   */\n  0x20\n    /* \"#utility.yul\":8714:8717   */\n  dup5\n    /* \"#utility.yul\":8710:8724   */\n  add\n    /* \"#utility.yul\":8703:8724   */\n  swap4\n  pop\n    /* \"#utility.yul\":8579:8734   */\n  pop\n    /* \"#utility.yul\":8563:8567   */\n  0x20\n    /* \"#utility.yul\":8558:8561   */\n  dup2\n    /* \"#utility.yul\":8554:8568   */\n  add\n    /* \"#utility.yul\":8547:8568   */\n  swap1\n  pop\n    /* \"#utility.yul\":8503:8734   */\n  jump(tag_158)\ntag_160:\n    /* \"#utility.yul\":8507:8528   */\n  pop\n    /* \"#utility.yul\":8121:8740   */\n  pop\n  pop\n    /* \"#utility.yul\":8008:8740   */\n  swap4\n  swap3\n  pop\n  pop\n  pop\n  jump\t// out\n    /* \"#utility.yul\":8763:9148   */\ntag_59:\n    /* \"#utility.yul\":8845:8850   */\n  0x00\n    /* \"#utility.yul\":8894:8897   */\n  dup3\n    /* \"#utility.yul\":8887:8891   */\n  0x1f\n    /* \"#utility.yul\":8879:8885   */\n  dup4\n    /* \"#utility.yul\":8875:8892   */\n  add\n    /* \"#utility.yul\":8871:8898   */\n  slt\n    /* \"#utility.yul\":8861:8983   */\n  tag_163\n  jumpi\n    /* \"#utility.yul\":8902:8981   */\n  tag_164\n  tag_52\n  jump\t// in\ntag_164:\n    /* \"#utility.yul\":8861:8983   */\ntag_163:\n    /* \"#utility.yul\":9012:9018   */\n  dup2\n    /* \"#utility.yul\":9006:9019   */\n  mload\n    /* \"#utility.yul\":9037:9142   */\n  tag_165\n    /* \"#utility.yul\":9138:9141   */\n  dup5\n    /* \"#utility.yul\":9130:9136   */\n  dup3\n    /* \"#utility.yul\":9123:9127   */\n  0x20\n    /* \"#utility.yul\":9115:9121   */\n  dup7\n    /* \"#utility.yul\":9111:9128   */\n  add\n    /* \"#utility.yul\":9037:9142   */\n  tag_58\n  jump\t// in\ntag_165:\n    /* \"#utility.yul\":9028:9142   */\n  swap2\n  pop\n    /* \"#utility.yul\":8851:9148   */\n  pop\n    /* \"#utility.yul\":8763:9148   */\n  swap3\n  swap2\n  pop\n  pop\n  jump\t// out\n    /* \"#utility.yul\":9154:9708   */\ntag_14:\n    /* \"#utility.yul\":9249:9255   */\n  0x00\n    /* \"#utility.yul\":9298:9300   */\n  0x20\n    /* \"#utility.yul\":9286:9295   */\n  dup3\n    /* \"#utility.yul\":9277:9284   */\n  dup5\n    /* \"#utility.yul\":9273:9296   */\n  sub\n    /* \"#utility.yul\":9269:9301   */\n  slt\n    /* \"#utility.yul\":9266:9385   */\n  iszero\n  tag_167\n  jumpi\n    /* \"#utility.yul\":9304:9383   */\n  tag_168\n  tag_26\n  jump\t// in\ntag_168:\n    /* \"#utility.yul\":9266:9385   */\ntag_167:\n    /* \"#utility.yul\":9445:9446   */\n  0x00\n    /* \"#utility.yul\":9434:9443   */\n  dup3\n    /* \"#utility.yul\":9430:9447   */\n  add\n    /* \"#utility.yul\":9424:9448   */\n  mload\n    /* \"#utility.yul\":9475:9493   */\n  0xffffffffffffffff\n    /* \"#utility.yul\":9467:9473   */\n  dup2\n    /* \"#utility.yul\":9464:9494   */\n  gt\n    /* \"#utility.yul\":9461:9578   */\n  iszero\n  tag_169\n  jumpi\n    /* \"#utility.yul\":9497:9576   */\n  tag_170\n  tag_27\n  jump\t// in\ntag_170:\n    /* \"#utility.yul\":9461:9578   */\ntag_169:\n    /* \"#utility.yul\":9602:9691   */\n  tag_171\n    /* \"#utility.yul\":9683:9690   */\n  dup5\n    /* \"#utility.yul\":9674:9680   */\n  dup3\n    /* \"#utility.yul\":9663:9672   */\n  dup6\n    /* \"#utility.yul\":9659:9681   */\n  add\n    /* \"#utility.yul\":9602:9691   */\n  tag_59\n  jump\t// in\ntag_171:\n    /* \"#utility.yul\":9592:9691   */\n  swap2\n  pop\n    /* \"#utility.yul\":9395:9701   */\n  pop\n    /* \"#utility.yul\":9154:9708   */\n  swap3\n  swap2\n  pop\n  pop\n  jump\t// out\n    /* \"sgdm.sol\":1251:8665  contract sgdm is ERC20 {... */\ntag_17:\n  dataSize(sub_0)\n  dup1\n  dataOffset(sub_0)\n  0x00\n  codecopy\n  0x00\n  return\nstop\n\nsub_0: assembly {\n        /* \"sgdm.sol\":1251:8665  contract sgdm is ERC20 {... */\n      mstore(0x40, 0x80)\n      callvalue\n      dup1\n      iszero\n      tag_1\n      jumpi\n      0x00\n      dup1\n      revert\n    tag_1:\n      pop\n      jumpi(tag_2, lt(calldatasize, 0x04))\n      shr(0xe0, calldataload(0x00))\n      dup1\n      0x70a08231\n      gt\n      tag_22\n      jumpi\n      dup1\n      0xa8f5d7a6\n      gt\n      tag_23\n      jumpi\n      dup1\n      0xa8f5d7a6\n      eq\n      tag_17\n      jumpi\n      dup1\n      0xa9059cbb\n      eq\n      tag_18\n      jumpi\n      dup1\n      0xdd62ed3e\n      eq\n      tag_19\n      jumpi\n      dup1\n      0xf22fbdd7\n      eq\n      tag_20\n      jumpi\n      dup1\n      0xfa863d30\n      eq\n      tag_21\n      jumpi\n      jump(tag_2)\n    tag_23:\n      dup1\n      0x70a08231\n      eq\n      tag_12\n      jumpi\n      dup1\n      0x8c8e8fee\n      eq\n      tag_13\n      jumpi\n      dup1\n      0x90f31f3b\n      eq\n      tag_14\n      jumpi\n      dup1\n      0x95d89b41\n      eq\n      tag_15\n      jumpi\n      dup1\n      0xa3e5b0b2\n      eq\n      tag_16\n      jumpi\n      jump(tag_2)\n    tag_22:\n      dup1\n      0x23b872dd\n      gt\n      tag_24\n      jumpi\n      dup1\n      0x23b872dd\n      eq\n      tag_7\n      jumpi\n      dup1\n      0x313ce567\n      eq\n      tag_8\n      jumpi\n      dup1\n      0x327107f7\n      eq\n      tag_9\n      jumpi\n      dup1\n      0x332656fd\n      eq\n      tag_10\n      jumpi\n      dup1\n      0x5ab16b26\n      eq\n      tag_11\n      jumpi\n      jump(tag_2)\n    tag_24:\n      dup1\n      0x06fdde03\n      eq\n      tag_3\n      jumpi\n      dup1\n      0x095ea7b3\n      eq\n      tag_4\n      jumpi\n      dup1\n      0x14bfd6d0\n      eq\n      tag_5\n      jumpi\n      dup1\n      0x18160ddd\n      eq\n      tag_6\n      jumpi\n    tag_2:\n      0x00\n      dup1\n      revert\n        /* \"@openzeppelin/contracts/token/ERC20/ERC20.sol\":2074:2163  function name() public view virtual returns (string memory) {... */\n    tag_3:\n      tag_25\n      tag_26\n      jump\t// in\n    tag_25:\n      mload(0x40)\n      tag_27\n      swap2\n      swap1\n      tag_28\n      jump\t// in\n    tag_27:\n      mload(0x40)\n      dup1\n      swap2\n      sub\n      swap1\n      return\n        /* \"sgdm.sol\":8543:8663  function approve(address, uint256) public pure override returns (bool) {... */\n    tag_4:\n      tag_29\n      0x04\n      dup1\n      calldatasize\n      sub\n      dup2\n      add\n      swap1\n      tag_30\n      swap2\n      swap1\n      tag_31\n      jump\t// in\n    tag_30:\n      tag_32\n      jump\t// in\n    tag_29:\n      mload(0x40)\n      tag_33\n      swap2\n      swap1\n      tag_34\n      jump\t// in\n    tag_33:\n      mload(0x40)\n      dup1\n      swap2\n      sub\n      swap1\n      return\n        /* \"sgdm.sol\":1582:1605  address[] public admins */\n    tag_5:\n      tag_35\n      0x04\n      dup1\n      calldatasize\n      sub\n      dup2\n      add\n      swap1\n      tag_36\n      swap2\n      swap1\n      tag_37\n      jump\t// in\n    tag_36:\n      tag_38\n      jump\t// in\n    tag_35:\n      mload(0x40)\n      tag_39\n      swap2\n      swap1\n      tag_40\n      jump\t// in\n    tag_39:\n      mload(0x40)\n      dup1\n      swap2\n      sub\n      swap1\n      return\n        /* \"sgdm.sol\":7806:7917  function totalSupply() public view override returns (uint256) {... */\n    tag_6:\n      tag_41\n      tag_42\n      jump\t// in\n    tag_41:\n      mload(0x40)\n      tag_43\n      swap2\n      swap1\n      tag_44\n      jump\t// in\n    tag_43:\n      mload(0x40)\n      dup1\n      swap2\n      sub\n      swap1\n      return\n        /* \"sgdm.sol\":7063:7545  function transferFrom(address _from, address _to, uint256 _amount) public override returns (bool) {... */\n    tag_7:\n      tag_45\n      0x04\n      dup1\n      calldatasize\n      sub\n      dup2\n      add\n      swap1\n      tag_46\n      swap2\n      swap1\n      tag_47\n      jump\t// in\n    tag_46:\n      tag_48\n      jump\t// in\n    tag_45:\n      mload(0x40)\n      tag_49\n      swap2\n      swap1\n      tag_34\n      jump\t// in\n    tag_49:\n      mload(0x40)\n      dup1\n      swap2\n      sub\n      swap1\n      return\n        /* \"sgdm.sol\":7681:7754  function decimals() public pure override returns (uint8) {... */\n    tag_8:\n      tag_50\n      tag_51\n      jump\t// in\n    tag_50:\n      mload(0x40)\n      tag_52\n      swap2\n      swap1\n      tag_53\n      jump\t// in\n    tag_52:\n      mload(0x40)\n      dup1\n      swap2\n      sub\n      swap1\n      return\n        /* \"sgdm.sol\":1349:1374  IERC20 public targetToken */\n    tag_9:\n      tag_54\n      tag_55\n      jump\t// in\n    tag_54:\n      mload(0x40)\n      tag_56\n      swap2\n      swap1\n      tag_57\n      jump\t// in\n    tag_56:\n      mload(0x40)\n      dup1\n      swap2\n      sub\n      swap1\n      return\n        /* \"sgdm.sol\":5637:6259  function uen_send(string memory _uen_target, uint256 _amount) external check_name(_uen_target) returns (bool) {... */\n    tag_10:\n      tag_58\n      0x04\n      dup1\n      calldatasize\n      sub\n      dup2\n      add\n      swap1\n      tag_59\n      swap2\n      swap1\n      tag_60\n      jump\t// in\n    tag_59:\n      tag_61\n      jump\t// in\n    tag_58:\n      mload(0x40)\n      tag_62\n      swap2\n      swap1\n      tag_34\n      jump\t// in\n    tag_62:\n      mload(0x40)\n      dup1\n      swap2\n      sub\n      swap1\n      return\n        /* \"sgdm.sol\":4597:5191  function send_token_to_uen(string memory _uen, uint256 _amount) external check_name(_uen) returns (bool) {... */\n    tag_11:\n      tag_63\n      0x04\n      dup1\n      calldatasize\n      sub\n      dup2\n      add\n      swap1\n      tag_64\n      swap2\n      swap1\n      tag_60\n      jump\t// in\n    tag_64:\n      tag_65\n      jump\t// in\n    tag_63:\n      mload(0x40)\n      tag_66\n      swap2\n      swap1\n      tag_34\n      jump\t// in\n    tag_66:\n      mload(0x40)\n      dup1\n      swap2\n      sub\n      swap1\n      return\n        /* \"sgdm.sol\":8043:8232  function balanceOf(address _owner) public view override returns (uint256 balance) {... */\n    tag_12:\n      tag_67\n      0x04\n      dup1\n      calldatasize\n      sub\n      dup2\n      add\n      swap1\n      tag_68\n      swap2\n      swap1\n      tag_69\n      jump\t// in\n    tag_68:\n      tag_70\n      jump\t// in\n    tag_67:\n      mload(0x40)\n      tag_71\n      swap2\n      swap1\n      tag_44\n      jump\t// in\n    tag_71:\n      mload(0x40)\n      dup1\n      swap2\n      sub\n      swap1\n      return\n        /* \"sgdm.sol\":7573:7665  function token_address() external view returns (address) {... */\n    tag_13:\n      tag_72\n      tag_73\n      jump\t// in\n    tag_72:\n      mload(0x40)\n      tag_74\n      swap2\n      swap1\n      tag_40\n      jump\t// in\n    tag_74:\n      mload(0x40)\n      dup1\n      swap2\n      sub\n      swap1\n      return\n        /* \"sgdm.sol\":4013:4124  function balance_of_uen(string memory _uen) external view returns (uint256) {... */\n    tag_14:\n      tag_75\n      0x04\n      dup1\n      calldatasize\n      sub\n      dup2\n      add\n      swap1\n      tag_76\n      swap2\n      swap1\n      tag_77\n      jump\t// in\n    tag_76:\n      tag_78\n      jump\t// in\n    tag_75:\n      mload(0x40)\n      tag_79\n      swap2\n      swap1\n      tag_44\n      jump\t// in\n    tag_79:\n      mload(0x40)\n      dup1\n      swap2\n      sub\n      swap1\n      return\n        /* \"@openzeppelin/contracts/token/ERC20/ERC20.sol\":2276:2369  function symbol() public view virtual returns (string memory) {... */\n    tag_15:\n      tag_80\n      tag_81\n      jump\t// in\n    tag_80:\n      mload(0x40)\n      tag_82\n      swap2\n      swap1\n      tag_28\n      jump\t// in\n    tag_82:\n      mload(0x40)\n      dup1\n      swap2\n      sub\n      swap1\n      return\n        /* \"sgdm.sol\":3862:3991  function check_whitelist() public view returns (string memory) {... */\n    tag_16:\n      tag_83\n      tag_84\n      jump\t// in\n    tag_83:\n      mload(0x40)\n      tag_85\n      swap2\n      swap1\n      tag_28\n      jump\t// in\n    tag_85:\n      mload(0x40)\n      dup1\n      swap2\n      sub\n      swap1\n      return\n        /* \"sgdm.sol\":3662:3791  function get_name(string memory _uen) external view returns (string memory) {... */\n    tag_17:\n      tag_86\n      0x04\n      dup1\n      calldatasize\n      sub\n      dup2\n      add\n      swap1\n      tag_87\n      swap2\n      swap1\n      tag_77\n      jump\t// in\n    tag_87:\n      tag_88\n      jump\t// in\n    tag_86:\n      mload(0x40)\n      tag_89\n      swap2\n      swap1\n      tag_28\n      jump\t// in\n    tag_89:\n      mload(0x40)\n      dup1\n      swap2\n      sub\n      swap1\n      return\n        /* \"sgdm.sol\":6529:7002  function transfer(address _to, uint256 _amount) public override returns (bool) {... */\n    tag_18:\n      tag_90\n      0x04\n      dup1\n      calldatasize\n      sub\n      dup2\n      add\n      swap1\n      tag_91\n      swap2\n      swap1\n      tag_31\n      jump\t// in\n    tag_91:\n      tag_92\n      jump\t// in\n    tag_90:\n      mload(0x40)\n      tag_93\n      swap2\n      swap1\n      tag_34\n      jump\t// in\n    tag_93:\n      mload(0x40)\n      dup1\n      swap2\n      sub\n      swap1\n      return\n        /* \"sgdm.sol\":8307:8453  function allowance(address _owner, address _spender) public view override returns (uint256) {... */\n    tag_19:\n      tag_94\n      0x04\n      dup1\n      calldatasize\n      sub\n      dup2\n      add\n      swap1\n      tag_95\n      swap2\n      swap1\n      tag_96\n      jump\t// in\n    tag_95:\n      tag_97\n      jump\t// in\n    tag_94:\n      mload(0x40)\n      tag_98\n      swap2\n      swap1\n      tag_44\n      jump\t// in\n    tag_98:\n      mload(0x40)\n      dup1\n      swap2\n      sub\n      swap1\n      return\n        /* \"sgdm.sol\":1432:1480  mapping(string => uint256) public uen_to_balance */\n    tag_20:\n      tag_99\n      0x04\n      dup1\n      calldatasize\n      sub\n      dup2\n      add\n      swap1\n      tag_100\n      swap2\n      swap1\n      tag_77\n      jump\t// in\n    tag_100:\n      tag_101\n      jump\t// in\n    tag_99:\n      mload(0x40)\n      tag_102\n      swap2\n      swap1\n      tag_44\n      jump\t// in\n    tag_102:\n      mload(0x40)\n      dup1\n      swap2\n      sub\n      swap1\n      return\n        /* \"sgdm.sol\":3284:3610  function admin_withdraw(address _to, uint256 _amount) external only_admin returns (bool) {... */\n    tag_21:\n      tag_103\n      0x04\n      dup1\n      calldatasize\n      sub\n      dup2\n      add\n      swap1\n      tag_104\n      swap2\n      swap1\n      tag_31\n      jump\t// in\n    tag_104:\n      tag_105\n      jump\t// in\n    tag_103:\n      mload(0x40)\n      tag_106\n      swap2\n      swap1\n      tag_34\n      jump\t// in\n    tag_106:\n      mload(0x40)\n      dup1\n      swap2\n      sub\n      swap1\n      return\n        /* \"@openzeppelin/contracts/token/ERC20/ERC20.sol\":2074:2163  function name() public view virtual returns (string memory) {... */\n    tag_26:\n        /* \"@openzeppelin/contracts/token/ERC20/ERC20.sol\":2119:2132  string memory */\n      0x60\n        /* \"@openzeppelin/contracts/token/ERC20/ERC20.sol\":2151:2156  _name */\n      0x03\n        /* \"@openzeppelin/contracts/token/ERC20/ERC20.sol\":2144:2156  return _name */\n      dup1\n      sload\n      tag_108\n      swap1\n      tag_109\n      jump\t// in\n    tag_108:\n      dup1\n      0x1f\n      add\n      0x20\n      dup1\n      swap2\n      div\n      mul\n      0x20\n      add\n      mload(0x40)\n      swap1\n      dup2\n      add\n      0x40\n      mstore\n      dup1\n      swap3\n      swap2\n      swap1\n      dup2\n      dup2\n      mstore\n      0x20\n      add\n      dup3\n      dup1\n      sload\n      tag_110\n      swap1\n      tag_109\n      jump\t// in\n    tag_110:\n      dup1\n      iszero\n      tag_111\n      jumpi\n      dup1\n      0x1f\n      lt\n      tag_112\n      jumpi\n      0x0100\n      dup1\n      dup4\n      sload\n      div\n      mul\n      dup4\n      mstore\n      swap2\n      0x20\n      add\n      swap2\n      jump(tag_111)\n    tag_112:\n      dup3\n      add\n      swap2\n      swap1\n      0x00\n      mstore\n      keccak256(0x00, 0x20)\n      swap1\n    tag_113:\n      dup2\n      sload\n      dup2\n      mstore\n      swap1\n      0x01\n      add\n      swap1\n      0x20\n      add\n      dup1\n      dup4\n      gt\n      tag_113\n      jumpi\n      dup3\n      swap1\n      sub\n      0x1f\n      and\n      dup3\n      add\n      swap2\n    tag_111:\n      pop\n      pop\n      pop\n      pop\n      pop\n      swap1\n      pop\n        /* \"@openzeppelin/contracts/token/ERC20/ERC20.sol\":2074:2163  function name() public view virtual returns (string memory) {... */\n      swap1\n      jump\t// out\n        /* \"sgdm.sol\":8543:8663  function approve(address, uint256) public pure override returns (bool) {... */\n    tag_32:\n        /* \"sgdm.sol\":8608:8612  bool */\n      0x00\n        /* \"sgdm.sol\":8621:8659  revert(\"Approve function is disabled\") */\n      mload(0x40)\n      0x08c379a000000000000000000000000000000000000000000000000000000000\n      dup2\n      mstore\n      0x04\n      add\n      tag_115\n      swap1\n      tag_116\n      jump\t// in\n    tag_115:\n      mload(0x40)\n      dup1\n      swap2\n      sub\n      swap1\n      revert\n        /* \"sgdm.sol\":1582:1605  address[] public admins */\n    tag_38:\n      0x08\n      dup2\n      dup2\n      sload\n      dup2\n      lt\n      tag_117\n      jumpi\n      0x00\n      dup1\n      revert\n    tag_117:\n      swap1\n      0x00\n      mstore\n      keccak256(0x00, 0x20)\n      add\n      0x00\n      swap2\n      pop\n      sload\n      swap1\n      0x0100\n      exp\n      swap1\n      div\n      0xffffffffffffffffffffffffffffffffffffffff\n      and\n      dup2\n      jump\t// out\n        /* \"sgdm.sol\":7806:7917  function totalSupply() public view override returns (uint256) {... */\n    tag_42:\n        /* \"sgdm.sol\":7859:7866  uint256 */\n      0x00\n        /* \"sgdm.sol\":7887:7898  targetToken */\n      0x05\n      0x00\n      swap1\n      sload\n      swap1\n      0x0100\n      exp\n      swap1\n      div\n      0xffffffffffffffffffffffffffffffffffffffff\n      and\n        /* \"sgdm.sol\":7887:7910  targetToken.totalSupply */\n      0xffffffffffffffffffffffffffffffffffffffff\n      and\n      0x18160ddd\n        /* \"sgdm.sol\":7887:7912  targetToken.totalSupply() */\n      mload(0x40)\n      dup2\n      0xffffffff\n      and\n      0xe0\n      shl\n      dup2\n      mstore\n      0x04\n      add\n      0x20\n      mload(0x40)\n      dup1\n      dup4\n      sub\n      dup2\n      dup7\n      gas\n      staticcall\n      iszero\n      dup1\n      iszero\n      tag_121\n      jumpi\n      returndatasize\n      0x00\n      dup1\n      returndatacopy\n      revert(0x00, returndatasize)\n    tag_121:\n      pop\n      pop\n      pop\n      pop\n      mload(0x40)\n      returndatasize\n      not(0x1f)\n      0x1f\n      dup3\n      add\n      and\n      dup3\n      add\n      dup1\n      0x40\n      mstore\n      pop\n      dup2\n      add\n      swap1\n      tag_122\n      swap2\n      swap1\n      tag_123\n      jump\t// in\n    tag_122:\n        /* \"sgdm.sol\":7872:7913  return uint256(targetToken.totalSupply()) */\n      swap1\n      pop\n        /* \"sgdm.sol\":7806:7917  function totalSupply() public view override returns (uint256) {... */\n      swap1\n      jump\t// out\n        /* \"sgdm.sol\":7063:7545  function transferFrom(address _from, address _to, uint256 _amount) public override returns (bool) {... */\n    tag_48:\n        /* \"sgdm.sol\":7155:7159  bool */\n      0x00\n        /* \"sgdm.sol\":7188:7189  0 */\n      dup1\n        /* \"sgdm.sol\":7173:7190  _to != address(0) */\n      0xffffffffffffffffffffffffffffffffffffffff\n      and\n        /* \"sgdm.sol\":7173:7176  _to */\n      dup4\n        /* \"sgdm.sol\":7173:7190  _to != address(0) */\n      0xffffffffffffffffffffffffffffffffffffffff\n      and\n      sub\n        /* \"sgdm.sol\":7165:7219  require(_to != address(0), \"Transfer to zero address\") */\n      tag_125\n      jumpi\n      mload(0x40)\n      0x08c379a000000000000000000000000000000000000000000000000000000000\n      dup2\n      mstore\n      0x04\n      add\n      tag_126\n      swap1\n      tag_127\n      jump\t// in\n    tag_126:\n      mload(0x40)\n      dup1\n      swap2\n      sub\n      swap1\n      revert\n    tag_125:\n        /* \"sgdm.sol\":7223:7248  string memory _uen_sender */\n      0x00\n        /* \"sgdm.sol\":7251:7269  whitelist_contract */\n      0x0a\n      0x00\n      swap1\n      sload\n      swap1\n      0x0100\n      exp\n      swap1\n      div\n      0xffffffffffffffffffffffffffffffffffffffff\n      and\n        /* \"sgdm.sol\":7251:7290  whitelist_contract.get_whitelist_to_uen */\n      0xffffffffffffffffffffffffffffffffffffffff\n      and\n      0x58581383\n        /* \"sgdm.sol\":7291:7296  _from */\n      dup7\n        /* \"sgdm.sol\":7251:7297  whitelist_contract.get_whitelist_to_uen(_from) */\n      mload(0x40)\n      dup3\n      0xffffffff\n      and\n      0xe0\n      shl\n      dup2\n      mstore\n      0x04\n      add\n      tag_128\n      swap2\n      swap1\n      tag_40\n      jump\t// in\n    tag_128:\n      0x00\n      mload(0x40)\n      dup1\n      dup4\n      sub\n      dup2\n      dup7\n      gas\n      staticcall\n      iszero\n      dup1\n      iszero\n      tag_130\n      jumpi\n      returndatasize\n      0x00\n      dup1\n      returndatacopy\n      revert(0x00, returndatasize)\n    tag_130:\n      pop\n      pop\n      pop\n      pop\n      mload(0x40)\n      returndatasize\n      0x00\n      dup3\n      returndatacopy\n      returndatasize\n      not(0x1f)\n      0x1f\n      dup3\n      add\n      and\n      dup3\n      add\n      dup1\n      0x40\n      mstore\n      pop\n      dup2\n      add\n      swap1\n      tag_131\n      swap2\n      swap1\n      tag_132\n      jump\t// in\n    tag_131:\n        /* \"sgdm.sol\":7223:7297  string memory _uen_sender = whitelist_contract.get_whitelist_to_uen(_from) */\n      swap1\n      pop\n        /* \"sgdm.sol\":7304:7320  uint256 _balance */\n      0x00\n        /* \"sgdm.sol\":7323:7337  uen_to_balance */\n      0x06\n        /* \"sgdm.sol\":7338:7349  _uen_sender */\n      dup3\n        /* \"sgdm.sol\":7323:7350  uen_to_balance[_uen_sender] */\n      mload(0x40)\n      tag_133\n      swap2\n      swap1\n      tag_134\n      jump\t// in\n    tag_133:\n      swap1\n      dup2\n      mstore\n      0x20\n      add\n      mload(0x40)\n      dup1\n      swap2\n      sub\n      swap1\n      keccak256\n      sload\n        /* \"sgdm.sol\":7304:7350  uint256 _balance = uen_to_balance[_uen_sender] */\n      swap1\n      pop\n        /* \"sgdm.sol\":7375:7382  _amount */\n      dup4\n        /* \"sgdm.sol\":7363:7371  _balance */\n      dup2\n        /* \"sgdm.sol\":7363:7382  _balance >= _amount */\n      lt\n      iszero\n        /* \"sgdm.sol\":7354:7405  require (_balance >= _amount, \"Not enough balance\") */\n      tag_135\n      jumpi\n      mload(0x40)\n      0x08c379a000000000000000000000000000000000000000000000000000000000\n      dup2\n      mstore\n      0x04\n      add\n      tag_136\n      swap1\n      tag_137\n      jump\t// in\n    tag_136:\n      mload(0x40)\n      dup1\n      swap2\n      sub\n      swap1\n      revert\n    tag_135:\n        /* \"sgdm.sol\":7443:7450  _amount */\n      dup4\n        /* \"sgdm.sol\":7412:7426  uen_to_balance */\n      0x06\n        /* \"sgdm.sol\":7427:7438  _uen_sender */\n      dup4\n        /* \"sgdm.sol\":7412:7439  uen_to_balance[_uen_sender] */\n      mload(0x40)\n      tag_138\n      swap2\n      swap1\n      tag_134\n      jump\t// in\n    tag_138:\n      swap1\n      dup2\n      mstore\n      0x20\n      add\n      mload(0x40)\n      dup1\n      swap2\n      sub\n      swap1\n      keccak256\n      0x00\n        /* \"sgdm.sol\":7412:7450  uen_to_balance[_uen_sender] -= _amount */\n      dup3\n      dup3\n      sload\n      tag_139\n      swap2\n      swap1\n      tag_140\n      jump\t// in\n    tag_139:\n      swap3\n      pop\n      pop\n      dup2\n      swap1\n      sstore\n      pop\n        /* \"sgdm.sol\":7475:7478  _to */\n      dup5\n        /* \"sgdm.sol\":7459:7488  Transfer(_from, _to, _amount) */\n      0xffffffffffffffffffffffffffffffffffffffff\n      and\n        /* \"sgdm.sol\":7468:7473  _from */\n      dup7\n        /* \"sgdm.sol\":7459:7488  Transfer(_from, _to, _amount) */\n      0xffffffffffffffffffffffffffffffffffffffff\n      and\n      0xddf252ad1be2c89b69c2b068fc378daa952ba7f163c4a11628f55a4df523b3ef\n        /* \"sgdm.sol\":7480:7487  _amount */\n      dup7\n        /* \"sgdm.sol\":7459:7488  Transfer(_from, _to, _amount) */\n      mload(0x40)\n      tag_141\n      swap2\n      swap1\n      tag_44\n      jump\t// in\n    tag_141:\n      mload(0x40)\n      dup1\n      swap2\n      sub\n      swap1\n      log3\n        /* \"sgdm.sol\":7492:7503  targetToken */\n      0x05\n      0x00\n      swap1\n      sload\n      swap1\n      0x0100\n      exp\n      swap1\n      div\n      0xffffffffffffffffffffffffffffffffffffffff\n      and\n        /* \"sgdm.sol\":7492:7512  targetToken.transfer */\n      0xffffffffffffffffffffffffffffffffffffffff\n      and\n      0xa9059cbb\n        /* \"sgdm.sol\":7513:7516  _to */\n      dup7\n        /* \"sgdm.sol\":7518:7525  _amount */\n      dup7\n        /* \"sgdm.sol\":7492:7526  targetToken.transfer(_to, _amount) */\n      mload(0x40)\n      dup4\n      0xffffffff\n      and\n      0xe0\n      shl\n      dup2\n      mstore\n      0x04\n      add\n      tag_142\n      swap3\n      swap2\n      swap1\n      tag_143\n      jump\t// in\n    tag_142:\n      0x20\n      mload(0x40)\n      dup1\n      dup4\n      sub\n      dup2\n      0x00\n      dup8\n      gas\n      call\n      iszero\n      dup1\n      iszero\n      tag_145\n      jumpi\n      returndatasize\n      0x00\n      dup1\n      returndatacopy\n      revert(0x00, returndatasize)\n    tag_145:\n      pop\n      pop\n      pop\n      pop\n      mload(0x40)\n      returndatasize\n      not(0x1f)\n      0x1f\n      dup3\n      add\n      and\n      dup3\n      add\n      dup1\n      0x40\n      mstore\n      pop\n      dup2\n      add\n      swap1\n      tag_146\n      swap2\n      swap1\n      tag_147\n      jump\t// in\n    tag_146:\n      pop\n        /* \"sgdm.sol\":7537:7541  true */\n      0x01\n        /* \"sgdm.sol\":7530:7541  return true */\n      swap3\n      pop\n      pop\n      pop\n        /* \"sgdm.sol\":7063:7545  function transferFrom(address _from, address _to, uint256 _amount) public override returns (bool) {... */\n      swap4\n      swap3\n      pop\n      pop\n      pop\n      jump\t// out\n        /* \"sgdm.sol\":7681:7754  function decimals() public pure override returns (uint8) {... */\n    tag_51:\n        /* \"sgdm.sol\":7731:7736  uint8 */\n      0x00\n        /* \"sgdm.sol\":7749:7750  6 */\n      0x06\n        /* \"sgdm.sol\":7742:7750  return 6 */\n      swap1\n      pop\n        /* \"sgdm.sol\":7681:7754  function decimals() public pure override returns (uint8) {... */\n      swap1\n      jump\t// out\n        /* \"sgdm.sol\":1349:1374  IERC20 public targetToken */\n    tag_55:\n      0x05\n      0x00\n      swap1\n      sload\n      swap1\n      0x0100\n      exp\n      swap1\n      div\n      0xffffffffffffffffffffffffffffffffffffffff\n      and\n      dup2\n      jump\t// out\n        /* \"sgdm.sol\":5637:6259  function uen_send(string memory _uen_target, uint256 _amount) external check_name(_uen_target) returns (bool) {... */\n    tag_61:\n        /* \"sgdm.sol\":5741:5745  bool */\n      0x00\n        /* \"sgdm.sol\":5719:5730  _uen_target */\n      dup3\n        /* \"sgdm.sol\":3145:3146  0 */\n      0x00\n        /* \"sgdm.sol\":3096:3119  uen_management_contract */\n      0x09\n      0x00\n      swap1\n      sload\n      swap1\n      0x0100\n      exp\n      swap1\n      div\n      0xffffffffffffffffffffffffffffffffffffffff\n      and\n        /* \"sgdm.sol\":3096:3128  uen_management_contract.get_name */\n      0xffffffffffffffffffffffffffffffffffffffff\n      and\n      0xa8f5d7a6\n        /* \"sgdm.sol\":3129:3133  _uen */\n      dup4\n        /* \"sgdm.sol\":3096:3134  uen_management_contract.get_name(_uen) */\n      mload(0x40)\n      dup3\n      0xffffffff\n      and\n      0xe0\n      shl\n      dup2\n      mstore\n      0x04\n      add\n      tag_150\n      swap2\n      swap1\n      tag_28\n      jump\t// in\n    tag_150:\n      0x00\n      mload(0x40)\n      dup1\n      dup4\n      sub\n      dup2\n      dup7\n      gas\n      staticcall\n      iszero\n      dup1\n      iszero\n      tag_152\n      jumpi\n      returndatasize\n      0x00\n      dup1\n      returndatacopy\n      revert(0x00, returndatasize)\n    tag_152:\n      pop\n      pop\n      pop\n      pop\n      mload(0x40)\n      returndatasize\n      0x00\n      dup3\n      returndatacopy\n      returndatasize\n      not(0x1f)\n      0x1f\n      dup3\n      add\n      and\n      dup3\n      add\n      dup1\n      0x40\n      mstore\n      pop\n      dup2\n      add\n      swap1\n      tag_153\n      swap2\n      swap1\n      tag_132\n      jump\t// in\n    tag_153:\n        /* \"sgdm.sol\":3090:3142  bytes(uen_management_contract.get_name(_uen)).length */\n      mload\n        /* \"sgdm.sol\":3090:3146  bytes(uen_management_contract.get_name(_uen)).length > 0 */\n      gt\n        /* \"sgdm.sol\":3082:3169  require(bytes(uen_management_contract.get_name(_uen)).length > 0, \"UEN does not exist\") */\n      tag_154\n      jumpi\n      mload(0x40)\n      0x08c379a000000000000000000000000000000000000000000000000000000000\n      dup2\n      mstore\n      0x04\n      add\n      tag_155\n      swap1\n      tag_156\n      jump\t// in\n    tag_155:\n      mload(0x40)\n      dup1\n      swap2\n      sub\n      swap1\n      revert\n    tag_154:\n        /* \"sgdm.sol\":5787:5788  0 */\n      0x00\n        /* \"sgdm.sol\":5765:5776  _uen_target */\n      dup5\n        /* \"sgdm.sol\":5759:5784  bytes(_uen_target).length */\n      mload\n        /* \"sgdm.sol\":5759:5788  bytes(_uen_target).length > 0 */\n      gt\n        /* \"sgdm.sol\":5751:5812  require(bytes(_uen_target).length > 0, \"UEN target is empty\") */\n      tag_158\n      jumpi\n      mload(0x40)\n      0x08c379a000000000000000000000000000000000000000000000000000000000\n      dup2\n      mstore\n      0x04\n      add\n      tag_159\n      swap1\n      tag_160\n      jump\t// in\n    tag_159:\n      mload(0x40)\n      dup1\n      swap2\n      sub\n      swap1\n      revert\n    tag_158:\n        /* \"sgdm.sol\":5816:5840  string memory _uen_payer */\n      0x00\n        /* \"sgdm.sol\":5843:5861  whitelist_contract */\n      0x0a\n      0x00\n      swap1\n      sload\n      swap1\n      0x0100\n      exp\n      swap1\n      div\n      0xffffffffffffffffffffffffffffffffffffffff\n      and\n        /* \"sgdm.sol\":5843:5882  whitelist_contract.get_whitelist_to_uen */\n      0xffffffffffffffffffffffffffffffffffffffff\n      and\n      0x58581383\n        /* \"sgdm.sol\":5883:5893  msg.sender */\n      caller\n        /* \"sgdm.sol\":5843:5894  whitelist_contract.get_whitelist_to_uen(msg.sender) */\n      mload(0x40)\n      dup3\n      0xffffffff\n      and\n      0xe0\n      shl\n      dup2\n      mstore\n      0x04\n      add\n      tag_161\n      swap2\n      swap1\n      tag_40\n      jump\t// in\n    tag_161:\n      0x00\n      mload(0x40)\n      dup1\n      dup4\n      sub\n      dup2\n      dup7\n      gas\n      staticcall\n      iszero\n      dup1\n      iszero\n      tag_163\n      jumpi\n      returndatasize\n      0x00\n      dup1\n      returndatacopy\n      revert(0x00, returndatasize)\n    tag_163:\n      pop\n      pop\n      pop\n      pop\n      mload(0x40)\n      returndatasize\n      0x00\n      dup3\n      returndatacopy\n      returndatasize\n      not(0x1f)\n      0x1f\n      dup3\n      add\n      and\n      dup3\n      add\n      dup1\n      0x40\n      mstore\n      pop\n      dup2\n      add\n      swap1\n      tag_164\n      swap2\n      swap1\n      tag_132\n      jump\t// in\n    tag_164:\n        /* \"sgdm.sol\":5816:5894  string memory _uen_payer = whitelist_contract.get_whitelist_to_uen(msg.sender) */\n      swap1\n      pop\n        /* \"sgdm.sol\":5931:5938  _amount */\n      dup4\n        /* \"sgdm.sol\":5902:5916  uen_to_balance */\n      0x06\n        /* \"sgdm.sol\":5917:5927  _uen_payer */\n      dup3\n        /* \"sgdm.sol\":5902:5928  uen_to_balance[_uen_payer] */\n      mload(0x40)\n      tag_165\n      swap2\n      swap1\n      tag_134\n      jump\t// in\n    tag_165:\n      swap1\n      dup2\n      mstore\n      0x20\n      add\n      mload(0x40)\n      dup1\n      swap2\n      sub\n      swap1\n      keccak256\n      sload\n        /* \"sgdm.sol\":5902:5938  uen_to_balance[_uen_payer] < _amount */\n      lt\n        /* \"sgdm.sol\":5898:5962  if (uen_to_balance[_uen_payer] < _amount) {... */\n      iszero\n      tag_166\n      jumpi\n        /* \"sgdm.sol\":5952:5957  false */\n      0x00\n        /* \"sgdm.sol\":5945:5957  return false */\n      swap3\n      pop\n      pop\n      jump(tag_157)\n        /* \"sgdm.sol\":5898:5962  if (uen_to_balance[_uen_payer] < _amount) {... */\n    tag_166:\n        /* \"sgdm.sol\":5995:6002  _amount */\n      dup4\n        /* \"sgdm.sol\":5965:5979  uen_to_balance */\n      0x06\n        /* \"sgdm.sol\":5980:5990  _uen_payer */\n      dup3\n        /* \"sgdm.sol\":5965:5991  uen_to_balance[_uen_payer] */\n      mload(0x40)\n      tag_167\n      swap2\n      swap1\n      tag_134\n      jump\t// in\n    tag_167:\n      swap1\n      dup2\n      mstore\n      0x20\n      add\n      mload(0x40)\n      dup1\n      swap2\n      sub\n      swap1\n      keccak256\n      0x00\n        /* \"sgdm.sol\":5965:6002  uen_to_balance[_uen_payer] -= _amount */\n      dup3\n      dup3\n      sload\n      tag_168\n      swap2\n      swap1\n      tag_140\n      jump\t// in\n    tag_168:\n      swap3\n      pop\n      pop\n      dup2\n      swap1\n      sstore\n      pop\n        /* \"sgdm.sol\":6037:6044  _amount */\n      dup4\n        /* \"sgdm.sol\":6006:6020  uen_to_balance */\n      0x06\n        /* \"sgdm.sol\":6021:6032  _uen_target */\n      dup7\n        /* \"sgdm.sol\":6006:6033  uen_to_balance[_uen_target] */\n      mload(0x40)\n      tag_169\n      swap2\n      swap1\n      tag_134\n      jump\t// in\n    tag_169:\n      swap1\n      dup2\n      mstore\n      0x20\n      add\n      mload(0x40)\n      dup1\n      swap2\n      sub\n      swap1\n      keccak256\n      0x00\n        /* \"sgdm.sol\":6006:6044  uen_to_balance[_uen_target] += _amount */\n      dup3\n      dup3\n      sload\n      tag_170\n      swap2\n      swap1\n      tag_171\n      jump\t// in\n    tag_170:\n      swap3\n      pop\n      pop\n      dup2\n      swap1\n      sstore\n      pop\n        /* \"sgdm.sol\":6051:6078  address _uen_target_address */\n      0x00\n        /* \"sgdm.sol\":6081:6099  whitelist_contract */\n      0x0a\n      0x00\n      swap1\n      sload\n      swap1\n      0x0100\n      exp\n      swap1\n      div\n      0xffffffffffffffffffffffffffffffffffffffff\n      and\n        /* \"sgdm.sol\":6081:6120  whitelist_contract.get_uen_to_whitelist */\n      0xffffffffffffffffffffffffffffffffffffffff\n      and\n      0xa9b295e3\n        /* \"sgdm.sol\":6121:6132  _uen_target */\n      dup8\n        /* \"sgdm.sol\":6081:6133  whitelist_contract.get_uen_to_whitelist(_uen_target) */\n      mload(0x40)\n      dup3\n      0xffffffff\n      and\n      0xe0\n      shl\n      dup2\n      mstore\n      0x04\n      add\n      tag_172\n      swap2\n      swap1\n      tag_28\n      jump\t// in\n    tag_172:\n      0x20\n      mload(0x40)\n      dup1\n      dup4\n      sub\n      dup2\n      dup7\n      gas\n      staticcall\n      iszero\n      dup1\n      iszero\n      tag_174\n      jumpi\n      returndatasize\n      0x00\n      dup1\n      returndatacopy\n      revert(0x00, returndatasize)\n    tag_174:\n      pop\n      pop\n      pop\n      pop\n      mload(0x40)\n      returndatasize\n      not(0x1f)\n      0x1f\n      dup3\n      add\n      and\n      dup3\n      add\n      dup1\n      0x40\n      mstore\n      pop\n      dup2\n      add\n      swap1\n      tag_175\n      swap2\n      swap1\n      tag_176\n      jump\t// in\n    tag_175:\n        /* \"sgdm.sol\":6051:6133  address _uen_target_address = whitelist_contract.get_uen_to_whitelist(_uen_target) */\n      swap1\n      pop\n        /* \"sgdm.sol\":6172:6173  0 */\n      0x00\n        /* \"sgdm.sol\":6141:6174  _uen_target_address != address(0) */\n      0xffffffffffffffffffffffffffffffffffffffff\n      and\n        /* \"sgdm.sol\":6141:6160  _uen_target_address */\n      dup2\n        /* \"sgdm.sol\":6141:6174  _uen_target_address != address(0) */\n      0xffffffffffffffffffffffffffffffffffffffff\n      and\n      eq\n        /* \"sgdm.sol\":6137:6241  if (_uen_target_address != address(0)) {... */\n      tag_177\n      jumpi\n        /* \"sgdm.sol\":6207:6226  _uen_target_address */\n      dup1\n        /* \"sgdm.sol\":6186:6236  Transfer(msg.sender, _uen_target_address, _amount) */\n      0xffffffffffffffffffffffffffffffffffffffff\n      and\n        /* \"sgdm.sol\":6195:6205  msg.sender */\n      caller\n        /* \"sgdm.sol\":6186:6236  Transfer(msg.sender, _uen_target_address, _amount) */\n      0xffffffffffffffffffffffffffffffffffffffff\n      and\n      0xddf252ad1be2c89b69c2b068fc378daa952ba7f163c4a11628f55a4df523b3ef\n        /* \"sgdm.sol\":6228:6235  _amount */\n      dup8\n        /* \"sgdm.sol\":6186:6236  Transfer(msg.sender, _uen_target_address, _amount) */\n      mload(0x40)\n      tag_178\n      swap2\n      swap1\n      tag_44\n      jump\t// in\n    tag_178:\n      mload(0x40)\n      dup1\n      swap2\n      sub\n      swap1\n      log3\n        /* \"sgdm.sol\":6137:6241  if (_uen_target_address != address(0)) {... */\n    tag_177:\n        /* \"sgdm.sol\":6251:6255  true */\n      0x01\n        /* \"sgdm.sol\":6244:6255  return true */\n      swap4\n      pop\n      pop\n      pop\n        /* \"sgdm.sol\":3173:3174  _ */\n    tag_157:\n        /* \"sgdm.sol\":5637:6259  function uen_send(string memory _uen_target, uint256 _amount) external check_name(_uen_target) returns (bool) {... */\n      pop\n      swap3\n      swap2\n      pop\n      pop\n      jump\t// out\n        /* \"sgdm.sol\":4597:5191  function send_token_to_uen(string memory _uen, uint256 _amount) external check_name(_uen) returns (bool) {... */\n    tag_65:\n        /* \"sgdm.sol\":4696:4700  bool */\n      0x00\n        /* \"sgdm.sol\":4681:4685  _uen */\n      dup3\n        /* \"sgdm.sol\":3145:3146  0 */\n      0x00\n        /* \"sgdm.sol\":3096:3119  uen_management_contract */\n      0x09\n      0x00\n      swap1\n      sload\n      swap1\n      0x0100\n      exp\n      swap1\n      div\n      0xffffffffffffffffffffffffffffffffffffffff\n      and\n        /* \"sgdm.sol\":3096:3128  uen_management_contract.get_name */\n      0xffffffffffffffffffffffffffffffffffffffff\n      and\n      0xa8f5d7a6\n        /* \"sgdm.sol\":3129:3133  _uen */\n      dup4\n        /* \"sgdm.sol\":3096:3134  uen_management_contract.get_name(_uen) */\n      mload(0x40)\n      dup3\n      0xffffffff\n      and\n      0xe0\n      shl\n      dup2\n      mstore\n      0x04\n      add\n      tag_180\n      swap2\n      swap1\n      tag_28\n      jump\t// in\n    tag_180:\n      0x00\n      mload(0x40)\n      dup1\n      dup4\n      sub\n      dup2\n      dup7\n      gas\n      staticcall\n      iszero\n      dup1\n      iszero\n      tag_182\n      jumpi\n      returndatasize\n      0x00\n      dup1\n      returndatacopy\n      revert(0x00, returndatasize)\n    tag_182:\n      pop\n      pop\n      pop\n      pop\n      mload(0x40)\n      returndatasize\n      0x00\n      dup3\n      returndatacopy\n      returndatasize\n      not(0x1f)\n      0x1f\n      dup3\n      add\n      and\n      dup3\n      add\n      dup1\n      0x40\n      mstore\n      pop\n      dup2\n      add\n      swap1\n      tag_183\n      swap2\n      swap1\n      tag_132\n      jump\t// in\n    tag_183:\n        /* \"sgdm.sol\":3090:3142  bytes(uen_management_contract.get_name(_uen)).length */\n      mload\n        /* \"sgdm.sol\":3090:3146  bytes(uen_management_contract.get_name(_uen)).length > 0 */\n      gt\n        /* \"sgdm.sol\":3082:3169  require(bytes(uen_management_contract.get_name(_uen)).length > 0, \"UEN does not exist\") */\n      tag_184\n      jumpi\n      mload(0x40)\n      0x08c379a000000000000000000000000000000000000000000000000000000000\n      dup2\n      mstore\n      0x04\n      add\n      tag_185\n      swap1\n      tag_156\n      jump\t// in\n    tag_185:\n      mload(0x40)\n      dup1\n      swap2\n      sub\n      swap1\n      revert\n    tag_184:\n        /* \"sgdm.sol\":4735:4736  0 */\n      0x00\n        /* \"sgdm.sol\":4720:4724  _uen */\n      dup5\n        /* \"sgdm.sol\":4714:4732  bytes(_uen).length */\n      mload\n        /* \"sgdm.sol\":4714:4736  bytes(_uen).length > 0 */\n      gt\n        /* \"sgdm.sol\":4706:4753  require(bytes(_uen).length > 0, \"UEN is empty\") */\n      tag_187\n      jumpi\n      mload(0x40)\n      0x08c379a000000000000000000000000000000000000000000000000000000000\n      dup2\n      mstore\n      0x04\n      add\n      tag_188\n      swap1\n      tag_189\n      jump\t// in\n    tag_188:\n      mload(0x40)\n      dup1\n      swap2\n      sub\n      swap1\n      revert\n    tag_187:\n        /* \"sgdm.sol\":4760:4783  uint256 token_allowance */\n      0x00\n        /* \"sgdm.sol\":4786:4797  targetToken */\n      0x05\n      0x00\n      swap1\n      sload\n      swap1\n      0x0100\n      exp\n      swap1\n      div\n      0xffffffffffffffffffffffffffffffffffffffff\n      and\n        /* \"sgdm.sol\":4786:4807  targetToken.allowance */\n      0xffffffffffffffffffffffffffffffffffffffff\n      and\n      0xdd62ed3e\n        /* \"sgdm.sol\":4808:4818  msg.sender */\n      caller\n        /* \"sgdm.sol\":4828:4832  this */\n      address\n        /* \"sgdm.sol\":4786:4834  targetToken.allowance(msg.sender, address(this)) */\n      mload(0x40)\n      dup4\n      0xffffffff\n      and\n      0xe0\n      shl\n      dup2\n      mstore\n      0x04\n      add\n      tag_190\n      swap3\n      swap2\n      swap1\n      tag_191\n      jump\t// in\n    tag_190:\n      0x20\n      mload(0x40)\n      dup1\n      dup4\n      sub\n      dup2\n      dup7\n      gas\n      staticcall\n      iszero\n      dup1\n      iszero\n      tag_193\n      jumpi\n      returndatasize\n      0x00\n      dup1\n      returndatacopy\n      revert(0x00, returndatasize)\n    tag_193:\n      pop\n      pop\n      pop\n      pop\n      mload(0x40)\n      returndatasize\n      not(0x1f)\n      0x1f\n      dup3\n      add\n      and\n      dup3\n      add\n      dup1\n      0x40\n      mstore\n      pop\n      dup2\n      add\n      swap1\n      tag_194\n      swap2\n      swap1\n      tag_123\n      jump\t// in\n    tag_194:\n        /* \"sgdm.sol\":4760:4834  uint256 token_allowance = targetToken.allowance(msg.sender, address(this)) */\n      swap1\n      pop\n        /* \"sgdm.sol\":4868:4875  _amount */\n      dup4\n        /* \"sgdm.sol\":4849:4864  token_allowance */\n      dup2\n        /* \"sgdm.sol\":4849:4875  token_allowance >= _amount */\n      lt\n      iszero\n        /* \"sgdm.sol\":4841:4902  require(token_allowance >= _amount, \"Increase the allowance\") */\n      tag_195\n      jumpi\n      mload(0x40)\n      0x08c379a000000000000000000000000000000000000000000000000000000000\n      dup2\n      mstore\n      0x04\n      add\n      tag_196\n      swap1\n      tag_197\n      jump\t// in\n    tag_196:\n      mload(0x40)\n      dup1\n      swap2\n      sub\n      swap1\n      revert\n    tag_195:\n        /* \"sgdm.sol\":4909:4920  targetToken */\n      0x05\n      0x00\n      swap1\n      sload\n      swap1\n      0x0100\n      exp\n      swap1\n      div\n      0xffffffffffffffffffffffffffffffffffffffff\n      and\n        /* \"sgdm.sol\":4909:4933  targetToken.transferFrom */\n      0xffffffffffffffffffffffffffffffffffffffff\n      and\n      0x23b872dd\n        /* \"sgdm.sol\":4934:4944  msg.sender */\n      caller\n        /* \"sgdm.sol\":4954:4958  this */\n      address\n        /* \"sgdm.sol\":4961:4968  _amount */\n      dup8\n        /* \"sgdm.sol\":4909:4969  targetToken.transferFrom(msg.sender, address(this), _amount) */\n      mload(0x40)\n      dup5\n      0xffffffff\n      and\n      0xe0\n      shl\n      dup2\n      mstore\n      0x04\n      add\n      tag_198\n      swap4\n      swap3\n      swap2\n      swap1\n      tag_199\n      jump\t// in\n    tag_198:\n      0x20\n      mload(0x40)\n      dup1\n      dup4\n      sub\n      dup2\n      0x00\n      dup8\n      gas\n      call\n      iszero\n      dup1\n      iszero\n      tag_201\n      jumpi\n      returndatasize\n      0x00\n      dup1\n      returndatacopy\n      revert(0x00, returndatasize)\n    tag_201:\n      pop\n      pop\n      pop\n      pop\n      mload(0x40)\n      returndatasize\n      not(0x1f)\n      0x1f\n      dup3\n      add\n      and\n      dup3\n      add\n      dup1\n      0x40\n      mstore\n      pop\n      dup2\n      add\n      swap1\n      tag_202\n      swap2\n      swap1\n      tag_147\n      jump\t// in\n    tag_202:\n      pop\n        /* \"sgdm.sol\":4997:5004  _amount */\n      dup4\n        /* \"sgdm.sol\":4973:4987  uen_to_balance */\n      0x06\n        /* \"sgdm.sol\":4988:4992  _uen */\n      dup7\n        /* \"sgdm.sol\":4973:4993  uen_to_balance[_uen] */\n      mload(0x40)\n      tag_203\n      swap2\n      swap1\n      tag_134\n      jump\t// in\n    tag_203:\n      swap1\n      dup2\n      mstore\n      0x20\n      add\n      mload(0x40)\n      dup1\n      swap2\n      sub\n      swap1\n      keccak256\n      0x00\n        /* \"sgdm.sol\":4973:5004  uen_to_balance[_uen] += _amount */\n      dup3\n      dup3\n      sload\n      tag_204\n      swap2\n      swap1\n      tag_171\n      jump\t// in\n    tag_204:\n      swap3\n      pop\n      pop\n      dup2\n      swap1\n      sstore\n      pop\n        /* \"sgdm.sol\":5011:5031  address _uen_address */\n      0x00\n        /* \"sgdm.sol\":5034:5052  whitelist_contract */\n      0x0a\n      0x00\n      swap1\n      sload\n      swap1\n      0x0100\n      exp\n      swap1\n      div\n      0xffffffffffffffffffffffffffffffffffffffff\n      and\n        /* \"sgdm.sol\":5034:5073  whitelist_contract.get_uen_to_whitelist */\n      0xffffffffffffffffffffffffffffffffffffffff\n      and\n      0xa9b295e3\n        /* \"sgdm.sol\":5074:5078  _uen */\n      dup8\n        /* \"sgdm.sol\":5034:5079  whitelist_contract.get_uen_to_whitelist(_uen) */\n      mload(0x40)\n      dup3\n      0xffffffff\n      and\n      0xe0\n      shl\n      dup2\n      mstore\n      0x04\n      add\n      tag_205\n      swap2\n      swap1\n      tag_28\n      jump\t// in\n    tag_205:\n      0x20\n      mload(0x40)\n      dup1\n      dup4\n      sub\n      dup2\n      dup7\n      gas\n      staticcall\n      iszero\n      dup1\n      iszero\n      tag_207\n      jumpi\n      returndatasize\n      0x00\n      dup1\n      returndatacopy\n      revert(0x00, returndatasize)\n    tag_207:\n      pop\n      pop\n      pop\n      pop\n      mload(0x40)\n      returndatasize\n      not(0x1f)\n      0x1f\n      dup3\n      add\n      and\n      dup3\n      add\n      dup1\n      0x40\n      mstore\n      pop\n      dup2\n      add\n      swap1\n      tag_208\n      swap2\n      swap1\n      tag_176\n      jump\t// in\n    tag_208:\n        /* \"sgdm.sol\":5011:5079  address _uen_address = whitelist_contract.get_uen_to_whitelist(_uen) */\n      swap1\n      pop\n        /* \"sgdm.sol\":5111:5112  0 */\n      0x00\n        /* \"sgdm.sol\":5087:5113  _uen_address != address(0) */\n      0xffffffffffffffffffffffffffffffffffffffff\n      and\n        /* \"sgdm.sol\":5087:5099  _uen_address */\n      dup2\n        /* \"sgdm.sol\":5087:5113  _uen_address != address(0) */\n      0xffffffffffffffffffffffffffffffffffffffff\n      and\n      eq\n        /* \"sgdm.sol\":5083:5173  if (_uen_address != address(0)) {... */\n      tag_209\n      jumpi\n        /* \"sgdm.sol\":5146:5158  _uen_address */\n      dup1\n        /* \"sgdm.sol\":5125:5168  Transfer(msg.sender, _uen_address, _amount) */\n      0xffffffffffffffffffffffffffffffffffffffff\n      and\n        /* \"sgdm.sol\":5134:5144  msg.sender */\n      caller\n        /* \"sgdm.sol\":5125:5168  Transfer(msg.sender, _uen_address, _amount) */\n      0xffffffffffffffffffffffffffffffffffffffff\n      and\n      0xddf252ad1be2c89b69c2b068fc378daa952ba7f163c4a11628f55a4df523b3ef\n        /* \"sgdm.sol\":5160:5167  _amount */\n      dup8\n        /* \"sgdm.sol\":5125:5168  Transfer(msg.sender, _uen_address, _amount) */\n      mload(0x40)\n      tag_210\n      swap2\n      swap1\n      tag_44\n      jump\t// in\n    tag_210:\n      mload(0x40)\n      dup1\n      swap2\n      sub\n      swap1\n      log3\n        /* \"sgdm.sol\":5083:5173  if (_uen_address != address(0)) {... */\n    tag_209:\n        /* \"sgdm.sol\":5183:5187  true */\n      0x01\n        /* \"sgdm.sol\":5176:5187  return true */\n      swap4\n      pop\n      pop\n      pop\n        /* \"sgdm.sol\":4597:5191  function send_token_to_uen(string memory _uen, uint256 _amount) external check_name(_uen) returns (bool) {... */\n      pop\n      swap3\n      swap2\n      pop\n      pop\n      jump\t// out\n        /* \"sgdm.sol\":8043:8232  function balanceOf(address _owner) public view override returns (uint256 balance) {... */\n    tag_70:\n        /* \"sgdm.sol\":8108:8123  uint256 balance */\n      0x00\n        /* \"sgdm.sol\":8129:8147  string memory _uen */\n      dup1\n        /* \"sgdm.sol\":8150:8168  whitelist_contract */\n      0x0a\n      0x00\n      swap1\n      sload\n      swap1\n      0x0100\n      exp\n      swap1\n      div\n      0xffffffffffffffffffffffffffffffffffffffff\n      and\n        /* \"sgdm.sol\":8150:8189  whitelist_contract.get_whitelist_to_uen */\n      0xffffffffffffffffffffffffffffffffffffffff\n      and\n      0x58581383\n        /* \"sgdm.sol\":8190:8196  _owner */\n      dup5\n        /* \"sgdm.sol\":8150:8197  whitelist_contract.get_whitelist_to_uen(_owner) */\n      mload(0x40)\n      dup3\n      0xffffffff\n      and\n      0xe0\n      shl\n      dup2\n      mstore\n      0x04\n      add\n      tag_212\n      swap2\n      swap1\n      tag_40\n      jump\t// in\n    tag_212:\n      0x00\n      mload(0x40)\n      dup1\n      dup4\n      sub\n      dup2\n      dup7\n      gas\n      staticcall\n      iszero\n      dup1\n      iszero\n      tag_214\n      jumpi\n      returndatasize\n      0x00\n      dup1\n      returndatacopy\n      revert(0x00, returndatasize)\n    tag_214:\n      pop\n      pop\n      pop\n      pop\n      mload(0x40)\n      returndatasize\n      0x00\n      dup3\n      returndatacopy\n      returndatasize\n      not(0x1f)\n      0x1f\n      dup3\n      add\n      and\n      dup3\n      add\n      dup1\n      0x40\n      mstore\n      pop\n      dup2\n      add\n      swap1\n      tag_215\n      swap2\n      swap1\n      tag_132\n      jump\t// in\n    tag_215:\n        /* \"sgdm.sol\":8129:8197  string memory _uen = whitelist_contract.get_whitelist_to_uen(_owner) */\n      swap1\n      pop\n        /* \"sgdm.sol\":8208:8222  uen_to_balance */\n      0x06\n        /* \"sgdm.sol\":8223:8227  _uen */\n      dup2\n        /* \"sgdm.sol\":8208:8228  uen_to_balance[_uen] */\n      mload(0x40)\n      tag_216\n      swap2\n      swap1\n      tag_134\n      jump\t// in\n    tag_216:\n      swap1\n      dup2\n      mstore\n      0x20\n      add\n      mload(0x40)\n      dup1\n      swap2\n      sub\n      swap1\n      keccak256\n      sload\n        /* \"sgdm.sol\":8201:8228  return uen_to_balance[_uen] */\n      swap2\n      pop\n      pop\n        /* \"sgdm.sol\":8043:8232  function balanceOf(address _owner) public view override returns (uint256 balance) {... */\n      swap2\n      swap1\n      pop\n      jump\t// out\n        /* \"sgdm.sol\":7573:7665  function token_address() external view returns (address) {... */\n    tag_73:\n        /* \"sgdm.sol\":7621:7628  address */\n      0x00\n        /* \"sgdm.sol\":7649:7660  targetToken */\n      0x05\n      0x00\n      swap1\n      sload\n      swap1\n      0x0100\n      exp\n      swap1\n      div\n      0xffffffffffffffffffffffffffffffffffffffff\n      and\n        /* \"sgdm.sol\":7634:7661  return address(targetToken) */\n      swap1\n      pop\n        /* \"sgdm.sol\":7573:7665  function token_address() external view returns (address) {... */\n      swap1\n      jump\t// out\n        /* \"sgdm.sol\":4013:4124  function balance_of_uen(string memory _uen) external view returns (uint256) {... */\n    tag_78:\n        /* \"sgdm.sol\":4080:4087  uint256 */\n      0x00\n        /* \"sgdm.sol\":4100:4114  uen_to_balance */\n      0x06\n        /* \"sgdm.sol\":4115:4119  _uen */\n      dup3\n        /* \"sgdm.sol\":4100:4120  uen_to_balance[_uen] */\n      mload(0x40)\n      tag_219\n      swap2\n      swap1\n      tag_134\n      jump\t// in\n    tag_219:\n      swap1\n      dup2\n      mstore\n      0x20\n      add\n      mload(0x40)\n      dup1\n      swap2\n      sub\n      swap1\n      keccak256\n      sload\n        /* \"sgdm.sol\":4093:4120  return uen_to_balance[_uen] */\n      swap1\n      pop\n        /* \"sgdm.sol\":4013:4124  function balance_of_uen(string memory _uen) external view returns (uint256) {... */\n      swap2\n      swap1\n      pop\n      jump\t// out\n        /* \"@openzeppelin/contracts/token/ERC20/ERC20.sol\":2276:2369  function symbol() public view virtual returns (string memory) {... */\n    tag_81:\n        /* \"@openzeppelin/contracts/token/ERC20/ERC20.sol\":2323:2336  string memory */\n      0x60\n        /* \"@openzeppelin/contracts/token/ERC20/ERC20.sol\":2355:2362  _symbol */\n      0x04\n        /* \"@openzeppelin/contracts/token/ERC20/ERC20.sol\":2348:2362  return _symbol */\n      dup1\n      sload\n      tag_221\n      swap1\n      tag_109\n      jump\t// in\n    tag_221:\n      dup1\n      0x1f\n      add\n      0x20\n      dup1\n      swap2\n      div\n      mul\n      0x20\n      add\n      mload(0x40)\n      swap1\n      dup2\n      add\n      0x40\n      mstore\n      dup1\n      swap3\n      swap2\n      swap1\n      dup2\n      dup2\n      mstore\n      0x20\n      add\n      dup3\n      dup1\n      sload\n      tag_222\n      swap1\n      tag_109\n      jump\t// in\n    tag_222:\n      dup1\n      iszero\n      tag_223\n      jumpi\n      dup1\n      0x1f\n      lt\n      tag_224\n      jumpi\n      0x0100\n      dup1\n      dup4\n      sload\n      div\n      mul\n      dup4\n      mstore\n      swap2\n      0x20\n      add\n      swap2\n      jump(tag_223)\n    tag_224:\n      dup3\n      add\n      swap2\n      swap1\n      0x00\n      mstore\n      keccak256(0x00, 0x20)\n      swap1\n    tag_225:\n      dup2\n      sload\n      dup2\n      mstore\n      swap1\n      0x01\n      add\n      swap1\n      0x20\n      add\n      dup1\n      dup4\n      gt\n      tag_225\n      jumpi\n      dup3\n      swap1\n      sub\n      0x1f\n      and\n      dup3\n      add\n      swap2\n    tag_223:\n      pop\n      pop\n      pop\n      pop\n      pop\n      swap1\n      pop\n        /* \"@openzeppelin/contracts/token/ERC20/ERC20.sol\":2276:2369  function symbol() public view virtual returns (string memory) {... */\n      swap1\n      jump\t// out\n        /* \"sgdm.sol\":3862:3991  function check_whitelist() public view returns (string memory) {... */\n    tag_84:\n        /* \"sgdm.sol\":3910:3923  string memory */\n      0x60\n        /* \"sgdm.sol\":3936:3954  whitelist_contract */\n      0x0a\n      0x00\n      swap1\n      sload\n      swap1\n      0x0100\n      exp\n      swap1\n      div\n      0xffffffffffffffffffffffffffffffffffffffff\n      and\n        /* \"sgdm.sol\":3936:3975  whitelist_contract.get_whitelist_to_uen */\n      0xffffffffffffffffffffffffffffffffffffffff\n      and\n      0x58581383\n        /* \"sgdm.sol\":3976:3986  msg.sender */\n      caller\n        /* \"sgdm.sol\":3936:3987  whitelist_contract.get_whitelist_to_uen(msg.sender) */\n      mload(0x40)\n      dup3\n      0xffffffff\n      and\n      0xe0\n      shl\n      dup2\n      mstore\n      0x04\n      add\n      tag_227\n      swap2\n      swap1\n      tag_40\n      jump\t// in\n    tag_227:\n      0x00\n      mload(0x40)\n      dup1\n      dup4\n      sub\n      dup2\n      dup7\n      gas\n      staticcall\n      iszero\n      dup1\n      iszero\n      tag_229\n      jumpi\n      returndatasize\n      0x00\n      dup1\n      returndatacopy\n      revert(0x00, returndatasize)\n    tag_229:\n      pop\n      pop\n      pop\n      pop\n      mload(0x40)\n      returndatasize\n      0x00\n      dup3\n      returndatacopy\n      returndatasize\n      not(0x1f)\n      0x1f\n      dup3\n      add\n      and\n      dup3\n      add\n      dup1\n      0x40\n      mstore\n      pop\n      dup2\n      add\n      swap1\n      tag_230\n      swap2\n      swap1\n      tag_132\n      jump\t// in\n    tag_230:\n        /* \"sgdm.sol\":3929:3987  return whitelist_contract.get_whitelist_to_uen(msg.sender) */\n      swap1\n      pop\n        /* \"sgdm.sol\":3862:3991  function check_whitelist() public view returns (string memory) {... */\n      swap1\n      jump\t// out\n        /* \"sgdm.sol\":3662:3791  function get_name(string memory _uen) external view returns (string memory) {... */\n    tag_88:\n        /* \"sgdm.sol\":3723:3736  string memory */\n      0x60\n        /* \"sgdm.sol\":3749:3772  uen_management_contract */\n      0x09\n      0x00\n      swap1\n      sload\n      swap1\n      0x0100\n      exp\n      swap1\n      div\n      0xffffffffffffffffffffffffffffffffffffffff\n      and\n        /* \"sgdm.sol\":3749:3781  uen_management_contract.get_name */\n      0xffffffffffffffffffffffffffffffffffffffff\n      and\n      0xa8f5d7a6\n        /* \"sgdm.sol\":3782:3786  _uen */\n      dup4\n        /* \"sgdm.sol\":3749:3787  uen_management_contract.get_name(_uen) */\n      mload(0x40)\n      dup3\n      0xffffffff\n      and\n      0xe0\n      shl\n      dup2\n      mstore\n      0x04\n      add\n      tag_232\n      swap2\n      swap1\n      tag_28\n      jump\t// in\n    tag_232:\n      0x00\n      mload(0x40)\n      dup1\n      dup4\n      sub\n      dup2\n      dup7\n      gas\n      staticcall\n      iszero\n      dup1\n      iszero\n      tag_234\n      jumpi\n      returndatasize\n      0x00\n      dup1\n      returndatacopy\n      revert(0x00, returndatasize)\n    tag_234:\n      pop\n      pop\n      pop\n      pop\n      mload(0x40)\n      returndatasize\n      0x00\n      dup3\n      returndatacopy\n      returndatasize\n      not(0x1f)\n      0x1f\n      dup3\n      add\n      and\n      dup3\n      add\n      dup1\n      0x40\n      mstore\n      pop\n      dup2\n      add\n      swap1\n      tag_235\n      swap2\n      swap1\n      tag_132\n      jump\t// in\n    tag_235:\n        /* \"sgdm.sol\":3742:3787  return uen_management_contract.get_name(_uen) */\n      swap1\n      pop\n        /* \"sgdm.sol\":3662:3791  function get_name(string memory _uen) external view returns (string memory) {... */\n      swap2\n      swap1\n      pop\n      jump\t// out\n        /* \"sgdm.sol\":6529:7002  function transfer(address _to, uint256 _amount) public override returns (bool) {... */\n    tag_92:\n        /* \"sgdm.sol\":6602:6606  bool */\n      0x00\n        /* \"sgdm.sol\":6635:6636  0 */\n      dup1\n        /* \"sgdm.sol\":6620:6637  _to != address(0) */\n      0xffffffffffffffffffffffffffffffffffffffff\n      and\n        /* \"sgdm.sol\":6620:6623  _to */\n      dup4\n        /* \"sgdm.sol\":6620:6637  _to != address(0) */\n      0xffffffffffffffffffffffffffffffffffffffff\n      and\n      sub\n        /* \"sgdm.sol\":6612:6666  require(_to != address(0), \"Transfer to zero address\") */\n      tag_237\n      jumpi\n      mload(0x40)\n      0x08c379a000000000000000000000000000000000000000000000000000000000\n      dup2\n      mstore\n      0x04\n      add\n      tag_238\n      swap1\n      tag_127\n      jump\t// in\n    tag_238:\n      mload(0x40)\n      dup1\n      swap2\n      sub\n      swap1\n      revert\n    tag_237:\n        /* \"sgdm.sol\":6670:6695  string memory _uen_sender */\n      0x00\n        /* \"sgdm.sol\":6698:6716  whitelist_contract */\n      0x0a\n      0x00\n      swap1\n      sload\n      swap1\n      0x0100\n      exp\n      swap1\n      div\n      0xffffffffffffffffffffffffffffffffffffffff\n      and\n        /* \"sgdm.sol\":6698:6737  whitelist_contract.get_whitelist_to_uen */\n      0xffffffffffffffffffffffffffffffffffffffff\n      and\n      0x58581383\n        /* \"sgdm.sol\":6738:6748  msg.sender */\n      caller\n        /* \"sgdm.sol\":6698:6749  whitelist_contract.get_whitelist_to_uen(msg.sender) */\n      mload(0x40)\n      dup3\n      0xffffffff\n      and\n      0xe0\n      shl\n      dup2\n      mstore\n      0x04\n      add\n      tag_239\n      swap2\n      swap1\n      tag_40\n      jump\t// in\n    tag_239:\n      0x00\n      mload(0x40)\n      dup1\n      dup4\n      sub\n      dup2\n      dup7\n      gas\n      staticcall\n      iszero\n      dup1\n      iszero\n      tag_241\n      jumpi\n      returndatasize\n      0x00\n      dup1\n      returndatacopy\n      revert(0x00, returndatasize)\n    tag_241:\n      pop\n      pop\n      pop\n      pop\n      mload(0x40)\n      returndatasize\n      0x00\n      dup3\n      returndatacopy\n      returndatasize\n      not(0x1f)\n      0x1f\n      dup3\n      add\n      and\n      dup3\n      add\n      dup1\n      0x40\n      mstore\n      pop\n      dup2\n      add\n      swap1\n      tag_242\n      swap2\n      swap1\n      tag_132\n      jump\t// in\n    tag_242:\n        /* \"sgdm.sol\":6670:6749  string memory _uen_sender = whitelist_contract.get_whitelist_to_uen(msg.sender) */\n      swap1\n      pop\n        /* \"sgdm.sol\":6756:6772  uint256 _balance */\n      0x00\n        /* \"sgdm.sol\":6775:6789  uen_to_balance */\n      0x06\n        /* \"sgdm.sol\":6790:6801  _uen_sender */\n      dup3\n        /* \"sgdm.sol\":6775:6802  uen_to_balance[_uen_sender] */\n      mload(0x40)\n      tag_243\n      swap2\n      swap1\n      tag_134\n      jump\t// in\n    tag_243:\n      swap1\n      dup2\n      mstore\n      0x20\n      add\n      mload(0x40)\n      dup1\n      swap2\n      sub\n      swap1\n      keccak256\n      sload\n        /* \"sgdm.sol\":6756:6802  uint256 _balance = uen_to_balance[_uen_sender] */\n      swap1\n      pop\n        /* \"sgdm.sol\":6827:6834  _amount */\n      dup4\n        /* \"sgdm.sol\":6815:6823  _balance */\n      dup2\n        /* \"sgdm.sol\":6815:6834  _balance >= _amount */\n      lt\n      iszero\n        /* \"sgdm.sol\":6806:6857  require (_balance >= _amount, \"Not enough balance\") */\n      tag_244\n      jumpi\n      mload(0x40)\n      0x08c379a000000000000000000000000000000000000000000000000000000000\n      dup2\n      mstore\n      0x04\n      add\n      tag_245\n      swap1\n      tag_137\n      jump\t// in\n    tag_245:\n      mload(0x40)\n      dup1\n      swap2\n      sub\n      swap1\n      revert\n    tag_244:\n        /* \"sgdm.sol\":6895:6902  _amount */\n      dup4\n        /* \"sgdm.sol\":6864:6878  uen_to_balance */\n      0x06\n        /* \"sgdm.sol\":6879:6890  _uen_sender */\n      dup4\n        /* \"sgdm.sol\":6864:6891  uen_to_balance[_uen_sender] */\n      mload(0x40)\n      tag_246\n      swap2\n      swap1\n      tag_134\n      jump\t// in\n    tag_246:\n      swap1\n      dup2\n      mstore\n      0x20\n      add\n      mload(0x40)\n      dup1\n      swap2\n      sub\n      swap1\n      keccak256\n      0x00\n        /* \"sgdm.sol\":6864:6902  uen_to_balance[_uen_sender] -= _amount */\n      dup3\n      dup3\n      sload\n      tag_247\n      swap2\n      swap1\n      tag_140\n      jump\t// in\n    tag_247:\n      swap3\n      pop\n      pop\n      dup2\n      swap1\n      sstore\n      pop\n        /* \"sgdm.sol\":6932:6935  _to */\n      dup5\n        /* \"sgdm.sol\":6911:6945  Transfer(msg.sender, _to, _amount) */\n      0xffffffffffffffffffffffffffffffffffffffff\n      and\n        /* \"sgdm.sol\":6920:6930  msg.sender */\n      caller\n        /* \"sgdm.sol\":6911:6945  Transfer(msg.sender, _to, _amount) */\n      0xffffffffffffffffffffffffffffffffffffffff\n      and\n      0xddf252ad1be2c89b69c2b068fc378daa952ba7f163c4a11628f55a4df523b3ef\n        /* \"sgdm.sol\":6937:6944  _amount */\n      dup7\n        /* \"sgdm.sol\":6911:6945  Transfer(msg.sender, _to, _amount) */\n      mload(0x40)\n      tag_248\n      swap2\n      swap1\n      tag_44\n      jump\t// in\n    tag_248:\n      mload(0x40)\n      dup1\n      swap2\n      sub\n      swap1\n      log3\n        /* \"sgdm.sol\":6949:6960  targetToken */\n      0x05\n      0x00\n      swap1\n      sload\n      swap1\n      0x0100\n      exp\n      swap1\n      div\n      0xffffffffffffffffffffffffffffffffffffffff\n      and\n        /* \"sgdm.sol\":6949:6969  targetToken.transfer */\n      0xffffffffffffffffffffffffffffffffffffffff\n      and\n      0xa9059cbb\n        /* \"sgdm.sol\":6970:6973  _to */\n      dup7\n        /* \"sgdm.sol\":6975:6982  _amount */\n      dup7\n        /* \"sgdm.sol\":6949:6983  targetToken.transfer(_to, _amount) */\n      mload(0x40)\n      dup4\n      0xffffffff\n      and\n      0xe0\n      shl\n      dup2\n      mstore\n      0x04\n      add\n      tag_249\n      swap3\n      swap2\n      swap1\n      tag_143\n      jump\t// in\n    tag_249:\n      0x20\n      mload(0x40)\n      dup1\n      dup4\n      sub\n      dup2\n      0x00\n      dup8\n      gas\n      call\n      iszero\n      dup1\n      iszero\n      tag_251\n      jumpi\n      returndatasize\n      0x00\n      dup1\n      returndatacopy\n      revert(0x00, returndatasize)\n    tag_251:\n      pop\n      pop\n      pop\n      pop\n      mload(0x40)\n      returndatasize\n      not(0x1f)\n      0x1f\n      dup3\n      add\n      and\n      dup3\n      add\n      dup1\n      0x40\n      mstore\n      pop\n      dup2\n      add\n      swap1\n      tag_252\n      swap2\n      swap1\n      tag_147\n      jump\t// in\n    tag_252:\n      pop\n        /* \"sgdm.sol\":6994:6998  true */\n      0x01\n        /* \"sgdm.sol\":6987:6998  return true */\n      swap3\n      pop\n      pop\n      pop\n        /* \"sgdm.sol\":6529:7002  function transfer(address _to, uint256 _amount) public override returns (bool) {... */\n      swap3\n      swap2\n      pop\n      pop\n      jump\t// out\n        /* \"sgdm.sol\":8307:8453  function allowance(address _owner, address _spender) public view override returns (uint256) {... */\n    tag_97:\n        /* \"sgdm.sol\":8390:8397  uint256 */\n      0x00\n        /* \"sgdm.sol\":8410:8421  targetToken */\n      0x05\n      0x00\n      swap1\n      sload\n      swap1\n      0x0100\n      exp\n      swap1\n      div\n      0xffffffffffffffffffffffffffffffffffffffff\n      and\n        /* \"sgdm.sol\":8410:8431  targetToken.allowance */\n      0xffffffffffffffffffffffffffffffffffffffff\n      and\n      0xdd62ed3e\n        /* \"sgdm.sol\":8432:8438  _owner */\n      dup5\n        /* \"sgdm.sol\":8440:8448  _spender */\n      dup5\n        /* \"sgdm.sol\":8410:8449  targetToken.allowance(_owner, _spender) */\n      mload(0x40)\n      dup4\n      0xffffffff\n      and\n      0xe0\n      shl\n      dup2\n      mstore\n      0x04\n      add\n      tag_254\n      swap3\n      swap2\n      swap1\n      tag_191\n      jump\t// in\n    tag_254:\n      0x20\n      mload(0x40)\n      dup1\n      dup4\n      sub\n      dup2\n      dup7\n      gas\n      staticcall\n      iszero\n      dup1\n      iszero\n      tag_256\n      jumpi\n      returndatasize\n      0x00\n      dup1\n      returndatacopy\n      revert(0x00, returndatasize)\n    tag_256:\n      pop\n      pop\n      pop\n      pop\n      mload(0x40)\n      returndatasize\n      not(0x1f)\n      0x1f\n      dup3\n      add\n      and\n      dup3\n      add\n      dup1\n      0x40\n      mstore\n      pop\n      dup2\n      add\n      swap1\n      tag_257\n      swap2\n      swap1\n      tag_123\n      jump\t// in\n    tag_257:\n        /* \"sgdm.sol\":8403:8449  return targetToken.allowance(_owner, _spender) */\n      swap1\n      pop\n        /* \"sgdm.sol\":8307:8453  function allowance(address _owner, address _spender) public view override returns (uint256) {... */\n      swap3\n      swap2\n      pop\n      pop\n      jump\t// out\n        /* \"sgdm.sol\":1432:1480  mapping(string => uint256) public uen_to_balance */\n    tag_101:\n      0x06\n      dup2\n      dup1\n      mload\n      0x20\n      dup2\n      add\n      dup3\n      add\n      dup1\n      mload\n      dup5\n      dup3\n      mstore\n      0x20\n      dup4\n      add\n      0x20\n      dup6\n      add\n      keccak256\n      dup2\n      dup4\n      mstore\n      dup1\n      swap6\n      pop\n      pop\n      pop\n      pop\n      pop\n      pop\n      0x00\n      swap2\n      pop\n      swap1\n      pop\n      sload\n      dup2\n      jump\t// out\n        /* \"sgdm.sol\":3284:3610  function admin_withdraw(address _to, uint256 _amount) external only_admin returns (bool) {... */\n    tag_105:\n        /* \"sgdm.sol\":3367:3371  bool */\n      0x00\n        /* \"sgdm.sol\":2747:2760  bool is_owner */\n      dup1\n        /* \"sgdm.sol\":2763:2768  false */\n      0x00\n        /* \"sgdm.sol\":2747:2768  bool is_owner = false */\n      swap1\n      pop\n        /* \"sgdm.sol\":2777:2783  uint i */\n      0x00\n        /* \"sgdm.sol\":2772:2889  for (uint i = 0; i < admins.length; i++) {... */\n    tag_259:\n        /* \"sgdm.sol\":2793:2799  admins */\n      0x08\n        /* \"sgdm.sol\":2793:2806  admins.length */\n      dup1\n      sload\n      swap1\n      pop\n        /* \"sgdm.sol\":2789:2790  i */\n      dup2\n        /* \"sgdm.sol\":2789:2806  i < admins.length */\n      lt\n        /* \"sgdm.sol\":2772:2889  for (uint i = 0; i < admins.length; i++) {... */\n      iszero\n      tag_260\n      jumpi\n        /* \"sgdm.sol\":2836:2842  admins */\n      0x08\n        /* \"sgdm.sol\":2843:2844  i */\n      dup2\n        /* \"sgdm.sol\":2836:2845  admins[i] */\n      dup2\n      sload\n      dup2\n      lt\n      tag_262\n      jumpi\n      tag_263\n      tag_264\n      jump\t// in\n    tag_263:\n    tag_262:\n      swap1\n      0x00\n      mstore\n      keccak256(0x00, 0x20)\n      add\n      0x00\n      swap1\n      sload\n      swap1\n      0x0100\n      exp\n      swap1\n      div\n      0xffffffffffffffffffffffffffffffffffffffff\n      and\n        /* \"sgdm.sol\":2822:2845  msg.sender == admins[i] */\n      0xffffffffffffffffffffffffffffffffffffffff\n      and\n        /* \"sgdm.sol\":2822:2832  msg.sender */\n      caller\n        /* \"sgdm.sol\":2822:2845  msg.sender == admins[i] */\n      0xffffffffffffffffffffffffffffffffffffffff\n      and\n      sub\n        /* \"sgdm.sol\":2818:2885  if (msg.sender == admins[i]) {... */\n      tag_266\n      jumpi\n        /* \"sgdm.sol\":2864:2868  true */\n      0x01\n        /* \"sgdm.sol\":2853:2868  is_owner = true */\n      swap2\n      pop\n        /* \"sgdm.sol\":2874:2879  break */\n      jump(tag_260)\n        /* \"sgdm.sol\":2818:2885  if (msg.sender == admins[i]) {... */\n    tag_266:\n        /* \"sgdm.sol\":2808:2811  i++ */\n      dup1\n      dup1\n      0x01\n      add\n      swap2\n      pop\n      pop\n        /* \"sgdm.sol\":2772:2889  for (uint i = 0; i < admins.length; i++) {... */\n      jump(tag_259)\n    tag_260:\n      pop\n        /* \"sgdm.sol\":2900:2908  is_owner */\n      dup1\n        /* \"sgdm.sol\":2892:2947  require(is_owner, \"Only admins can call this function\") */\n      tag_267\n      jumpi\n      mload(0x40)\n      0x08c379a000000000000000000000000000000000000000000000000000000000\n      dup2\n      mstore\n      0x04\n      add\n      tag_268\n      swap1\n      tag_269\n      jump\t// in\n    tag_268:\n      mload(0x40)\n      dup1\n      swap2\n      sub\n      swap1\n      revert\n    tag_267:\n        /* \"sgdm.sol\":3400:3401  0 */\n      0x00\n        /* \"sgdm.sol\":3385:3402  _to != address(0) */\n      0xffffffffffffffffffffffffffffffffffffffff\n      and\n        /* \"sgdm.sol\":3385:3388  _to */\n      dup5\n        /* \"sgdm.sol\":3385:3402  _to != address(0) */\n      0xffffffffffffffffffffffffffffffffffffffff\n      and\n      sub\n        /* \"sgdm.sol\":3377:3435  require(_to != address(0), \"Withdraw to the zero address\") */\n      tag_271\n      jumpi\n      mload(0x40)\n      0x08c379a000000000000000000000000000000000000000000000000000000000\n      dup2\n      mstore\n      0x04\n      add\n      tag_272\n      swap1\n      tag_273\n      jump\t// in\n    tag_272:\n      mload(0x40)\n      dup1\n      swap2\n      sub\n      swap1\n      revert\n    tag_271:\n        /* \"sgdm.sol\":3442:3458  uint256 _balance */\n      0x00\n        /* \"sgdm.sol\":3461:3472  targetToken */\n      0x05\n      0x00\n      swap1\n      sload\n      swap1\n      0x0100\n      exp\n      swap1\n      div\n      0xffffffffffffffffffffffffffffffffffffffff\n      and\n        /* \"sgdm.sol\":3461:3482  targetToken.balanceOf */\n      0xffffffffffffffffffffffffffffffffffffffff\n      and\n      0x70a08231\n        /* \"sgdm.sol\":3491:3495  this */\n      address\n        /* \"sgdm.sol\":3461:3497  targetToken.balanceOf(address(this)) */\n      mload(0x40)\n      dup3\n      0xffffffff\n      and\n      0xe0\n      shl\n      dup2\n      mstore\n      0x04\n      add\n      tag_274\n      swap2\n      swap1\n      tag_40\n      jump\t// in\n    tag_274:\n      0x20\n      mload(0x40)\n      dup1\n      dup4\n      sub\n      dup2\n      dup7\n      gas\n      staticcall\n      iszero\n      dup1\n      iszero\n      tag_276\n      jumpi\n      returndatasize\n      0x00\n      dup1\n      returndatacopy\n      revert(0x00, returndatasize)\n    tag_276:\n      pop\n      pop\n      pop\n      pop\n      mload(0x40)\n      returndatasize\n      not(0x1f)\n      0x1f\n      dup3\n      add\n      and\n      dup3\n      add\n      dup1\n      0x40\n      mstore\n      pop\n      dup2\n      add\n      swap1\n      tag_277\n      swap2\n      swap1\n      tag_123\n      jump\t// in\n    tag_277:\n        /* \"sgdm.sol\":3442:3497  uint256 _balance = targetToken.balanceOf(address(this)) */\n      swap1\n      pop\n        /* \"sgdm.sol\":3522:3529  _amount */\n      dup4\n        /* \"sgdm.sol\":3510:3518  _balance */\n      dup2\n        /* \"sgdm.sol\":3510:3529  _balance >= _amount */\n      lt\n      iszero\n        /* \"sgdm.sol\":3501:3552  require (_balance >= _amount, \"Not enough balance\") */\n      tag_278\n      jumpi\n      mload(0x40)\n      0x08c379a000000000000000000000000000000000000000000000000000000000\n      dup2\n      mstore\n      0x04\n      add\n      tag_279\n      swap1\n      tag_137\n      jump\t// in\n    tag_279:\n      mload(0x40)\n      dup1\n      swap2\n      sub\n      swap1\n      revert\n    tag_278:\n        /* \"sgdm.sol\":3557:3568  targetToken */\n      0x05\n      0x00\n      swap1\n      sload\n      swap1\n      0x0100\n      exp\n      swap1\n      div\n      0xffffffffffffffffffffffffffffffffffffffff\n      and\n        /* \"sgdm.sol\":3557:3577  targetToken.transfer */\n      0xffffffffffffffffffffffffffffffffffffffff\n      and\n      0xa9059cbb\n        /* \"sgdm.sol\":3578:3581  _to */\n      dup7\n        /* \"sgdm.sol\":3583:3590  _amount */\n      dup7\n        /* \"sgdm.sol\":3557:3591  targetToken.transfer(_to, _amount) */\n      mload(0x40)\n      dup4\n      0xffffffff\n      and\n      0xe0\n      shl\n      dup2\n      mstore\n      0x04\n      add\n      tag_280\n      swap3\n      swap2\n      swap1\n      tag_143\n      jump\t// in\n    tag_280:\n      0x20\n      mload(0x40)\n      dup1\n      dup4\n      sub\n      dup2\n      0x00\n      dup8\n      gas\n      call\n      iszero\n      dup1\n      iszero\n      tag_282\n      jumpi\n      returndatasize\n      0x00\n      dup1\n      returndatacopy\n      revert(0x00, returndatasize)\n    tag_282:\n      pop\n      pop\n      pop\n      pop\n      mload(0x40)\n      returndatasize\n      not(0x1f)\n      0x1f\n      dup3\n      add\n      and\n      dup3\n      add\n      dup1\n      0x40\n      mstore\n      pop\n      dup2\n      add\n      swap1\n      tag_283\n      swap2\n      swap1\n      tag_147\n      jump\t// in\n    tag_283:\n      pop\n        /* \"sgdm.sol\":3602:3606  true */\n      0x01\n        /* \"sgdm.sol\":3595:3606  return true */\n      swap3\n      pop\n      pop\n        /* \"sgdm.sol\":2743:2956  {... */\n      pop\n        /* \"sgdm.sol\":3284:3610  function admin_withdraw(address _to, uint256 _amount) external only_admin returns (bool) {... */\n      swap3\n      swap2\n      pop\n      pop\n      jump\t// out\n        /* \"#utility.yul\":7:106   */\n    tag_284:\n        /* \"#utility.yul\":59:65   */\n      0x00\n        /* \"#utility.yul\":93:98   */\n      dup2\n        /* \"#utility.yul\":87:99   */\n      mload\n        /* \"#utility.yul\":77:99   */\n      swap1\n      pop\n        /* \"#utility.yul\":7:106   */\n      swap2\n      swap1\n      pop\n      jump\t// out\n        /* \"#utility.yul\":112:281   */\n    tag_285:\n        /* \"#utility.yul\":196:207   */\n      0x00\n        /* \"#utility.yul\":230:236   */\n      dup3\n        /* \"#utility.yul\":225:228   */\n      dup3\n        /* \"#utility.yul\":218:237   */\n      mstore\n        /* \"#utility.yul\":270:274   */\n      0x20\n        /* \"#utility.yul\":265:268   */\n      dup3\n        /* \"#utility.yul\":261:275   */\n      add\n        /* \"#utility.yul\":246:275   */\n      swap1\n      pop\n        /* \"#utility.yul\":112:281   */\n      swap3\n      swap2\n      pop\n      pop\n      jump\t// out\n        /* \"#utility.yul\":287:533   */\n    tag_286:\n        /* \"#utility.yul\":368:369   */\n      0x00\n        /* \"#utility.yul\":378:491   */\n    tag_351:\n        /* \"#utility.yul\":392:398   */\n      dup4\n        /* \"#utility.yul\":389:390   */\n      dup2\n        /* \"#utility.yul\":386:399   */\n      lt\n        /* \"#utility.yul\":378:491   */\n      iszero\n      tag_353\n      jumpi\n        /* \"#utility.yul\":477:478   */\n      dup1\n        /* \"#utility.yul\":472:475   */\n      dup3\n        /* \"#utility.yul\":468:479   */\n      add\n        /* \"#utility.yul\":462:480   */\n      mload\n        /* \"#utility.yul\":458:459   */\n      dup2\n        /* \"#utility.yul\":453:456   */\n      dup5\n        /* \"#utility.yul\":449:460   */\n      add\n        /* \"#utility.yul\":442:481   */\n      mstore\n        /* \"#utility.yul\":414:416   */\n      0x20\n        /* \"#utility.yul\":411:412   */\n      dup2\n        /* \"#utility.yul\":407:417   */\n      add\n        /* \"#utility.yul\":402:417   */\n      swap1\n      pop\n        /* \"#utility.yul\":378:491   */\n      jump(tag_351)\n    tag_353:\n        /* \"#utility.yul\":525:526   */\n      0x00\n        /* \"#utility.yul\":516:522   */\n      dup5\n        /* \"#utility.yul\":511:514   */\n      dup5\n        /* \"#utility.yul\":507:523   */\n      add\n        /* \"#utility.yul\":500:527   */\n      mstore\n        /* \"#utility.yul\":349:533   */\n      pop\n        /* \"#utility.yul\":287:533   */\n      pop\n      pop\n      pop\n      jump\t// out\n        /* \"#utility.yul\":539:641   */\n    tag_287:\n        /* \"#utility.yul\":580:586   */\n      0x00\n        /* \"#utility.yul\":631:633   */\n      0x1f\n        /* \"#utility.yul\":627:634   */\n      not\n        /* \"#utility.yul\":622:624   */\n      0x1f\n        /* \"#utility.yul\":615:620   */\n      dup4\n        /* \"#utility.yul\":611:625   */\n      add\n        /* \"#utility.yul\":607:635   */\n      and\n        /* \"#utility.yul\":597:635   */\n      swap1\n      pop\n        /* \"#utility.yul\":539:641   */\n      swap2\n      swap1\n      pop\n      jump\t// out\n        /* \"#utility.yul\":647:1024   */\n    tag_288:\n        /* \"#utility.yul\":735:738   */\n      0x00\n        /* \"#utility.yul\":763:802   */\n      tag_356\n        /* \"#utility.yul\":796:801   */\n      dup3\n        /* \"#utility.yul\":763:802   */\n      tag_284\n      jump\t// in\n    tag_356:\n        /* \"#utility.yul\":818:889   */\n      tag_357\n        /* \"#utility.yul\":882:888   */\n      dup2\n        /* \"#utility.yul\":877:880   */\n      dup6\n        /* \"#utility.yul\":818:889   */\n      tag_285\n      jump\t// in\n    tag_357:\n        /* \"#utility.yul\":811:889   */\n      swap4\n      pop\n        /* \"#utility.yul\":898:963   */\n      tag_358\n        /* \"#utility.yul\":956:962   */\n      dup2\n        /* \"#utility.yul\":951:954   */\n      dup6\n        /* \"#utility.yul\":944:948   */\n      0x20\n        /* \"#utility.yul\":937:942   */\n      dup7\n        /* \"#utility.yul\":933:949   */\n      add\n        /* \"#utility.yul\":898:963   */\n      tag_286\n      jump\t// in\n    tag_358:\n        /* \"#utility.yul\":988:1017   */\n      tag_359\n        /* \"#utility.yul\":1010:1016   */\n      dup2\n        /* \"#utility.yul\":988:1017   */\n      tag_287\n      jump\t// in\n    tag_359:\n        /* \"#utility.yul\":983:986   */\n      dup5\n        /* \"#utility.yul\":979:1018   */\n      add\n        /* \"#utility.yul\":972:1018   */\n      swap2\n      pop\n        /* \"#utility.yul\":739:1024   */\n      pop\n        /* \"#utility.yul\":647:1024   */\n      swap3\n      swap2\n      pop\n      pop\n      jump\t// out\n        /* \"#utility.yul\":1030:1343   */\n    tag_28:\n        /* \"#utility.yul\":1143:1147   */\n      0x00\n        /* \"#utility.yul\":1181:1183   */\n      0x20\n        /* \"#utility.yul\":1170:1179   */\n      dup3\n        /* \"#utility.yul\":1166:1184   */\n      add\n        /* \"#utility.yul\":1158:1184   */\n      swap1\n      pop\n        /* \"#utility.yul\":1230:1239   */\n      dup2\n        /* \"#utility.yul\":1224:1228   */\n      dup2\n        /* \"#utility.yul\":1220:1240   */\n      sub\n        /* \"#utility.yul\":1216:1217   */\n      0x00\n        /* \"#utility.yul\":1205:1214   */\n      dup4\n        /* \"#utility.yul\":1201:1218   */\n      add\n        /* \"#utility.yul\":1194:1241   */\n      mstore\n        /* \"#utility.yul\":1258:1336   */\n      tag_361\n        /* \"#utility.yul\":1331:1335   */\n      dup2\n        /* \"#utility.yul\":1322:1328   */\n      dup5\n        /* \"#utility.yul\":1258:1336   */\n      tag_288\n      jump\t// in\n    tag_361:\n        /* \"#utility.yul\":1250:1336   */\n      swap1\n      pop\n        /* \"#utility.yul\":1030:1343   */\n      swap3\n      swap2\n      pop\n      pop\n      jump\t// out\n        /* \"#utility.yul\":1349:1424   */\n    tag_289:\n        /* \"#utility.yul\":1382:1388   */\n      0x00\n        /* \"#utility.yul\":1415:1417   */\n      0x40\n        /* \"#utility.yul\":1409:1418   */\n      mload\n        /* \"#utility.yul\":1399:1418   */\n      swap1\n      pop\n        /* \"#utility.yul\":1349:1424   */\n      swap1\n      jump\t// out\n        /* \"#utility.yul\":1430:1547   */\n    tag_290:\n        /* \"#utility.yul\":1539:1540   */\n      0x00\n        /* \"#utility.yul\":1536:1537   */\n      dup1\n        /* \"#utility.yul\":1529:1541   */\n      revert\n        /* \"#utility.yul\":1553:1670   */\n    tag_291:\n        /* \"#utility.yul\":1662:1663   */\n      0x00\n        /* \"#utility.yul\":1659:1660   */\n      dup1\n        /* \"#utility.yul\":1652:1664   */\n      revert\n        /* \"#utility.yul\":1676:1802   */\n    tag_292:\n        /* \"#utility.yul\":1713:1720   */\n      0x00\n        /* \"#utility.yul\":1753:1795   */\n      0xffffffffffffffffffffffffffffffffffffffff\n        /* \"#utility.yul\":1746:1751   */\n      dup3\n        /* \"#utility.yul\":1742:1796   */\n      and\n        /* \"#utility.yul\":1731:1796   */\n      swap1\n      pop\n        /* \"#utility.yul\":1676:1802   */\n      swap2\n      swap1\n      pop\n      jump\t// out\n        /* \"#utility.yul\":1808:1904   */\n    tag_293:\n        /* \"#utility.yul\":1845:1852   */\n      0x00\n        /* \"#utility.yul\":1874:1898   */\n      tag_367\n        /* \"#utility.yul\":1892:1897   */\n      dup3\n        /* \"#utility.yul\":1874:1898   */\n      tag_292\n      jump\t// in\n    tag_367:\n        /* \"#utility.yul\":1863:1898   */\n      swap1\n      pop\n        /* \"#utility.yul\":1808:1904   */\n      swap2\n      swap1\n      pop\n      jump\t// out\n        /* \"#utility.yul\":1910:2032   */\n    tag_294:\n        /* \"#utility.yul\":1983:2007   */\n      tag_369\n        /* \"#utility.yul\":2001:2006   */\n      dup2\n        /* \"#utility.yul\":1983:2007   */\n      tag_293\n      jump\t// in\n    tag_369:\n        /* \"#utility.yul\":1976:1981   */\n      dup2\n        /* \"#utility.yul\":1973:2008   */\n      eq\n        /* \"#utility.yul\":1963:2026   */\n      tag_370\n      jumpi\n        /* \"#utility.yul\":2022:2023   */\n      0x00\n        /* \"#utility.yul\":2019:2020   */\n      dup1\n        /* \"#utility.yul\":2012:2024   */\n      revert\n        /* \"#utility.yul\":1963:2026   */\n    tag_370:\n        /* \"#utility.yul\":1910:2032   */\n      pop\n      jump\t// out\n        /* \"#utility.yul\":2038:2177   */\n    tag_295:\n        /* \"#utility.yul\":2084:2089   */\n      0x00\n        /* \"#utility.yul\":2122:2128   */\n      dup2\n        /* \"#utility.yul\":2109:2129   */\n      calldataload\n        /* \"#utility.yul\":2100:2129   */\n      swap1\n      pop\n        /* \"#utility.yul\":2138:2171   */\n      tag_372\n        /* \"#utility.yul\":2165:2170   */\n      dup2\n        /* \"#utility.yul\":2138:2171   */\n      tag_294\n      jump\t// in\n    tag_372:\n        /* \"#utility.yul\":2038:2177   */\n      swap3\n      swap2\n      pop\n      pop\n      jump\t// out\n        /* \"#utility.yul\":2183:2260   */\n    tag_296:\n        /* \"#utility.yul\":2220:2227   */\n      0x00\n        /* \"#utility.yul\":2249:2254   */\n      dup2\n        /* \"#utility.yul\":2238:2254   */\n      swap1\n      pop\n        /* \"#utility.yul\":2183:2260   */\n      swap2\n      swap1\n      pop\n      jump\t// out\n        /* \"#utility.yul\":2266:2388   */\n    tag_297:\n        /* \"#utility.yul\":2339:2363   */\n      tag_375\n        /* \"#utility.yul\":2357:2362   */\n      dup2\n        /* \"#utility.yul\":2339:2363   */\n      tag_296\n      jump\t// in\n    tag_375:\n        /* \"#utility.yul\":2332:2337   */\n      dup2\n        /* \"#utility.yul\":2329:2364   */\n      eq\n        /* \"#utility.yul\":2319:2382   */\n      tag_376\n      jumpi\n        /* \"#utility.yul\":2378:2379   */\n      0x00\n        /* \"#utility.yul\":2375:2376   */\n      dup1\n        /* \"#utility.yul\":2368:2380   */\n      revert\n        /* \"#utility.yul\":2319:2382   */\n    tag_376:\n        /* \"#utility.yul\":2266:2388   */\n      pop\n      jump\t// out\n        /* \"#utility.yul\":2394:2533   */\n    tag_298:\n        /* \"#utility.yul\":2440:2445   */\n      0x00\n        /* \"#utility.yul\":2478:2484   */\n      dup2\n        /* \"#utility.yul\":2465:2485   */\n      calldataload\n        /* \"#utility.yul\":2456:2485   */\n      swap1\n      pop\n        /* \"#utility.yul\":2494:2527   */\n      tag_378\n        /* \"#utility.yul\":2521:2526   */\n      dup2\n        /* \"#utility.yul\":2494:2527   */\n      tag_297\n      jump\t// in\n    tag_378:\n        /* \"#utility.yul\":2394:2533   */\n      swap3\n      swap2\n      pop\n      pop\n      jump\t// out\n        /* \"#utility.yul\":2539:3013   */\n    tag_31:\n        /* \"#utility.yul\":2607:2613   */\n      0x00\n        /* \"#utility.yul\":2615:2621   */\n      dup1\n        /* \"#utility.yul\":2664:2666   */\n      0x40\n        /* \"#utility.yul\":2652:2661   */\n      dup4\n        /* \"#utility.yul\":2643:2650   */\n      dup6\n        /* \"#utility.yul\":2639:2662   */\n      sub\n        /* \"#utility.yul\":2635:2667   */\n      slt\n        /* \"#utility.yul\":2632:2751   */\n      iszero\n      tag_380\n      jumpi\n        /* \"#utility.yul\":2670:2749   */\n      tag_381\n      tag_290\n      jump\t// in\n    tag_381:\n        /* \"#utility.yul\":2632:2751   */\n    tag_380:\n        /* \"#utility.yul\":2790:2791   */\n      0x00\n        /* \"#utility.yul\":2815:2868   */\n      tag_382\n        /* \"#utility.yul\":2860:2867   */\n      dup6\n        /* \"#utility.yul\":2851:2857   */\n      dup3\n        /* \"#utility.yul\":2840:2849   */\n      dup7\n        /* \"#utility.yul\":2836:2858   */\n      add\n        /* \"#utility.yul\":2815:2868   */\n      tag_295\n      jump\t// in\n    tag_382:\n        /* \"#utility.yul\":2805:2868   */\n      swap3\n      pop\n        /* \"#utility.yul\":2761:2878   */\n      pop\n        /* \"#utility.yul\":2917:2919   */\n      0x20\n        /* \"#utility.yul\":2943:2996   */\n      tag_383\n        /* \"#utility.yul\":2988:2995   */\n      dup6\n        /* \"#utility.yul\":2979:2985   */\n      dup3\n        /* \"#utility.yul\":2968:2977   */\n      dup7\n        /* \"#utility.yul\":2964:2986   */\n      add\n        /* \"#utility.yul\":2943:2996   */\n      tag_298\n      jump\t// in\n    tag_383:\n        /* \"#utility.yul\":2933:2996   */\n      swap2\n      pop\n        /* \"#utility.yul\":2888:3006   */\n      pop\n        /* \"#utility.yul\":2539:3013   */\n      swap3\n      pop\n      swap3\n      swap1\n      pop\n      jump\t// out\n        /* \"#utility.yul\":3019:3109   */\n    tag_299:\n        /* \"#utility.yul\":3053:3060   */\n      0x00\n        /* \"#utility.yul\":3096:3101   */\n      dup2\n        /* \"#utility.yul\":3089:3102   */\n      iszero\n        /* \"#utility.yul\":3082:3103   */\n      iszero\n        /* \"#utility.yul\":3071:3103   */\n      swap1\n      pop\n        /* \"#utility.yul\":3019:3109   */\n      swap2\n      swap1\n      pop\n      jump\t// out\n        /* \"#utility.yul\":3115:3224   */\n    tag_300:\n        /* \"#utility.yul\":3196:3217   */\n      tag_386\n        /* \"#utility.yul\":3211:3216   */\n      dup2\n        /* \"#utility.yul\":3196:3217   */\n      tag_299\n      jump\t// in\n    tag_386:\n        /* \"#utility.yul\":3191:3194   */\n      dup3\n        /* \"#utility.yul\":3184:3218   */\n      mstore\n        /* \"#utility.yul\":3115:3224   */\n      pop\n      pop\n      jump\t// out\n        /* \"#utility.yul\":3230:3440   */\n    tag_34:\n        /* \"#utility.yul\":3317:3321   */\n      0x00\n        /* \"#utility.yul\":3355:3357   */\n      0x20\n        /* \"#utility.yul\":3344:3353   */\n      dup3\n        /* \"#utility.yul\":3340:3358   */\n      add\n        /* \"#utility.yul\":3332:3358   */\n      swap1\n      pop\n        /* \"#utility.yul\":3368:3433   */\n      tag_388\n        /* \"#utility.yul\":3430:3431   */\n      0x00\n        /* \"#utility.yul\":3419:3428   */\n      dup4\n        /* \"#utility.yul\":3415:3432   */\n      add\n        /* \"#utility.yul\":3406:3412   */\n      dup5\n        /* \"#utility.yul\":3368:3433   */\n      tag_300\n      jump\t// in\n    tag_388:\n        /* \"#utility.yul\":3230:3440   */\n      swap3\n      swap2\n      pop\n      pop\n      jump\t// out\n        /* \"#utility.yul\":3446:3775   */\n    tag_37:\n        /* \"#utility.yul\":3505:3511   */\n      0x00\n        /* \"#utility.yul\":3554:3556   */\n      0x20\n        /* \"#utility.yul\":3542:3551   */\n      dup3\n        /* \"#utility.yul\":3533:3540   */\n      dup5\n        /* \"#utility.yul\":3529:3552   */\n      sub\n        /* \"#utility.yul\":3525:3557   */\n      slt\n        /* \"#utility.yul\":3522:3641   */\n      iszero\n      tag_390\n      jumpi\n        /* \"#utility.yul\":3560:3639   */\n      tag_391\n      tag_290\n      jump\t// in\n    tag_391:\n        /* \"#utility.yul\":3522:3641   */\n    tag_390:\n        /* \"#utility.yul\":3680:3681   */\n      0x00\n        /* \"#utility.yul\":3705:3758   */\n      tag_392\n        /* \"#utility.yul\":3750:3757   */\n      dup5\n        /* \"#utility.yul\":3741:3747   */\n      dup3\n        /* \"#utility.yul\":3730:3739   */\n      dup6\n        /* \"#utility.yul\":3726:3748   */\n      add\n        /* \"#utility.yul\":3705:3758   */\n      tag_298\n      jump\t// in\n    tag_392:\n        /* \"#utility.yul\":3695:3758   */\n      swap2\n      pop\n        /* \"#utility.yul\":3651:3768   */\n      pop\n        /* \"#utility.yul\":3446:3775   */\n      swap3\n      swap2\n      pop\n      pop\n      jump\t// out\n        /* \"#utility.yul\":3781:3899   */\n    tag_301:\n        /* \"#utility.yul\":3868:3892   */\n      tag_394\n        /* \"#utility.yul\":3886:3891   */\n      dup2\n        /* \"#utility.yul\":3868:3892   */\n      tag_293\n      jump\t// in\n    tag_394:\n        /* \"#utility.yul\":3863:3866   */\n      dup3\n        /* \"#utility.yul\":3856:3893   */\n      mstore\n        /* \"#utility.yul\":3781:3899   */\n      pop\n      pop\n      jump\t// out\n        /* \"#utility.yul\":3905:4127   */\n    tag_40:\n        /* \"#utility.yul\":3998:4002   */\n      0x00\n        /* \"#utility.yul\":4036:4038   */\n      0x20\n        /* \"#utility.yul\":4025:4034   */\n      dup3\n        /* \"#utility.yul\":4021:4039   */\n      add\n        /* \"#utility.yul\":4013:4039   */\n      swap1\n      pop\n        /* \"#utility.yul\":4049:4120   */\n      tag_396\n        /* \"#utility.yul\":4117:4118   */\n      0x00\n        /* \"#utility.yul\":4106:4115   */\n      dup4\n        /* \"#utility.yul\":4102:4119   */\n      add\n        /* \"#utility.yul\":4093:4099   */\n      dup5\n        /* \"#utility.yul\":4049:4120   */\n      tag_301\n      jump\t// in\n    tag_396:\n        /* \"#utility.yul\":3905:4127   */\n      swap3\n      swap2\n      pop\n      pop\n      jump\t// out\n        /* \"#utility.yul\":4133:4251   */\n    tag_302:\n        /* \"#utility.yul\":4220:4244   */\n      tag_398\n        /* \"#utility.yul\":4238:4243   */\n      dup2\n        /* \"#utility.yul\":4220:4244   */\n      tag_296\n      jump\t// in\n    tag_398:\n        /* \"#utility.yul\":4215:4218   */\n      dup3\n        /* \"#utility.yul\":4208:4245   */\n      mstore\n        /* \"#utility.yul\":4133:4251   */\n      pop\n      pop\n      jump\t// out\n        /* \"#utility.yul\":4257:4479   */\n    tag_44:\n        /* \"#utility.yul\":4350:4354   */\n      0x00\n        /* \"#utility.yul\":4388:4390   */\n      0x20\n        /* \"#utility.yul\":4377:4386   */\n      dup3\n        /* \"#utility.yul\":4373:4391   */\n      add\n        /* \"#utility.yul\":4365:4391   */\n      swap1\n      pop\n        /* \"#utility.yul\":4401:4472   */\n      tag_400\n        /* \"#utility.yul\":4469:4470   */\n      0x00\n        /* \"#utility.yul\":4458:4467   */\n      dup4\n        /* \"#utility.yul\":4454:4471   */\n      add\n        /* \"#utility.yul\":4445:4451   */\n      dup5\n        /* \"#utility.yul\":4401:4472   */\n      tag_302\n      jump\t// in\n    tag_400:\n        /* \"#utility.yul\":4257:4479   */\n      swap3\n      swap2\n      pop\n      pop\n      jump\t// out\n        /* \"#utility.yul\":4485:5104   */\n    tag_47:\n        /* \"#utility.yul\":4562:4568   */\n      0x00\n        /* \"#utility.yul\":4570:4576   */\n      dup1\n        /* \"#utility.yul\":4578:4584   */\n      0x00\n        /* \"#utility.yul\":4627:4629   */\n      0x60\n        /* \"#utility.yul\":4615:4624   */\n      dup5\n        /* \"#utility.yul\":4606:4613   */\n      dup7\n        /* \"#utility.yul\":4602:4625   */\n      sub\n        /* \"#utility.yul\":4598:4630   */\n      slt\n        /* \"#utility.yul\":4595:4714   */\n      iszero\n      tag_402\n      jumpi\n        /* \"#utility.yul\":4633:4712   */\n      tag_403\n      tag_290\n      jump\t// in\n    tag_403:\n        /* \"#utility.yul\":4595:4714   */\n    tag_402:\n        /* \"#utility.yul\":4753:4754   */\n      0x00\n        /* \"#utility.yul\":4778:4831   */\n      tag_404\n        /* \"#utility.yul\":4823:4830   */\n      dup7\n        /* \"#utility.yul\":4814:4820   */\n      dup3\n        /* \"#utility.yul\":4803:4812   */\n      dup8\n        /* \"#utility.yul\":4799:4821   */\n      add\n        /* \"#utility.yul\":4778:4831   */\n      tag_295\n      jump\t// in\n    tag_404:\n        /* \"#utility.yul\":4768:4831   */\n      swap4\n      pop\n        /* \"#utility.yul\":4724:4841   */\n      pop\n        /* \"#utility.yul\":4880:4882   */\n      0x20\n        /* \"#utility.yul\":4906:4959   */\n      tag_405\n        /* \"#utility.yul\":4951:4958   */\n      dup7\n        /* \"#utility.yul\":4942:4948   */\n      dup3\n        /* \"#utility.yul\":4931:4940   */\n      dup8\n        /* \"#utility.yul\":4927:4949   */\n      add\n        /* \"#utility.yul\":4906:4959   */\n      tag_295\n      jump\t// in\n    tag_405:\n        /* \"#utility.yul\":4896:4959   */\n      swap3\n      pop\n        /* \"#utility.yul\":4851:4969   */\n      pop\n        /* \"#utility.yul\":5008:5010   */\n      0x40\n        /* \"#utility.yul\":5034:5087   */\n      tag_406\n        /* \"#utility.yul\":5079:5086   */\n      dup7\n        /* \"#utility.yul\":5070:5076   */\n      dup3\n        /* \"#utility.yul\":5059:5068   */\n      dup8\n        /* \"#utility.yul\":5055:5077   */\n      add\n        /* \"#utility.yul\":5034:5087   */\n      tag_298\n      jump\t// in\n    tag_406:\n        /* \"#utility.yul\":5024:5087   */\n      swap2\n      pop\n        /* \"#utility.yul\":4979:5097   */\n      pop\n        /* \"#utility.yul\":4485:5104   */\n      swap3\n      pop\n      swap3\n      pop\n      swap3\n      jump\t// out\n        /* \"#utility.yul\":5110:5196   */\n    tag_303:\n        /* \"#utility.yul\":5145:5152   */\n      0x00\n        /* \"#utility.yul\":5185:5189   */\n      0xff\n        /* \"#utility.yul\":5178:5183   */\n      dup3\n        /* \"#utility.yul\":5174:5190   */\n      and\n        /* \"#utility.yul\":5163:5190   */\n      swap1\n      pop\n        /* \"#utility.yul\":5110:5196   */\n      swap2\n      swap1\n      pop\n      jump\t// out\n        /* \"#utility.yul\":5202:5314   */\n    tag_304:\n        /* \"#utility.yul\":5285:5307   */\n      tag_409\n        /* \"#utility.yul\":5301:5306   */\n      dup2\n        /* \"#utility.yul\":5285:5307   */\n      tag_303\n      jump\t// in\n    tag_409:\n        /* \"#utility.yul\":5280:5283   */\n      dup3\n        /* \"#utility.yul\":5273:5308   */\n      mstore\n        /* \"#utility.yul\":5202:5314   */\n      pop\n      pop\n      jump\t// out\n        /* \"#utility.yul\":5320:5534   */\n    tag_53:\n        /* \"#utility.yul\":5409:5413   */\n      0x00\n        /* \"#utility.yul\":5447:5449   */\n      0x20\n        /* \"#utility.yul\":5436:5445   */\n      dup3\n        /* \"#utility.yul\":5432:5450   */\n      add\n        /* \"#utility.yul\":5424:5450   */\n      swap1\n      pop\n        /* \"#utility.yul\":5460:5527   */\n      tag_411\n        /* \"#utility.yul\":5524:5525   */\n      0x00\n        /* \"#utility.yul\":5513:5522   */\n      dup4\n        /* \"#utility.yul\":5509:5526   */\n      add\n        /* \"#utility.yul\":5500:5506   */\n      dup5\n        /* \"#utility.yul\":5460:5527   */\n      tag_304\n      jump\t// in\n    tag_411:\n        /* \"#utility.yul\":5320:5534   */\n      swap3\n      swap2\n      pop\n      pop\n      jump\t// out\n        /* \"#utility.yul\":5540:5600   */\n    tag_305:\n        /* \"#utility.yul\":5568:5571   */\n      0x00\n        /* \"#utility.yul\":5589:5594   */\n      dup2\n        /* \"#utility.yul\":5582:5594   */\n      swap1\n      pop\n        /* \"#utility.yul\":5540:5600   */\n      swap2\n      swap1\n      pop\n      jump\t// out\n        /* \"#utility.yul\":5606:5748   */\n    tag_306:\n        /* \"#utility.yul\":5656:5665   */\n      0x00\n        /* \"#utility.yul\":5689:5742   */\n      tag_414\n        /* \"#utility.yul\":5707:5741   */\n      tag_415\n        /* \"#utility.yul\":5716:5740   */\n      tag_416\n        /* \"#utility.yul\":5734:5739   */\n      dup5\n        /* \"#utility.yul\":5716:5740   */\n      tag_292\n      jump\t// in\n    tag_416:\n        /* \"#utility.yul\":5707:5741   */\n      tag_305\n      jump\t// in\n    tag_415:\n        /* \"#utility.yul\":5689:5742   */\n      tag_292\n      jump\t// in\n    tag_414:\n        /* \"#utility.yul\":5676:5742   */\n      swap1\n      pop\n        /* \"#utility.yul\":5606:5748   */\n      swap2\n      swap1\n      pop\n      jump\t// out\n        /* \"#utility.yul\":5754:5880   */\n    tag_307:\n        /* \"#utility.yul\":5804:5813   */\n      0x00\n        /* \"#utility.yul\":5837:5874   */\n      tag_418\n        /* \"#utility.yul\":5868:5873   */\n      dup3\n        /* \"#utility.yul\":5837:5874   */\n      tag_306\n      jump\t// in\n    tag_418:\n        /* \"#utility.yul\":5824:5874   */\n      swap1\n      pop\n        /* \"#utility.yul\":5754:5880   */\n      swap2\n      swap1\n      pop\n      jump\t// out\n        /* \"#utility.yul\":5886:6026   */\n    tag_308:\n        /* \"#utility.yul\":5950:5959   */\n      0x00\n        /* \"#utility.yul\":5983:6020   */\n      tag_420\n        /* \"#utility.yul\":6014:6019   */\n      dup3\n        /* \"#utility.yul\":5983:6020   */\n      tag_307\n      jump\t// in\n    tag_420:\n        /* \"#utility.yul\":5970:6020   */\n      swap1\n      pop\n        /* \"#utility.yul\":5886:6026   */\n      swap2\n      swap1\n      pop\n      jump\t// out\n        /* \"#utility.yul\":6032:6191   */\n    tag_309:\n        /* \"#utility.yul\":6133:6184   */\n      tag_422\n        /* \"#utility.yul\":6178:6183   */\n      dup2\n        /* \"#utility.yul\":6133:6184   */\n      tag_308\n      jump\t// in\n    tag_422:\n        /* \"#utility.yul\":6128:6131   */\n      dup3\n        /* \"#utility.yul\":6121:6185   */\n      mstore\n        /* \"#utility.yul\":6032:6191   */\n      pop\n      pop\n      jump\t// out\n        /* \"#utility.yul\":6197:6447   */\n    tag_57:\n        /* \"#utility.yul\":6304:6308   */\n      0x00\n        /* \"#utility.yul\":6342:6344   */\n      0x20\n        /* \"#utility.yul\":6331:6340   */\n      dup3\n        /* \"#utility.yul\":6327:6345   */\n      add\n        /* \"#utility.yul\":6319:6345   */\n      swap1\n      pop\n        /* \"#utility.yul\":6355:6440   */\n      tag_424\n        /* \"#utility.yul\":6437:6438   */\n      0x00\n        /* \"#utility.yul\":6426:6435   */\n      dup4\n        /* \"#utility.yul\":6422:6439   */\n      add\n        /* \"#utility.yul\":6413:6419   */\n      dup5\n        /* \"#utility.yul\":6355:6440   */\n      tag_309\n      jump\t// in\n    tag_424:\n        /* \"#utility.yul\":6197:6447   */\n      swap3\n      swap2\n      pop\n      pop\n      jump\t// out\n        /* \"#utility.yul\":6453:6570   */\n    tag_310:\n        /* \"#utility.yul\":6562:6563   */\n      0x00\n        /* \"#utility.yul\":6559:6560   */\n      dup1\n        /* \"#utility.yul\":6552:6564   */\n      revert\n        /* \"#utility.yul\":6576:6693   */\n    tag_311:\n        /* \"#utility.yul\":6685:6686   */\n      0x00\n        /* \"#utility.yul\":6682:6683   */\n      dup1\n        /* \"#utility.yul\":6675:6687   */\n      revert\n        /* \"#utility.yul\":6699:6879   */\n    tag_312:\n        /* \"#utility.yul\":6747:6824   */\n      0x4e487b7100000000000000000000000000000000000000000000000000000000\n        /* \"#utility.yul\":6744:6745   */\n      0x00\n        /* \"#utility.yul\":6737:6825   */\n      mstore\n        /* \"#utility.yul\":6844:6848   */\n      0x41\n        /* \"#utility.yul\":6841:6842   */\n      0x04\n        /* \"#utility.yul\":6834:6849   */\n      mstore\n        /* \"#utility.yul\":6868:6872   */\n      0x24\n        /* \"#utility.yul\":6865:6866   */\n      0x00\n        /* \"#utility.yul\":6858:6873   */\n      revert\n        /* \"#utility.yul\":6885:7166   */\n    tag_313:\n        /* \"#utility.yul\":6968:6995   */\n      tag_429\n        /* \"#utility.yul\":6990:6994   */\n      dup3\n        /* \"#utility.yul\":6968:6995   */\n      tag_287\n      jump\t// in\n    tag_429:\n        /* \"#utility.yul\":6960:6966   */\n      dup2\n        /* \"#utility.yul\":6956:6996   */\n      add\n        /* \"#utility.yul\":7098:7104   */\n      dup2\n        /* \"#utility.yul\":7086:7096   */\n      dup2\n        /* \"#utility.yul\":7083:7105   */\n      lt\n        /* \"#utility.yul\":7062:7080   */\n      0xffffffffffffffff\n        /* \"#utility.yul\":7050:7060   */\n      dup3\n        /* \"#utility.yul\":7047:7081   */\n      gt\n        /* \"#utility.yul\":7044:7106   */\n      or\n        /* \"#utility.yul\":7041:7129   */\n      iszero\n      tag_430\n      jumpi\n        /* \"#utility.yul\":7109:7127   */\n      tag_431\n      tag_312\n      jump\t// in\n    tag_431:\n        /* \"#utility.yul\":7041:7129   */\n    tag_430:\n        /* \"#utility.yul\":7149:7159   */\n      dup1\n        /* \"#utility.yul\":7145:7147   */\n      0x40\n        /* \"#utility.yul\":7138:7160   */\n      mstore\n        /* \"#utility.yul\":6928:7166   */\n      pop\n        /* \"#utility.yul\":6885:7166   */\n      pop\n      pop\n      jump\t// out\n        /* \"#utility.yul\":7172:7301   */\n    tag_314:\n        /* \"#utility.yul\":7206:7212   */\n      0x00\n        /* \"#utility.yul\":7233:7253   */\n      tag_433\n      tag_289\n      jump\t// in\n    tag_433:\n        /* \"#utility.yul\":7223:7253   */\n      swap1\n      pop\n        /* \"#utility.yul\":7262:7295   */\n      tag_434\n        /* \"#utility.yul\":7290:7294   */\n      dup3\n        /* \"#utility.yul\":7282:7288   */\n      dup3\n        /* \"#utility.yul\":7262:7295   */\n      tag_313\n      jump\t// in\n    tag_434:\n        /* \"#utility.yul\":7172:7301   */\n      swap2\n      swap1\n      pop\n      jump\t// out\n        /* \"#utility.yul\":7307:7615   */\n    tag_315:\n        /* \"#utility.yul\":7369:7373   */\n      0x00\n        /* \"#utility.yul\":7459:7477   */\n      0xffffffffffffffff\n        /* \"#utility.yul\":7451:7457   */\n      dup3\n        /* \"#utility.yul\":7448:7478   */\n      gt\n        /* \"#utility.yul\":7445:7501   */\n      iszero\n      tag_436\n      jumpi\n        /* \"#utility.yul\":7481:7499   */\n      tag_437\n      tag_312\n      jump\t// in\n    tag_437:\n        /* \"#utility.yul\":7445:7501   */\n    tag_436:\n        /* \"#utility.yul\":7519:7548   */\n      tag_438\n        /* \"#utility.yul\":7541:7547   */\n      dup3\n        /* \"#utility.yul\":7519:7548   */\n      tag_287\n      jump\t// in\n    tag_438:\n        /* \"#utility.yul\":7511:7548   */\n      swap1\n      pop\n        /* \"#utility.yul\":7603:7607   */\n      0x20\n        /* \"#utility.yul\":7597:7601   */\n      dup2\n        /* \"#utility.yul\":7593:7608   */\n      add\n        /* \"#utility.yul\":7585:7608   */\n      swap1\n      pop\n        /* \"#utility.yul\":7307:7615   */\n      swap2\n      swap1\n      pop\n      jump\t// out\n        /* \"#utility.yul\":7621:7767   */\n    tag_316:\n        /* \"#utility.yul\":7718:7724   */\n      dup3\n        /* \"#utility.yul\":7713:7716   */\n      dup2\n        /* \"#utility.yul\":7708:7711   */\n      dup4\n        /* \"#utility.yul\":7695:7725   */\n      calldatacopy\n        /* \"#utility.yul\":7759:7760   */\n      0x00\n        /* \"#utility.yul\":7750:7756   */\n      dup4\n        /* \"#utility.yul\":7745:7748   */\n      dup4\n        /* \"#utility.yul\":7741:7757   */\n      add\n        /* \"#utility.yul\":7734:7761   */\n      mstore\n        /* \"#utility.yul\":7621:7767   */\n      pop\n      pop\n      pop\n      jump\t// out\n        /* \"#utility.yul\":7773:8198   */\n    tag_317:\n        /* \"#utility.yul\":7851:7856   */\n      0x00\n        /* \"#utility.yul\":7876:7942   */\n      tag_441\n        /* \"#utility.yul\":7892:7941   */\n      tag_442\n        /* \"#utility.yul\":7934:7940   */\n      dup5\n        /* \"#utility.yul\":7892:7941   */\n      tag_315\n      jump\t// in\n    tag_442:\n        /* \"#utility.yul\":7876:7942   */\n      tag_314\n      jump\t// in\n    tag_441:\n        /* \"#utility.yul\":7867:7942   */\n      swap1\n      pop\n        /* \"#utility.yul\":7965:7971   */\n      dup3\n        /* \"#utility.yul\":7958:7963   */\n      dup2\n        /* \"#utility.yul\":7951:7972   */\n      mstore\n        /* \"#utility.yul\":8003:8007   */\n      0x20\n        /* \"#utility.yul\":7996:8001   */\n      dup2\n        /* \"#utility.yul\":7992:8008   */\n      add\n        /* \"#utility.yul\":8041:8044   */\n      dup5\n        /* \"#utility.yul\":8032:8038   */\n      dup5\n        /* \"#utility.yul\":8027:8030   */\n      dup5\n        /* \"#utility.yul\":8023:8039   */\n      add\n        /* \"#utility.yul\":8020:8045   */\n      gt\n        /* \"#utility.yul\":8017:8129   */\n      iszero\n      tag_443\n      jumpi\n        /* \"#utility.yul\":8048:8127   */\n      tag_444\n      tag_311\n      jump\t// in\n    tag_444:\n        /* \"#utility.yul\":8017:8129   */\n    tag_443:\n        /* \"#utility.yul\":8138:8192   */\n      tag_445\n        /* \"#utility.yul\":8185:8191   */\n      dup5\n        /* \"#utility.yul\":8180:8183   */\n      dup3\n        /* \"#utility.yul\":8175:8178   */\n      dup6\n        /* \"#utility.yul\":8138:8192   */\n      tag_316\n      jump\t// in\n    tag_445:\n        /* \"#utility.yul\":7857:8198   */\n      pop\n        /* \"#utility.yul\":7773:8198   */\n      swap4\n      swap3\n      pop\n      pop\n      pop\n      jump\t// out\n        /* \"#utility.yul\":8218:8558   */\n    tag_318:\n        /* \"#utility.yul\":8274:8279   */\n      0x00\n        /* \"#utility.yul\":8323:8326   */\n      dup3\n        /* \"#utility.yul\":8316:8320   */\n      0x1f\n        /* \"#utility.yul\":8308:8314   */\n      dup4\n        /* \"#utility.yul\":8304:8321   */\n      add\n        /* \"#utility.yul\":8300:8327   */\n      slt\n        /* \"#utility.yul\":8290:8412   */\n      tag_447\n      jumpi\n        /* \"#utility.yul\":8331:8410   */\n      tag_448\n      tag_310\n      jump\t// in\n    tag_448:\n        /* \"#utility.yul\":8290:8412   */\n    tag_447:\n        /* \"#utility.yul\":8448:8454   */\n      dup2\n        /* \"#utility.yul\":8435:8455   */\n      calldataload\n        /* \"#utility.yul\":8473:8552   */\n      tag_449\n        /* \"#utility.yul\":8548:8551   */\n      dup5\n        /* \"#utility.yul\":8540:8546   */\n      dup3\n        /* \"#utility.yul\":8533:8537   */\n      0x20\n        /* \"#utility.yul\":8525:8531   */\n      dup7\n        /* \"#utility.yul\":8521:8538   */\n      add\n        /* \"#utility.yul\":8473:8552   */\n      tag_317\n      jump\t// in\n    tag_449:\n        /* \"#utility.yul\":8464:8552   */\n      swap2\n      pop\n        /* \"#utility.yul\":8280:8558   */\n      pop\n        /* \"#utility.yul\":8218:8558   */\n      swap3\n      swap2\n      pop\n      pop\n      jump\t// out\n        /* \"#utility.yul\":8564:9218   */\n    tag_60:\n        /* \"#utility.yul\":8642:8648   */\n      0x00\n        /* \"#utility.yul\":8650:8656   */\n      dup1\n        /* \"#utility.yul\":8699:8701   */\n      0x40\n        /* \"#utility.yul\":8687:8696   */\n      dup4\n        /* \"#utility.yul\":8678:8685   */\n      dup6\n        /* \"#utility.yul\":8674:8697   */\n      sub\n        /* \"#utility.yul\":8670:8702   */\n      slt\n        /* \"#utility.yul\":8667:8786   */\n      iszero\n      tag_451\n      jumpi\n        /* \"#utility.yul\":8705:8784   */\n      tag_452\n      tag_290\n      jump\t// in\n    tag_452:\n        /* \"#utility.yul\":8667:8786   */\n    tag_451:\n        /* \"#utility.yul\":8853:8854   */\n      0x00\n        /* \"#utility.yul\":8842:8851   */\n      dup4\n        /* \"#utility.yul\":8838:8855   */\n      add\n        /* \"#utility.yul\":8825:8856   */\n      calldataload\n        /* \"#utility.yul\":8883:8901   */\n      0xffffffffffffffff\n        /* \"#utility.yul\":8875:8881   */\n      dup2\n        /* \"#utility.yul\":8872:8902   */\n      gt\n        /* \"#utility.yul\":8869:8986   */\n      iszero\n      tag_453\n      jumpi\n        /* \"#utility.yul\":8905:8984   */\n      tag_454\n      tag_291\n      jump\t// in\n    tag_454:\n        /* \"#utility.yul\":8869:8986   */\n    tag_453:\n        /* \"#utility.yul\":9010:9073   */\n      tag_455\n        /* \"#utility.yul\":9065:9072   */\n      dup6\n        /* \"#utility.yul\":9056:9062   */\n      dup3\n        /* \"#utility.yul\":9045:9054   */\n      dup7\n        /* \"#utility.yul\":9041:9063   */\n      add\n        /* \"#utility.yul\":9010:9073   */\n      tag_318\n      jump\t// in\n    tag_455:\n        /* \"#utility.yul\":9000:9073   */\n      swap3\n      pop\n        /* \"#utility.yul\":8796:9083   */\n      pop\n        /* \"#utility.yul\":9122:9124   */\n      0x20\n        /* \"#utility.yul\":9148:9201   */\n      tag_456\n        /* \"#utility.yul\":9193:9200   */\n      dup6\n        /* \"#utility.yul\":9184:9190   */\n      dup3\n        /* \"#utility.yul\":9173:9182   */\n      dup7\n        /* \"#utility.yul\":9169:9191   */\n      add\n        /* \"#utility.yul\":9148:9201   */\n      tag_298\n      jump\t// in\n    tag_456:\n        /* \"#utility.yul\":9138:9201   */\n      swap2\n      pop\n        /* \"#utility.yul\":9093:9211   */\n      pop\n        /* \"#utility.yul\":8564:9218   */\n      swap3\n      pop\n      swap3\n      swap1\n      pop\n      jump\t// out\n        /* \"#utility.yul\":9224:9553   */\n    tag_69:\n        /* \"#utility.yul\":9283:9289   */\n      0x00\n        /* \"#utility.yul\":9332:9334   */\n      0x20\n        /* \"#utility.yul\":9320:9329   */\n      dup3\n        /* \"#utility.yul\":9311:9318   */\n      dup5\n        /* \"#utility.yul\":9307:9330   */\n      sub\n        /* \"#utility.yul\":9303:9335   */\n      slt\n        /* \"#utility.yul\":9300:9419   */\n      iszero\n      tag_458\n      jumpi\n        /* \"#utility.yul\":9338:9417   */\n      tag_459\n      tag_290\n      jump\t// in\n    tag_459:\n        /* \"#utility.yul\":9300:9419   */\n    tag_458:\n        /* \"#utility.yul\":9458:9459   */\n      0x00\n        /* \"#utility.yul\":9483:9536   */\n      tag_460\n        /* \"#utility.yul\":9528:9535   */\n      dup5\n        /* \"#utility.yul\":9519:9525   */\n      dup3\n        /* \"#utility.yul\":9508:9517   */\n      dup6\n        /* \"#utility.yul\":9504:9526   */\n      add\n        /* \"#utility.yul\":9483:9536   */\n      tag_295\n      jump\t// in\n    tag_460:\n        /* \"#utility.yul\":9473:9536   */\n      swap2\n      pop\n        /* \"#utility.yul\":9429:9546   */\n      pop\n        /* \"#utility.yul\":9224:9553   */\n      swap3\n      swap2\n      pop\n      pop\n      jump\t// out\n        /* \"#utility.yul\":9559:10068   */\n    tag_77:\n        /* \"#utility.yul\":9628:9634   */\n      0x00\n        /* \"#utility.yul\":9677:9679   */\n      0x20\n        /* \"#utility.yul\":9665:9674   */\n      dup3\n        /* \"#utility.yul\":9656:9663   */\n      dup5\n        /* \"#utility.yul\":9652:9675   */\n      sub\n        /* \"#utility.yul\":9648:9680   */\n      slt\n        /* \"#utility.yul\":9645:9764   */\n      iszero\n      tag_462\n      jumpi\n        /* \"#utility.yul\":9683:9762   */\n      tag_463\n      tag_290\n      jump\t// in\n    tag_463:\n        /* \"#utility.yul\":9645:9764   */\n    tag_462:\n        /* \"#utility.yul\":9831:9832   */\n      0x00\n        /* \"#utility.yul\":9820:9829   */\n      dup3\n        /* \"#utility.yul\":9816:9833   */\n      add\n        /* \"#utility.yul\":9803:9834   */\n      calldataload\n        /* \"#utility.yul\":9861:9879   */\n      0xffffffffffffffff\n        /* \"#utility.yul\":9853:9859   */\n      dup2\n        /* \"#utility.yul\":9850:9880   */\n      gt\n        /* \"#utility.yul\":9847:9964   */\n      iszero\n      tag_464\n      jumpi\n        /* \"#utility.yul\":9883:9962   */\n      tag_465\n      tag_291\n      jump\t// in\n    tag_465:\n        /* \"#utility.yul\":9847:9964   */\n    tag_464:\n        /* \"#utility.yul\":9988:10051   */\n      tag_466\n        /* \"#utility.yul\":10043:10050   */\n      dup5\n        /* \"#utility.yul\":10034:10040   */\n      dup3\n        /* \"#utility.yul\":10023:10032   */\n      dup6\n        /* \"#utility.yul\":10019:10041   */\n      add\n        /* \"#utility.yul\":9988:10051   */\n      tag_318\n      jump\t// in\n    tag_466:\n        /* \"#utility.yul\":9978:10051   */\n      swap2\n      pop\n        /* \"#utility.yul\":9774:10061   */\n      pop\n        /* \"#utility.yul\":9559:10068   */\n      swap3\n      swap2\n      pop\n      pop\n      jump\t// out\n        /* \"#utility.yul\":10074:10548   */\n    tag_96:\n        /* \"#utility.yul\":10142:10148   */\n      0x00\n        /* \"#utility.yul\":10150:10156   */\n      dup1\n        /* \"#utility.yul\":10199:10201   */\n      0x40\n        /* \"#utility.yul\":10187:10196   */\n      dup4\n        /* \"#utility.yul\":10178:10185   */\n      dup6\n        /* \"#utility.yul\":10174:10197   */\n      sub\n        /* \"#utility.yul\":10170:10202   */\n      slt\n        /* \"#utility.yul\":10167:10286   */\n      iszero\n      tag_468\n      jumpi\n        /* \"#utility.yul\":10205:10284   */\n      tag_469\n      tag_290\n      jump\t// in\n    tag_469:\n        /* \"#utility.yul\":10167:10286   */\n    tag_468:\n        /* \"#utility.yul\":10325:10326   */\n      0x00\n        /* \"#utility.yul\":10350:10403   */\n      tag_470\n        /* \"#utility.yul\":10395:10402   */\n      dup6\n        /* \"#utility.yul\":10386:10392   */\n      dup3\n        /* \"#utility.yul\":10375:10384   */\n      dup7\n        /* \"#utility.yul\":10371:10393   */\n      add\n        /* \"#utility.yul\":10350:10403   */\n      tag_295\n      jump\t// in\n    tag_470:\n        /* \"#utility.yul\":10340:10403   */\n      swap3\n      pop\n        /* \"#utility.yul\":10296:10413   */\n      pop\n        /* \"#utility.yul\":10452:10454   */\n      0x20\n        /* \"#utility.yul\":10478:10531   */\n      tag_471\n        /* \"#utility.yul\":10523:10530   */\n      dup6\n        /* \"#utility.yul\":10514:10520   */\n      dup3\n        /* \"#utility.yul\":10503:10512   */\n      dup7\n        /* \"#utility.yul\":10499:10521   */\n      add\n        /* \"#utility.yul\":10478:10531   */\n      tag_295\n      jump\t// in\n    tag_471:\n        /* \"#utility.yul\":10468:10531   */\n      swap2\n      pop\n        /* \"#utility.yul\":10423:10541   */\n      pop\n        /* \"#utility.yul\":10074:10548   */\n      swap3\n      pop\n      swap3\n      swap1\n      pop\n      jump\t// out\n        /* \"#utility.yul\":10554:10734   */\n    tag_319:\n        /* \"#utility.yul\":10602:10679   */\n      0x4e487b7100000000000000000000000000000000000000000000000000000000\n        /* \"#utility.yul\":10599:10600   */\n      0x00\n        /* \"#utility.yul\":10592:10680   */\n      mstore\n        /* \"#utility.yul\":10699:10703   */\n      0x22\n        /* \"#utility.yul\":10696:10697   */\n      0x04\n        /* \"#utility.yul\":10689:10704   */\n      mstore\n        /* \"#utility.yul\":10723:10727   */\n      0x24\n        /* \"#utility.yul\":10720:10721   */\n      0x00\n        /* \"#utility.yul\":10713:10728   */\n      revert\n        /* \"#utility.yul\":10740:11060   */\n    tag_109:\n        /* \"#utility.yul\":10784:10790   */\n      0x00\n        /* \"#utility.yul\":10821:10822   */\n      0x02\n        /* \"#utility.yul\":10815:10819   */\n      dup3\n        /* \"#utility.yul\":10811:10823   */\n      div\n        /* \"#utility.yul\":10801:10823   */\n      swap1\n      pop\n        /* \"#utility.yul\":10868:10869   */\n      0x01\n        /* \"#utility.yul\":10862:10866   */\n      dup3\n        /* \"#utility.yul\":10858:10870   */\n      and\n        /* \"#utility.yul\":10889:10907   */\n      dup1\n        /* \"#utility.yul\":10879:10960   */\n      tag_474\n      jumpi\n        /* \"#utility.yul\":10945:10949   */\n      0x7f\n        /* \"#utility.yul\":10937:10943   */\n      dup3\n        /* \"#utility.yul\":10933:10950   */\n      and\n        /* \"#utility.yul\":10923:10950   */\n      swap2\n      pop\n        /* \"#utility.yul\":10879:10960   */\n    tag_474:\n        /* \"#utility.yul\":11007:11009   */\n      0x20\n        /* \"#utility.yul\":10999:11005   */\n      dup3\n        /* \"#utility.yul\":10996:11010   */\n      lt\n        /* \"#utility.yul\":10976:10994   */\n      dup2\n        /* \"#utility.yul\":10973:11011   */\n      sub\n        /* \"#utility.yul\":10970:11054   */\n      tag_475\n      jumpi\n        /* \"#utility.yul\":11026:11044   */\n      tag_476\n      tag_319\n      jump\t// in\n    tag_476:\n        /* \"#utility.yul\":10970:11054   */\n    tag_475:\n        /* \"#utility.yul\":10791:11060   */\n      pop\n        /* \"#utility.yul\":10740:11060   */\n      swap2\n      swap1\n      pop\n      jump\t// out\n        /* \"#utility.yul\":11066:11244   */\n    tag_320:\n        /* \"#utility.yul\":11206:11236   */\n      0x417070726f76652066756e6374696f6e2069732064697361626c656400000000\n        /* \"#utility.yul\":11202:11203   */\n      0x00\n        /* \"#utility.yul\":11194:11200   */\n      dup3\n        /* \"#utility.yul\":11190:11204   */\n      add\n        /* \"#utility.yul\":11183:11237   */\n      mstore\n        /* \"#utility.yul\":11066:11244   */\n      pop\n      jump\t// out\n        /* \"#utility.yul\":11250:11616   */\n    tag_321:\n        /* \"#utility.yul\":11392:11395   */\n      0x00\n        /* \"#utility.yul\":11413:11480   */\n      tag_479\n        /* \"#utility.yul\":11477:11479   */\n      0x1c\n        /* \"#utility.yul\":11472:11475   */\n      dup4\n        /* \"#utility.yul\":11413:11480   */\n      tag_285\n      jump\t// in\n    tag_479:\n        /* \"#utility.yul\":11406:11480   */\n      swap2\n      pop\n        /* \"#utility.yul\":11489:11582   */\n      tag_480\n        /* \"#utility.yul\":11578:11581   */\n      dup3\n        /* \"#utility.yul\":11489:11582   */\n      tag_320\n      jump\t// in\n    tag_480:\n        /* \"#utility.yul\":11607:11609   */\n      0x20\n        /* \"#utility.yul\":11602:11605   */\n      dup3\n        /* \"#utility.yul\":11598:11610   */\n      add\n        /* \"#utility.yul\":11591:11610   */\n      swap1\n      pop\n        /* \"#utility.yul\":11250:11616   */\n      swap2\n      swap1\n      pop\n      jump\t// out\n        /* \"#utility.yul\":11622:12041   */\n    tag_116:\n        /* \"#utility.yul\":11788:11792   */\n      0x00\n        /* \"#utility.yul\":11826:11828   */\n      0x20\n        /* \"#utility.yul\":11815:11824   */\n      dup3\n        /* \"#utility.yul\":11811:11829   */\n      add\n        /* \"#utility.yul\":11803:11829   */\n      swap1\n      pop\n        /* \"#utility.yul\":11875:11884   */\n      dup2\n        /* \"#utility.yul\":11869:11873   */\n      dup2\n        /* \"#utility.yul\":11865:11885   */\n      sub\n        /* \"#utility.yul\":11861:11862   */\n      0x00\n        /* \"#utility.yul\":11850:11859   */\n      dup4\n        /* \"#utility.yul\":11846:11863   */\n      add\n        /* \"#utility.yul\":11839:11886   */\n      mstore\n        /* \"#utility.yul\":11903:12034   */\n      tag_482\n        /* \"#utility.yul\":12029:12033   */\n      dup2\n        /* \"#utility.yul\":11903:12034   */\n      tag_321\n      jump\t// in\n    tag_482:\n        /* \"#utility.yul\":11895:12034   */\n      swap1\n      pop\n        /* \"#utility.yul\":11622:12041   */\n      swap2\n      swap1\n      pop\n      jump\t// out\n        /* \"#utility.yul\":12047:12190   */\n    tag_322:\n        /* \"#utility.yul\":12104:12109   */\n      0x00\n        /* \"#utility.yul\":12135:12141   */\n      dup2\n        /* \"#utility.yul\":12129:12142   */\n      mload\n        /* \"#utility.yul\":12120:12142   */\n      swap1\n      pop\n        /* \"#utility.yul\":12151:12184   */\n      tag_484\n        /* \"#utility.yul\":12178:12183   */\n      dup2\n        /* \"#utility.yul\":12151:12184   */\n      tag_297\n      jump\t// in\n    tag_484:\n        /* \"#utility.yul\":12047:12190   */\n      swap3\n      swap2\n      pop\n      pop\n      jump\t// out\n        /* \"#utility.yul\":12196:12547   */\n    tag_123:\n        /* \"#utility.yul\":12266:12272   */\n      0x00\n        /* \"#utility.yul\":12315:12317   */\n      0x20\n        /* \"#utility.yul\":12303:12312   */\n      dup3\n        /* \"#utility.yul\":12294:12301   */\n      dup5\n        /* \"#utility.yul\":12290:12313   */\n      sub\n        /* \"#utility.yul\":12286:12318   */\n      slt\n        /* \"#utility.yul\":12283:12402   */\n      iszero\n      tag_486\n      jumpi\n        /* \"#utility.yul\":12321:12400   */\n      tag_487\n      tag_290\n      jump\t// in\n    tag_487:\n        /* \"#utility.yul\":12283:12402   */\n    tag_486:\n        /* \"#utility.yul\":12441:12442   */\n      0x00\n        /* \"#utility.yul\":12466:12530   */\n      tag_488\n        /* \"#utility.yul\":12522:12529   */\n      dup5\n        /* \"#utility.yul\":12513:12519   */\n      dup3\n        /* \"#utility.yul\":12502:12511   */\n      dup6\n        /* \"#utility.yul\":12498:12520   */\n      add\n        /* \"#utility.yul\":12466:12530   */\n      tag_322\n      jump\t// in\n    tag_488:\n        /* \"#utility.yul\":12456:12530   */\n      swap2\n      pop\n        /* \"#utility.yul\":12412:12540   */\n      pop\n        /* \"#utility.yul\":12196:12547   */\n      swap3\n      swap2\n      pop\n      pop\n      jump\t// out\n        /* \"#utility.yul\":12553:12727   */\n    tag_323:\n        /* \"#utility.yul\":12693:12719   */\n      0x5472616e7366657220746f207a65726f20616464726573730000000000000000\n        /* \"#utility.yul\":12689:12690   */\n      0x00\n        /* \"#utility.yul\":12681:12687   */\n      dup3\n        /* \"#utility.yul\":12677:12691   */\n      add\n        /* \"#utility.yul\":12670:12720   */\n      mstore\n        /* \"#utility.yul\":12553:12727   */\n      pop\n      jump\t// out\n        /* \"#utility.yul\":12733:13099   */\n    tag_324:\n        /* \"#utility.yul\":12875:12878   */\n      0x00\n        /* \"#utility.yul\":12896:12963   */\n      tag_491\n        /* \"#utility.yul\":12960:12962   */\n      0x18\n        /* \"#utility.yul\":12955:12958   */\n      dup4\n        /* \"#utility.yul\":12896:12963   */\n      tag_285\n      jump\t// in\n    tag_491:\n        /* \"#utility.yul\":12889:12963   */\n      swap2\n      pop\n        /* \"#utility.yul\":12972:13065   */\n      tag_492\n        /* \"#utility.yul\":13061:13064   */\n      dup3\n        /* \"#utility.yul\":12972:13065   */\n      tag_323\n      jump\t// in\n    tag_492:\n        /* \"#utility.yul\":13090:13092   */\n      0x20\n        /* \"#utility.yul\":13085:13088   */\n      dup3\n        /* \"#utility.yul\":13081:13093   */\n      add\n        /* \"#utility.yul\":13074:13093   */\n      swap1\n      pop\n        /* \"#utility.yul\":12733:13099   */\n      swap2\n      swap1\n      pop\n      jump\t// out\n        /* \"#utility.yul\":13105:13524   */\n    tag_127:\n        /* \"#utility.yul\":13271:13275   */\n      0x00\n        /* \"#utility.yul\":13309:13311   */\n      0x20\n        /* \"#utility.yul\":13298:13307   */\n      dup3\n        /* \"#utility.yul\":13294:13312   */\n      add\n        /* \"#utility.yul\":13286:13312   */\n      swap1\n      pop\n        /* \"#utility.yul\":13358:13367   */\n      dup2\n        /* \"#utility.yul\":13352:13356   */\n      dup2\n        /* \"#utility.yul\":13348:13368   */\n      sub\n        /* \"#utility.yul\":13344:13345   */\n      0x00\n        /* \"#utility.yul\":13333:13342   */\n      dup4\n        /* \"#utility.yul\":13329:13346   */\n      add\n        /* \"#utility.yul\":13322:13369   */\n      mstore\n        /* \"#utility.yul\":13386:13517   */\n      tag_494\n        /* \"#utility.yul\":13512:13516   */\n      dup2\n        /* \"#utility.yul\":13386:13517   */\n      tag_324\n      jump\t// in\n    tag_494:\n        /* \"#utility.yul\":13378:13517   */\n      swap1\n      pop\n        /* \"#utility.yul\":13105:13524   */\n      swap2\n      swap1\n      pop\n      jump\t// out\n        /* \"#utility.yul\":13530:13964   */\n    tag_325:\n        /* \"#utility.yul\":13619:13624   */\n      0x00\n        /* \"#utility.yul\":13644:13710   */\n      tag_496\n        /* \"#utility.yul\":13660:13709   */\n      tag_497\n        /* \"#utility.yul\":13702:13708   */\n      dup5\n        /* \"#utility.yul\":13660:13709   */\n      tag_315\n      jump\t// in\n    tag_497:\n        /* \"#utility.yul\":13644:13710   */\n      tag_314\n      jump\t// in\n    tag_496:\n        /* \"#utility.yul\":13635:13710   */\n      swap1\n      pop\n        /* \"#utility.yul\":13733:13739   */\n      dup3\n        /* \"#utility.yul\":13726:13731   */\n      dup2\n        /* \"#utility.yul\":13719:13740   */\n      mstore\n        /* \"#utility.yul\":13771:13775   */\n      0x20\n        /* \"#utility.yul\":13764:13769   */\n      dup2\n        /* \"#utility.yul\":13760:13776   */\n      add\n        /* \"#utility.yul\":13809:13812   */\n      dup5\n        /* \"#utility.yul\":13800:13806   */\n      dup5\n        /* \"#utility.yul\":13795:13798   */\n      dup5\n        /* \"#utility.yul\":13791:13807   */\n      add\n        /* \"#utility.yul\":13788:13813   */\n      gt\n        /* \"#utility.yul\":13785:13897   */\n      iszero\n      tag_498\n      jumpi\n        /* \"#utility.yul\":13816:13895   */\n      tag_499\n      tag_311\n      jump\t// in\n    tag_499:\n        /* \"#utility.yul\":13785:13897   */\n    tag_498:\n        /* \"#utility.yul\":13906:13958   */\n      tag_500\n        /* \"#utility.yul\":13951:13957   */\n      dup5\n        /* \"#utility.yul\":13946:13949   */\n      dup3\n        /* \"#utility.yul\":13941:13944   */\n      dup6\n        /* \"#utility.yul\":13906:13958   */\n      tag_286\n      jump\t// in\n    tag_500:\n        /* \"#utility.yul\":13625:13964   */\n      pop\n        /* \"#utility.yul\":13530:13964   */\n      swap4\n      swap3\n      pop\n      pop\n      pop\n      jump\t// out\n        /* \"#utility.yul\":13984:14339   */\n    tag_326:\n        /* \"#utility.yul\":14051:14056   */\n      0x00\n        /* \"#utility.yul\":14100:14103   */\n      dup3\n        /* \"#utility.yul\":14093:14097   */\n      0x1f\n        /* \"#utility.yul\":14085:14091   */\n      dup4\n        /* \"#utility.yul\":14081:14098   */\n      add\n        /* \"#utility.yul\":14077:14104   */\n      slt\n        /* \"#utility.yul\":14067:14189   */\n      tag_502\n      jumpi\n        /* \"#utility.yul\":14108:14187   */\n      tag_503\n      tag_310\n      jump\t// in\n    tag_503:\n        /* \"#utility.yul\":14067:14189   */\n    tag_502:\n        /* \"#utility.yul\":14218:14224   */\n      dup2\n        /* \"#utility.yul\":14212:14225   */\n      mload\n        /* \"#utility.yul\":14243:14333   */\n      tag_504\n        /* \"#utility.yul\":14329:14332   */\n      dup5\n        /* \"#utility.yul\":14321:14327   */\n      dup3\n        /* \"#utility.yul\":14314:14318   */\n      0x20\n        /* \"#utility.yul\":14306:14312   */\n      dup7\n        /* \"#utility.yul\":14302:14319   */\n      add\n        /* \"#utility.yul\":14243:14333   */\n      tag_325\n      jump\t// in\n    tag_504:\n        /* \"#utility.yul\":14234:14333   */\n      swap2\n      pop\n        /* \"#utility.yul\":14057:14339   */\n      pop\n        /* \"#utility.yul\":13984:14339   */\n      swap3\n      swap2\n      pop\n      pop\n      jump\t// out\n        /* \"#utility.yul\":14345:14869   */\n    tag_132:\n        /* \"#utility.yul\":14425:14431   */\n      0x00\n        /* \"#utility.yul\":14474:14476   */\n      0x20\n        /* \"#utility.yul\":14462:14471   */\n      dup3\n        /* \"#utility.yul\":14453:14460   */\n      dup5\n        /* \"#utility.yul\":14449:14472   */\n      sub\n        /* \"#utility.yul\":14445:14477   */\n      slt\n        /* \"#utility.yul\":14442:14561   */\n      iszero\n      tag_506\n      jumpi\n        /* \"#utility.yul\":14480:14559   */\n      tag_507\n      tag_290\n      jump\t// in\n    tag_507:\n        /* \"#utility.yul\":14442:14561   */\n    tag_506:\n        /* \"#utility.yul\":14621:14622   */\n      0x00\n        /* \"#utility.yul\":14610:14619   */\n      dup3\n        /* \"#utility.yul\":14606:14623   */\n      add\n        /* \"#utility.yul\":14600:14624   */\n      mload\n        /* \"#utility.yul\":14651:14669   */\n      0xffffffffffffffff\n        /* \"#utility.yul\":14643:14649   */\n      dup2\n        /* \"#utility.yul\":14640:14670   */\n      gt\n        /* \"#utility.yul\":14637:14754   */\n      iszero\n      tag_508\n      jumpi\n        /* \"#utility.yul\":14673:14752   */\n      tag_509\n      tag_291\n      jump\t// in\n    tag_509:\n        /* \"#utility.yul\":14637:14754   */\n    tag_508:\n        /* \"#utility.yul\":14778:14852   */\n      tag_510\n        /* \"#utility.yul\":14844:14851   */\n      dup5\n        /* \"#utility.yul\":14835:14841   */\n      dup3\n        /* \"#utility.yul\":14824:14833   */\n      dup6\n        /* \"#utility.yul\":14820:14842   */\n      add\n        /* \"#utility.yul\":14778:14852   */\n      tag_326\n      jump\t// in\n    tag_510:\n        /* \"#utility.yul\":14768:14852   */\n      swap2\n      pop\n        /* \"#utility.yul\":14571:14862   */\n      pop\n        /* \"#utility.yul\":14345:14869   */\n      swap3\n      swap2\n      pop\n      pop\n      jump\t// out\n        /* \"#utility.yul\":14875:15023   */\n    tag_327:\n        /* \"#utility.yul\":14977:14988   */\n      0x00\n        /* \"#utility.yul\":15014:15017   */\n      dup2\n        /* \"#utility.yul\":14999:15017   */\n      swap1\n      pop\n        /* \"#utility.yul\":14875:15023   */\n      swap3\n      swap2\n      pop\n      pop\n      jump\t// out\n        /* \"#utility.yul\":15029:15419   */\n    tag_328:\n        /* \"#utility.yul\":15135:15138   */\n      0x00\n        /* \"#utility.yul\":15163:15202   */\n      tag_513\n        /* \"#utility.yul\":15196:15201   */\n      dup3\n        /* \"#utility.yul\":15163:15202   */\n      tag_284\n      jump\t// in\n    tag_513:\n        /* \"#utility.yul\":15218:15307   */\n      tag_514\n        /* \"#utility.yul\":15300:15306   */\n      dup2\n        /* \"#utility.yul\":15295:15298   */\n      dup6\n        /* \"#utility.yul\":15218:15307   */\n      tag_327\n      jump\t// in\n    tag_514:\n        /* \"#utility.yul\":15211:15307   */\n      swap4\n      pop\n        /* \"#utility.yul\":15316:15381   */\n      tag_515\n        /* \"#utility.yul\":15374:15380   */\n      dup2\n        /* \"#utility.yul\":15369:15372   */\n      dup6\n        /* \"#utility.yul\":15362:15366   */\n      0x20\n        /* \"#utility.yul\":15355:15360   */\n      dup7\n        /* \"#utility.yul\":15351:15367   */\n      add\n        /* \"#utility.yul\":15316:15381   */\n      tag_286\n      jump\t// in\n    tag_515:\n        /* \"#utility.yul\":15406:15412   */\n      dup1\n        /* \"#utility.yul\":15401:15404   */\n      dup5\n        /* \"#utility.yul\":15397:15413   */\n      add\n        /* \"#utility.yul\":15390:15413   */\n      swap2\n      pop\n        /* \"#utility.yul\":15139:15419   */\n      pop\n        /* \"#utility.yul\":15029:15419   */\n      swap3\n      swap2\n      pop\n      pop\n      jump\t// out\n        /* \"#utility.yul\":15425:15700   */\n    tag_134:\n        /* \"#utility.yul\":15557:15560   */\n      0x00\n        /* \"#utility.yul\":15579:15674   */\n      tag_517\n        /* \"#utility.yul\":15670:15673   */\n      dup3\n        /* \"#utility.yul\":15661:15667   */\n      dup5\n        /* \"#utility.yul\":15579:15674   */\n      tag_328\n      jump\t// in\n    tag_517:\n        /* \"#utility.yul\":15572:15674   */\n      swap2\n      pop\n        /* \"#utility.yul\":15691:15694   */\n      dup2\n        /* \"#utility.yul\":15684:15694   */\n      swap1\n      pop\n        /* \"#utility.yul\":15425:15700   */\n      swap3\n      swap2\n      pop\n      pop\n      jump\t// out\n        /* \"#utility.yul\":15706:15874   */\n    tag_329:\n        /* \"#utility.yul\":15846:15866   */\n      0x4e6f7420656e6f7567682062616c616e63650000000000000000000000000000\n        /* \"#utility.yul\":15842:15843   */\n      0x00\n        /* \"#utility.yul\":15834:15840   */\n      dup3\n        /* \"#utility.yul\":15830:15844   */\n      add\n        /* \"#utility.yul\":15823:15867   */\n      mstore\n        /* \"#utility.yul\":15706:15874   */\n      pop\n      jump\t// out\n        /* \"#utility.yul\":15880:16246   */\n    tag_330:\n        /* \"#utility.yul\":16022:16025   */\n      0x00\n        /* \"#utility.yul\":16043:16110   */\n      tag_520\n        /* \"#utility.yul\":16107:16109   */\n      0x12\n        /* \"#utility.yul\":16102:16105   */\n      dup4\n        /* \"#utility.yul\":16043:16110   */\n      tag_285\n      jump\t// in\n    tag_520:\n        /* \"#utility.yul\":16036:16110   */\n      swap2\n      pop\n        /* \"#utility.yul\":16119:16212   */\n      tag_521\n        /* \"#utility.yul\":16208:16211   */\n      dup3\n        /* \"#utility.yul\":16119:16212   */\n      tag_329\n      jump\t// in\n    tag_521:\n        /* \"#utility.yul\":16237:16239   */\n      0x20\n        /* \"#utility.yul\":16232:16235   */\n      dup3\n        /* \"#utility.yul\":16228:16240   */\n      add\n        /* \"#utility.yul\":16221:16240   */\n      swap1\n      pop\n        /* \"#utility.yul\":15880:16246   */\n      swap2\n      swap1\n      pop\n      jump\t// out\n        /* \"#utility.yul\":16252:16671   */\n    tag_137:\n        /* \"#utility.yul\":16418:16422   */\n      0x00\n        /* \"#utility.yul\":16456:16458   */\n      0x20\n        /* \"#utility.yul\":16445:16454   */\n      dup3\n        /* \"#utility.yul\":16441:16459   */\n      add\n        /* \"#utility.yul\":16433:16459   */\n      swap1\n      pop\n        /* \"#utility.yul\":16505:16514   */\n      dup2\n        /* \"#utility.yul\":16499:16503   */\n      dup2\n        /* \"#utility.yul\":16495:16515   */\n      sub\n        /* \"#utility.yul\":16491:16492   */\n      0x00\n        /* \"#utility.yul\":16480:16489   */\n      dup4\n        /* \"#utility.yul\":16476:16493   */\n      add\n        /* \"#utility.yul\":16469:16516   */\n      mstore\n        /* \"#utility.yul\":16533:16664   */\n      tag_523\n        /* \"#utility.yul\":16659:16663   */\n      dup2\n        /* \"#utility.yul\":16533:16664   */\n      tag_330\n      jump\t// in\n    tag_523:\n        /* \"#utility.yul\":16525:16664   */\n      swap1\n      pop\n        /* \"#utility.yul\":16252:16671   */\n      swap2\n      swap1\n      pop\n      jump\t// out\n        /* \"#utility.yul\":16677:16857   */\n    tag_331:\n        /* \"#utility.yul\":16725:16802   */\n      0x4e487b7100000000000000000000000000000000000000000000000000000000\n        /* \"#utility.yul\":16722:16723   */\n      0x00\n        /* \"#utility.yul\":16715:16803   */\n      mstore\n        /* \"#utility.yul\":16822:16826   */\n      0x11\n        /* \"#utility.yul\":16819:16820   */\n      0x04\n        /* \"#utility.yul\":16812:16827   */\n      mstore\n        /* \"#utility.yul\":16846:16850   */\n      0x24\n        /* \"#utility.yul\":16843:16844   */\n      0x00\n        /* \"#utility.yul\":16836:16851   */\n      revert\n        /* \"#utility.yul\":16863:17057   */\n    tag_140:\n        /* \"#utility.yul\":16903:16907   */\n      0x00\n        /* \"#utility.yul\":16923:16943   */\n      tag_526\n        /* \"#utility.yul\":16941:16942   */\n      dup3\n        /* \"#utility.yul\":16923:16943   */\n      tag_296\n      jump\t// in\n    tag_526:\n        /* \"#utility.yul\":16918:16943   */\n      swap2\n      pop\n        /* \"#utility.yul\":16957:16977   */\n      tag_527\n        /* \"#utility.yul\":16975:16976   */\n      dup4\n        /* \"#utility.yul\":16957:16977   */\n      tag_296\n      jump\t// in\n    tag_527:\n        /* \"#utility.yul\":16952:16977   */\n      swap3\n      pop\n        /* \"#utility.yul\":17001:17002   */\n      dup3\n        /* \"#utility.yul\":16998:16999   */\n      dup3\n        /* \"#utility.yul\":16994:17003   */\n      sub\n        /* \"#utility.yul\":16986:17003   */\n      swap1\n      pop\n        /* \"#utility.yul\":17025:17026   */\n      dup2\n        /* \"#utility.yul\":17019:17023   */\n      dup2\n        /* \"#utility.yul\":17016:17027   */\n      gt\n        /* \"#utility.yul\":17013:17050   */\n      iszero\n      tag_528\n      jumpi\n        /* \"#utility.yul\":17030:17048   */\n      tag_529\n      tag_331\n      jump\t// in\n    tag_529:\n        /* \"#utility.yul\":17013:17050   */\n    tag_528:\n        /* \"#utility.yul\":16863:17057   */\n      swap3\n      swap2\n      pop\n      pop\n      jump\t// out\n        /* \"#utility.yul\":17063:17395   */\n    tag_143:\n        /* \"#utility.yul\":17184:17188   */\n      0x00\n        /* \"#utility.yul\":17222:17224   */\n      0x40\n        /* \"#utility.yul\":17211:17220   */\n      dup3\n        /* \"#utility.yul\":17207:17225   */\n      add\n        /* \"#utility.yul\":17199:17225   */\n      swap1\n      pop\n        /* \"#utility.yul\":17235:17306   */\n      tag_531\n        /* \"#utility.yul\":17303:17304   */\n      0x00\n        /* \"#utility.yul\":17292:17301   */\n      dup4\n        /* \"#utility.yul\":17288:17305   */\n      add\n        /* \"#utility.yul\":17279:17285   */\n      dup6\n        /* \"#utility.yul\":17235:17306   */\n      tag_301\n      jump\t// in\n    tag_531:\n        /* \"#utility.yul\":17316:17388   */\n      tag_532\n        /* \"#utility.yul\":17384:17386   */\n      0x20\n        /* \"#utility.yul\":17373:17382   */\n      dup4\n        /* \"#utility.yul\":17369:17387   */\n      add\n        /* \"#utility.yul\":17360:17366   */\n      dup5\n        /* \"#utility.yul\":17316:17388   */\n      tag_302\n      jump\t// in\n    tag_532:\n        /* \"#utility.yul\":17063:17395   */\n      swap4\n      swap3\n      pop\n      pop\n      pop\n      jump\t// out\n        /* \"#utility.yul\":17401:17517   */\n    tag_332:\n        /* \"#utility.yul\":17471:17492   */\n      tag_534\n        /* \"#utility.yul\":17486:17491   */\n      dup2\n        /* \"#utility.yul\":17471:17492   */\n      tag_299\n      jump\t// in\n    tag_534:\n        /* \"#utility.yul\":17464:17469   */\n      dup2\n        /* \"#utility.yul\":17461:17493   */\n      eq\n        /* \"#utility.yul\":17451:17511   */\n      tag_535\n      jumpi\n        /* \"#utility.yul\":17507:17508   */\n      0x00\n        /* \"#utility.yul\":17504:17505   */\n      dup1\n        /* \"#utility.yul\":17497:17509   */\n      revert\n        /* \"#utility.yul\":17451:17511   */\n    tag_535:\n        /* \"#utility.yul\":17401:17517   */\n      pop\n      jump\t// out\n        /* \"#utility.yul\":17523:17660   */\n    tag_333:\n        /* \"#utility.yul\":17577:17582   */\n      0x00\n        /* \"#utility.yul\":17608:17614   */\n      dup2\n        /* \"#utility.yul\":17602:17615   */\n      mload\n        /* \"#utility.yul\":17593:17615   */\n      swap1\n      pop\n        /* \"#utility.yul\":17624:17654   */\n      tag_537\n        /* \"#utility.yul\":17648:17653   */\n      dup2\n        /* \"#utility.yul\":17624:17654   */\n      tag_332\n      jump\t// in\n    tag_537:\n        /* \"#utility.yul\":17523:17660   */\n      swap3\n      swap2\n      pop\n      pop\n      jump\t// out\n        /* \"#utility.yul\":17666:18011   */\n    tag_147:\n        /* \"#utility.yul\":17733:17739   */\n      0x00\n        /* \"#utility.yul\":17782:17784   */\n      0x20\n        /* \"#utility.yul\":17770:17779   */\n      dup3\n        /* \"#utility.yul\":17761:17768   */\n      dup5\n        /* \"#utility.yul\":17757:17780   */\n      sub\n        /* \"#utility.yul\":17753:17785   */\n      slt\n        /* \"#utility.yul\":17750:17869   */\n      iszero\n      tag_539\n      jumpi\n        /* \"#utility.yul\":17788:17867   */\n      tag_540\n      tag_290\n      jump\t// in\n    tag_540:\n        /* \"#utility.yul\":17750:17869   */\n    tag_539:\n        /* \"#utility.yul\":17908:17909   */\n      0x00\n        /* \"#utility.yul\":17933:17994   */\n      tag_541\n        /* \"#utility.yul\":17986:17993   */\n      dup5\n        /* \"#utility.yul\":17977:17983   */\n      dup3\n        /* \"#utility.yul\":17966:17975   */\n      dup6\n        /* \"#utility.yul\":17962:17984   */\n      add\n        /* \"#utility.yul\":17933:17994   */\n      tag_333\n      jump\t// in\n    tag_541:\n        /* \"#utility.yul\":17923:17994   */\n      swap2\n      pop\n        /* \"#utility.yul\":17879:18004   */\n      pop\n        /* \"#utility.yul\":17666:18011   */\n      swap3\n      swap2\n      pop\n      pop\n      jump\t// out\n        /* \"#utility.yul\":18017:18185   */\n    tag_334:\n        /* \"#utility.yul\":18157:18177   */\n      0x55454e20646f6573206e6f742065786973740000000000000000000000000000\n        /* \"#utility.yul\":18153:18154   */\n      0x00\n        /* \"#utility.yul\":18145:18151   */\n      dup3\n        /* \"#utility.yul\":18141:18155   */\n      add\n        /* \"#utility.yul\":18134:18178   */\n      mstore\n        /* \"#utility.yul\":18017:18185   */\n      pop\n      jump\t// out\n        /* \"#utility.yul\":18191:18557   */\n    tag_335:\n        /* \"#utility.yul\":18333:18336   */\n      0x00\n        /* \"#utility.yul\":18354:18421   */\n      tag_544\n        /* \"#utility.yul\":18418:18420   */\n      0x12\n        /* \"#utility.yul\":18413:18416   */\n      dup4\n        /* \"#utility.yul\":18354:18421   */\n      tag_285\n      jump\t// in\n    tag_544:\n        /* \"#utility.yul\":18347:18421   */\n      swap2\n      pop\n        /* \"#utility.yul\":18430:18523   */\n      tag_545\n        /* \"#utility.yul\":18519:18522   */\n      dup3\n        /* \"#utility.yul\":18430:18523   */\n      tag_334\n      jump\t// in\n    tag_545:\n        /* \"#utility.yul\":18548:18550   */\n      0x20\n        /* \"#utility.yul\":18543:18546   */\n      dup3\n        /* \"#utility.yul\":18539:18551   */\n      add\n        /* \"#utility.yul\":18532:18551   */\n      swap1\n      pop\n        /* \"#utility.yul\":18191:18557   */\n      swap2\n      swap1\n      pop\n      jump\t// out\n        /* \"#utility.yul\":18563:18982   */\n    tag_156:\n        /* \"#utility.yul\":18729:18733   */\n      0x00\n        /* \"#utility.yul\":18767:18769   */\n      0x20\n        /* \"#utility.yul\":18756:18765   */\n      dup3\n        /* \"#utility.yul\":18752:18770   */\n      add\n        /* \"#utility.yul\":18744:18770   */\n      swap1\n      pop\n        /* \"#utility.yul\":18816:18825   */\n      dup2\n        /* \"#utility.yul\":18810:18814   */\n      dup2\n        /* \"#utility.yul\":18806:18826   */\n      sub\n        /* \"#utility.yul\":18802:18803   */\n      0x00\n        /* \"#utility.yul\":18791:18800   */\n      dup4\n        /* \"#utility.yul\":18787:18804   */\n      add\n        /* \"#utility.yul\":18780:18827   */\n      mstore\n        /* \"#utility.yul\":18844:18975   */\n      tag_547\n        /* \"#utility.yul\":18970:18974   */\n      dup2\n        /* \"#utility.yul\":18844:18975   */\n      tag_335\n      jump\t// in\n    tag_547:\n        /* \"#utility.yul\":18836:18975   */\n      swap1\n      pop\n        /* \"#utility.yul\":18563:18982   */\n      swap2\n      swap1\n      pop\n      jump\t// out\n        /* \"#utility.yul\":18988:19157   */\n    tag_336:\n        /* \"#utility.yul\":19128:19149   */\n      0x55454e2074617267657420697320656d70747900000000000000000000000000\n        /* \"#utility.yul\":19124:19125   */\n      0x00\n        /* \"#utility.yul\":19116:19122   */\n      dup3\n        /* \"#utility.yul\":19112:19126   */\n      add\n        /* \"#utility.yul\":19105:19150   */\n      mstore\n        /* \"#utility.yul\":18988:19157   */\n      pop\n      jump\t// out\n        /* \"#utility.yul\":19163:19529   */\n    tag_337:\n        /* \"#utility.yul\":19305:19308   */\n      0x00\n        /* \"#utility.yul\":19326:19393   */\n      tag_550\n        /* \"#utility.yul\":19390:19392   */\n      0x13\n        /* \"#utility.yul\":19385:19388   */\n      dup4\n        /* \"#utility.yul\":19326:19393   */\n      tag_285\n      jump\t// in\n    tag_550:\n        /* \"#utility.yul\":19319:19393   */\n      swap2\n      pop\n        /* \"#utility.yul\":19402:19495   */\n      tag_551\n        /* \"#utility.yul\":19491:19494   */\n      dup3\n        /* \"#utility.yul\":19402:19495   */\n      tag_336\n      jump\t// in\n    tag_551:\n        /* \"#utility.yul\":19520:19522   */\n      0x20\n        /* \"#utility.yul\":19515:19518   */\n      dup3\n        /* \"#utility.yul\":19511:19523   */\n      add\n        /* \"#utility.yul\":19504:19523   */\n      swap1\n      pop\n        /* \"#utility.yul\":19163:19529   */\n      swap2\n      swap1\n      pop\n      jump\t// out\n        /* \"#utility.yul\":19535:19954   */\n    tag_160:\n        /* \"#utility.yul\":19701:19705   */\n      0x00\n        /* \"#utility.yul\":19739:19741   */\n      0x20\n        /* \"#utility.yul\":19728:19737   */\n      dup3\n        /* \"#utility.yul\":19724:19742   */\n      add\n        /* \"#utility.yul\":19716:19742   */\n      swap1\n      pop\n        /* \"#utility.yul\":19788:19797   */\n      dup2\n        /* \"#utility.yul\":19782:19786   */\n      dup2\n        /* \"#utility.yul\":19778:19798   */\n      sub\n        /* \"#utility.yul\":19774:19775   */\n      0x00\n        /* \"#utility.yul\":19763:19772   */\n      dup4\n        /* \"#utility.yul\":19759:19776   */\n      add\n        /* \"#utility.yul\":19752:19799   */\n      mstore\n        /* \"#utility.yul\":19816:19947   */\n      tag_553\n        /* \"#utility.yul\":19942:19946   */\n      dup2\n        /* \"#utility.yul\":19816:19947   */\n      tag_337\n      jump\t// in\n    tag_553:\n        /* \"#utility.yul\":19808:19947   */\n      swap1\n      pop\n        /* \"#utility.yul\":19535:19954   */\n      swap2\n      swap1\n      pop\n      jump\t// out\n        /* \"#utility.yul\":19960:20151   */\n    tag_171:\n        /* \"#utility.yul\":20000:20003   */\n      0x00\n        /* \"#utility.yul\":20019:20039   */\n      tag_555\n        /* \"#utility.yul\":20037:20038   */\n      dup3\n        /* \"#utility.yul\":20019:20039   */\n      tag_296\n      jump\t// in\n    tag_555:\n        /* \"#utility.yul\":20014:20039   */\n      swap2\n      pop\n        /* \"#utility.yul\":20053:20073   */\n      tag_556\n        /* \"#utility.yul\":20071:20072   */\n      dup4\n        /* \"#utility.yul\":20053:20073   */\n      tag_296\n      jump\t// in\n    tag_556:\n        /* \"#utility.yul\":20048:20073   */\n      swap3\n      pop\n        /* \"#utility.yul\":20096:20097   */\n      dup3\n        /* \"#utility.yul\":20093:20094   */\n      dup3\n        /* \"#utility.yul\":20089:20098   */\n      add\n        /* \"#utility.yul\":20082:20098   */\n      swap1\n      pop\n        /* \"#utility.yul\":20117:20120   */\n      dup1\n        /* \"#utility.yul\":20114:20115   */\n      dup3\n        /* \"#utility.yul\":20111:20121   */\n      gt\n        /* \"#utility.yul\":20108:20144   */\n      iszero\n      tag_557\n      jumpi\n        /* \"#utility.yul\":20124:20142   */\n      tag_558\n      tag_331\n      jump\t// in\n    tag_558:\n        /* \"#utility.yul\":20108:20144   */\n    tag_557:\n        /* \"#utility.yul\":19960:20151   */\n      swap3\n      swap2\n      pop\n      pop\n      jump\t// out\n        /* \"#utility.yul\":20157:20300   */\n    tag_338:\n        /* \"#utility.yul\":20214:20219   */\n      0x00\n        /* \"#utility.yul\":20245:20251   */\n      dup2\n        /* \"#utility.yul\":20239:20252   */\n      mload\n        /* \"#utility.yul\":20230:20252   */\n      swap1\n      pop\n        /* \"#utility.yul\":20261:20294   */\n      tag_560\n        /* \"#utility.yul\":20288:20293   */\n      dup2\n        /* \"#utility.yul\":20261:20294   */\n      tag_294\n      jump\t// in\n    tag_560:\n        /* \"#utility.yul\":20157:20300   */\n      swap3\n      swap2\n      pop\n      pop\n      jump\t// out\n        /* \"#utility.yul\":20306:20657   */\n    tag_176:\n        /* \"#utility.yul\":20376:20382   */\n      0x00\n        /* \"#utility.yul\":20425:20427   */\n      0x20\n        /* \"#utility.yul\":20413:20422   */\n      dup3\n        /* \"#utility.yul\":20404:20411   */\n      dup5\n        /* \"#utility.yul\":20400:20423   */\n      sub\n        /* \"#utility.yul\":20396:20428   */\n      slt\n        /* \"#utility.yul\":20393:20512   */\n      iszero\n      tag_562\n      jumpi\n        /* \"#utility.yul\":20431:20510   */\n      tag_563\n      tag_290\n      jump\t// in\n    tag_563:\n        /* \"#utility.yul\":20393:20512   */\n    tag_562:\n        /* \"#utility.yul\":20551:20552   */\n      0x00\n        /* \"#utility.yul\":20576:20640   */\n      tag_564\n        /* \"#utility.yul\":20632:20639   */\n      dup5\n        /* \"#utility.yul\":20623:20629   */\n      dup3\n        /* \"#utility.yul\":20612:20621   */\n      dup6\n        /* \"#utility.yul\":20608:20630   */\n      add\n        /* \"#utility.yul\":20576:20640   */\n      tag_338\n      jump\t// in\n    tag_564:\n        /* \"#utility.yul\":20566:20640   */\n      swap2\n      pop\n        /* \"#utility.yul\":20522:20650   */\n      pop\n        /* \"#utility.yul\":20306:20657   */\n      swap3\n      swap2\n      pop\n      pop\n      jump\t// out\n        /* \"#utility.yul\":20663:20825   */\n    tag_339:\n        /* \"#utility.yul\":20803:20817   */\n      0x55454e20697320656d7074790000000000000000000000000000000000000000\n        /* \"#utility.yul\":20799:20800   */\n      0x00\n        /* \"#utility.yul\":20791:20797   */\n      dup3\n        /* \"#utility.yul\":20787:20801   */\n      add\n        /* \"#utility.yul\":20780:20818   */\n      mstore\n        /* \"#utility.yul\":20663:20825   */\n      pop\n      jump\t// out\n        /* \"#utility.yul\":20831:21197   */\n    tag_340:\n        /* \"#utility.yul\":20973:20976   */\n      0x00\n        /* \"#utility.yul\":20994:21061   */\n      tag_567\n        /* \"#utility.yul\":21058:21060   */\n      0x0c\n        /* \"#utility.yul\":21053:21056   */\n      dup4\n        /* \"#utility.yul\":20994:21061   */\n      tag_285\n      jump\t// in\n    tag_567:\n        /* \"#utility.yul\":20987:21061   */\n      swap2\n      pop\n        /* \"#utility.yul\":21070:21163   */\n      tag_568\n        /* \"#utility.yul\":21159:21162   */\n      dup3\n        /* \"#utility.yul\":21070:21163   */\n      tag_339\n      jump\t// in\n    tag_568:\n        /* \"#utility.yul\":21188:21190   */\n      0x20\n        /* \"#utility.yul\":21183:21186   */\n      dup3\n        /* \"#utility.yul\":21179:21191   */\n      add\n        /* \"#utility.yul\":21172:21191   */\n      swap1\n      pop\n        /* \"#utility.yul\":20831:21197   */\n      swap2\n      swap1\n      pop\n      jump\t// out\n        /* \"#utility.yul\":21203:21622   */\n    tag_189:\n        /* \"#utility.yul\":21369:21373   */\n      0x00\n        /* \"#utility.yul\":21407:21409   */\n      0x20\n        /* \"#utility.yul\":21396:21405   */\n      dup3\n        /* \"#utility.yul\":21392:21410   */\n      add\n        /* \"#utility.yul\":21384:21410   */\n      swap1\n      pop\n        /* \"#utility.yul\":21456:21465   */\n      dup2\n        /* \"#utility.yul\":21450:21454   */\n      dup2\n        /* \"#utility.yul\":21446:21466   */\n      sub\n        /* \"#utility.yul\":21442:21443   */\n      0x00\n        /* \"#utility.yul\":21431:21440   */\n      dup4\n        /* \"#utility.yul\":21427:21444   */\n      add\n        /* \"#utility.yul\":21420:21467   */\n      mstore\n        /* \"#utility.yul\":21484:21615   */\n      tag_570\n        /* \"#utility.yul\":21610:21614   */\n      dup2\n        /* \"#utility.yul\":21484:21615   */\n      tag_340\n      jump\t// in\n    tag_570:\n        /* \"#utility.yul\":21476:21615   */\n      swap1\n      pop\n        /* \"#utility.yul\":21203:21622   */\n      swap2\n      swap1\n      pop\n      jump\t// out\n        /* \"#utility.yul\":21628:21960   */\n    tag_191:\n        /* \"#utility.yul\":21749:21753   */\n      0x00\n        /* \"#utility.yul\":21787:21789   */\n      0x40\n        /* \"#utility.yul\":21776:21785   */\n      dup3\n        /* \"#utility.yul\":21772:21790   */\n      add\n        /* \"#utility.yul\":21764:21790   */\n      swap1\n      pop\n        /* \"#utility.yul\":21800:21871   */\n      tag_572\n        /* \"#utility.yul\":21868:21869   */\n      0x00\n        /* \"#utility.yul\":21857:21866   */\n      dup4\n        /* \"#utility.yul\":21853:21870   */\n      add\n        /* \"#utility.yul\":21844:21850   */\n      dup6\n        /* \"#utility.yul\":21800:21871   */\n      tag_301\n      jump\t// in\n    tag_572:\n        /* \"#utility.yul\":21881:21953   */\n      tag_573\n        /* \"#utility.yul\":21949:21951   */\n      0x20\n        /* \"#utility.yul\":21938:21947   */\n      dup4\n        /* \"#utility.yul\":21934:21952   */\n      add\n        /* \"#utility.yul\":21925:21931   */\n      dup5\n        /* \"#utility.yul\":21881:21953   */\n      tag_301\n      jump\t// in\n    tag_573:\n        /* \"#utility.yul\":21628:21960   */\n      swap4\n      swap3\n      pop\n      pop\n      pop\n      jump\t// out\n        /* \"#utility.yul\":21966:22138   */\n    tag_341:\n        /* \"#utility.yul\":22106:22130   */\n      0x496e6372656173652074686520616c6c6f77616e636500000000000000000000\n        /* \"#utility.yul\":22102:22103   */\n      0x00\n        /* \"#utility.yul\":22094:22100   */\n      dup3\n        /* \"#utility.yul\":22090:22104   */\n      add\n        /* \"#utility.yul\":22083:22131   */\n      mstore\n        /* \"#utility.yul\":21966:22138   */\n      pop\n      jump\t// out\n        /* \"#utility.yul\":22144:22510   */\n    tag_342:\n        /* \"#utility.yul\":22286:22289   */\n      0x00\n        /* \"#utility.yul\":22307:22374   */\n      tag_576\n        /* \"#utility.yul\":22371:22373   */\n      0x16\n        /* \"#utility.yul\":22366:22369   */\n      dup4\n        /* \"#utility.yul\":22307:22374   */\n      tag_285\n      jump\t// in\n    tag_576:\n        /* \"#utility.yul\":22300:22374   */\n      swap2\n      pop\n        /* \"#utility.yul\":22383:22476   */\n      tag_577\n        /* \"#utility.yul\":22472:22475   */\n      dup3\n        /* \"#utility.yul\":22383:22476   */\n      tag_341\n      jump\t// in\n    tag_577:\n        /* \"#utility.yul\":22501:22503   */\n      0x20\n        /* \"#utility.yul\":22496:22499   */\n      dup3\n        /* \"#utility.yul\":22492:22504   */\n      add\n        /* \"#utility.yul\":22485:22504   */\n      swap1\n      pop\n        /* \"#utility.yul\":22144:22510   */\n      swap2\n      swap1\n      pop\n      jump\t// out\n        /* \"#utility.yul\":22516:22935   */\n    tag_197:\n        /* \"#utility.yul\":22682:22686   */\n      0x00\n        /* \"#utility.yul\":22720:22722   */\n      0x20\n        /* \"#utility.yul\":22709:22718   */\n      dup3\n        /* \"#utility.yul\":22705:22723   */\n      add\n        /* \"#utility.yul\":22697:22723   */\n      swap1\n      pop\n        /* \"#utility.yul\":22769:22778   */\n      dup2\n        /* \"#utility.yul\":22763:22767   */\n      dup2\n        /* \"#utility.yul\":22759:22779   */\n      sub\n        /* \"#utility.yul\":22755:22756   */\n      0x00\n        /* \"#utility.yul\":22744:22753   */\n      dup4\n        /* \"#utility.yul\":22740:22757   */\n      add\n        /* \"#utility.yul\":22733:22780   */\n      mstore\n        /* \"#utility.yul\":22797:22928   */\n      tag_579\n        /* \"#utility.yul\":22923:22927   */\n      dup2\n        /* \"#utility.yul\":22797:22928   */\n      tag_342\n      jump\t// in\n    tag_579:\n        /* \"#utility.yul\":22789:22928   */\n      swap1\n      pop\n        /* \"#utility.yul\":22516:22935   */\n      swap2\n      swap1\n      pop\n      jump\t// out\n        /* \"#utility.yul\":22941:23383   */\n    tag_199:\n        /* \"#utility.yul\":23090:23094   */\n      0x00\n        /* \"#utility.yul\":23128:23130   */\n      0x60\n        /* \"#utility.yul\":23117:23126   */\n      dup3\n        /* \"#utility.yul\":23113:23131   */\n      add\n        /* \"#utility.yul\":23105:23131   */\n      swap1\n      pop\n        /* \"#utility.yul\":23141:23212   */\n      tag_581\n        /* \"#utility.yul\":23209:23210   */\n      0x00\n        /* \"#utility.yul\":23198:23207   */\n      dup4\n        /* \"#utility.yul\":23194:23211   */\n      add\n        /* \"#utility.yul\":23185:23191   */\n      dup7\n        /* \"#utility.yul\":23141:23212   */\n      tag_301\n      jump\t// in\n    tag_581:\n        /* \"#utility.yul\":23222:23294   */\n      tag_582\n        /* \"#utility.yul\":23290:23292   */\n      0x20\n        /* \"#utility.yul\":23279:23288   */\n      dup4\n        /* \"#utility.yul\":23275:23293   */\n      add\n        /* \"#utility.yul\":23266:23272   */\n      dup6\n        /* \"#utility.yul\":23222:23294   */\n      tag_301\n      jump\t// in\n    tag_582:\n        /* \"#utility.yul\":23304:23376   */\n      tag_583\n        /* \"#utility.yul\":23372:23374   */\n      0x40\n        /* \"#utility.yul\":23361:23370   */\n      dup4\n        /* \"#utility.yul\":23357:23375   */\n      add\n        /* \"#utility.yul\":23348:23354   */\n      dup5\n        /* \"#utility.yul\":23304:23376   */\n      tag_302\n      jump\t// in\n    tag_583:\n        /* \"#utility.yul\":22941:23383   */\n      swap5\n      swap4\n      pop\n      pop\n      pop\n      pop\n      jump\t// out\n        /* \"#utility.yul\":23389:23569   */\n    tag_264:\n        /* \"#utility.yul\":23437:23514   */\n      0x4e487b7100000000000000000000000000000000000000000000000000000000\n        /* \"#utility.yul\":23434:23435   */\n      0x00\n        /* \"#utility.yul\":23427:23515   */\n      mstore\n        /* \"#utility.yul\":23534:23538   */\n      0x32\n        /* \"#utility.yul\":23531:23532   */\n      0x04\n        /* \"#utility.yul\":23524:23539   */\n      mstore\n        /* \"#utility.yul\":23558:23562   */\n      0x24\n        /* \"#utility.yul\":23555:23556   */\n      0x00\n        /* \"#utility.yul\":23548:23563   */\n      revert\n        /* \"#utility.yul\":23575:23796   */\n    tag_343:\n        /* \"#utility.yul\":23715:23749   */\n      0x4f6e6c792061646d696e732063616e2063616c6c20746869732066756e637469\n        /* \"#utility.yul\":23711:23712   */\n      0x00\n        /* \"#utility.yul\":23703:23709   */\n      dup3\n        /* \"#utility.yul\":23699:23713   */\n      add\n        /* \"#utility.yul\":23692:23750   */\n      mstore\n        /* \"#utility.yul\":23784:23788   */\n      0x6f6e000000000000000000000000000000000000000000000000000000000000\n        /* \"#utility.yul\":23779:23781   */\n      0x20\n        /* \"#utility.yul\":23771:23777   */\n      dup3\n        /* \"#utility.yul\":23767:23782   */\n      add\n        /* \"#utility.yul\":23760:23789   */\n      mstore\n        /* \"#utility.yul\":23575:23796   */\n      pop\n      jump\t// out\n        /* \"#utility.yul\":23802:24168   */\n    tag_344:\n        /* \"#utility.yul\":23944:23947   */\n      0x00\n        /* \"#utility.yul\":23965:24032   */\n      tag_587\n        /* \"#utility.yul\":24029:24031   */\n      0x22\n        /* \"#utility.yul\":24024:24027   */\n      dup4\n        /* \"#utility.yul\":23965:24032   */\n      tag_285\n      jump\t// in\n    tag_587:\n        /* \"#utility.yul\":23958:24032   */\n      swap2\n      pop\n        /* \"#utility.yul\":24041:24134   */\n      tag_588\n        /* \"#utility.yul\":24130:24133   */\n      dup3\n        /* \"#utility.yul\":24041:24134   */\n      tag_343\n      jump\t// in\n    tag_588:\n        /* \"#utility.yul\":24159:24161   */\n      0x40\n        /* \"#utility.yul\":24154:24157   */\n      dup3\n        /* \"#utility.yul\":24150:24162   */\n      add\n        /* \"#utility.yul\":24143:24162   */\n      swap1\n      pop\n        /* \"#utility.yul\":23802:24168   */\n      swap2\n      swap1\n      pop\n      jump\t// out\n        /* \"#utility.yul\":24174:24593   */\n    tag_269:\n        /* \"#utility.yul\":24340:24344   */\n      0x00\n        /* \"#utility.yul\":24378:24380   */\n      0x20\n        /* \"#utility.yul\":24367:24376   */\n      dup3\n        /* \"#utility.yul\":24363:24381   */\n      add\n        /* \"#utility.yul\":24355:24381   */\n      swap1\n      pop\n        /* \"#utility.yul\":24427:24436   */\n      dup2\n        /* \"#utility.yul\":24421:24425   */\n      dup2\n        /* \"#utility.yul\":24417:24437   */\n      sub\n        /* \"#utility.yul\":24413:24414   */\n      0x00\n        /* \"#utility.yul\":24402:24411   */\n      dup4\n        /* \"#utility.yul\":24398:24415   */\n      add\n        /* \"#utility.yul\":24391:24438   */\n      mstore\n        /* \"#utility.yul\":24455:24586   */\n      tag_590\n        /* \"#utility.yul\":24581:24585   */\n      dup2\n        /* \"#utility.yul\":24455:24586   */\n      tag_344\n      jump\t// in\n    tag_590:\n        /* \"#utility.yul\":24447:24586   */\n      swap1\n      pop\n        /* \"#utility.yul\":24174:24593   */\n      swap2\n      swap1\n      pop\n      jump\t// out\n        /* \"#utility.yul\":24599:24777   */\n    tag_345:\n        /* \"#utility.yul\":24739:24769   */\n      0x576974686472617720746f20746865207a65726f206164647265737300000000\n        /* \"#utility.yul\":24735:24736   */\n      0x00\n        /* \"#utility.yul\":24727:24733   */\n      dup3\n        /* \"#utility.yul\":24723:24737   */\n      add\n        /* \"#utility.yul\":24716:24770   */\n      mstore\n        /* \"#utility.yul\":24599:24777   */\n      pop\n      jump\t// out\n        /* \"#utility.yul\":24783:25149   */\n    tag_346:\n        /* \"#utility.yul\":24925:24928   */\n      0x00\n        /* \"#utility.yul\":24946:25013   */\n      tag_593\n        /* \"#utility.yul\":25010:25012   */\n      0x1c\n        /* \"#utility.yul\":25005:25008   */\n      dup4\n        /* \"#utility.yul\":24946:25013   */\n      tag_285\n      jump\t// in\n    tag_593:\n        /* \"#utility.yul\":24939:25013   */\n      swap2\n      pop\n        /* \"#utility.yul\":25022:25115   */\n      tag_594\n        /* \"#utility.yul\":25111:25114   */\n      dup3\n        /* \"#utility.yul\":25022:25115   */\n      tag_345\n      jump\t// in\n    tag_594:\n        /* \"#utility.yul\":25140:25142   */\n      0x20\n        /* \"#utility.yul\":25135:25138   */\n      dup3\n        /* \"#utility.yul\":25131:25143   */\n      add\n        /* \"#utility.yul\":25124:25143   */\n      swap1\n      pop\n        /* \"#utility.yul\":24783:25149   */\n      swap2\n      swap1\n      pop\n      jump\t// out\n        /* \"#utility.yul\":25155:25574   */\n    tag_273:\n        /* \"#utility.yul\":25321:25325   */\n      0x00\n        /* \"#utility.yul\":25359:25361   */\n      0x20\n        /* \"#utility.yul\":25348:25357   */\n      dup3\n        /* \"#utility.yul\":25344:25362   */\n      add\n        /* \"#utility.yul\":25336:25362   */\n      swap1\n      pop\n        /* \"#utility.yul\":25408:25417   */\n      dup2\n        /* \"#utility.yul\":25402:25406   */\n      dup2\n        /* \"#utility.yul\":25398:25418   */\n      sub\n        /* \"#utility.yul\":25394:25395   */\n      0x00\n        /* \"#utility.yul\":25383:25392   */\n      dup4\n        /* \"#utility.yul\":25379:25396   */\n      add\n        /* \"#utility.yul\":25372:25419   */\n      mstore\n        /* \"#utility.yul\":25436:25567   */\n      tag_596\n        /* \"#utility.yul\":25562:25566   */\n      dup2\n        /* \"#utility.yul\":25436:25567   */\n      tag_346\n      jump\t// in\n    tag_596:\n        /* \"#utility.yul\":25428:25567   */\n      swap1\n      pop\n        /* \"#utility.yul\":25155:25574   */\n      swap2\n      swap1\n      pop\n      jump\t// out\n\n    auxdata: 0xa2646970667358221220d17928aab9c41d5bd9a152649440f5dee548d2787e5a3e2b829886087b9711ba64736f6c63430008160033\n}\n",
				"bytecode": {
					"linkReferences": {},
					"object": "608060405234801562000010575f80fd5b5060405162002f7538038062002f75833981810160405281019062000036919062000399565b6040518060400160405280600481526020017f5347446d000000000000000000000000000000000000000000000000000000008152506040518060400160405280600481526020017f5347446d000000000000000000000000000000000000000000000000000000008152508160039081620000b391906200066c565b508060049081620000c591906200066c565b5050508360055f6101000a81548173ffffffffffffffffffffffffffffffffffffffff021916908373ffffffffffffffffffffffffffffffffffffffff1602179055508260095f6101000a81548173ffffffffffffffffffffffffffffffffffffffff021916908373ffffffffffffffffffffffffffffffffffffffff1602179055508160075f6101000a81548173ffffffffffffffffffffffffffffffffffffffff021916908373ffffffffffffffffffffffffffffffffffffffff16021790555060075f9054906101000a900473ffffffffffffffffffffffffffffffffffffffff1673ffffffffffffffffffffffffffffffffffffffff16638794b69d6040518163ffffffff1660e01b81526004015f60405180830381865afa158015620001f2573d5f803e3d5ffd5b505050506040513d5f823e3d601f19601f820116820180604052508101906200021c91906200088f565b60089080519060200190620002339291906200027e565b5080600a5f6101000a81548173ffffffffffffffffffffffffffffffffffffffff021916908373ffffffffffffffffffffffffffffffffffffffff16021790555050505050620008de565b828054828255905f5260205f20908101928215620002f7579160200282015b82811115620002f6578251825f6101000a81548173ffffffffffffffffffffffffffffffffffffffff021916908373ffffffffffffffffffffffffffffffffffffffff160217905550916020019190600101906200029d565b5b5090506200030691906200030a565b5090565b5b8082111562000323575f815f9055506001016200030b565b5090565b5f604051905090565b5f80fd5b5f80fd5b5f73ffffffffffffffffffffffffffffffffffffffff82169050919050565b5f620003638262000338565b9050919050565b620003758162000357565b811462000380575f80fd5b50565b5f8151905062000393816200036a565b92915050565b5f805f8060808587031215620003b457620003b362000330565b5b5f620003c38782880162000383565b9450506020620003d68782880162000383565b9350506040620003e98782880162000383565b9250506060620003fc8782880162000383565b91505092959194509250565b5f81519050919050565b7f4e487b71000000000000000000000000000000000000000000000000000000005f52604160045260245ffd5b7f4e487b71000000000000000000000000000000000000000000000000000000005f52602260045260245ffd5b5f60028204905060018216806200048457607f821691505b6020821081036200049a57620004996200043f565b5b50919050565b5f819050815f5260205f209050919050565b5f6020601f8301049050919050565b5f82821b905092915050565b5f60088302620004fe7fffffffffffffffffffffffffffffffffffffffffffffffffffffffffffffffff82620004c1565b6200050a8683620004c1565b95508019841693508086168417925050509392505050565b5f819050919050565b5f819050919050565b5f620005546200054e620005488462000522565b6200052b565b62000522565b9050919050565b5f819050919050565b6200056f8362000534565b620005876200057e826200055b565b848454620004cd565b825550505050565b5f90565b6200059d6200058f565b620005aa81848462000564565b505050565b5b81811015620005d157620005c55f8262000593565b600181019050620005b0565b5050565b601f8211156200062057620005ea81620004a0565b620005f584620004b2565b8101602085101562000605578190505b6200061d6200061485620004b2565b830182620005af565b50505b505050565b5f82821c905092915050565b5f620006425f198460080262000625565b1980831691505092915050565b5f6200065c838362000631565b9150826002028217905092915050565b620006778262000408565b67ffffffffffffffff81111562000693576200069262000412565b5b6200069f82546200046c565b620006ac828285620005d5565b5f60209050601f831160018114620006e2575f8415620006cd578287015190505b620006d985826200064f565b86555062000748565b601f198416620006f286620004a0565b5f5b828110156200071b57848901518255600182019150602085019450602081019050620006f4565b868310156200073b578489015162000737601f89168262000631565b8355505b6001600288020188555050505b505050505050565b5f80fd5b5f601f19601f8301169050919050565b6200076f8262000754565b810181811067ffffffffffffffff8211171562000791576200079062000412565b5b80604052505050565b5f620007a562000327565b9050620007b3828262000764565b919050565b5f67ffffffffffffffff821115620007d557620007d462000412565b5b602082029050602081019050919050565b5f80fd5b5f62000800620007fa84620007b8565b6200079a565b90508083825260208201905060208402830185811115620008265762000825620007e6565b5b835b818110156200085357806200083e888262000383565b84526020840193505060208101905062000828565b5050509392505050565b5f82601f83011262000874576200087362000750565b5b815162000886848260208601620007ea565b91505092915050565b5f60208284031215620008a757620008a662000330565b5b5f82015167ffffffffffffffff811115620008c757620008c662000334565b5b620008d5848285016200085d565b91505092915050565b61268980620008ec5f395ff3fe608060405234801561000f575f80fd5b506004361061011f575f3560e01c806370a08231116100ab578063a8f5d7a61161006f578063a8f5d7a614610345578063a9059cbb14610375578063dd62ed3e146103a5578063f22fbdd7146103d5578063fa863d30146104055761011f565b806370a082311461028b5780638c8e8fee146102bb57806390f31f3b146102d957806395d89b4114610309578063a3e5b0b2146103275761011f565b806323b872dd116100f257806323b872dd146101bf578063313ce567146101ef578063327107f71461020d578063332656fd1461022b5780635ab16b261461025b5761011f565b806306fdde0314610123578063095ea7b31461014157806314bfd6d01461017157806318160ddd146101a1575b5f80fd5b61012b610435565b6040516101389190611a35565b60405180910390f35b61015b60048036038101906101569190611af3565b6104c5565b6040516101689190611b4b565b60405180910390f35b61018b60048036038101906101869190611b64565b610501565b6040516101989190611b9e565b60405180910390f35b6101a961053c565b6040516101b69190611bc6565b60405180910390f35b6101d960048036038101906101d49190611bdf565b6105d0565b6040516101e69190611b4b565b60405180910390f35b6101f7610886565b6040516102049190611c4a565b60405180910390f35b61021561088e565b6040516102229190611cbe565b60405180910390f35b61024560048036038101906102409190611e03565b6108b3565b6040516102529190611b4b565b60405180910390f35b61027560048036038101906102709190611e03565b610c4f565b6040516102829190611b4b565b60405180910390f35b6102a560048036038101906102a09190611e5d565b611068565b6040516102b29190611bc6565b60405180910390f35b6102c361112f565b6040516102d09190611b9e565b60405180910390f35b6102f360048036038101906102ee9190611e88565b611157565b6040516103009190611bc6565b60405180910390f35b61031161117e565b60405161031e9190611a35565b60405180910390f35b61032f61120e565b60405161033c9190611a35565b60405180910390f35b61035f600480360381019061035a9190611e88565b6112b1565b60405161036c9190611a35565b60405180910390f35b61038f600480360381019061038a9190611af3565b611356565b60405161039c9190611b4b565b60405180910390f35b6103bf60048036038101906103ba9190611ecf565b61160b565b6040516103cc9190611bc6565b60405180910390f35b6103ef60048036038101906103ea9190611e88565b6116af565b6040516103fc9190611bc6565b60405180910390f35b61041f600480360381019061041a9190611af3565b6116dc565b60405161042c9190611b4b565b60405180910390f35b60606003805461044490611f3a565b80601f016020809104026020016040519081016040528092919081815260200182805461047090611f3a565b80156104bb5780601f10610492576101008083540402835291602001916104bb565b820191905f5260205f20905b81548152906001019060200180831161049e57829003601f168201915b5050505050905090565b5f6040517f08c379a00000000000000000000000000000000000000000000000000000000081526004016104f890611fb4565b60405180910390fd5b60088181548110610510575f80fd5b905f5260205f20015f915054906101000a900473ffffffffffffffffffffffffffffffffffffffff1681565b5f60055f9054906101000a900473ffffffffffffffffffffffffffffffffffffffff1673ffffffffffffffffffffffffffffffffffffffff166318160ddd6040518163ffffffff1660e01b8152600401602060405180830381865afa1580156105a7573d5f803e3d5ffd5b505050506040513d601f19601f820116820180604052508101906105cb9190611fe6565b905090565b5f8073ffffffffffffffffffffffffffffffffffffffff168373ffffffffffffffffffffffffffffffffffffffff160361063f576040517f08c379a00000000000000000000000000000000000000000000000000000000081526004016106369061205b565b60405180910390fd5b5f600a5f9054906101000a900473ffffffffffffffffffffffffffffffffffffffff1673ffffffffffffffffffffffffffffffffffffffff166358581383866040518263ffffffff1660e01b815260040161069a9190611b9e565b5f60405180830381865afa1580156106b4573d5f803e3d5ffd5b505050506040513d5f823e3d601f19601f820116820180604052508101906106dc91906120e7565b90505f6006826040516106ef9190612168565b908152602001604051809103902054905083811015610743576040517f08c379a000000000000000000000000000000000000000000000000000000000815260040161073a906121c8565b60405180910390fd5b836006836040516107549190612168565b90815260200160405180910390205f8282546107709190612213565b925050819055508473ffffffffffffffffffffffffffffffffffffffff168673ffffffffffffffffffffffffffffffffffffffff167fddf252ad1be2c89b69c2b068fc378daa952ba7f163c4a11628f55a4df523b3ef866040516107d49190611bc6565b60405180910390a360055f9054906101000a900473ffffffffffffffffffffffffffffffffffffffff1673ffffffffffffffffffffffffffffffffffffffff1663a9059cbb86866040518363ffffffff1660e01b8152600401610838929190612246565b6020604051808303815f875af1158015610854573d5f803e3d5ffd5b505050506040513d601f19601f820116820180604052508101906108789190612297565b506001925050509392505050565b5f6006905090565b60055f9054906101000a900473ffffffffffffffffffffffffffffffffffffffff1681565b5f825f60095f9054906101000a900473ffffffffffffffffffffffffffffffffffffffff1673ffffffffffffffffffffffffffffffffffffffff1663a8f5d7a6836040518263ffffffff1660e01b81526004016109109190611a35565b5f60405180830381865afa15801561092a573d5f803e3d5ffd5b505050506040513d5f823e3d601f19601f8201168201806040525081019061095291906120e7565b5111610993576040517f08c379a000000000000000000000000000000000000000000000000000000000815260040161098a9061230c565b60405180910390fd5b5f8451116109d6576040517f08c379a00000000000000000000000000000000000000000000000000000000081526004016109cd90612374565b60405180910390fd5b5f600a5f9054906101000a900473ffffffffffffffffffffffffffffffffffffffff1673ffffffffffffffffffffffffffffffffffffffff166358581383336040518263ffffffff1660e01b8152600401610a319190611b9e565b5f60405180830381865afa158015610a4b573d5f803e3d5ffd5b505050506040513d5f823e3d601f19601f82011682018060405250810190610a7391906120e7565b905083600682604051610a869190612168565b9081526020016040518091039020541015610aa4575f925050610c48565b83600682604051610ab59190612168565b90815260200160405180910390205f828254610ad19190612213565b9250508190555083600686604051610ae99190612168565b90815260200160405180910390205f828254610b059190612392565b925050819055505f600a5f9054906101000a900473ffffffffffffffffffffffffffffffffffffffff1673ffffffffffffffffffffffffffffffffffffffff1663a9b295e3876040518263ffffffff1660e01b8152600401610b679190611a35565b602060405180830381865afa158015610b82573d5f803e3d5ffd5b505050506040513d601f19601f82011682018060405250810190610ba691906123d9565b90505f73ffffffffffffffffffffffffffffffffffffffff168173ffffffffffffffffffffffffffffffffffffffff1614610c41578073ffffffffffffffffffffffffffffffffffffffff163373ffffffffffffffffffffffffffffffffffffffff167fddf252ad1be2c89b69c2b068fc378daa952ba7f163c4a11628f55a4df523b3ef87604051610c389190611bc6565b60405180910390a35b6001935050505b5092915050565b5f825f60095f9054906101000a900473ffffffffffffffffffffffffffffffffffffffff1673ffffffffffffffffffffffffffffffffffffffff1663a8f5d7a6836040518263ffffffff1660e01b8152600401610cac9190611a35565b5f60405180830381865afa158015610cc6573d5f803e3d5ffd5b505050506040513d5f823e3d601f19601f82011682018060405250810190610cee91906120e7565b5111610d2f576040517f08c379a0000000000000000000000000000000000000000000000000000000008152600401610d269061230c565b60405180910390fd5b5f845111610d72576040517f08c379a0000000000000000000000000000000000000000000000000000000008152600401610d699061244e565b60405180910390fd5b5f60055f9054906101000a900473ffffffffffffffffffffffffffffffffffffffff1673ffffffffffffffffffffffffffffffffffffffff1663dd62ed3e33306040518363ffffffff1660e01b8152600401610dcf92919061246c565b602060405180830381865afa158015610dea573d5f803e3d5ffd5b505050506040513d601f19601f82011682018060405250810190610e0e9190611fe6565b905083811015610e53576040517f08c379a0000000000000000000000000000000000000000000000000000000008152600401610e4a906124dd565b60405180910390fd5b60055f9054906101000a900473ffffffffffffffffffffffffffffffffffffffff1673ffffffffffffffffffffffffffffffffffffffff166323b872dd3330876040518463ffffffff1660e01b8152600401610eb1939291906124fb565b6020604051808303815f875af1158015610ecd573d5f803e3d5ffd5b505050506040513d601f19601f82011682018060405250810190610ef19190612297565b5083600686604051610f039190612168565b90815260200160405180910390205f828254610f1f9190612392565b925050819055505f600a5f9054906101000a900473ffffffffffffffffffffffffffffffffffffffff1673ffffffffffffffffffffffffffffffffffffffff1663a9b295e3876040518263ffffffff1660e01b8152600401610f819190611a35565b602060405180830381865afa158015610f9c573d5f803e3d5ffd5b505050506040513d601f19601f82011682018060405250810190610fc091906123d9565b90505f73ffffffffffffffffffffffffffffffffffffffff168173ffffffffffffffffffffffffffffffffffffffff161461105b578073ffffffffffffffffffffffffffffffffffffffff163373ffffffffffffffffffffffffffffffffffffffff167fddf252ad1be2c89b69c2b068fc378daa952ba7f163c4a11628f55a4df523b3ef876040516110529190611bc6565b60405180910390a35b6001935050505092915050565b5f80600a5f9054906101000a900473ffffffffffffffffffffffffffffffffffffffff1673ffffffffffffffffffffffffffffffffffffffff166358581383846040518263ffffffff1660e01b81526004016110c49190611b9e565b5f60405180830381865afa1580156110de573d5f803e3d5ffd5b505050506040513d5f823e3d601f19601f8201168201806040525081019061110691906120e7565b90506006816040516111189190612168565b908152602001604051809103902054915050919050565b5f60055f9054906101000a900473ffffffffffffffffffffffffffffffffffffffff16905090565b5f6006826040516111689190612168565b9081526020016040518091039020549050919050565b60606004805461118d90611f3a565b80601f01602080910402602001604051908101604052809291908181526020018280546111b990611f3a565b80156112045780601f106111db57610100808354040283529160200191611204565b820191905f5260205f20905b8154815290600101906020018083116111e757829003601f168201915b5050505050905090565b6060600a5f9054906101000a900473ffffffffffffffffffffffffffffffffffffffff1673ffffffffffffffffffffffffffffffffffffffff166358581383336040518263ffffffff1660e01b815260040161126a9190611b9e565b5f60405180830381865afa158015611284573d5f803e3d5ffd5b505050506040513d5f823e3d601f19601f820116820180604052508101906112ac91906120e7565b905090565b606060095f9054906101000a900473ffffffffffffffffffffffffffffffffffffffff1673ffffffffffffffffffffffffffffffffffffffff1663a8f5d7a6836040518263ffffffff1660e01b815260040161130d9190611a35565b5f60405180830381865afa158015611327573d5f803e3d5ffd5b505050506040513d5f823e3d601f19601f8201168201806040525081019061134f91906120e7565b9050919050565b5f8073ffffffffffffffffffffffffffffffffffffffff168373ffffffffffffffffffffffffffffffffffffffff16036113c5576040517f08c379a00000000000000000000000000000000000000000000000000000000081526004016113bc9061205b565b60405180910390fd5b5f600a5f9054906101000a900473ffffffffffffffffffffffffffffffffffffffff1673ffffffffffffffffffffffffffffffffffffffff166358581383336040518263ffffffff1660e01b81526004016114209190611b9e565b5f60405180830381865afa15801561143a573d5f803e3d5ffd5b505050506040513d5f823e3d601f19601f8201168201806040525081019061146291906120e7565b90505f6006826040516114759190612168565b9081526020016040518091039020549050838110156114c9576040517f08c379a00000000000000000000000000000000000000000000000000000000081526004016114c0906121c8565b60405180910390fd5b836006836040516114da9190612168565b90815260200160405180910390205f8282546114f69190612213565b925050819055508473ffffffffffffffffffffffffffffffffffffffff163373ffffffffffffffffffffffffffffffffffffffff167fddf252ad1be2c89b69c2b068fc378daa952ba7f163c4a11628f55a4df523b3ef8660405161155a9190611bc6565b60405180910390a360055f9054906101000a900473ffffffffffffffffffffffffffffffffffffffff1673ffffffffffffffffffffffffffffffffffffffff1663a9059cbb86866040518363ffffffff1660e01b81526004016115be929190612246565b6020604051808303815f875af11580156115da573d5f803e3d5ffd5b505050506040513d601f19601f820116820180604052508101906115fe9190612297565b5060019250505092915050565b5f60055f9054906101000a900473ffffffffffffffffffffffffffffffffffffffff1673ffffffffffffffffffffffffffffffffffffffff1663dd62ed3e84846040518363ffffffff1660e01b815260040161166892919061246c565b602060405180830381865afa158015611683573d5f803e3d5ffd5b505050506040513d601f19601f820116820180604052508101906116a79190611fe6565b905092915050565b6006818051602081018201805184825260208301602085012081835280955050505050505f915090505481565b5f805f90505f5b600880549050811015611774576008818154811061170457611703612530565b5b905f5260205f20015f9054906101000a900473ffffffffffffffffffffffffffffffffffffffff1673ffffffffffffffffffffffffffffffffffffffff163373ffffffffffffffffffffffffffffffffffffffff16036117675760019150611774565b80806001019150506116e3565b50806117b5576040517f08c379a00000000000000000000000000000000000000000000000000000000081526004016117ac906125cd565b60405180910390fd5b5f73ffffffffffffffffffffffffffffffffffffffff168473ffffffffffffffffffffffffffffffffffffffff1603611823576040517f08c379a000000000000000000000000000000000000000000000000000000000815260040161181a90612635565b60405180910390fd5b5f60055f9054906101000a900473ffffffffffffffffffffffffffffffffffffffff1673ffffffffffffffffffffffffffffffffffffffff166370a08231306040518263ffffffff1660e01b815260040161187e9190611b9e565b602060405180830381865afa158015611899573d5f803e3d5ffd5b505050506040513d601f19601f820116820180604052508101906118bd9190611fe6565b905083811015611902576040517f08c379a00000000000000000000000000000000000000000000000000000000081526004016118f9906121c8565b60405180910390fd5b60055f9054906101000a900473ffffffffffffffffffffffffffffffffffffffff1673ffffffffffffffffffffffffffffffffffffffff1663a9059cbb86866040518363ffffffff1660e01b815260040161195e929190612246565b6020604051808303815f875af115801561197a573d5f803e3d5ffd5b505050506040513d601f19601f8201168201806040525081019061199e9190612297565b5060019250505092915050565b5f81519050919050565b5f82825260208201905092915050565b5f5b838110156119e25780820151818401526020810190506119c7565b5f8484015250505050565b5f601f19601f8301169050919050565b5f611a07826119ab565b611a1181856119b5565b9350611a218185602086016119c5565b611a2a816119ed565b840191505092915050565b5f6020820190508181035f830152611a4d81846119fd565b905092915050565b5f604051905090565b5f80fd5b5f80fd5b5f73ffffffffffffffffffffffffffffffffffffffff82169050919050565b5f611a8f82611a66565b9050919050565b611a9f81611a85565b8114611aa9575f80fd5b50565b5f81359050611aba81611a96565b92915050565b5f819050919050565b611ad281611ac0565b8114611adc575f80fd5b50565b5f81359050611aed81611ac9565b92915050565b5f8060408385031215611b0957611b08611a5e565b5b5f611b1685828601611aac565b9250506020611b2785828601611adf565b9150509250929050565b5f8115159050919050565b611b4581611b31565b82525050565b5f602082019050611b5e5f830184611b3c565b92915050565b5f60208284031215611b7957611b78611a5e565b5b5f611b8684828501611adf565b91505092915050565b611b9881611a85565b82525050565b5f602082019050611bb15f830184611b8f565b92915050565b611bc081611ac0565b82525050565b5f602082019050611bd95f830184611bb7565b92915050565b5f805f60608486031215611bf657611bf5611a5e565b5b5f611c0386828701611aac565b9350506020611c1486828701611aac565b9250506040611c2586828701611adf565b9150509250925092565b5f60ff82169050919050565b611c4481611c2f565b82525050565b5f602082019050611c5d5f830184611c3b565b92915050565b5f819050919050565b5f611c86611c81611c7c84611a66565b611c63565b611a66565b9050919050565b5f611c9782611c6c565b9050919050565b5f611ca882611c8d565b9050919050565b611cb881611c9e565b82525050565b5f602082019050611cd15f830184611caf565b92915050565b5f80fd5b5f80fd5b7f4e487b71000000000000000000000000000000000000000000000000000000005f52604160045260245ffd5b611d15826119ed565b810181811067ffffffffffffffff82111715611d3457611d33611cdf565b5b80604052505050565b5f611d46611a55565b9050611d528282611d0c565b919050565b5f67ffffffffffffffff821115611d7157611d70611cdf565b5b611d7a826119ed565b9050602081019050919050565b828183375f83830152505050565b5f611da7611da284611d57565b611d3d565b905082815260208101848484011115611dc357611dc2611cdb565b5b611dce848285611d87565b509392505050565b5f82601f830112611dea57611de9611cd7565b5b8135611dfa848260208601611d95565b91505092915050565b5f8060408385031215611e1957611e18611a5e565b5b5f83013567ffffffffffffffff811115611e3657611e35611a62565b5b611e4285828601611dd6565b9250506020611e5385828601611adf565b9150509250929050565b5f60208284031215611e7257611e71611a5e565b5b5f611e7f84828501611aac565b91505092915050565b5f60208284031215611e9d57611e9c611a5e565b5b5f82013567ffffffffffffffff811115611eba57611eb9611a62565b5b611ec684828501611dd6565b91505092915050565b5f8060408385031215611ee557611ee4611a5e565b5b5f611ef285828601611aac565b9250506020611f0385828601611aac565b9150509250929050565b7f4e487b71000000000000000000000000000000000000000000000000000000005f52602260045260245ffd5b5f6002820490506001821680611f5157607f821691505b602082108103611f6457611f63611f0d565b5b50919050565b7f417070726f76652066756e6374696f6e2069732064697361626c6564000000005f82015250565b5f611f9e601c836119b5565b9150611fa982611f6a565b602082019050919050565b5f6020820190508181035f830152611fcb81611f92565b9050919050565b5f81519050611fe081611ac9565b92915050565b5f60208284031215611ffb57611ffa611a5e565b5b5f61200884828501611fd2565b91505092915050565b7f5472616e7366657220746f207a65726f206164647265737300000000000000005f82015250565b5f6120456018836119b5565b915061205082612011565b602082019050919050565b5f6020820190508181035f83015261207281612039565b9050919050565b5f61208b61208684611d57565b611d3d565b9050828152602081018484840111156120a7576120a6611cdb565b5b6120b28482856119c5565b509392505050565b5f82601f8301126120ce576120cd611cd7565b5b81516120de848260208601612079565b91505092915050565b5f602082840312156120fc576120fb611a5e565b5b5f82015167ffffffffffffffff81111561211957612118611a62565b5b612125848285016120ba565b91505092915050565b5f81905092915050565b5f612142826119ab565b61214c818561212e565b935061215c8185602086016119c5565b80840191505092915050565b5f6121738284612138565b915081905092915050565b7f4e6f7420656e6f7567682062616c616e636500000000000000000000000000005f82015250565b5f6121b26012836119b5565b91506121bd8261217e565b602082019050919050565b5f6020820190508181035f8301526121df816121a6565b9050919050565b7f4e487b71000000000000000000000000000000000000000000000000000000005f52601160045260245ffd5b5f61221d82611ac0565b915061222883611ac0565b92508282039050818111156122405761223f6121e6565b5b92915050565b5f6040820190506122595f830185611b8f565b6122666020830184611bb7565b9392505050565b61227681611b31565b8114612280575f80fd5b50565b5f815190506122918161226d565b92915050565b5f602082840312156122ac576122ab611a5e565b5b5f6122b984828501612283565b91505092915050565b7f55454e20646f6573206e6f7420657869737400000000000000000000000000005f82015250565b5f6122f66012836119b5565b9150612301826122c2565b602082019050919050565b5f6020820190508181035f830152612323816122ea565b9050919050565b7f55454e2074617267657420697320656d707479000000000000000000000000005f82015250565b5f61235e6013836119b5565b91506123698261232a565b602082019050919050565b5f6020820190508181035f83015261238b81612352565b9050919050565b5f61239c82611ac0565b91506123a783611ac0565b92508282019050808211156123bf576123be6121e6565b5b92915050565b5f815190506123d381611a96565b92915050565b5f602082840312156123ee576123ed611a5e565b5b5f6123fb848285016123c5565b91505092915050565b7f55454e20697320656d70747900000000000000000000000000000000000000005f82015250565b5f612438600c836119b5565b915061244382612404565b602082019050919050565b5f6020820190508181035f8301526124658161242c565b9050919050565b5f60408201905061247f5f830185611b8f565b61248c6020830184611b8f565b9392505050565b7f496e6372656173652074686520616c6c6f77616e6365000000000000000000005f82015250565b5f6124c76016836119b5565b91506124d282612493565b602082019050919050565b5f6020820190508181035f8301526124f4816124bb565b9050919050565b5f60608201905061250e5f830186611b8f565b61251b6020830185611b8f565b6125286040830184611bb7565b949350505050565b7f4e487b71000000000000000000000000000000000000000000000000000000005f52603260045260245ffd5b7f4f6e6c792061646d696e732063616e2063616c6c20746869732066756e6374695f8201527f6f6e000000000000000000000000000000000000000000000000000000000000602082015250565b5f6125b76022836119b5565b91506125c28261255d565b604082019050919050565b5f6020820190508181035f8301526125e4816125ab565b9050919050565b7f576974686472617720746f20746865207a65726f2061646472657373000000005f82015250565b5f61261f601c836119b5565b915061262a826125eb565b602082019050919050565b5f6020820190508181035f83015261264c81612613565b905091905056fea2646970667358221220d17928aab9c41d5bd9a152649440f5dee548d2787e5a3e2b829886087b9711ba64736f6c63430008160033",
					"opcodes": "PUSH1 0x80 PUSH1 0x40 MSTORE CALLVALUE DUP1 ISZERO PUSH3 0x10 JUMPI PUSH0 DUP1 REVERT JUMPDEST POP PUSH1 0x40 MLOAD PUSH3 0x2F75 CODESIZE SUB DUP1 PUSH3 0x2F75 DUP4 CODECOPY DUP2 DUP2 ADD PUSH1 0x40 MSTORE DUP2 ADD SWAP1 PUSH3 0x36 SWAP2 SWAP1 PUSH3 0x399 JUMP JUMPDEST PUSH1 0x40 MLOAD DUP1 PUSH1 0x40 ADD PUSH1 0x40 MSTORE DUP1 PUSH1 0x4 DUP2 MSTORE PUSH1 0x20 ADD PUSH32 0x5347446D00000000000000000000000000000000000000000000000000000000 DUP2 MSTORE POP PUSH1 0x40 MLOAD DUP1 PUSH1 0x40 ADD PUSH1 0x40 MSTORE DUP1 PUSH1 0x4 DUP2 MSTORE PUSH1 0x20 ADD PUSH32 0x5347446D00000000000000000000000000000000000000000000000000000000 DUP2 MSTORE POP DUP2 PUSH1 0x3 SWAP1 DUP2 PUSH3 0xB3 SWAP2 SWAP1 PUSH3 0x66C JUMP JUMPDEST POP DUP1 PUSH1 0x4 SWAP1 DUP2 PUSH3 0xC5 SWAP2 SWAP1 PUSH3 0x66C JUMP JUMPDEST POP POP POP DUP4 PUSH1 0x5 PUSH0 PUSH2 0x100 EXP DUP2 SLOAD DUP2 PUSH20 0xFFFFFFFFFFFFFFFFFFFFFFFFFFFFFFFFFFFFFFFF MUL NOT AND SWAP1 DUP4 PUSH20 0xFFFFFFFFFFFFFFFFFFFFFFFFFFFFFFFFFFFFFFFF AND MUL OR SWAP1 SSTORE POP DUP3 PUSH1 0x9 PUSH0 PUSH2 0x100 EXP DUP2 SLOAD DUP2 PUSH20 0xFFFFFFFFFFFFFFFFFFFFFFFFFFFFFFFFFFFFFFFF MUL NOT AND SWAP1 DUP4 PUSH20 0xFFFFFFFFFFFFFFFFFFFFFFFFFFFFFFFFFFFFFFFF AND MUL OR SWAP1 SSTORE POP DUP2 PUSH1 0x7 PUSH0 PUSH2 0x100 EXP DUP2 SLOAD DUP2 PUSH20 0xFFFFFFFFFFFFFFFFFFFFFFFFFFFFFFFFFFFFFFFF MUL NOT AND SWAP1 DUP4 PUSH20 0xFFFFFFFFFFFFFFFFFFFFFFFFFFFFFFFFFFFFFFFF AND MUL OR SWAP1 SSTORE POP PUSH1 0x7 PUSH0 SWAP1 SLOAD SWAP1 PUSH2 0x100 EXP SWAP1 DIV PUSH20 0xFFFFFFFFFFFFFFFFFFFFFFFFFFFFFFFFFFFFFFFF AND PUSH20 0xFFFFFFFFFFFFFFFFFFFFFFFFFFFFFFFFFFFFFFFF AND PUSH4 0x8794B69D PUSH1 0x40 MLOAD DUP2 PUSH4 0xFFFFFFFF AND PUSH1 0xE0 SHL DUP2 MSTORE PUSH1 0x4 ADD PUSH0 PUSH1 0x40 MLOAD DUP1 DUP4 SUB DUP2 DUP7 GAS STATICCALL ISZERO DUP1 ISZERO PUSH3 0x1F2 JUMPI RETURNDATASIZE PUSH0 DUP1 RETURNDATACOPY RETURNDATASIZE PUSH0 REVERT JUMPDEST POP POP POP POP PUSH1 0x40 MLOAD RETURNDATASIZE PUSH0 DUP3 RETURNDATACOPY RETURNDATASIZE PUSH1 0x1F NOT PUSH1 0x1F DUP3 ADD AND DUP3 ADD DUP1 PUSH1 0x40 MSTORE POP DUP2 ADD SWAP1 PUSH3 0x21C SWAP2 SWAP1 PUSH3 0x88F JUMP JUMPDEST PUSH1 0x8 SWAP1 DUP1 MLOAD SWAP1 PUSH1 0x20 ADD SWAP1 PUSH3 0x233 SWAP3 SWAP2 SWAP1 PUSH3 0x27E JUMP JUMPDEST POP DUP1 PUSH1 0xA PUSH0 PUSH2 0x100 EXP DUP2 SLOAD DUP2 PUSH20 0xFFFFFFFFFFFFFFFFFFFFFFFFFFFFFFFFFFFFFFFF MUL NOT AND SWAP1 DUP4 PUSH20 0xFFFFFFFFFFFFFFFFFFFFFFFFFFFFFFFFFFFFFFFF AND MUL OR SWAP1 SSTORE POP POP POP POP POP PUSH3 0x8DE JUMP JUMPDEST DUP3 DUP1 SLOAD DUP3 DUP3 SSTORE SWAP1 PUSH0 MSTORE PUSH1 0x20 PUSH0 KECCAK256 SWAP1 DUP2 ADD SWAP3 DUP3 ISZERO PUSH3 0x2F7 JUMPI SWAP2 PUSH1 0x20 MUL DUP3 ADD JUMPDEST DUP3 DUP2 GT ISZERO PUSH3 0x2F6 JUMPI DUP3 MLOAD DUP3 PUSH0 PUSH2 0x100 EXP DUP2 SLOAD DUP2 PUSH20 0xFFFFFFFFFFFFFFFFFFFFFFFFFFFFFFFFFFFFFFFF MUL NOT AND SWAP1 DUP4 PUSH20 0xFFFFFFFFFFFFFFFFFFFFFFFFFFFFFFFFFFFFFFFF AND MUL OR SWAP1 SSTORE POP SWAP2 PUSH1 0x20 ADD SWAP2 SWAP1 PUSH1 0x1 ADD SWAP1 PUSH3 0x29D JUMP JUMPDEST JUMPDEST POP SWAP1 POP PUSH3 0x306 SWAP2 SWAP1 PUSH3 0x30A JUMP JUMPDEST POP SWAP1 JUMP JUMPDEST JUMPDEST DUP1 DUP3 GT ISZERO PUSH3 0x323 JUMPI PUSH0 DUP2 PUSH0 SWAP1 SSTORE POP PUSH1 0x1 ADD PUSH3 0x30B JUMP JUMPDEST POP SWAP1 JUMP JUMPDEST PUSH0 PUSH1 0x40 MLOAD SWAP1 POP SWAP1 JUMP JUMPDEST PUSH0 DUP1 REVERT JUMPDEST PUSH0 DUP1 REVERT JUMPDEST PUSH0 PUSH20 0xFFFFFFFFFFFFFFFFFFFFFFFFFFFFFFFFFFFFFFFF DUP3 AND SWAP1 POP SWAP2 SWAP1 POP JUMP JUMPDEST PUSH0 PUSH3 0x363 DUP3 PUSH3 0x338 JUMP JUMPDEST SWAP1 POP SWAP2 SWAP1 POP JUMP JUMPDEST PUSH3 0x375 DUP2 PUSH3 0x357 JUMP JUMPDEST DUP2 EQ PUSH3 0x380 JUMPI PUSH0 DUP1 REVERT JUMPDEST POP JUMP JUMPDEST PUSH0 DUP2 MLOAD SWAP1 POP PUSH3 0x393 DUP2 PUSH3 0x36A JUMP JUMPDEST SWAP3 SWAP2 POP POP JUMP JUMPDEST PUSH0 DUP1 PUSH0 DUP1 PUSH1 0x80 DUP6 DUP8 SUB SLT ISZERO PUSH3 0x3B4 JUMPI PUSH3 0x3B3 PUSH3 0x330 JUMP JUMPDEST JUMPDEST PUSH0 PUSH3 0x3C3 DUP8 DUP3 DUP9 ADD PUSH3 0x383 JUMP JUMPDEST SWAP5 POP POP PUSH1 0x20 PUSH3 0x3D6 DUP8 DUP3 DUP9 ADD PUSH3 0x383 JUMP JUMPDEST SWAP4 POP POP PUSH1 0x40 PUSH3 0x3E9 DUP8 DUP3 DUP9 ADD PUSH3 0x383 JUMP JUMPDEST SWAP3 POP POP PUSH1 0x60 PUSH3 0x3FC DUP8 DUP3 DUP9 ADD PUSH3 0x383 JUMP JUMPDEST SWAP2 POP POP SWAP3 SWAP6 SWAP2 SWAP5 POP SWAP3 POP JUMP JUMPDEST PUSH0 DUP2 MLOAD SWAP1 POP SWAP2 SWAP1 POP JUMP JUMPDEST PUSH32 0x4E487B7100000000000000000000000000000000000000000000000000000000 PUSH0 MSTORE PUSH1 0x41 PUSH1 0x4 MSTORE PUSH1 0x24 PUSH0 REVERT JUMPDEST PUSH32 0x4E487B7100000000000000000000000000000000000000000000000000000000 PUSH0 MSTORE PUSH1 0x22 PUSH1 0x4 MSTORE PUSH1 0x24 PUSH0 REVERT JUMPDEST PUSH0 PUSH1 0x2 DUP3 DIV SWAP1 POP PUSH1 0x1 DUP3 AND DUP1 PUSH3 0x484 JUMPI PUSH1 0x7F DUP3 AND SWAP2 POP JUMPDEST PUSH1 0x20 DUP3 LT DUP2 SUB PUSH3 0x49A JUMPI PUSH3 0x499 PUSH3 0x43F JUMP JUMPDEST JUMPDEST POP SWAP2 SWAP1 POP JUMP JUMPDEST PUSH0 DUP2 SWAP1 POP DUP2 PUSH0 MSTORE PUSH1 0x20 PUSH0 KECCAK256 SWAP1 POP SWAP2 SWAP1 POP JUMP JUMPDEST PUSH0 PUSH1 0x20 PUSH1 0x1F DUP4 ADD DIV SWAP1 POP SWAP2 SWAP1 POP JUMP JUMPDEST PUSH0 DUP3 DUP3 SHL SWAP1 POP SWAP3 SWAP2 POP POP JUMP JUMPDEST PUSH0 PUSH1 0x8 DUP4 MUL PUSH3 0x4FE PUSH32 0xFFFFFFFFFFFFFFFFFFFFFFFFFFFFFFFFFFFFFFFFFFFFFFFFFFFFFFFFFFFFFFFF DUP3 PUSH3 0x4C1 JUMP JUMPDEST PUSH3 0x50A DUP7 DUP4 PUSH3 0x4C1 JUMP JUMPDEST SWAP6 POP DUP1 NOT DUP5 AND SWAP4 POP DUP1 DUP7 AND DUP5 OR SWAP3 POP POP POP SWAP4 SWAP3 POP POP POP JUMP JUMPDEST PUSH0 DUP2 SWAP1 POP SWAP2 SWAP1 POP JUMP JUMPDEST PUSH0 DUP2 SWAP1 POP SWAP2 SWAP1 POP JUMP JUMPDEST PUSH0 PUSH3 0x554 PUSH3 0x54E PUSH3 0x548 DUP5 PUSH3 0x522 JUMP JUMPDEST PUSH3 0x52B JUMP JUMPDEST PUSH3 0x522 JUMP JUMPDEST SWAP1 POP SWAP2 SWAP1 POP JUMP JUMPDEST PUSH0 DUP2 SWAP1 POP SWAP2 SWAP1 POP JUMP JUMPDEST PUSH3 0x56F DUP4 PUSH3 0x534 JUMP JUMPDEST PUSH3 0x587 PUSH3 0x57E DUP3 PUSH3 0x55B JUMP JUMPDEST DUP5 DUP5 SLOAD PUSH3 0x4CD JUMP JUMPDEST DUP3 SSTORE POP POP POP POP JUMP JUMPDEST PUSH0 SWAP1 JUMP JUMPDEST PUSH3 0x59D PUSH3 0x58F JUMP JUMPDEST PUSH3 0x5AA DUP2 DUP5 DUP5 PUSH3 0x564 JUMP JUMPDEST POP POP POP JUMP JUMPDEST JUMPDEST DUP2 DUP2 LT ISZERO PUSH3 0x5D1 JUMPI PUSH3 0x5C5 PUSH0 DUP3 PUSH3 0x593 JUMP JUMPDEST PUSH1 0x1 DUP2 ADD SWAP1 POP PUSH3 0x5B0 JUMP JUMPDEST POP POP JUMP JUMPDEST PUSH1 0x1F DUP3 GT ISZERO PUSH3 0x620 JUMPI PUSH3 0x5EA DUP2 PUSH3 0x4A0 JUMP JUMPDEST PUSH3 0x5F5 DUP5 PUSH3 0x4B2 JUMP JUMPDEST DUP2 ADD PUSH1 0x20 DUP6 LT ISZERO PUSH3 0x605 JUMPI DUP2 SWAP1 POP JUMPDEST PUSH3 0x61D PUSH3 0x614 DUP6 PUSH3 0x4B2 JUMP JUMPDEST DUP4 ADD DUP3 PUSH3 0x5AF JUMP JUMPDEST POP POP JUMPDEST POP POP POP JUMP JUMPDEST PUSH0 DUP3 DUP3 SHR SWAP1 POP SWAP3 SWAP2 POP POP JUMP JUMPDEST PUSH0 PUSH3 0x642 PUSH0 NOT DUP5 PUSH1 0x8 MUL PUSH3 0x625 JUMP JUMPDEST NOT DUP1 DUP4 AND SWAP2 POP POP SWAP3 SWAP2 POP POP JUMP JUMPDEST PUSH0 PUSH3 0x65C DUP4 DUP4 PUSH3 0x631 JUMP JUMPDEST SWAP2 POP DUP3 PUSH1 0x2 MUL DUP3 OR SWAP1 POP SWAP3 SWAP2 POP POP JUMP JUMPDEST PUSH3 0x677 DUP3 PUSH3 0x408 JUMP JUMPDEST PUSH8 0xFFFFFFFFFFFFFFFF DUP2 GT ISZERO PUSH3 0x693 JUMPI PUSH3 0x692 PUSH3 0x412 JUMP JUMPDEST JUMPDEST PUSH3 0x69F DUP3 SLOAD PUSH3 0x46C JUMP JUMPDEST PUSH3 0x6AC DUP3 DUP3 DUP6 PUSH3 0x5D5 JUMP JUMPDEST PUSH0 PUSH1 0x20 SWAP1 POP PUSH1 0x1F DUP4 GT PUSH1 0x1 DUP2 EQ PUSH3 0x6E2 JUMPI PUSH0 DUP5 ISZERO PUSH3 0x6CD JUMPI DUP3 DUP8 ADD MLOAD SWAP1 POP JUMPDEST PUSH3 0x6D9 DUP6 DUP3 PUSH3 0x64F JUMP JUMPDEST DUP7 SSTORE POP PUSH3 0x748 JUMP JUMPDEST PUSH1 0x1F NOT DUP5 AND PUSH3 0x6F2 DUP7 PUSH3 0x4A0 JUMP JUMPDEST PUSH0 JUMPDEST DUP3 DUP2 LT ISZERO PUSH3 0x71B JUMPI DUP5 DUP10 ADD MLOAD DUP3 SSTORE PUSH1 0x1 DUP3 ADD SWAP2 POP PUSH1 0x20 DUP6 ADD SWAP5 POP PUSH1 0x20 DUP2 ADD SWAP1 POP PUSH3 0x6F4 JUMP JUMPDEST DUP7 DUP4 LT ISZERO PUSH3 0x73B JUMPI DUP5 DUP10 ADD MLOAD PUSH3 0x737 PUSH1 0x1F DUP10 AND DUP3 PUSH3 0x631 JUMP JUMPDEST DUP4 SSTORE POP JUMPDEST PUSH1 0x1 PUSH1 0x2 DUP9 MUL ADD DUP9 SSTORE POP POP POP JUMPDEST POP POP POP POP POP POP JUMP JUMPDEST PUSH0 DUP1 REVERT JUMPDEST PUSH0 PUSH1 0x1F NOT PUSH1 0x1F DUP4 ADD AND SWAP1 POP SWAP2 SWAP1 POP JUMP JUMPDEST PUSH3 0x76F DUP3 PUSH3 0x754 JUMP JUMPDEST DUP2 ADD DUP2 DUP2 LT PUSH8 0xFFFFFFFFFFFFFFFF DUP3 GT OR ISZERO PUSH3 0x791 JUMPI PUSH3 0x790 PUSH3 0x412 JUMP JUMPDEST JUMPDEST DUP1 PUSH1 0x40 MSTORE POP POP POP JUMP JUMPDEST PUSH0 PUSH3 0x7A5 PUSH3 0x327 JUMP JUMPDEST SWAP1 POP PUSH3 0x7B3 DUP3 DUP3 PUSH3 0x764 JUMP JUMPDEST SWAP2 SWAP1 POP JUMP JUMPDEST PUSH0 PUSH8 0xFFFFFFFFFFFFFFFF DUP3 GT ISZERO PUSH3 0x7D5 JUMPI PUSH3 0x7D4 PUSH3 0x412 JUMP JUMPDEST JUMPDEST PUSH1 0x20 DUP3 MUL SWAP1 POP PUSH1 0x20 DUP2 ADD SWAP1 POP SWAP2 SWAP1 POP JUMP JUMPDEST PUSH0 DUP1 REVERT JUMPDEST PUSH0 PUSH3 0x800 PUSH3 0x7FA DUP5 PUSH3 0x7B8 JUMP JUMPDEST PUSH3 0x79A JUMP JUMPDEST SWAP1 POP DUP1 DUP4 DUP3 MSTORE PUSH1 0x20 DUP3 ADD SWAP1 POP PUSH1 0x20 DUP5 MUL DUP4 ADD DUP6 DUP2 GT ISZERO PUSH3 0x826 JUMPI PUSH3 0x825 PUSH3 0x7E6 JUMP JUMPDEST JUMPDEST DUP4 JUMPDEST DUP2 DUP2 LT ISZERO PUSH3 0x853 JUMPI DUP1 PUSH3 0x83E DUP9 DUP3 PUSH3 0x383 JUMP JUMPDEST DUP5 MSTORE PUSH1 0x20 DUP5 ADD SWAP4 POP POP PUSH1 0x20 DUP2 ADD SWAP1 POP PUSH3 0x828 JUMP JUMPDEST POP POP POP SWAP4 SWAP3 POP POP POP JUMP JUMPDEST PUSH0 DUP3 PUSH1 0x1F DUP4 ADD SLT PUSH3 0x874 JUMPI PUSH3 0x873 PUSH3 0x750 JUMP JUMPDEST JUMPDEST DUP2 MLOAD PUSH3 0x886 DUP5 DUP3 PUSH1 0x20 DUP7 ADD PUSH3 0x7EA JUMP JUMPDEST SWAP2 POP POP SWAP3 SWAP2 POP POP JUMP JUMPDEST PUSH0 PUSH1 0x20 DUP3 DUP5 SUB SLT ISZERO PUSH3 0x8A7 JUMPI PUSH3 0x8A6 PUSH3 0x330 JUMP JUMPDEST JUMPDEST PUSH0 DUP3 ADD MLOAD PUSH8 0xFFFFFFFFFFFFFFFF DUP2 GT ISZERO PUSH3 0x8C7 JUMPI PUSH3 0x8C6 PUSH3 0x334 JUMP JUMPDEST JUMPDEST PUSH3 0x8D5 DUP5 DUP3 DUP6 ADD PUSH3 0x85D JUMP JUMPDEST SWAP2 POP POP SWAP3 SWAP2 POP POP JUMP JUMPDEST PUSH2 0x2689 DUP1 PUSH3 0x8EC PUSH0 CODECOPY PUSH0 RETURN INVALID PUSH1 0x80 PUSH1 0x40 MSTORE CALLVALUE DUP1 ISZERO PUSH2 0xF JUMPI PUSH0 DUP1 REVERT JUMPDEST POP PUSH1 0x4 CALLDATASIZE LT PUSH2 0x11F JUMPI PUSH0 CALLDATALOAD PUSH1 0xE0 SHR DUP1 PUSH4 0x70A08231 GT PUSH2 0xAB JUMPI DUP1 PUSH4 0xA8F5D7A6 GT PUSH2 0x6F JUMPI DUP1 PUSH4 0xA8F5D7A6 EQ PUSH2 0x345 JUMPI DUP1 PUSH4 0xA9059CBB EQ PUSH2 0x375 JUMPI DUP1 PUSH4 0xDD62ED3E EQ PUSH2 0x3A5 JUMPI DUP1 PUSH4 0xF22FBDD7 EQ PUSH2 0x3D5 JUMPI DUP1 PUSH4 0xFA863D30 EQ PUSH2 0x405 JUMPI PUSH2 0x11F JUMP JUMPDEST DUP1 PUSH4 0x70A08231 EQ PUSH2 0x28B JUMPI DUP1 PUSH4 0x8C8E8FEE EQ PUSH2 0x2BB JUMPI DUP1 PUSH4 0x90F31F3B EQ PUSH2 0x2D9 JUMPI DUP1 PUSH4 0x95D89B41 EQ PUSH2 0x309 JUMPI DUP1 PUSH4 0xA3E5B0B2 EQ PUSH2 0x327 JUMPI PUSH2 0x11F JUMP JUMPDEST DUP1 PUSH4 0x23B872DD GT PUSH2 0xF2 JUMPI DUP1 PUSH4 0x23B872DD EQ PUSH2 0x1BF JUMPI DUP1 PUSH4 0x313CE567 EQ PUSH2 0x1EF JUMPI DUP1 PUSH4 0x327107F7 EQ PUSH2 0x20D JUMPI DUP1 PUSH4 0x332656FD EQ PUSH2 0x22B JUMPI DUP1 PUSH4 0x5AB16B26 EQ PUSH2 0x25B JUMPI PUSH2 0x11F JUMP JUMPDEST DUP1 PUSH4 0x6FDDE03 EQ PUSH2 0x123 JUMPI DUP1 PUSH4 0x95EA7B3 EQ PUSH2 0x141 JUMPI DUP1 PUSH4 0x14BFD6D0 EQ PUSH2 0x171 JUMPI DUP1 PUSH4 0x18160DDD EQ PUSH2 0x1A1 JUMPI JUMPDEST PUSH0 DUP1 REVERT JUMPDEST PUSH2 0x12B PUSH2 0x435 JUMP JUMPDEST PUSH1 0x40 MLOAD PUSH2 0x138 SWAP2 SWAP1 PUSH2 0x1A35 JUMP JUMPDEST PUSH1 0x40 MLOAD DUP1 SWAP2 SUB SWAP1 RETURN JUMPDEST PUSH2 0x15B PUSH1 0x4 DUP1 CALLDATASIZE SUB DUP2 ADD SWAP1 PUSH2 0x156 SWAP2 SWAP1 PUSH2 0x1AF3 JUMP JUMPDEST PUSH2 0x4C5 JUMP JUMPDEST PUSH1 0x40 MLOAD PUSH2 0x168 SWAP2 SWAP1 PUSH2 0x1B4B JUMP JUMPDEST PUSH1 0x40 MLOAD DUP1 SWAP2 SUB SWAP1 RETURN JUMPDEST PUSH2 0x18B PUSH1 0x4 DUP1 CALLDATASIZE SUB DUP2 ADD SWAP1 PUSH2 0x186 SWAP2 SWAP1 PUSH2 0x1B64 JUMP JUMPDEST PUSH2 0x501 JUMP JUMPDEST PUSH1 0x40 MLOAD PUSH2 0x198 SWAP2 SWAP1 PUSH2 0x1B9E JUMP JUMPDEST PUSH1 0x40 MLOAD DUP1 SWAP2 SUB SWAP1 RETURN JUMPDEST PUSH2 0x1A9 PUSH2 0x53C JUMP JUMPDEST PUSH1 0x40 MLOAD PUSH2 0x1B6 SWAP2 SWAP1 PUSH2 0x1BC6 JUMP JUMPDEST PUSH1 0x40 MLOAD DUP1 SWAP2 SUB SWAP1 RETURN JUMPDEST PUSH2 0x1D9 PUSH1 0x4 DUP1 CALLDATASIZE SUB DUP2 ADD SWAP1 PUSH2 0x1D4 SWAP2 SWAP1 PUSH2 0x1BDF JUMP JUMPDEST PUSH2 0x5D0 JUMP JUMPDEST PUSH1 0x40 MLOAD PUSH2 0x1E6 SWAP2 SWAP1 PUSH2 0x1B4B JUMP JUMPDEST PUSH1 0x40 MLOAD DUP1 SWAP2 SUB SWAP1 RETURN JUMPDEST PUSH2 0x1F7 PUSH2 0x886 JUMP JUMPDEST PUSH1 0x40 MLOAD PUSH2 0x204 SWAP2 SWAP1 PUSH2 0x1C4A JUMP JUMPDEST PUSH1 0x40 MLOAD DUP1 SWAP2 SUB SWAP1 RETURN JUMPDEST PUSH2 0x215 PUSH2 0x88E JUMP JUMPDEST PUSH1 0x40 MLOAD PUSH2 0x222 SWAP2 SWAP1 PUSH2 0x1CBE JUMP JUMPDEST PUSH1 0x40 MLOAD DUP1 SWAP2 SUB SWAP1 RETURN JUMPDEST PUSH2 0x245 PUSH1 0x4 DUP1 CALLDATASIZE SUB DUP2 ADD SWAP1 PUSH2 0x240 SWAP2 SWAP1 PUSH2 0x1E03 JUMP JUMPDEST PUSH2 0x8B3 JUMP JUMPDEST PUSH1 0x40 MLOAD PUSH2 0x252 SWAP2 SWAP1 PUSH2 0x1B4B JUMP JUMPDEST PUSH1 0x40 MLOAD DUP1 SWAP2 SUB SWAP1 RETURN JUMPDEST PUSH2 0x275 PUSH1 0x4 DUP1 CALLDATASIZE SUB DUP2 ADD SWAP1 PUSH2 0x270 SWAP2 SWAP1 PUSH2 0x1E03 JUMP JUMPDEST PUSH2 0xC4F JUMP JUMPDEST PUSH1 0x40 MLOAD PUSH2 0x282 SWAP2 SWAP1 PUSH2 0x1B4B JUMP JUMPDEST PUSH1 0x40 MLOAD DUP1 SWAP2 SUB SWAP1 RETURN JUMPDEST PUSH2 0x2A5 PUSH1 0x4 DUP1 CALLDATASIZE SUB DUP2 ADD SWAP1 PUSH2 0x2A0 SWAP2 SWAP1 PUSH2 0x1E5D JUMP JUMPDEST PUSH2 0x1068 JUMP JUMPDEST PUSH1 0x40 MLOAD PUSH2 0x2B2 SWAP2 SWAP1 PUSH2 0x1BC6 JUMP JUMPDEST PUSH1 0x40 MLOAD DUP1 SWAP2 SUB SWAP1 RETURN JUMPDEST PUSH2 0x2C3 PUSH2 0x112F JUMP JUMPDEST PUSH1 0x40 MLOAD PUSH2 0x2D0 SWAP2 SWAP1 PUSH2 0x1B9E JUMP JUMPDEST PUSH1 0x40 MLOAD DUP1 SWAP2 SUB SWAP1 RETURN JUMPDEST PUSH2 0x2F3 PUSH1 0x4 DUP1 CALLDATASIZE SUB DUP2 ADD SWAP1 PUSH2 0x2EE SWAP2 SWAP1 PUSH2 0x1E88 JUMP JUMPDEST PUSH2 0x1157 JUMP JUMPDEST PUSH1 0x40 MLOAD PUSH2 0x300 SWAP2 SWAP1 PUSH2 0x1BC6 JUMP JUMPDEST PUSH1 0x40 MLOAD DUP1 SWAP2 SUB SWAP1 RETURN JUMPDEST PUSH2 0x311 PUSH2 0x117E JUMP JUMPDEST PUSH1 0x40 MLOAD PUSH2 0x31E SWAP2 SWAP1 PUSH2 0x1A35 JUMP JUMPDEST PUSH1 0x40 MLOAD DUP1 SWAP2 SUB SWAP1 RETURN JUMPDEST PUSH2 0x32F PUSH2 0x120E JUMP JUMPDEST PUSH1 0x40 MLOAD PUSH2 0x33C SWAP2 SWAP1 PUSH2 0x1A35 JUMP JUMPDEST PUSH1 0x40 MLOAD DUP1 SWAP2 SUB SWAP1 RETURN JUMPDEST PUSH2 0x35F PUSH1 0x4 DUP1 CALLDATASIZE SUB DUP2 ADD SWAP1 PUSH2 0x35A SWAP2 SWAP1 PUSH2 0x1E88 JUMP JUMPDEST PUSH2 0x12B1 JUMP JUMPDEST PUSH1 0x40 MLOAD PUSH2 0x36C SWAP2 SWAP1 PUSH2 0x1A35 JUMP JUMPDEST PUSH1 0x40 MLOAD DUP1 SWAP2 SUB SWAP1 RETURN JUMPDEST PUSH2 0x38F PUSH1 0x4 DUP1 CALLDATASIZE SUB DUP2 ADD SWAP1 PUSH2 0x38A SWAP2 SWAP1 PUSH2 0x1AF3 JUMP JUMPDEST PUSH2 0x1356 JUMP JUMPDEST PUSH1 0x40 MLOAD PUSH2 0x39C SWAP2 SWAP1 PUSH2 0x1B4B JUMP JUMPDEST PUSH1 0x40 MLOAD DUP1 SWAP2 SUB SWAP1 RETURN JUMPDEST PUSH2 0x3BF PUSH1 0x4 DUP1 CALLDATASIZE SUB DUP2 ADD SWAP1 PUSH2 0x3BA SWAP2 SWAP1 PUSH2 0x1ECF JUMP JUMPDEST PUSH2 0x160B JUMP JUMPDEST PUSH1 0x40 MLOAD PUSH2 0x3CC SWAP2 SWAP1 PUSH2 0x1BC6 JUMP JUMPDEST PUSH1 0x40 MLOAD DUP1 SWAP2 SUB SWAP1 RETURN JUMPDEST PUSH2 0x3EF PUSH1 0x4 DUP1 CALLDATASIZE SUB DUP2 ADD SWAP1 PUSH2 0x3EA SWAP2 SWAP1 PUSH2 0x1E88 JUMP JUMPDEST PUSH2 0x16AF JUMP JUMPDEST PUSH1 0x40 MLOAD PUSH2 0x3FC SWAP2 SWAP1 PUSH2 0x1BC6 JUMP JUMPDEST PUSH1 0x40 MLOAD DUP1 SWAP2 SUB SWAP1 RETURN JUMPDEST PUSH2 0x41F PUSH1 0x4 DUP1 CALLDATASIZE SUB DUP2 ADD SWAP1 PUSH2 0x41A SWAP2 SWAP1 PUSH2 0x1AF3 JUMP JUMPDEST PUSH2 0x16DC JUMP JUMPDEST PUSH1 0x40 MLOAD PUSH2 0x42C SWAP2 SWAP1 PUSH2 0x1B4B JUMP JUMPDEST PUSH1 0x40 MLOAD DUP1 SWAP2 SUB SWAP1 RETURN JUMPDEST PUSH1 0x60 PUSH1 0x3 DUP1 SLOAD PUSH2 0x444 SWAP1 PUSH2 0x1F3A JUMP JUMPDEST DUP1 PUSH1 0x1F ADD PUSH1 0x20 DUP1 SWAP2 DIV MUL PUSH1 0x20 ADD PUSH1 0x40 MLOAD SWAP1 DUP2 ADD PUSH1 0x40 MSTORE DUP1 SWAP3 SWAP2 SWAP1 DUP2 DUP2 MSTORE PUSH1 0x20 ADD DUP3 DUP1 SLOAD PUSH2 0x470 SWAP1 PUSH2 0x1F3A JUMP JUMPDEST DUP1 ISZERO PUSH2 0x4BB JUMPI DUP1 PUSH1 0x1F LT PUSH2 0x492 JUMPI PUSH2 0x100 DUP1 DUP4 SLOAD DIV MUL DUP4 MSTORE SWAP2 PUSH1 0x20 ADD SWAP2 PUSH2 0x4BB JUMP JUMPDEST DUP3 ADD SWAP2 SWAP1 PUSH0 MSTORE PUSH1 0x20 PUSH0 KECCAK256 SWAP1 JUMPDEST DUP2 SLOAD DUP2 MSTORE SWAP1 PUSH1 0x1 ADD SWAP1 PUSH1 0x20 ADD DUP1 DUP4 GT PUSH2 0x49E JUMPI DUP3 SWAP1 SUB PUSH1 0x1F AND DUP3 ADD SWAP2 JUMPDEST POP POP POP POP POP SWAP1 POP SWAP1 JUMP JUMPDEST PUSH0 PUSH1 0x40 MLOAD PUSH32 0x8C379A000000000000000000000000000000000000000000000000000000000 DUP2 MSTORE PUSH1 0x4 ADD PUSH2 0x4F8 SWAP1 PUSH2 0x1FB4 JUMP JUMPDEST PUSH1 0x40 MLOAD DUP1 SWAP2 SUB SWAP1 REVERT JUMPDEST PUSH1 0x8 DUP2 DUP2 SLOAD DUP2 LT PUSH2 0x510 JUMPI PUSH0 DUP1 REVERT JUMPDEST SWAP1 PUSH0 MSTORE PUSH1 0x20 PUSH0 KECCAK256 ADD PUSH0 SWAP2 POP SLOAD SWAP1 PUSH2 0x100 EXP SWAP1 DIV PUSH20 0xFFFFFFFFFFFFFFFFFFFFFFFFFFFFFFFFFFFFFFFF AND DUP2 JUMP JUMPDEST PUSH0 PUSH1 0x5 PUSH0 SWAP1 SLOAD SWAP1 PUSH2 0x100 EXP SWAP1 DIV PUSH20 0xFFFFFFFFFFFFFFFFFFFFFFFFFFFFFFFFFFFFFFFF AND PUSH20 0xFFFFFFFFFFFFFFFFFFFFFFFFFFFFFFFFFFFFFFFF AND PUSH4 0x18160DDD PUSH1 0x40 MLOAD DUP2 PUSH4 0xFFFFFFFF AND PUSH1 0xE0 SHL DUP2 MSTORE PUSH1 0x4 ADD PUSH1 0x20 PUSH1 0x40 MLOAD DUP1 DUP4 SUB DUP2 DUP7 GAS STATICCALL ISZERO DUP1 ISZERO PUSH2 0x5A7 JUMPI RETURNDATASIZE PUSH0 DUP1 RETURNDATACOPY RETURNDATASIZE PUSH0 REVERT JUMPDEST POP POP POP POP PUSH1 0x40 MLOAD RETURNDATASIZE PUSH1 0x1F NOT PUSH1 0x1F DUP3 ADD AND DUP3 ADD DUP1 PUSH1 0x40 MSTORE POP DUP2 ADD SWAP1 PUSH2 0x5CB SWAP2 SWAP1 PUSH2 0x1FE6 JUMP JUMPDEST SWAP1 POP SWAP1 JUMP JUMPDEST PUSH0 DUP1 PUSH20 0xFFFFFFFFFFFFFFFFFFFFFFFFFFFFFFFFFFFFFFFF AND DUP4 PUSH20 0xFFFFFFFFFFFFFFFFFFFFFFFFFFFFFFFFFFFFFFFF AND SUB PUSH2 0x63F JUMPI PUSH1 0x40 MLOAD PUSH32 0x8C379A000000000000000000000000000000000000000000000000000000000 DUP2 MSTORE PUSH1 0x4 ADD PUSH2 0x636 SWAP1 PUSH2 0x205B JUMP JUMPDEST PUSH1 0x40 MLOAD DUP1 SWAP2 SUB SWAP1 REVERT JUMPDEST PUSH0 PUSH1 0xA PUSH0 SWAP1 SLOAD SWAP1 PUSH2 0x100 EXP SWAP1 DIV PUSH20 0xFFFFFFFFFFFFFFFFFFFFFFFFFFFFFFFFFFFFFFFF AND PUSH20 0xFFFFFFFFFFFFFFFFFFFFFFFFFFFFFFFFFFFFFFFF AND PUSH4 0x58581383 DUP7 PUSH1 0x40 MLOAD DUP3 PUSH4 0xFFFFFFFF AND PUSH1 0xE0 SHL DUP2 MSTORE PUSH1 0x4 ADD PUSH2 0x69A SWAP2 SWAP1 PUSH2 0x1B9E JUMP JUMPDEST PUSH0 PUSH1 0x40 MLOAD DUP1 DUP4 SUB DUP2 DUP7 GAS STATICCALL ISZERO DUP1 ISZERO PUSH2 0x6B4 JUMPI RETURNDATASIZE PUSH0 DUP1 RETURNDATACOPY RETURNDATASIZE PUSH0 REVERT JUMPDEST POP POP POP POP PUSH1 0x40 MLOAD RETURNDATASIZE PUSH0 DUP3 RETURNDATACOPY RETURNDATASIZE PUSH1 0x1F NOT PUSH1 0x1F DUP3 ADD AND DUP3 ADD DUP1 PUSH1 0x40 MSTORE POP DUP2 ADD SWAP1 PUSH2 0x6DC SWAP2 SWAP1 PUSH2 0x20E7 JUMP JUMPDEST SWAP1 POP PUSH0 PUSH1 0x6 DUP3 PUSH1 0x40 MLOAD PUSH2 0x6EF SWAP2 SWAP1 PUSH2 0x2168 JUMP JUMPDEST SWAP1 DUP2 MSTORE PUSH1 0x20 ADD PUSH1 0x40 MLOAD DUP1 SWAP2 SUB SWAP1 KECCAK256 SLOAD SWAP1 POP DUP4 DUP2 LT ISZERO PUSH2 0x743 JUMPI PUSH1 0x40 MLOAD PUSH32 0x8C379A000000000000000000000000000000000000000000000000000000000 DUP2 MSTORE PUSH1 0x4 ADD PUSH2 0x73A SWAP1 PUSH2 0x21C8 JUMP JUMPDEST PUSH1 0x40 MLOAD DUP1 SWAP2 SUB SWAP1 REVERT JUMPDEST DUP4 PUSH1 0x6 DUP4 PUSH1 0x40 MLOAD PUSH2 0x754 SWAP2 SWAP1 PUSH2 0x2168 JUMP JUMPDEST SWAP1 DUP2 MSTORE PUSH1 0x20 ADD PUSH1 0x40 MLOAD DUP1 SWAP2 SUB SWAP1 KECCAK256 PUSH0 DUP3 DUP3 SLOAD PUSH2 0x770 SWAP2 SWAP1 PUSH2 0x2213 JUMP JUMPDEST SWAP3 POP POP DUP2 SWAP1 SSTORE POP DUP5 PUSH20 0xFFFFFFFFFFFFFFFFFFFFFFFFFFFFFFFFFFFFFFFF AND DUP7 PUSH20 0xFFFFFFFFFFFFFFFFFFFFFFFFFFFFFFFFFFFFFFFF AND PUSH32 0xDDF252AD1BE2C89B69C2B068FC378DAA952BA7F163C4A11628F55A4DF523B3EF DUP7 PUSH1 0x40 MLOAD PUSH2 0x7D4 SWAP2 SWAP1 PUSH2 0x1BC6 JUMP JUMPDEST PUSH1 0x40 MLOAD DUP1 SWAP2 SUB SWAP1 LOG3 PUSH1 0x5 PUSH0 SWAP1 SLOAD SWAP1 PUSH2 0x100 EXP SWAP1 DIV PUSH20 0xFFFFFFFFFFFFFFFFFFFFFFFFFFFFFFFFFFFFFFFF AND PUSH20 0xFFFFFFFFFFFFFFFFFFFFFFFFFFFFFFFFFFFFFFFF AND PUSH4 0xA9059CBB DUP7 DUP7 PUSH1 0x40 MLOAD DUP4 PUSH4 0xFFFFFFFF AND PUSH1 0xE0 SHL DUP2 MSTORE PUSH1 0x4 ADD PUSH2 0x838 SWAP3 SWAP2 SWAP1 PUSH2 0x2246 JUMP JUMPDEST PUSH1 0x20 PUSH1 0x40 MLOAD DUP1 DUP4 SUB DUP2 PUSH0 DUP8 GAS CALL ISZERO DUP1 ISZERO PUSH2 0x854 JUMPI RETURNDATASIZE PUSH0 DUP1 RETURNDATACOPY RETURNDATASIZE PUSH0 REVERT JUMPDEST POP POP POP POP PUSH1 0x40 MLOAD RETURNDATASIZE PUSH1 0x1F NOT PUSH1 0x1F DUP3 ADD AND DUP3 ADD DUP1 PUSH1 0x40 MSTORE POP DUP2 ADD SWAP1 PUSH2 0x878 SWAP2 SWAP1 PUSH2 0x2297 JUMP JUMPDEST POP PUSH1 0x1 SWAP3 POP POP POP SWAP4 SWAP3 POP POP POP JUMP JUMPDEST PUSH0 PUSH1 0x6 SWAP1 POP SWAP1 JUMP JUMPDEST PUSH1 0x5 PUSH0 SWAP1 SLOAD SWAP1 PUSH2 0x100 EXP SWAP1 DIV PUSH20 0xFFFFFFFFFFFFFFFFFFFFFFFFFFFFFFFFFFFFFFFF AND DUP2 JUMP JUMPDEST PUSH0 DUP3 PUSH0 PUSH1 0x9 PUSH0 SWAP1 SLOAD SWAP1 PUSH2 0x100 EXP SWAP1 DIV PUSH20 0xFFFFFFFFFFFFFFFFFFFFFFFFFFFFFFFFFFFFFFFF AND PUSH20 0xFFFFFFFFFFFFFFFFFFFFFFFFFFFFFFFFFFFFFFFF AND PUSH4 0xA8F5D7A6 DUP4 PUSH1 0x40 MLOAD DUP3 PUSH4 0xFFFFFFFF AND PUSH1 0xE0 SHL DUP2 MSTORE PUSH1 0x4 ADD PUSH2 0x910 SWAP2 SWAP1 PUSH2 0x1A35 JUMP JUMPDEST PUSH0 PUSH1 0x40 MLOAD DUP1 DUP4 SUB DUP2 DUP7 GAS STATICCALL ISZERO DUP1 ISZERO PUSH2 0x92A JUMPI RETURNDATASIZE PUSH0 DUP1 RETURNDATACOPY RETURNDATASIZE PUSH0 REVERT JUMPDEST POP POP POP POP PUSH1 0x40 MLOAD RETURNDATASIZE PUSH0 DUP3 RETURNDATACOPY RETURNDATASIZE PUSH1 0x1F NOT PUSH1 0x1F DUP3 ADD AND DUP3 ADD DUP1 PUSH1 0x40 MSTORE POP DUP2 ADD SWAP1 PUSH2 0x952 SWAP2 SWAP1 PUSH2 0x20E7 JUMP JUMPDEST MLOAD GT PUSH2 0x993 JUMPI PUSH1 0x40 MLOAD PUSH32 0x8C379A000000000000000000000000000000000000000000000000000000000 DUP2 MSTORE PUSH1 0x4 ADD PUSH2 0x98A SWAP1 PUSH2 0x230C JUMP JUMPDEST PUSH1 0x40 MLOAD DUP1 SWAP2 SUB SWAP1 REVERT JUMPDEST PUSH0 DUP5 MLOAD GT PUSH2 0x9D6 JUMPI PUSH1 0x40 MLOAD PUSH32 0x8C379A000000000000000000000000000000000000000000000000000000000 DUP2 MSTORE PUSH1 0x4 ADD PUSH2 0x9CD SWAP1 PUSH2 0x2374 JUMP JUMPDEST PUSH1 0x40 MLOAD DUP1 SWAP2 SUB SWAP1 REVERT JUMPDEST PUSH0 PUSH1 0xA PUSH0 SWAP1 SLOAD SWAP1 PUSH2 0x100 EXP SWAP1 DIV PUSH20 0xFFFFFFFFFFFFFFFFFFFFFFFFFFFFFFFFFFFFFFFF AND PUSH20 0xFFFFFFFFFFFFFFFFFFFFFFFFFFFFFFFFFFFFFFFF AND PUSH4 0x58581383 CALLER PUSH1 0x40 MLOAD DUP3 PUSH4 0xFFFFFFFF AND PUSH1 0xE0 SHL DUP2 MSTORE PUSH1 0x4 ADD PUSH2 0xA31 SWAP2 SWAP1 PUSH2 0x1B9E JUMP JUMPDEST PUSH0 PUSH1 0x40 MLOAD DUP1 DUP4 SUB DUP2 DUP7 GAS STATICCALL ISZERO DUP1 ISZERO PUSH2 0xA4B JUMPI RETURNDATASIZE PUSH0 DUP1 RETURNDATACOPY RETURNDATASIZE PUSH0 REVERT JUMPDEST POP POP POP POP PUSH1 0x40 MLOAD RETURNDATASIZE PUSH0 DUP3 RETURNDATACOPY RETURNDATASIZE PUSH1 0x1F NOT PUSH1 0x1F DUP3 ADD AND DUP3 ADD DUP1 PUSH1 0x40 MSTORE POP DUP2 ADD SWAP1 PUSH2 0xA73 SWAP2 SWAP1 PUSH2 0x20E7 JUMP JUMPDEST SWAP1 POP DUP4 PUSH1 0x6 DUP3 PUSH1 0x40 MLOAD PUSH2 0xA86 SWAP2 SWAP1 PUSH2 0x2168 JUMP JUMPDEST SWAP1 DUP2 MSTORE PUSH1 0x20 ADD PUSH1 0x40 MLOAD DUP1 SWAP2 SUB SWAP1 KECCAK256 SLOAD LT ISZERO PUSH2 0xAA4 JUMPI PUSH0 SWAP3 POP POP PUSH2 0xC48 JUMP JUMPDEST DUP4 PUSH1 0x6 DUP3 PUSH1 0x40 MLOAD PUSH2 0xAB5 SWAP2 SWAP1 PUSH2 0x2168 JUMP JUMPDEST SWAP1 DUP2 MSTORE PUSH1 0x20 ADD PUSH1 0x40 MLOAD DUP1 SWAP2 SUB SWAP1 KECCAK256 PUSH0 DUP3 DUP3 SLOAD PUSH2 0xAD1 SWAP2 SWAP1 PUSH2 0x2213 JUMP JUMPDEST SWAP3 POP POP DUP2 SWAP1 SSTORE POP DUP4 PUSH1 0x6 DUP7 PUSH1 0x40 MLOAD PUSH2 0xAE9 SWAP2 SWAP1 PUSH2 0x2168 JUMP JUMPDEST SWAP1 DUP2 MSTORE PUSH1 0x20 ADD PUSH1 0x40 MLOAD DUP1 SWAP2 SUB SWAP1 KECCAK256 PUSH0 DUP3 DUP3 SLOAD PUSH2 0xB05 SWAP2 SWAP1 PUSH2 0x2392 JUMP JUMPDEST SWAP3 POP POP DUP2 SWAP1 SSTORE POP PUSH0 PUSH1 0xA PUSH0 SWAP1 SLOAD SWAP1 PUSH2 0x100 EXP SWAP1 DIV PUSH20 0xFFFFFFFFFFFFFFFFFFFFFFFFFFFFFFFFFFFFFFFF AND PUSH20 0xFFFFFFFFFFFFFFFFFFFFFFFFFFFFFFFFFFFFFFFF AND PUSH4 0xA9B295E3 DUP8 PUSH1 0x40 MLOAD DUP3 PUSH4 0xFFFFFFFF AND PUSH1 0xE0 SHL DUP2 MSTORE PUSH1 0x4 ADD PUSH2 0xB67 SWAP2 SWAP1 PUSH2 0x1A35 JUMP JUMPDEST PUSH1 0x20 PUSH1 0x40 MLOAD DUP1 DUP4 SUB DUP2 DUP7 GAS STATICCALL ISZERO DUP1 ISZERO PUSH2 0xB82 JUMPI RETURNDATASIZE PUSH0 DUP1 RETURNDATACOPY RETURNDATASIZE PUSH0 REVERT JUMPDEST POP POP POP POP PUSH1 0x40 MLOAD RETURNDATASIZE PUSH1 0x1F NOT PUSH1 0x1F DUP3 ADD AND DUP3 ADD DUP1 PUSH1 0x40 MSTORE POP DUP2 ADD SWAP1 PUSH2 0xBA6 SWAP2 SWAP1 PUSH2 0x23D9 JUMP JUMPDEST SWAP1 POP PUSH0 PUSH20 0xFFFFFFFFFFFFFFFFFFFFFFFFFFFFFFFFFFFFFFFF AND DUP2 PUSH20 0xFFFFFFFFFFFFFFFFFFFFFFFFFFFFFFFFFFFFFFFF AND EQ PUSH2 0xC41 JUMPI DUP1 PUSH20 0xFFFFFFFFFFFFFFFFFFFFFFFFFFFFFFFFFFFFFFFF AND CALLER PUSH20 0xFFFFFFFFFFFFFFFFFFFFFFFFFFFFFFFFFFFFFFFF AND PUSH32 0xDDF252AD1BE2C89B69C2B068FC378DAA952BA7F163C4A11628F55A4DF523B3EF DUP8 PUSH1 0x40 MLOAD PUSH2 0xC38 SWAP2 SWAP1 PUSH2 0x1BC6 JUMP JUMPDEST PUSH1 0x40 MLOAD DUP1 SWAP2 SUB SWAP1 LOG3 JUMPDEST PUSH1 0x1 SWAP4 POP POP POP JUMPDEST POP SWAP3 SWAP2 POP POP JUMP JUMPDEST PUSH0 DUP3 PUSH0 PUSH1 0x9 PUSH0 SWAP1 SLOAD SWAP1 PUSH2 0x100 EXP SWAP1 DIV PUSH20 0xFFFFFFFFFFFFFFFFFFFFFFFFFFFFFFFFFFFFFFFF AND PUSH20 0xFFFFFFFFFFFFFFFFFFFFFFFFFFFFFFFFFFFFFFFF AND PUSH4 0xA8F5D7A6 DUP4 PUSH1 0x40 MLOAD DUP3 PUSH4 0xFFFFFFFF AND PUSH1 0xE0 SHL DUP2 MSTORE PUSH1 0x4 ADD PUSH2 0xCAC SWAP2 SWAP1 PUSH2 0x1A35 JUMP JUMPDEST PUSH0 PUSH1 0x40 MLOAD DUP1 DUP4 SUB DUP2 DUP7 GAS STATICCALL ISZERO DUP1 ISZERO PUSH2 0xCC6 JUMPI RETURNDATASIZE PUSH0 DUP1 RETURNDATACOPY RETURNDATASIZE PUSH0 REVERT JUMPDEST POP POP POP POP PUSH1 0x40 MLOAD RETURNDATASIZE PUSH0 DUP3 RETURNDATACOPY RETURNDATASIZE PUSH1 0x1F NOT PUSH1 0x1F DUP3 ADD AND DUP3 ADD DUP1 PUSH1 0x40 MSTORE POP DUP2 ADD SWAP1 PUSH2 0xCEE SWAP2 SWAP1 PUSH2 0x20E7 JUMP JUMPDEST MLOAD GT PUSH2 0xD2F JUMPI PUSH1 0x40 MLOAD PUSH32 0x8C379A000000000000000000000000000000000000000000000000000000000 DUP2 MSTORE PUSH1 0x4 ADD PUSH2 0xD26 SWAP1 PUSH2 0x230C JUMP JUMPDEST PUSH1 0x40 MLOAD DUP1 SWAP2 SUB SWAP1 REVERT JUMPDEST PUSH0 DUP5 MLOAD GT PUSH2 0xD72 JUMPI PUSH1 0x40 MLOAD PUSH32 0x8C379A000000000000000000000000000000000000000000000000000000000 DUP2 MSTORE PUSH1 0x4 ADD PUSH2 0xD69 SWAP1 PUSH2 0x244E JUMP JUMPDEST PUSH1 0x40 MLOAD DUP1 SWAP2 SUB SWAP1 REVERT JUMPDEST PUSH0 PUSH1 0x5 PUSH0 SWAP1 SLOAD SWAP1 PUSH2 0x100 EXP SWAP1 DIV PUSH20 0xFFFFFFFFFFFFFFFFFFFFFFFFFFFFFFFFFFFFFFFF AND PUSH20 0xFFFFFFFFFFFFFFFFFFFFFFFFFFFFFFFFFFFFFFFF AND PUSH4 0xDD62ED3E CALLER ADDRESS PUSH1 0x40 MLOAD DUP4 PUSH4 0xFFFFFFFF AND PUSH1 0xE0 SHL DUP2 MSTORE PUSH1 0x4 ADD PUSH2 0xDCF SWAP3 SWAP2 SWAP1 PUSH2 0x246C JUMP JUMPDEST PUSH1 0x20 PUSH1 0x40 MLOAD DUP1 DUP4 SUB DUP2 DUP7 GAS STATICCALL ISZERO DUP1 ISZERO PUSH2 0xDEA JUMPI RETURNDATASIZE PUSH0 DUP1 RETURNDATACOPY RETURNDATASIZE PUSH0 REVERT JUMPDEST POP POP POP POP PUSH1 0x40 MLOAD RETURNDATASIZE PUSH1 0x1F NOT PUSH1 0x1F DUP3 ADD AND DUP3 ADD DUP1 PUSH1 0x40 MSTORE POP DUP2 ADD SWAP1 PUSH2 0xE0E SWAP2 SWAP1 PUSH2 0x1FE6 JUMP JUMPDEST SWAP1 POP DUP4 DUP2 LT ISZERO PUSH2 0xE53 JUMPI PUSH1 0x40 MLOAD PUSH32 0x8C379A000000000000000000000000000000000000000000000000000000000 DUP2 MSTORE PUSH1 0x4 ADD PUSH2 0xE4A SWAP1 PUSH2 0x24DD JUMP JUMPDEST PUSH1 0x40 MLOAD DUP1 SWAP2 SUB SWAP1 REVERT JUMPDEST PUSH1 0x5 PUSH0 SWAP1 SLOAD SWAP1 PUSH2 0x100 EXP SWAP1 DIV PUSH20 0xFFFFFFFFFFFFFFFFFFFFFFFFFFFFFFFFFFFFFFFF AND PUSH20 0xFFFFFFFFFFFFFFFFFFFFFFFFFFFFFFFFFFFFFFFF AND PUSH4 0x23B872DD CALLER ADDRESS DUP8 PUSH1 0x40 MLOAD DUP5 PUSH4 0xFFFFFFFF AND PUSH1 0xE0 SHL DUP2 MSTORE PUSH1 0x4 ADD PUSH2 0xEB1 SWAP4 SWAP3 SWAP2 SWAP1 PUSH2 0x24FB JUMP JUMPDEST PUSH1 0x20 PUSH1 0x40 MLOAD DUP1 DUP4 SUB DUP2 PUSH0 DUP8 GAS CALL ISZERO DUP1 ISZERO PUSH2 0xECD JUMPI RETURNDATASIZE PUSH0 DUP1 RETURNDATACOPY RETURNDATASIZE PUSH0 REVERT JUMPDEST POP POP POP POP PUSH1 0x40 MLOAD RETURNDATASIZE PUSH1 0x1F NOT PUSH1 0x1F DUP3 ADD AND DUP3 ADD DUP1 PUSH1 0x40 MSTORE POP DUP2 ADD SWAP1 PUSH2 0xEF1 SWAP2 SWAP1 PUSH2 0x2297 JUMP JUMPDEST POP DUP4 PUSH1 0x6 DUP7 PUSH1 0x40 MLOAD PUSH2 0xF03 SWAP2 SWAP1 PUSH2 0x2168 JUMP JUMPDEST SWAP1 DUP2 MSTORE PUSH1 0x20 ADD PUSH1 0x40 MLOAD DUP1 SWAP2 SUB SWAP1 KECCAK256 PUSH0 DUP3 DUP3 SLOAD PUSH2 0xF1F SWAP2 SWAP1 PUSH2 0x2392 JUMP JUMPDEST SWAP3 POP POP DUP2 SWAP1 SSTORE POP PUSH0 PUSH1 0xA PUSH0 SWAP1 SLOAD SWAP1 PUSH2 0x100 EXP SWAP1 DIV PUSH20 0xFFFFFFFFFFFFFFFFFFFFFFFFFFFFFFFFFFFFFFFF AND PUSH20 0xFFFFFFFFFFFFFFFFFFFFFFFFFFFFFFFFFFFFFFFF AND PUSH4 0xA9B295E3 DUP8 PUSH1 0x40 MLOAD DUP3 PUSH4 0xFFFFFFFF AND PUSH1 0xE0 SHL DUP2 MSTORE PUSH1 0x4 ADD PUSH2 0xF81 SWAP2 SWAP1 PUSH2 0x1A35 JUMP JUMPDEST PUSH1 0x20 PUSH1 0x40 MLOAD DUP1 DUP4 SUB DUP2 DUP7 GAS STATICCALL ISZERO DUP1 ISZERO PUSH2 0xF9C JUMPI RETURNDATASIZE PUSH0 DUP1 RETURNDATACOPY RETURNDATASIZE PUSH0 REVERT JUMPDEST POP POP POP POP PUSH1 0x40 MLOAD RETURNDATASIZE PUSH1 0x1F NOT PUSH1 0x1F DUP3 ADD AND DUP3 ADD DUP1 PUSH1 0x40 MSTORE POP DUP2 ADD SWAP1 PUSH2 0xFC0 SWAP2 SWAP1 PUSH2 0x23D9 JUMP JUMPDEST SWAP1 POP PUSH0 PUSH20 0xFFFFFFFFFFFFFFFFFFFFFFFFFFFFFFFFFFFFFFFF AND DUP2 PUSH20 0xFFFFFFFFFFFFFFFFFFFFFFFFFFFFFFFFFFFFFFFF AND EQ PUSH2 0x105B JUMPI DUP1 PUSH20 0xFFFFFFFFFFFFFFFFFFFFFFFFFFFFFFFFFFFFFFFF AND CALLER PUSH20 0xFFFFFFFFFFFFFFFFFFFFFFFFFFFFFFFFFFFFFFFF AND PUSH32 0xDDF252AD1BE2C89B69C2B068FC378DAA952BA7F163C4A11628F55A4DF523B3EF DUP8 PUSH1 0x40 MLOAD PUSH2 0x1052 SWAP2 SWAP1 PUSH2 0x1BC6 JUMP JUMPDEST PUSH1 0x40 MLOAD DUP1 SWAP2 SUB SWAP1 LOG3 JUMPDEST PUSH1 0x1 SWAP4 POP POP POP POP SWAP3 SWAP2 POP POP JUMP JUMPDEST PUSH0 DUP1 PUSH1 0xA PUSH0 SWAP1 SLOAD SWAP1 PUSH2 0x100 EXP SWAP1 DIV PUSH20 0xFFFFFFFFFFFFFFFFFFFFFFFFFFFFFFFFFFFFFFFF AND PUSH20 0xFFFFFFFFFFFFFFFFFFFFFFFFFFFFFFFFFFFFFFFF AND PUSH4 0x58581383 DUP5 PUSH1 0x40 MLOAD DUP3 PUSH4 0xFFFFFFFF AND PUSH1 0xE0 SHL DUP2 MSTORE PUSH1 0x4 ADD PUSH2 0x10C4 SWAP2 SWAP1 PUSH2 0x1B9E JUMP JUMPDEST PUSH0 PUSH1 0x40 MLOAD DUP1 DUP4 SUB DUP2 DUP7 GAS STATICCALL ISZERO DUP1 ISZERO PUSH2 0x10DE JUMPI RETURNDATASIZE PUSH0 DUP1 RETURNDATACOPY RETURNDATASIZE PUSH0 REVERT JUMPDEST POP POP POP POP PUSH1 0x40 MLOAD RETURNDATASIZE PUSH0 DUP3 RETURNDATACOPY RETURNDATASIZE PUSH1 0x1F NOT PUSH1 0x1F DUP3 ADD AND DUP3 ADD DUP1 PUSH1 0x40 MSTORE POP DUP2 ADD SWAP1 PUSH2 0x1106 SWAP2 SWAP1 PUSH2 0x20E7 JUMP JUMPDEST SWAP1 POP PUSH1 0x6 DUP2 PUSH1 0x40 MLOAD PUSH2 0x1118 SWAP2 SWAP1 PUSH2 0x2168 JUMP JUMPDEST SWAP1 DUP2 MSTORE PUSH1 0x20 ADD PUSH1 0x40 MLOAD DUP1 SWAP2 SUB SWAP1 KECCAK256 SLOAD SWAP2 POP POP SWAP2 SWAP1 POP JUMP JUMPDEST PUSH0 PUSH1 0x5 PUSH0 SWAP1 SLOAD SWAP1 PUSH2 0x100 EXP SWAP1 DIV PUSH20 0xFFFFFFFFFFFFFFFFFFFFFFFFFFFFFFFFFFFFFFFF AND SWAP1 POP SWAP1 JUMP JUMPDEST PUSH0 PUSH1 0x6 DUP3 PUSH1 0x40 MLOAD PUSH2 0x1168 SWAP2 SWAP1 PUSH2 0x2168 JUMP JUMPDEST SWAP1 DUP2 MSTORE PUSH1 0x20 ADD PUSH1 0x40 MLOAD DUP1 SWAP2 SUB SWAP1 KECCAK256 SLOAD SWAP1 POP SWAP2 SWAP1 POP JUMP JUMPDEST PUSH1 0x60 PUSH1 0x4 DUP1 SLOAD PUSH2 0x118D SWAP1 PUSH2 0x1F3A JUMP JUMPDEST DUP1 PUSH1 0x1F ADD PUSH1 0x20 DUP1 SWAP2 DIV MUL PUSH1 0x20 ADD PUSH1 0x40 MLOAD SWAP1 DUP2 ADD PUSH1 0x40 MSTORE DUP1 SWAP3 SWAP2 SWAP1 DUP2 DUP2 MSTORE PUSH1 0x20 ADD DUP3 DUP1 SLOAD PUSH2 0x11B9 SWAP1 PUSH2 0x1F3A JUMP JUMPDEST DUP1 ISZERO PUSH2 0x1204 JUMPI DUP1 PUSH1 0x1F LT PUSH2 0x11DB JUMPI PUSH2 0x100 DUP1 DUP4 SLOAD DIV MUL DUP4 MSTORE SWAP2 PUSH1 0x20 ADD SWAP2 PUSH2 0x1204 JUMP JUMPDEST DUP3 ADD SWAP2 SWAP1 PUSH0 MSTORE PUSH1 0x20 PUSH0 KECCAK256 SWAP1 JUMPDEST DUP2 SLOAD DUP2 MSTORE SWAP1 PUSH1 0x1 ADD SWAP1 PUSH1 0x20 ADD DUP1 DUP4 GT PUSH2 0x11E7 JUMPI DUP3 SWAP1 SUB PUSH1 0x1F AND DUP3 ADD SWAP2 JUMPDEST POP POP POP POP POP SWAP1 POP SWAP1 JUMP JUMPDEST PUSH1 0x60 PUSH1 0xA PUSH0 SWAP1 SLOAD SWAP1 PUSH2 0x100 EXP SWAP1 DIV PUSH20 0xFFFFFFFFFFFFFFFFFFFFFFFFFFFFFFFFFFFFFFFF AND PUSH20 0xFFFFFFFFFFFFFFFFFFFFFFFFFFFFFFFFFFFFFFFF AND PUSH4 0x58581383 CALLER PUSH1 0x40 MLOAD DUP3 PUSH4 0xFFFFFFFF AND PUSH1 0xE0 SHL DUP2 MSTORE PUSH1 0x4 ADD PUSH2 0x126A SWAP2 SWAP1 PUSH2 0x1B9E JUMP JUMPDEST PUSH0 PUSH1 0x40 MLOAD DUP1 DUP4 SUB DUP2 DUP7 GAS STATICCALL ISZERO DUP1 ISZERO PUSH2 0x1284 JUMPI RETURNDATASIZE PUSH0 DUP1 RETURNDATACOPY RETURNDATASIZE PUSH0 REVERT JUMPDEST POP POP POP POP PUSH1 0x40 MLOAD RETURNDATASIZE PUSH0 DUP3 RETURNDATACOPY RETURNDATASIZE PUSH1 0x1F NOT PUSH1 0x1F DUP3 ADD AND DUP3 ADD DUP1 PUSH1 0x40 MSTORE POP DUP2 ADD SWAP1 PUSH2 0x12AC SWAP2 SWAP1 PUSH2 0x20E7 JUMP JUMPDEST SWAP1 POP SWAP1 JUMP JUMPDEST PUSH1 0x60 PUSH1 0x9 PUSH0 SWAP1 SLOAD SWAP1 PUSH2 0x100 EXP SWAP1 DIV PUSH20 0xFFFFFFFFFFFFFFFFFFFFFFFFFFFFFFFFFFFFFFFF AND PUSH20 0xFFFFFFFFFFFFFFFFFFFFFFFFFFFFFFFFFFFFFFFF AND PUSH4 0xA8F5D7A6 DUP4 PUSH1 0x40 MLOAD DUP3 PUSH4 0xFFFFFFFF AND PUSH1 0xE0 SHL DUP2 MSTORE PUSH1 0x4 ADD PUSH2 0x130D SWAP2 SWAP1 PUSH2 0x1A35 JUMP JUMPDEST PUSH0 PUSH1 0x40 MLOAD DUP1 DUP4 SUB DUP2 DUP7 GAS STATICCALL ISZERO DUP1 ISZERO PUSH2 0x1327 JUMPI RETURNDATASIZE PUSH0 DUP1 RETURNDATACOPY RETURNDATASIZE PUSH0 REVERT JUMPDEST POP POP POP POP PUSH1 0x40 MLOAD RETURNDATASIZE PUSH0 DUP3 RETURNDATACOPY RETURNDATASIZE PUSH1 0x1F NOT PUSH1 0x1F DUP3 ADD AND DUP3 ADD DUP1 PUSH1 0x40 MSTORE POP DUP2 ADD SWAP1 PUSH2 0x134F SWAP2 SWAP1 PUSH2 0x20E7 JUMP JUMPDEST SWAP1 POP SWAP2 SWAP1 POP JUMP JUMPDEST PUSH0 DUP1 PUSH20 0xFFFFFFFFFFFFFFFFFFFFFFFFFFFFFFFFFFFFFFFF AND DUP4 PUSH20 0xFFFFFFFFFFFFFFFFFFFFFFFFFFFFFFFFFFFFFFFF AND SUB PUSH2 0x13C5 JUMPI PUSH1 0x40 MLOAD PUSH32 0x8C379A000000000000000000000000000000000000000000000000000000000 DUP2 MSTORE PUSH1 0x4 ADD PUSH2 0x13BC SWAP1 PUSH2 0x205B JUMP JUMPDEST PUSH1 0x40 MLOAD DUP1 SWAP2 SUB SWAP1 REVERT JUMPDEST PUSH0 PUSH1 0xA PUSH0 SWAP1 SLOAD SWAP1 PUSH2 0x100 EXP SWAP1 DIV PUSH20 0xFFFFFFFFFFFFFFFFFFFFFFFFFFFFFFFFFFFFFFFF AND PUSH20 0xFFFFFFFFFFFFFFFFFFFFFFFFFFFFFFFFFFFFFFFF AND PUSH4 0x58581383 CALLER PUSH1 0x40 MLOAD DUP3 PUSH4 0xFFFFFFFF AND PUSH1 0xE0 SHL DUP2 MSTORE PUSH1 0x4 ADD PUSH2 0x1420 SWAP2 SWAP1 PUSH2 0x1B9E JUMP JUMPDEST PUSH0 PUSH1 0x40 MLOAD DUP1 DUP4 SUB DUP2 DUP7 GAS STATICCALL ISZERO DUP1 ISZERO PUSH2 0x143A JUMPI RETURNDATASIZE PUSH0 DUP1 RETURNDATACOPY RETURNDATASIZE PUSH0 REVERT JUMPDEST POP POP POP POP PUSH1 0x40 MLOAD RETURNDATASIZE PUSH0 DUP3 RETURNDATACOPY RETURNDATASIZE PUSH1 0x1F NOT PUSH1 0x1F DUP3 ADD AND DUP3 ADD DUP1 PUSH1 0x40 MSTORE POP DUP2 ADD SWAP1 PUSH2 0x1462 SWAP2 SWAP1 PUSH2 0x20E7 JUMP JUMPDEST SWAP1 POP PUSH0 PUSH1 0x6 DUP3 PUSH1 0x40 MLOAD PUSH2 0x1475 SWAP2 SWAP1 PUSH2 0x2168 JUMP JUMPDEST SWAP1 DUP2 MSTORE PUSH1 0x20 ADD PUSH1 0x40 MLOAD DUP1 SWAP2 SUB SWAP1 KECCAK256 SLOAD SWAP1 POP DUP4 DUP2 LT ISZERO PUSH2 0x14C9 JUMPI PUSH1 0x40 MLOAD PUSH32 0x8C379A000000000000000000000000000000000000000000000000000000000 DUP2 MSTORE PUSH1 0x4 ADD PUSH2 0x14C0 SWAP1 PUSH2 0x21C8 JUMP JUMPDEST PUSH1 0x40 MLOAD DUP1 SWAP2 SUB SWAP1 REVERT JUMPDEST DUP4 PUSH1 0x6 DUP4 PUSH1 0x40 MLOAD PUSH2 0x14DA SWAP2 SWAP1 PUSH2 0x2168 JUMP JUMPDEST SWAP1 DUP2 MSTORE PUSH1 0x20 ADD PUSH1 0x40 MLOAD DUP1 SWAP2 SUB SWAP1 KECCAK256 PUSH0 DUP3 DUP3 SLOAD PUSH2 0x14F6 SWAP2 SWAP1 PUSH2 0x2213 JUMP JUMPDEST SWAP3 POP POP DUP2 SWAP1 SSTORE POP DUP5 PUSH20 0xFFFFFFFFFFFFFFFFFFFFFFFFFFFFFFFFFFFFFFFF AND CALLER PUSH20 0xFFFFFFFFFFFFFFFFFFFFFFFFFFFFFFFFFFFFFFFF AND PUSH32 0xDDF252AD1BE2C89B69C2B068FC378DAA952BA7F163C4A11628F55A4DF523B3EF DUP7 PUSH1 0x40 MLOAD PUSH2 0x155A SWAP2 SWAP1 PUSH2 0x1BC6 JUMP JUMPDEST PUSH1 0x40 MLOAD DUP1 SWAP2 SUB SWAP1 LOG3 PUSH1 0x5 PUSH0 SWAP1 SLOAD SWAP1 PUSH2 0x100 EXP SWAP1 DIV PUSH20 0xFFFFFFFFFFFFFFFFFFFFFFFFFFFFFFFFFFFFFFFF AND PUSH20 0xFFFFFFFFFFFFFFFFFFFFFFFFFFFFFFFFFFFFFFFF AND PUSH4 0xA9059CBB DUP7 DUP7 PUSH1 0x40 MLOAD DUP4 PUSH4 0xFFFFFFFF AND PUSH1 0xE0 SHL DUP2 MSTORE PUSH1 0x4 ADD PUSH2 0x15BE SWAP3 SWAP2 SWAP1 PUSH2 0x2246 JUMP JUMPDEST PUSH1 0x20 PUSH1 0x40 MLOAD DUP1 DUP4 SUB DUP2 PUSH0 DUP8 GAS CALL ISZERO DUP1 ISZERO PUSH2 0x15DA JUMPI RETURNDATASIZE PUSH0 DUP1 RETURNDATACOPY RETURNDATASIZE PUSH0 REVERT JUMPDEST POP POP POP POP PUSH1 0x40 MLOAD RETURNDATASIZE PUSH1 0x1F NOT PUSH1 0x1F DUP3 ADD AND DUP3 ADD DUP1 PUSH1 0x40 MSTORE POP DUP2 ADD SWAP1 PUSH2 0x15FE SWAP2 SWAP1 PUSH2 0x2297 JUMP JUMPDEST POP PUSH1 0x1 SWAP3 POP POP POP SWAP3 SWAP2 POP POP JUMP JUMPDEST PUSH0 PUSH1 0x5 PUSH0 SWAP1 SLOAD SWAP1 PUSH2 0x100 EXP SWAP1 DIV PUSH20 0xFFFFFFFFFFFFFFFFFFFFFFFFFFFFFFFFFFFFFFFF AND PUSH20 0xFFFFFFFFFFFFFFFFFFFFFFFFFFFFFFFFFFFFFFFF AND PUSH4 0xDD62ED3E DUP5 DUP5 PUSH1 0x40 MLOAD DUP4 PUSH4 0xFFFFFFFF AND PUSH1 0xE0 SHL DUP2 MSTORE PUSH1 0x4 ADD PUSH2 0x1668 SWAP3 SWAP2 SWAP1 PUSH2 0x246C JUMP JUMPDEST PUSH1 0x20 PUSH1 0x40 MLOAD DUP1 DUP4 SUB DUP2 DUP7 GAS STATICCALL ISZERO DUP1 ISZERO PUSH2 0x1683 JUMPI RETURNDATASIZE PUSH0 DUP1 RETURNDATACOPY RETURNDATASIZE PUSH0 REVERT JUMPDEST POP POP POP POP PUSH1 0x40 MLOAD RETURNDATASIZE PUSH1 0x1F NOT PUSH1 0x1F DUP3 ADD AND DUP3 ADD DUP1 PUSH1 0x40 MSTORE POP DUP2 ADD SWAP1 PUSH2 0x16A7 SWAP2 SWAP1 PUSH2 0x1FE6 JUMP JUMPDEST SWAP1 POP SWAP3 SWAP2 POP POP JUMP JUMPDEST PUSH1 0x6 DUP2 DUP1 MLOAD PUSH1 0x20 DUP2 ADD DUP3 ADD DUP1 MLOAD DUP5 DUP3 MSTORE PUSH1 0x20 DUP4 ADD PUSH1 0x20 DUP6 ADD KECCAK256 DUP2 DUP4 MSTORE DUP1 SWAP6 POP POP POP POP POP POP PUSH0 SWAP2 POP SWAP1 POP SLOAD DUP2 JUMP JUMPDEST PUSH0 DUP1 PUSH0 SWAP1 POP PUSH0 JUMPDEST PUSH1 0x8 DUP1 SLOAD SWAP1 POP DUP2 LT ISZERO PUSH2 0x1774 JUMPI PUSH1 0x8 DUP2 DUP2 SLOAD DUP2 LT PUSH2 0x1704 JUMPI PUSH2 0x1703 PUSH2 0x2530 JUMP JUMPDEST JUMPDEST SWAP1 PUSH0 MSTORE PUSH1 0x20 PUSH0 KECCAK256 ADD PUSH0 SWAP1 SLOAD SWAP1 PUSH2 0x100 EXP SWAP1 DIV PUSH20 0xFFFFFFFFFFFFFFFFFFFFFFFFFFFFFFFFFFFFFFFF AND PUSH20 0xFFFFFFFFFFFFFFFFFFFFFFFFFFFFFFFFFFFFFFFF AND CALLER PUSH20 0xFFFFFFFFFFFFFFFFFFFFFFFFFFFFFFFFFFFFFFFF AND SUB PUSH2 0x1767 JUMPI PUSH1 0x1 SWAP2 POP PUSH2 0x1774 JUMP JUMPDEST DUP1 DUP1 PUSH1 0x1 ADD SWAP2 POP POP PUSH2 0x16E3 JUMP JUMPDEST POP DUP1 PUSH2 0x17B5 JUMPI PUSH1 0x40 MLOAD PUSH32 0x8C379A000000000000000000000000000000000000000000000000000000000 DUP2 MSTORE PUSH1 0x4 ADD PUSH2 0x17AC SWAP1 PUSH2 0x25CD JUMP JUMPDEST PUSH1 0x40 MLOAD DUP1 SWAP2 SUB SWAP1 REVERT JUMPDEST PUSH0 PUSH20 0xFFFFFFFFFFFFFFFFFFFFFFFFFFFFFFFFFFFFFFFF AND DUP5 PUSH20 0xFFFFFFFFFFFFFFFFFFFFFFFFFFFFFFFFFFFFFFFF AND SUB PUSH2 0x1823 JUMPI PUSH1 0x40 MLOAD PUSH32 0x8C379A000000000000000000000000000000000000000000000000000000000 DUP2 MSTORE PUSH1 0x4 ADD PUSH2 0x181A SWAP1 PUSH2 0x2635 JUMP JUMPDEST PUSH1 0x40 MLOAD DUP1 SWAP2 SUB SWAP1 REVERT JUMPDEST PUSH0 PUSH1 0x5 PUSH0 SWAP1 SLOAD SWAP1 PUSH2 0x100 EXP SWAP1 DIV PUSH20 0xFFFFFFFFFFFFFFFFFFFFFFFFFFFFFFFFFFFFFFFF AND PUSH20 0xFFFFFFFFFFFFFFFFFFFFFFFFFFFFFFFFFFFFFFFF AND PUSH4 0x70A08231 ADDRESS PUSH1 0x40 MLOAD DUP3 PUSH4 0xFFFFFFFF AND PUSH1 0xE0 SHL DUP2 MSTORE PUSH1 0x4 ADD PUSH2 0x187E SWAP2 SWAP1 PUSH2 0x1B9E JUMP JUMPDEST PUSH1 0x20 PUSH1 0x40 MLOAD DUP1 DUP4 SUB DUP2 DUP7 GAS STATICCALL ISZERO DUP1 ISZERO PUSH2 0x1899 JUMPI RETURNDATASIZE PUSH0 DUP1 RETURNDATACOPY RETURNDATASIZE PUSH0 REVERT JUMPDEST POP POP POP POP PUSH1 0x40 MLOAD RETURNDATASIZE PUSH1 0x1F NOT PUSH1 0x1F DUP3 ADD AND DUP3 ADD DUP1 PUSH1 0x40 MSTORE POP DUP2 ADD SWAP1 PUSH2 0x18BD SWAP2 SWAP1 PUSH2 0x1FE6 JUMP JUMPDEST SWAP1 POP DUP4 DUP2 LT ISZERO PUSH2 0x1902 JUMPI PUSH1 0x40 MLOAD PUSH32 0x8C379A000000000000000000000000000000000000000000000000000000000 DUP2 MSTORE PUSH1 0x4 ADD PUSH2 0x18F9 SWAP1 PUSH2 0x21C8 JUMP JUMPDEST PUSH1 0x40 MLOAD DUP1 SWAP2 SUB SWAP1 REVERT JUMPDEST PUSH1 0x5 PUSH0 SWAP1 SLOAD SWAP1 PUSH2 0x100 EXP SWAP1 DIV PUSH20 0xFFFFFFFFFFFFFFFFFFFFFFFFFFFFFFFFFFFFFFFF AND PUSH20 0xFFFFFFFFFFFFFFFFFFFFFFFFFFFFFFFFFFFFFFFF AND PUSH4 0xA9059CBB DUP7 DUP7 PUSH1 0x40 MLOAD DUP4 PUSH4 0xFFFFFFFF AND PUSH1 0xE0 SHL DUP2 MSTORE PUSH1 0x4 ADD PUSH2 0x195E SWAP3 SWAP2 SWAP1 PUSH2 0x2246 JUMP JUMPDEST PUSH1 0x20 PUSH1 0x40 MLOAD DUP1 DUP4 SUB DUP2 PUSH0 DUP8 GAS CALL ISZERO DUP1 ISZERO PUSH2 0x197A JUMPI RETURNDATASIZE PUSH0 DUP1 RETURNDATACOPY RETURNDATASIZE PUSH0 REVERT JUMPDEST POP POP POP POP PUSH1 0x40 MLOAD RETURNDATASIZE PUSH1 0x1F NOT PUSH1 0x1F DUP3 ADD AND DUP3 ADD DUP1 PUSH1 0x40 MSTORE POP DUP2 ADD SWAP1 PUSH2 0x199E SWAP2 SWAP1 PUSH2 0x2297 JUMP JUMPDEST POP PUSH1 0x1 SWAP3 POP POP POP SWAP3 SWAP2 POP POP JUMP JUMPDEST PUSH0 DUP2 MLOAD SWAP1 POP SWAP2 SWAP1 POP JUMP JUMPDEST PUSH0 DUP3 DUP3 MSTORE PUSH1 0x20 DUP3 ADD SWAP1 POP SWAP3 SWAP2 POP POP JUMP JUMPDEST PUSH0 JUMPDEST DUP4 DUP2 LT ISZERO PUSH2 0x19E2 JUMPI DUP1 DUP3 ADD MLOAD DUP2 DUP5 ADD MSTORE PUSH1 0x20 DUP2 ADD SWAP1 POP PUSH2 0x19C7 JUMP JUMPDEST PUSH0 DUP5 DUP5 ADD MSTORE POP POP POP POP JUMP JUMPDEST PUSH0 PUSH1 0x1F NOT PUSH1 0x1F DUP4 ADD AND SWAP1 POP SWAP2 SWAP1 POP JUMP JUMPDEST PUSH0 PUSH2 0x1A07 DUP3 PUSH2 0x19AB JUMP JUMPDEST PUSH2 0x1A11 DUP2 DUP6 PUSH2 0x19B5 JUMP JUMPDEST SWAP4 POP PUSH2 0x1A21 DUP2 DUP6 PUSH1 0x20 DUP7 ADD PUSH2 0x19C5 JUMP JUMPDEST PUSH2 0x1A2A DUP2 PUSH2 0x19ED JUMP JUMPDEST DUP5 ADD SWAP2 POP POP SWAP3 SWAP2 POP POP JUMP JUMPDEST PUSH0 PUSH1 0x20 DUP3 ADD SWAP1 POP DUP2 DUP2 SUB PUSH0 DUP4 ADD MSTORE PUSH2 0x1A4D DUP2 DUP5 PUSH2 0x19FD JUMP JUMPDEST SWAP1 POP SWAP3 SWAP2 POP POP JUMP JUMPDEST PUSH0 PUSH1 0x40 MLOAD SWAP1 POP SWAP1 JUMP JUMPDEST PUSH0 DUP1 REVERT JUMPDEST PUSH0 DUP1 REVERT JUMPDEST PUSH0 PUSH20 0xFFFFFFFFFFFFFFFFFFFFFFFFFFFFFFFFFFFFFFFF DUP3 AND SWAP1 POP SWAP2 SWAP1 POP JUMP JUMPDEST PUSH0 PUSH2 0x1A8F DUP3 PUSH2 0x1A66 JUMP JUMPDEST SWAP1 POP SWAP2 SWAP1 POP JUMP JUMPDEST PUSH2 0x1A9F DUP2 PUSH2 0x1A85 JUMP JUMPDEST DUP2 EQ PUSH2 0x1AA9 JUMPI PUSH0 DUP1 REVERT JUMPDEST POP JUMP JUMPDEST PUSH0 DUP2 CALLDATALOAD SWAP1 POP PUSH2 0x1ABA DUP2 PUSH2 0x1A96 JUMP JUMPDEST SWAP3 SWAP2 POP POP JUMP JUMPDEST PUSH0 DUP2 SWAP1 POP SWAP2 SWAP1 POP JUMP JUMPDEST PUSH2 0x1AD2 DUP2 PUSH2 0x1AC0 JUMP JUMPDEST DUP2 EQ PUSH2 0x1ADC JUMPI PUSH0 DUP1 REVERT JUMPDEST POP JUMP JUMPDEST PUSH0 DUP2 CALLDATALOAD SWAP1 POP PUSH2 0x1AED DUP2 PUSH2 0x1AC9 JUMP JUMPDEST SWAP3 SWAP2 POP POP JUMP JUMPDEST PUSH0 DUP1 PUSH1 0x40 DUP4 DUP6 SUB SLT ISZERO PUSH2 0x1B09 JUMPI PUSH2 0x1B08 PUSH2 0x1A5E JUMP JUMPDEST JUMPDEST PUSH0 PUSH2 0x1B16 DUP6 DUP3 DUP7 ADD PUSH2 0x1AAC JUMP JUMPDEST SWAP3 POP POP PUSH1 0x20 PUSH2 0x1B27 DUP6 DUP3 DUP7 ADD PUSH2 0x1ADF JUMP JUMPDEST SWAP2 POP POP SWAP3 POP SWAP3 SWAP1 POP JUMP JUMPDEST PUSH0 DUP2 ISZERO ISZERO SWAP1 POP SWAP2 SWAP1 POP JUMP JUMPDEST PUSH2 0x1B45 DUP2 PUSH2 0x1B31 JUMP JUMPDEST DUP3 MSTORE POP POP JUMP JUMPDEST PUSH0 PUSH1 0x20 DUP3 ADD SWAP1 POP PUSH2 0x1B5E PUSH0 DUP4 ADD DUP5 PUSH2 0x1B3C JUMP JUMPDEST SWAP3 SWAP2 POP POP JUMP JUMPDEST PUSH0 PUSH1 0x20 DUP3 DUP5 SUB SLT ISZERO PUSH2 0x1B79 JUMPI PUSH2 0x1B78 PUSH2 0x1A5E JUMP JUMPDEST JUMPDEST PUSH0 PUSH2 0x1B86 DUP5 DUP3 DUP6 ADD PUSH2 0x1ADF JUMP JUMPDEST SWAP2 POP POP SWAP3 SWAP2 POP POP JUMP JUMPDEST PUSH2 0x1B98 DUP2 PUSH2 0x1A85 JUMP JUMPDEST DUP3 MSTORE POP POP JUMP JUMPDEST PUSH0 PUSH1 0x20 DUP3 ADD SWAP1 POP PUSH2 0x1BB1 PUSH0 DUP4 ADD DUP5 PUSH2 0x1B8F JUMP JUMPDEST SWAP3 SWAP2 POP POP JUMP JUMPDEST PUSH2 0x1BC0 DUP2 PUSH2 0x1AC0 JUMP JUMPDEST DUP3 MSTORE POP POP JUMP JUMPDEST PUSH0 PUSH1 0x20 DUP3 ADD SWAP1 POP PUSH2 0x1BD9 PUSH0 DUP4 ADD DUP5 PUSH2 0x1BB7 JUMP JUMPDEST SWAP3 SWAP2 POP POP JUMP JUMPDEST PUSH0 DUP1 PUSH0 PUSH1 0x60 DUP5 DUP7 SUB SLT ISZERO PUSH2 0x1BF6 JUMPI PUSH2 0x1BF5 PUSH2 0x1A5E JUMP JUMPDEST JUMPDEST PUSH0 PUSH2 0x1C03 DUP7 DUP3 DUP8 ADD PUSH2 0x1AAC JUMP JUMPDEST SWAP4 POP POP PUSH1 0x20 PUSH2 0x1C14 DUP7 DUP3 DUP8 ADD PUSH2 0x1AAC JUMP JUMPDEST SWAP3 POP POP PUSH1 0x40 PUSH2 0x1C25 DUP7 DUP3 DUP8 ADD PUSH2 0x1ADF JUMP JUMPDEST SWAP2 POP POP SWAP3 POP SWAP3 POP SWAP3 JUMP JUMPDEST PUSH0 PUSH1 0xFF DUP3 AND SWAP1 POP SWAP2 SWAP1 POP JUMP JUMPDEST PUSH2 0x1C44 DUP2 PUSH2 0x1C2F JUMP JUMPDEST DUP3 MSTORE POP POP JUMP JUMPDEST PUSH0 PUSH1 0x20 DUP3 ADD SWAP1 POP PUSH2 0x1C5D PUSH0 DUP4 ADD DUP5 PUSH2 0x1C3B JUMP JUMPDEST SWAP3 SWAP2 POP POP JUMP JUMPDEST PUSH0 DUP2 SWAP1 POP SWAP2 SWAP1 POP JUMP JUMPDEST PUSH0 PUSH2 0x1C86 PUSH2 0x1C81 PUSH2 0x1C7C DUP5 PUSH2 0x1A66 JUMP JUMPDEST PUSH2 0x1C63 JUMP JUMPDEST PUSH2 0x1A66 JUMP JUMPDEST SWAP1 POP SWAP2 SWAP1 POP JUMP JUMPDEST PUSH0 PUSH2 0x1C97 DUP3 PUSH2 0x1C6C JUMP JUMPDEST SWAP1 POP SWAP2 SWAP1 POP JUMP JUMPDEST PUSH0 PUSH2 0x1CA8 DUP3 PUSH2 0x1C8D JUMP JUMPDEST SWAP1 POP SWAP2 SWAP1 POP JUMP JUMPDEST PUSH2 0x1CB8 DUP2 PUSH2 0x1C9E JUMP JUMPDEST DUP3 MSTORE POP POP JUMP JUMPDEST PUSH0 PUSH1 0x20 DUP3 ADD SWAP1 POP PUSH2 0x1CD1 PUSH0 DUP4 ADD DUP5 PUSH2 0x1CAF JUMP JUMPDEST SWAP3 SWAP2 POP POP JUMP JUMPDEST PUSH0 DUP1 REVERT JUMPDEST PUSH0 DUP1 REVERT JUMPDEST PUSH32 0x4E487B7100000000000000000000000000000000000000000000000000000000 PUSH0 MSTORE PUSH1 0x41 PUSH1 0x4 MSTORE PUSH1 0x24 PUSH0 REVERT JUMPDEST PUSH2 0x1D15 DUP3 PUSH2 0x19ED JUMP JUMPDEST DUP2 ADD DUP2 DUP2 LT PUSH8 0xFFFFFFFFFFFFFFFF DUP3 GT OR ISZERO PUSH2 0x1D34 JUMPI PUSH2 0x1D33 PUSH2 0x1CDF JUMP JUMPDEST JUMPDEST DUP1 PUSH1 0x40 MSTORE POP POP POP JUMP JUMPDEST PUSH0 PUSH2 0x1D46 PUSH2 0x1A55 JUMP JUMPDEST SWAP1 POP PUSH2 0x1D52 DUP3 DUP3 PUSH2 0x1D0C JUMP JUMPDEST SWAP2 SWAP1 POP JUMP JUMPDEST PUSH0 PUSH8 0xFFFFFFFFFFFFFFFF DUP3 GT ISZERO PUSH2 0x1D71 JUMPI PUSH2 0x1D70 PUSH2 0x1CDF JUMP JUMPDEST JUMPDEST PUSH2 0x1D7A DUP3 PUSH2 0x19ED JUMP JUMPDEST SWAP1 POP PUSH1 0x20 DUP2 ADD SWAP1 POP SWAP2 SWAP1 POP JUMP JUMPDEST DUP3 DUP2 DUP4 CALLDATACOPY PUSH0 DUP4 DUP4 ADD MSTORE POP POP POP JUMP JUMPDEST PUSH0 PUSH2 0x1DA7 PUSH2 0x1DA2 DUP5 PUSH2 0x1D57 JUMP JUMPDEST PUSH2 0x1D3D JUMP JUMPDEST SWAP1 POP DUP3 DUP2 MSTORE PUSH1 0x20 DUP2 ADD DUP5 DUP5 DUP5 ADD GT ISZERO PUSH2 0x1DC3 JUMPI PUSH2 0x1DC2 PUSH2 0x1CDB JUMP JUMPDEST JUMPDEST PUSH2 0x1DCE DUP5 DUP3 DUP6 PUSH2 0x1D87 JUMP JUMPDEST POP SWAP4 SWAP3 POP POP POP JUMP JUMPDEST PUSH0 DUP3 PUSH1 0x1F DUP4 ADD SLT PUSH2 0x1DEA JUMPI PUSH2 0x1DE9 PUSH2 0x1CD7 JUMP JUMPDEST JUMPDEST DUP2 CALLDATALOAD PUSH2 0x1DFA DUP5 DUP3 PUSH1 0x20 DUP7 ADD PUSH2 0x1D95 JUMP JUMPDEST SWAP2 POP POP SWAP3 SWAP2 POP POP JUMP JUMPDEST PUSH0 DUP1 PUSH1 0x40 DUP4 DUP6 SUB SLT ISZERO PUSH2 0x1E19 JUMPI PUSH2 0x1E18 PUSH2 0x1A5E JUMP JUMPDEST JUMPDEST PUSH0 DUP4 ADD CALLDATALOAD PUSH8 0xFFFFFFFFFFFFFFFF DUP2 GT ISZERO PUSH2 0x1E36 JUMPI PUSH2 0x1E35 PUSH2 0x1A62 JUMP JUMPDEST JUMPDEST PUSH2 0x1E42 DUP6 DUP3 DUP7 ADD PUSH2 0x1DD6 JUMP JUMPDEST SWAP3 POP POP PUSH1 0x20 PUSH2 0x1E53 DUP6 DUP3 DUP7 ADD PUSH2 0x1ADF JUMP JUMPDEST SWAP2 POP POP SWAP3 POP SWAP3 SWAP1 POP JUMP JUMPDEST PUSH0 PUSH1 0x20 DUP3 DUP5 SUB SLT ISZERO PUSH2 0x1E72 JUMPI PUSH2 0x1E71 PUSH2 0x1A5E JUMP JUMPDEST JUMPDEST PUSH0 PUSH2 0x1E7F DUP5 DUP3 DUP6 ADD PUSH2 0x1AAC JUMP JUMPDEST SWAP2 POP POP SWAP3 SWAP2 POP POP JUMP JUMPDEST PUSH0 PUSH1 0x20 DUP3 DUP5 SUB SLT ISZERO PUSH2 0x1E9D JUMPI PUSH2 0x1E9C PUSH2 0x1A5E JUMP JUMPDEST JUMPDEST PUSH0 DUP3 ADD CALLDATALOAD PUSH8 0xFFFFFFFFFFFFFFFF DUP2 GT ISZERO PUSH2 0x1EBA JUMPI PUSH2 0x1EB9 PUSH2 0x1A62 JUMP JUMPDEST JUMPDEST PUSH2 0x1EC6 DUP5 DUP3 DUP6 ADD PUSH2 0x1DD6 JUMP JUMPDEST SWAP2 POP POP SWAP3 SWAP2 POP POP JUMP JUMPDEST PUSH0 DUP1 PUSH1 0x40 DUP4 DUP6 SUB SLT ISZERO PUSH2 0x1EE5 JUMPI PUSH2 0x1EE4 PUSH2 0x1A5E JUMP JUMPDEST JUMPDEST PUSH0 PUSH2 0x1EF2 DUP6 DUP3 DUP7 ADD PUSH2 0x1AAC JUMP JUMPDEST SWAP3 POP POP PUSH1 0x20 PUSH2 0x1F03 DUP6 DUP3 DUP7 ADD PUSH2 0x1AAC JUMP JUMPDEST SWAP2 POP POP SWAP3 POP SWAP3 SWAP1 POP JUMP JUMPDEST PUSH32 0x4E487B7100000000000000000000000000000000000000000000000000000000 PUSH0 MSTORE PUSH1 0x22 PUSH1 0x4 MSTORE PUSH1 0x24 PUSH0 REVERT JUMPDEST PUSH0 PUSH1 0x2 DUP3 DIV SWAP1 POP PUSH1 0x1 DUP3 AND DUP1 PUSH2 0x1F51 JUMPI PUSH1 0x7F DUP3 AND SWAP2 POP JUMPDEST PUSH1 0x20 DUP3 LT DUP2 SUB PUSH2 0x1F64 JUMPI PUSH2 0x1F63 PUSH2 0x1F0D JUMP JUMPDEST JUMPDEST POP SWAP2 SWAP1 POP JUMP JUMPDEST PUSH32 0x417070726F76652066756E6374696F6E2069732064697361626C656400000000 PUSH0 DUP3 ADD MSTORE POP JUMP JUMPDEST PUSH0 PUSH2 0x1F9E PUSH1 0x1C DUP4 PUSH2 0x19B5 JUMP JUMPDEST SWAP2 POP PUSH2 0x1FA9 DUP3 PUSH2 0x1F6A JUMP JUMPDEST PUSH1 0x20 DUP3 ADD SWAP1 POP SWAP2 SWAP1 POP JUMP JUMPDEST PUSH0 PUSH1 0x20 DUP3 ADD SWAP1 POP DUP2 DUP2 SUB PUSH0 DUP4 ADD MSTORE PUSH2 0x1FCB DUP2 PUSH2 0x1F92 JUMP JUMPDEST SWAP1 POP SWAP2 SWAP1 POP JUMP JUMPDEST PUSH0 DUP2 MLOAD SWAP1 POP PUSH2 0x1FE0 DUP2 PUSH2 0x1AC9 JUMP JUMPDEST SWAP3 SWAP2 POP POP JUMP JUMPDEST PUSH0 PUSH1 0x20 DUP3 DUP5 SUB SLT ISZERO PUSH2 0x1FFB JUMPI PUSH2 0x1FFA PUSH2 0x1A5E JUMP JUMPDEST JUMPDEST PUSH0 PUSH2 0x2008 DUP5 DUP3 DUP6 ADD PUSH2 0x1FD2 JUMP JUMPDEST SWAP2 POP POP SWAP3 SWAP2 POP POP JUMP JUMPDEST PUSH32 0x5472616E7366657220746F207A65726F20616464726573730000000000000000 PUSH0 DUP3 ADD MSTORE POP JUMP JUMPDEST PUSH0 PUSH2 0x2045 PUSH1 0x18 DUP4 PUSH2 0x19B5 JUMP JUMPDEST SWAP2 POP PUSH2 0x2050 DUP3 PUSH2 0x2011 JUMP JUMPDEST PUSH1 0x20 DUP3 ADD SWAP1 POP SWAP2 SWAP1 POP JUMP JUMPDEST PUSH0 PUSH1 0x20 DUP3 ADD SWAP1 POP DUP2 DUP2 SUB PUSH0 DUP4 ADD MSTORE PUSH2 0x2072 DUP2 PUSH2 0x2039 JUMP JUMPDEST SWAP1 POP SWAP2 SWAP1 POP JUMP JUMPDEST PUSH0 PUSH2 0x208B PUSH2 0x2086 DUP5 PUSH2 0x1D57 JUMP JUMPDEST PUSH2 0x1D3D JUMP JUMPDEST SWAP1 POP DUP3 DUP2 MSTORE PUSH1 0x20 DUP2 ADD DUP5 DUP5 DUP5 ADD GT ISZERO PUSH2 0x20A7 JUMPI PUSH2 0x20A6 PUSH2 0x1CDB JUMP JUMPDEST JUMPDEST PUSH2 0x20B2 DUP5 DUP3 DUP6 PUSH2 0x19C5 JUMP JUMPDEST POP SWAP4 SWAP3 POP POP POP JUMP JUMPDEST PUSH0 DUP3 PUSH1 0x1F DUP4 ADD SLT PUSH2 0x20CE JUMPI PUSH2 0x20CD PUSH2 0x1CD7 JUMP JUMPDEST JUMPDEST DUP2 MLOAD PUSH2 0x20DE DUP5 DUP3 PUSH1 0x20 DUP7 ADD PUSH2 0x2079 JUMP JUMPDEST SWAP2 POP POP SWAP3 SWAP2 POP POP JUMP JUMPDEST PUSH0 PUSH1 0x20 DUP3 DUP5 SUB SLT ISZERO PUSH2 0x20FC JUMPI PUSH2 0x20FB PUSH2 0x1A5E JUMP JUMPDEST JUMPDEST PUSH0 DUP3 ADD MLOAD PUSH8 0xFFFFFFFFFFFFFFFF DUP2 GT ISZERO PUSH2 0x2119 JUMPI PUSH2 0x2118 PUSH2 0x1A62 JUMP JUMPDEST JUMPDEST PUSH2 0x2125 DUP5 DUP3 DUP6 ADD PUSH2 0x20BA JUMP JUMPDEST SWAP2 POP POP SWAP3 SWAP2 POP POP JUMP JUMPDEST PUSH0 DUP2 SWAP1 POP SWAP3 SWAP2 POP POP JUMP JUMPDEST PUSH0 PUSH2 0x2142 DUP3 PUSH2 0x19AB JUMP JUMPDEST PUSH2 0x214C DUP2 DUP6 PUSH2 0x212E JUMP JUMPDEST SWAP4 POP PUSH2 0x215C DUP2 DUP6 PUSH1 0x20 DUP7 ADD PUSH2 0x19C5 JUMP JUMPDEST DUP1 DUP5 ADD SWAP2 POP POP SWAP3 SWAP2 POP POP JUMP JUMPDEST PUSH0 PUSH2 0x2173 DUP3 DUP5 PUSH2 0x2138 JUMP JUMPDEST SWAP2 POP DUP2 SWAP1 POP SWAP3 SWAP2 POP POP JUMP JUMPDEST PUSH32 0x4E6F7420656E6F7567682062616C616E63650000000000000000000000000000 PUSH0 DUP3 ADD MSTORE POP JUMP JUMPDEST PUSH0 PUSH2 0x21B2 PUSH1 0x12 DUP4 PUSH2 0x19B5 JUMP JUMPDEST SWAP2 POP PUSH2 0x21BD DUP3 PUSH2 0x217E JUMP JUMPDEST PUSH1 0x20 DUP3 ADD SWAP1 POP SWAP2 SWAP1 POP JUMP JUMPDEST PUSH0 PUSH1 0x20 DUP3 ADD SWAP1 POP DUP2 DUP2 SUB PUSH0 DUP4 ADD MSTORE PUSH2 0x21DF DUP2 PUSH2 0x21A6 JUMP JUMPDEST SWAP1 POP SWAP2 SWAP1 POP JUMP JUMPDEST PUSH32 0x4E487B7100000000000000000000000000000000000000000000000000000000 PUSH0 MSTORE PUSH1 0x11 PUSH1 0x4 MSTORE PUSH1 0x24 PUSH0 REVERT JUMPDEST PUSH0 PUSH2 0x221D DUP3 PUSH2 0x1AC0 JUMP JUMPDEST SWAP2 POP PUSH2 0x2228 DUP4 PUSH2 0x1AC0 JUMP JUMPDEST SWAP3 POP DUP3 DUP3 SUB SWAP1 POP DUP2 DUP2 GT ISZERO PUSH2 0x2240 JUMPI PUSH2 0x223F PUSH2 0x21E6 JUMP JUMPDEST JUMPDEST SWAP3 SWAP2 POP POP JUMP JUMPDEST PUSH0 PUSH1 0x40 DUP3 ADD SWAP1 POP PUSH2 0x2259 PUSH0 DUP4 ADD DUP6 PUSH2 0x1B8F JUMP JUMPDEST PUSH2 0x2266 PUSH1 0x20 DUP4 ADD DUP5 PUSH2 0x1BB7 JUMP JUMPDEST SWAP4 SWAP3 POP POP POP JUMP JUMPDEST PUSH2 0x2276 DUP2 PUSH2 0x1B31 JUMP JUMPDEST DUP2 EQ PUSH2 0x2280 JUMPI PUSH0 DUP1 REVERT JUMPDEST POP JUMP JUMPDEST PUSH0 DUP2 MLOAD SWAP1 POP PUSH2 0x2291 DUP2 PUSH2 0x226D JUMP JUMPDEST SWAP3 SWAP2 POP POP JUMP JUMPDEST PUSH0 PUSH1 0x20 DUP3 DUP5 SUB SLT ISZERO PUSH2 0x22AC JUMPI PUSH2 0x22AB PUSH2 0x1A5E JUMP JUMPDEST JUMPDEST PUSH0 PUSH2 0x22B9 DUP5 DUP3 DUP6 ADD PUSH2 0x2283 JUMP JUMPDEST SWAP2 POP POP SWAP3 SWAP2 POP POP JUMP JUMPDEST PUSH32 0x55454E20646F6573206E6F742065786973740000000000000000000000000000 PUSH0 DUP3 ADD MSTORE POP JUMP JUMPDEST PUSH0 PUSH2 0x22F6 PUSH1 0x12 DUP4 PUSH2 0x19B5 JUMP JUMPDEST SWAP2 POP PUSH2 0x2301 DUP3 PUSH2 0x22C2 JUMP JUMPDEST PUSH1 0x20 DUP3 ADD SWAP1 POP SWAP2 SWAP1 POP JUMP JUMPDEST PUSH0 PUSH1 0x20 DUP3 ADD SWAP1 POP DUP2 DUP2 SUB PUSH0 DUP4 ADD MSTORE PUSH2 0x2323 DUP2 PUSH2 0x22EA JUMP JUMPDEST SWAP1 POP SWAP2 SWAP1 POP JUMP JUMPDEST PUSH32 0x55454E2074617267657420697320656D70747900000000000000000000000000 PUSH0 DUP3 ADD MSTORE POP JUMP JUMPDEST PUSH0 PUSH2 0x235E PUSH1 0x13 DUP4 PUSH2 0x19B5 JUMP JUMPDEST SWAP2 POP PUSH2 0x2369 DUP3 PUSH2 0x232A JUMP JUMPDEST PUSH1 0x20 DUP3 ADD SWAP1 POP SWAP2 SWAP1 POP JUMP JUMPDEST PUSH0 PUSH1 0x20 DUP3 ADD SWAP1 POP DUP2 DUP2 SUB PUSH0 DUP4 ADD MSTORE PUSH2 0x238B DUP2 PUSH2 0x2352 JUMP JUMPDEST SWAP1 POP SWAP2 SWAP1 POP JUMP JUMPDEST PUSH0 PUSH2 0x239C DUP3 PUSH2 0x1AC0 JUMP JUMPDEST SWAP2 POP PUSH2 0x23A7 DUP4 PUSH2 0x1AC0 JUMP JUMPDEST SWAP3 POP DUP3 DUP3 ADD SWAP1 POP DUP1 DUP3 GT ISZERO PUSH2 0x23BF JUMPI PUSH2 0x23BE PUSH2 0x21E6 JUMP JUMPDEST JUMPDEST SWAP3 SWAP2 POP POP JUMP JUMPDEST PUSH0 DUP2 MLOAD SWAP1 POP PUSH2 0x23D3 DUP2 PUSH2 0x1A96 JUMP JUMPDEST SWAP3 SWAP2 POP POP JUMP JUMPDEST PUSH0 PUSH1 0x20 DUP3 DUP5 SUB SLT ISZERO PUSH2 0x23EE JUMPI PUSH2 0x23ED PUSH2 0x1A5E JUMP JUMPDEST JUMPDEST PUSH0 PUSH2 0x23FB DUP5 DUP3 DUP6 ADD PUSH2 0x23C5 JUMP JUMPDEST SWAP2 POP POP SWAP3 SWAP2 POP POP JUMP JUMPDEST PUSH32 0x55454E20697320656D7074790000000000000000000000000000000000000000 PUSH0 DUP3 ADD MSTORE POP JUMP JUMPDEST PUSH0 PUSH2 0x2438 PUSH1 0xC DUP4 PUSH2 0x19B5 JUMP JUMPDEST SWAP2 POP PUSH2 0x2443 DUP3 PUSH2 0x2404 JUMP JUMPDEST PUSH1 0x20 DUP3 ADD SWAP1 POP SWAP2 SWAP1 POP JUMP JUMPDEST PUSH0 PUSH1 0x20 DUP3 ADD SWAP1 POP DUP2 DUP2 SUB PUSH0 DUP4 ADD MSTORE PUSH2 0x2465 DUP2 PUSH2 0x242C JUMP JUMPDEST SWAP1 POP SWAP2 SWAP1 POP JUMP JUMPDEST PUSH0 PUSH1 0x40 DUP3 ADD SWAP1 POP PUSH2 0x247F PUSH0 DUP4 ADD DUP6 PUSH2 0x1B8F JUMP JUMPDEST PUSH2 0x248C PUSH1 0x20 DUP4 ADD DUP5 PUSH2 0x1B8F JUMP JUMPDEST SWAP4 SWAP3 POP POP POP JUMP JUMPDEST PUSH32 0x496E6372656173652074686520616C6C6F77616E636500000000000000000000 PUSH0 DUP3 ADD MSTORE POP JUMP JUMPDEST PUSH0 PUSH2 0x24C7 PUSH1 0x16 DUP4 PUSH2 0x19B5 JUMP JUMPDEST SWAP2 POP PUSH2 0x24D2 DUP3 PUSH2 0x2493 JUMP JUMPDEST PUSH1 0x20 DUP3 ADD SWAP1 POP SWAP2 SWAP1 POP JUMP JUMPDEST PUSH0 PUSH1 0x20 DUP3 ADD SWAP1 POP DUP2 DUP2 SUB PUSH0 DUP4 ADD MSTORE PUSH2 0x24F4 DUP2 PUSH2 0x24BB JUMP JUMPDEST SWAP1 POP SWAP2 SWAP1 POP JUMP JUMPDEST PUSH0 PUSH1 0x60 DUP3 ADD SWAP1 POP PUSH2 0x250E PUSH0 DUP4 ADD DUP7 PUSH2 0x1B8F JUMP JUMPDEST PUSH2 0x251B PUSH1 0x20 DUP4 ADD DUP6 PUSH2 0x1B8F JUMP JUMPDEST PUSH2 0x2528 PUSH1 0x40 DUP4 ADD DUP5 PUSH2 0x1BB7 JUMP JUMPDEST SWAP5 SWAP4 POP POP POP POP JUMP JUMPDEST PUSH32 0x4E487B7100000000000000000000000000000000000000000000000000000000 PUSH0 MSTORE PUSH1 0x32 PUSH1 0x4 MSTORE PUSH1 0x24 PUSH0 REVERT JUMPDEST PUSH32 0x4F6E6C792061646D696E732063616E2063616C6C20746869732066756E637469 PUSH0 DUP3 ADD MSTORE PUSH32 0x6F6E000000000000000000000000000000000000000000000000000000000000 PUSH1 0x20 DUP3 ADD MSTORE POP JUMP JUMPDEST PUSH0 PUSH2 0x25B7 PUSH1 0x22 DUP4 PUSH2 0x19B5 JUMP JUMPDEST SWAP2 POP PUSH2 0x25C2 DUP3 PUSH2 0x255D JUMP JUMPDEST PUSH1 0x40 DUP3 ADD SWAP1 POP SWAP2 SWAP1 POP JUMP JUMPDEST PUSH0 PUSH1 0x20 DUP3 ADD SWAP1 POP DUP2 DUP2 SUB PUSH0 DUP4 ADD MSTORE PUSH2 0x25E4 DUP2 PUSH2 0x25AB JUMP JUMPDEST SWAP1 POP SWAP2 SWAP1 POP JUMP JUMPDEST PUSH32 0x576974686472617720746F20746865207A65726F206164647265737300000000 PUSH0 DUP3 ADD MSTORE POP JUMP JUMPDEST PUSH0 PUSH2 0x261F PUSH1 0x1C DUP4 PUSH2 0x19B5 JUMP JUMPDEST SWAP2 POP PUSH2 0x262A DUP3 PUSH2 0x25EB JUMP JUMPDEST PUSH1 0x20 DUP3 ADD SWAP1 POP SWAP2 SWAP1 POP JUMP JUMPDEST PUSH0 PUSH1 0x20 DUP3 ADD SWAP1 POP DUP2 DUP2 SUB PUSH0 DUP4 ADD MSTORE PUSH2 0x264C DUP2 PUSH2 0x2613 JUMP JUMPDEST SWAP1 POP SWAP2 SWAP1 POP JUMP INVALID LOG2 PUSH5 0x6970667358 0x22 SLT KECCAK256 0xD1 PUSH26 0x28AAB9C41D5BD9A152649440F5DEE548D2787E5A3E2B82988608 PUSH28 0x9711BA64736F6C634300081600330000000000000000000000000000 "
				},
				"gasEstimates": {
					"creation": {
						"codeDepositCost": "1973000",
						"executionCost": "infinite",
						"totalCost": "infinite"
					},
					"external": {
						"admin_withdraw(address,uint256)": "infinite",
						"admins(uint256)": "5012",
						"allowance(address,address)": "infinite",
						"approve(address,uint256)": "949",
						"balanceOf(address)": "infinite",
						"balance_of_uen(string)": "infinite",
						"check_whitelist()": "infinite",
						"decimals()": "383",
						"get_name(string)": "infinite",
						"name()": "infinite",
						"send_token_to_uen(string,uint256)": "infinite",
						"symbol()": "infinite",
						"targetToken()": "infinite",
						"token_address()": "2560",
						"totalSupply()": "infinite",
						"transfer(address,uint256)": "infinite",
						"transferFrom(address,address,uint256)": "infinite",
						"uen_send(string,uint256)": "infinite",
						"uen_to_balance(string)": "infinite"
					}
				},
				"methodIdentifiers": {
					"admin_withdraw(address,uint256)": "fa863d30",
					"admins(uint256)": "14bfd6d0",
					"allowance(address,address)": "dd62ed3e",
					"approve(address,uint256)": "095ea7b3",
					"balanceOf(address)": "70a08231",
					"balance_of_uen(string)": "90f31f3b",
					"check_whitelist()": "a3e5b0b2",
					"decimals()": "313ce567",
					"get_name(string)": "a8f5d7a6",
					"name()": "06fdde03",
					"send_token_to_uen(string,uint256)": "5ab16b26",
					"symbol()": "95d89b41",
					"targetToken()": "327107f7",
					"token_address()": "8c8e8fee",
					"totalSupply()": "18160ddd",
					"transfer(address,uint256)": "a9059cbb",
					"transferFrom(address,address,uint256)": "23b872dd",
					"uen_send(string,uint256)": "332656fd",
					"uen_to_balance(string)": "f22fbdd7"
				}
			},
			"storageLayout": {
				"storage": [
					{
						"astId": 159,
						"contract": "sgdm.sol:sgdm",
						"label": "_balances",
						"offset": 0,
						"slot": "0",
						"type": "t_mapping(t_address,t_uint256)"
					},
					{
						"astId": 165,
						"contract": "sgdm.sol:sgdm",
						"label": "_allowances",
						"offset": 0,
						"slot": "1",
						"type": "t_mapping(t_address,t_mapping(t_address,t_uint256))"
					},
					{
						"astId": 167,
						"contract": "sgdm.sol:sgdm",
						"label": "_totalSupply",
						"offset": 0,
						"slot": "2",
						"type": "t_uint256"
					},
					{
						"astId": 169,
						"contract": "sgdm.sol:sgdm",
						"label": "_name",
						"offset": 0,
						"slot": "3",
						"type": "t_string_storage"
					},
					{
						"astId": 171,
						"contract": "sgdm.sol:sgdm",
						"label": "_symbol",
						"offset": 0,
						"slot": "4",
						"type": "t_string_storage"
					},
					{
						"astId": 830,
						"contract": "sgdm.sol:sgdm",
						"label": "targetToken",
						"offset": 0,
						"slot": "5",
						"type": "t_contract(IERC20)729"
					},
					{
						"astId": 834,
						"contract": "sgdm.sol:sgdm",
						"label": "uen_to_balance",
						"offset": 0,
						"slot": "6",
						"type": "t_mapping(t_string_memory_ptr,t_uint256)"
					},
					{
						"astId": 837,
						"contract": "sgdm.sol:sgdm",
						"label": "admin_management_contract",
						"offset": 0,
						"slot": "7",
						"type": "t_contract(Iadmin_management)825"
					},
					{
						"astId": 840,
						"contract": "sgdm.sol:sgdm",
						"label": "admins",
						"offset": 0,
						"slot": "8",
						"type": "t_array(t_address)dyn_storage"
					},
					{
						"astId": 843,
						"contract": "sgdm.sol:sgdm",
						"label": "uen_management_contract",
						"offset": 0,
						"slot": "9",
						"type": "t_contract(Iuen_management)818"
					},
					{
						"astId": 846,
						"contract": "sgdm.sol:sgdm",
						"label": "whitelist_contract",
						"offset": 0,
						"slot": "10",
						"type": "t_contract(Iwhitelist)804"
					}
				],
				"types": {
					"t_address": {
						"encoding": "inplace",
						"label": "address",
						"numberOfBytes": "20"
					},
					"t_array(t_address)dyn_storage": {
						"base": "t_address",
						"encoding": "dynamic_array",
						"label": "address[]",
						"numberOfBytes": "32"
					},
					"t_contract(IERC20)729": {
						"encoding": "inplace",
						"label": "contract IERC20",
						"numberOfBytes": "20"
					},
					"t_contract(Iadmin_management)825": {
						"encoding": "inplace",
						"label": "contract Iadmin_management",
						"numberOfBytes": "20"
					},
					"t_contract(Iuen_management)818": {
						"encoding": "inplace",
						"label": "contract Iuen_management",
						"numberOfBytes": "20"
					},
					"t_contract(Iwhitelist)804": {
						"encoding": "inplace",
						"label": "contract Iwhitelist",
						"numberOfBytes": "20"
					},
					"t_mapping(t_address,t_mapping(t_address,t_uint256))": {
						"encoding": "mapping",
						"key": "t_address",
						"label": "mapping(address => mapping(address => uint256))",
						"numberOfBytes": "32",
						"value": "t_mapping(t_address,t_uint256)"
					},
					"t_mapping(t_address,t_uint256)": {
						"encoding": "mapping",
						"key": "t_address",
						"label": "mapping(address => uint256)",
						"numberOfBytes": "32",
						"value": "t_uint256"
					},
					"t_mapping(t_string_memory_ptr,t_uint256)": {
						"encoding": "mapping",
						"key": "t_string_memory_ptr",
						"label": "mapping(string => uint256)",
						"numberOfBytes": "32",
						"value": "t_uint256"
					},
					"t_string_memory_ptr": {
						"encoding": "bytes",
						"label": "string",
						"numberOfBytes": "32"
					},
					"t_string_storage": {
						"encoding": "bytes",
						"label": "string",
						"numberOfBytes": "32"
					},
					"t_uint256": {
						"encoding": "inplace",
						"label": "uint256",
						"numberOfBytes": "32"
					}
				}
			},
			"userdoc": {
				"kind": "user",
				"methods": {},
				"version": 1
			}
		}
	}
}