{
	"uen_management.sol": {
		"uen_management": {
			"abi": [
				{
					"inputs": [
						{
							"internalType": "address",
							"name": "_admin_list_contract",
							"type": "address"
						}
					],
					"stateMutability": "nonpayable",
					"type": "constructor"
				},
				{
					"anonymous": false,
					"inputs": [
						{
							"indexed": false,
							"internalType": "string[]",
							"name": "_uens",
							"type": "string[]"
						},
						{
							"indexed": false,
							"internalType": "string",
							"name": "_message",
							"type": "string"
						}
					],
					"name": "uen_event",
					"type": "event"
				},
				{
					"inputs": [
						{
							"internalType": "string[]",
							"name": "_uens",
							"type": "string[]"
						},
						{
							"internalType": "string[]",
							"name": "_names",
							"type": "string[]"
						}
					],
					"name": "add_uens",
					"outputs": [],
					"stateMutability": "nonpayable",
					"type": "function"
				},
				{
					"inputs": [],
					"name": "admin_list_contract",
					"outputs": [
						{
							"internalType": "address",
							"name": "",
							"type": "address"
						}
					],
					"stateMutability": "view",
					"type": "function"
				},
				{
					"inputs": [
						{
							"internalType": "uint256",
							"name": "",
							"type": "uint256"
						}
					],
					"name": "admins",
					"outputs": [
						{
							"internalType": "address",
							"name": "",
							"type": "address"
						}
					],
					"stateMutability": "view",
					"type": "function"
				},
				{
					"inputs": [],
					"name": "get_admin_contract",
					"outputs": [
						{
							"internalType": "address",
							"name": "",
							"type": "address"
						}
					],
					"stateMutability": "view",
					"type": "function"
				},
				{
					"inputs": [],
					"name": "get_admin_list_contract",
					"outputs": [
						{
							"internalType": "contract Iadmin_management",
							"name": "",
							"type": "address"
						}
					],
					"stateMutability": "view",
					"type": "function"
				},
				{
					"inputs": [],
					"name": "get_all_uens",
					"outputs": [
						{
							"internalType": "string[]",
							"name": "",
							"type": "string[]"
						}
					],
					"stateMutability": "view",
					"type": "function"
				},
				{
					"inputs": [
						{
							"internalType": "string",
							"name": "_uen",
							"type": "string"
						}
					],
					"name": "get_name",
					"outputs": [
						{
							"internalType": "string",
							"name": "",
							"type": "string"
						}
					],
					"stateMutability": "view",
					"type": "function"
				},
				{
					"inputs": [
						{
							"internalType": "string[]",
							"name": "_uens",
							"type": "string[]"
						},
						{
							"internalType": "string[]",
							"name": "_names",
							"type": "string[]"
						}
					],
					"name": "modify_uens",
					"outputs": [],
					"stateMutability": "nonpayable",
					"type": "function"
				},
				{
					"inputs": [
						{
							"internalType": "string[]",
							"name": "_uens",
							"type": "string[]"
						}
					],
					"name": "remove_uens",
					"outputs": [],
					"stateMutability": "nonpayable",
					"type": "function"
				},
				{
					"inputs": [
						{
							"internalType": "uint256",
							"name": "",
							"type": "uint256"
						}
					],
					"name": "uen_list",
					"outputs": [
						{
							"internalType": "string",
							"name": "",
							"type": "string"
						}
					],
					"stateMutability": "view",
					"type": "function"
				}
			],
			"devdoc": {
				"kind": "dev",
				"methods": {},
				"version": 1
			},
			"evm": {
				"assembly": "    /* \"uen_management.sol\":630:5075  contract uen_management {... */\n  mstore(0x40, 0x80)\n    /* \"uen_management.sol\":1517:1748  constructor(address _admin_list_contract) {... */\n  callvalue\n  dup1\n  iszero\n  tag_1\n  jumpi\n  0x00\n  dup1\n  revert\ntag_1:\n  pop\n  mload(0x40)\n  sub(codesize, bytecodeSize)\n  dup1\n  bytecodeSize\n  dup4\n  codecopy\n  dup2\n  dup2\n  add\n  0x40\n  mstore\n  dup2\n  add\n  swap1\n  tag_2\n  swap2\n  swap1\n  tag_3\n  jump\t// in\ntag_2:\n    /* \"uen_management.sol\":1591:1611  _admin_list_contract */\n  dup1\n    /* \"uen_management.sol\":1569:1588  admin_list_contract */\n  0x03\n  0x00\n    /* \"uen_management.sol\":1569:1611  admin_list_contract = _admin_list_contract */\n  0x0100\n  exp\n  dup2\n  sload\n  dup2\n  0xffffffffffffffffffffffffffffffffffffffff\n  mul\n  not\n  and\n  swap1\n  dup4\n  0xffffffffffffffffffffffffffffffffffffffff\n  and\n  mul\n  or\n  swap1\n  sstore\n  pop\n    /* \"uen_management.sol\":1665:1685  _admin_list_contract */\n  dup1\n    /* \"uen_management.sol\":1621:1644  get_admin_list_contract */\n  0x04\n  0x00\n    /* \"uen_management.sol\":1621:1686  get_admin_list_contract = Iadmin_management(_admin_list_contract) */\n  0x0100\n  exp\n  dup2\n  sload\n  dup2\n  0xffffffffffffffffffffffffffffffffffffffff\n  mul\n  not\n  and\n  swap1\n  dup4\n  0xffffffffffffffffffffffffffffffffffffffff\n  and\n  mul\n  or\n  swap1\n  sstore\n  pop\n    /* \"uen_management.sol\":1705:1728  get_admin_list_contract */\n  0x04\n  0x00\n  swap1\n  sload\n  swap1\n  0x0100\n  exp\n  swap1\n  div\n  0xffffffffffffffffffffffffffffffffffffffff\n  and\n    /* \"uen_management.sol\":1705:1739  get_admin_list_contract.get_admins */\n  0xffffffffffffffffffffffffffffffffffffffff\n  and\n  0x8794b69d\n    /* \"uen_management.sol\":1705:1741  get_admin_list_contract.get_admins() */\n  mload(0x40)\n  dup2\n  0xffffffff\n  and\n  0xe0\n  shl\n  dup2\n  mstore\n  0x04\n  add\n  0x00\n  mload(0x40)\n  dup1\n  dup4\n  sub\n  dup2\n  dup7\n  gas\n  staticcall\n  iszero\n  dup1\n  iszero\n  tag_7\n  jumpi\n  returndatasize\n  0x00\n  dup1\n  returndatacopy\n  revert(0x00, returndatasize)\ntag_7:\n  pop\n  pop\n  pop\n  pop\n  mload(0x40)\n  returndatasize\n  0x00\n  dup3\n  returndatacopy\n  returndatasize\n  not(0x1f)\n  0x1f\n  dup3\n  add\n  and\n  dup3\n  add\n  dup1\n  0x40\n  mstore\n  pop\n  dup2\n  add\n  swap1\n  tag_8\n  swap2\n  swap1\n  tag_9\n  jump\t// in\ntag_8:\n    /* \"uen_management.sol\":1696:1702  admins */\n  0x05\n    /* \"uen_management.sol\":1696:1741  admins = get_admin_list_contract.get_admins() */\n  swap1\n  dup1\n  mload\n  swap1\n  0x20\n  add\n  swap1\n  tag_10\n  swap3\n  swap2\n  swap1\n  tag_11\n  jump\t// in\ntag_10:\n  pop\n    /* \"uen_management.sol\":1517:1748  constructor(address _admin_list_contract) {... */\n  pop\n    /* \"uen_management.sol\":630:5075  contract uen_management {... */\n  jump(tag_12)\ntag_11:\n  dup3\n  dup1\n  sload\n  dup3\n  dup3\n  sstore\n  swap1\n  0x00\n  mstore\n  keccak256(0x00, 0x20)\n  swap1\n  dup2\n  add\n  swap3\n  dup3\n  iszero\n  tag_13\n  jumpi\n  swap2\n  0x20\n  mul\n  dup3\n  add\ntag_14:\n  dup3\n  dup2\n  gt\n  iszero\n  tag_15\n  jumpi\n  dup3\n  mload\n  dup3\n  exp(0x0100, 0x00)\n  dup2\n  sload\n  dup2\n  0xffffffffffffffffffffffffffffffffffffffff\n  mul\n  not\n  and\n  swap1\n  dup4\n  0xffffffffffffffffffffffffffffffffffffffff\n  and\n  mul\n  or\n  swap1\n  sstore\n  pop\n  swap2\n  0x20\n  add\n  swap2\n  swap1\n  0x01\n  add\n  swap1\n  jump(tag_14)\ntag_15:\ntag_13:\n  pop\n  swap1\n  pop\n  tag_16\n  swap2\n  swap1\n  tag_17\n  jump\t// in\ntag_16:\n  pop\n  swap1\n  jump\t// out\ntag_17:\ntag_18:\n  dup1\n  dup3\n  gt\n  iszero\n  tag_19\n  jumpi\n  0x00\n  dup2\n  0x00\n  swap1\n  sstore\n  pop\n  0x01\n  add\n  jump(tag_18)\ntag_19:\n  pop\n  swap1\n  jump\t// out\n    /* \"#utility.yul\":7:82   */\ntag_20:\n    /* \"#utility.yul\":40:46   */\n  0x00\n    /* \"#utility.yul\":73:75   */\n  0x40\n    /* \"#utility.yul\":67:76   */\n  mload\n    /* \"#utility.yul\":57:76   */\n  swap1\n  pop\n    /* \"#utility.yul\":7:82   */\n  swap1\n  jump\t// out\n    /* \"#utility.yul\":88:205   */\ntag_21:\n    /* \"#utility.yul\":197:198   */\n  0x00\n    /* \"#utility.yul\":194:195   */\n  dup1\n    /* \"#utility.yul\":187:199   */\n  revert\n    /* \"#utility.yul\":211:328   */\ntag_22:\n    /* \"#utility.yul\":320:321   */\n  0x00\n    /* \"#utility.yul\":317:318   */\n  dup1\n    /* \"#utility.yul\":310:322   */\n  revert\n    /* \"#utility.yul\":334:460   */\ntag_23:\n    /* \"#utility.yul\":371:378   */\n  0x00\n    /* \"#utility.yul\":411:453   */\n  0xffffffffffffffffffffffffffffffffffffffff\n    /* \"#utility.yul\":404:409   */\n  dup3\n    /* \"#utility.yul\":400:454   */\n  and\n    /* \"#utility.yul\":389:454   */\n  swap1\n  pop\n    /* \"#utility.yul\":334:460   */\n  swap2\n  swap1\n  pop\n  jump\t// out\n    /* \"#utility.yul\":466:562   */\ntag_24:\n    /* \"#utility.yul\":503:510   */\n  0x00\n    /* \"#utility.yul\":532:556   */\n  tag_42\n    /* \"#utility.yul\":550:555   */\n  dup3\n    /* \"#utility.yul\":532:556   */\n  tag_23\n  jump\t// in\ntag_42:\n    /* \"#utility.yul\":521:556   */\n  swap1\n  pop\n    /* \"#utility.yul\":466:562   */\n  swap2\n  swap1\n  pop\n  jump\t// out\n    /* \"#utility.yul\":568:690   */\ntag_25:\n    /* \"#utility.yul\":641:665   */\n  tag_44\n    /* \"#utility.yul\":659:664   */\n  dup2\n    /* \"#utility.yul\":641:665   */\n  tag_24\n  jump\t// in\ntag_44:\n    /* \"#utility.yul\":634:639   */\n  dup2\n    /* \"#utility.yul\":631:666   */\n  eq\n    /* \"#utility.yul\":621:684   */\n  tag_45\n  jumpi\n    /* \"#utility.yul\":680:681   */\n  0x00\n    /* \"#utility.yul\":677:678   */\n  dup1\n    /* \"#utility.yul\":670:682   */\n  revert\n    /* \"#utility.yul\":621:684   */\ntag_45:\n    /* \"#utility.yul\":568:690   */\n  pop\n  jump\t// out\n    /* \"#utility.yul\":696:839   */\ntag_26:\n    /* \"#utility.yul\":753:758   */\n  0x00\n    /* \"#utility.yul\":784:790   */\n  dup2\n    /* \"#utility.yul\":778:791   */\n  mload\n    /* \"#utility.yul\":769:791   */\n  swap1\n  pop\n    /* \"#utility.yul\":800:833   */\n  tag_47\n    /* \"#utility.yul\":827:832   */\n  dup2\n    /* \"#utility.yul\":800:833   */\n  tag_25\n  jump\t// in\ntag_47:\n    /* \"#utility.yul\":696:839   */\n  swap3\n  swap2\n  pop\n  pop\n  jump\t// out\n    /* \"#utility.yul\":845:1196   */\ntag_3:\n    /* \"#utility.yul\":915:921   */\n  0x00\n    /* \"#utility.yul\":964:966   */\n  0x20\n    /* \"#utility.yul\":952:961   */\n  dup3\n    /* \"#utility.yul\":943:950   */\n  dup5\n    /* \"#utility.yul\":939:962   */\n  sub\n    /* \"#utility.yul\":935:967   */\n  slt\n    /* \"#utility.yul\":932:1051   */\n  iszero\n  tag_49\n  jumpi\n    /* \"#utility.yul\":970:1049   */\n  tag_50\n  tag_21\n  jump\t// in\ntag_50:\n    /* \"#utility.yul\":932:1051   */\ntag_49:\n    /* \"#utility.yul\":1090:1091   */\n  0x00\n    /* \"#utility.yul\":1115:1179   */\n  tag_51\n    /* \"#utility.yul\":1171:1178   */\n  dup5\n    /* \"#utility.yul\":1162:1168   */\n  dup3\n    /* \"#utility.yul\":1151:1160   */\n  dup6\n    /* \"#utility.yul\":1147:1169   */\n  add\n    /* \"#utility.yul\":1115:1179   */\n  tag_26\n  jump\t// in\ntag_51:\n    /* \"#utility.yul\":1105:1179   */\n  swap2\n  pop\n    /* \"#utility.yul\":1061:1189   */\n  pop\n    /* \"#utility.yul\":845:1196   */\n  swap3\n  swap2\n  pop\n  pop\n  jump\t// out\n    /* \"#utility.yul\":1202:1319   */\ntag_27:\n    /* \"#utility.yul\":1311:1312   */\n  0x00\n    /* \"#utility.yul\":1308:1309   */\n  dup1\n    /* \"#utility.yul\":1301:1313   */\n  revert\n    /* \"#utility.yul\":1325:1427   */\ntag_28:\n    /* \"#utility.yul\":1366:1372   */\n  0x00\n    /* \"#utility.yul\":1417:1419   */\n  0x1f\n    /* \"#utility.yul\":1413:1420   */\n  not\n    /* \"#utility.yul\":1408:1410   */\n  0x1f\n    /* \"#utility.yul\":1401:1406   */\n  dup4\n    /* \"#utility.yul\":1397:1411   */\n  add\n    /* \"#utility.yul\":1393:1421   */\n  and\n    /* \"#utility.yul\":1383:1421   */\n  swap1\n  pop\n    /* \"#utility.yul\":1325:1427   */\n  swap2\n  swap1\n  pop\n  jump\t// out\n    /* \"#utility.yul\":1433:1613   */\ntag_29:\n    /* \"#utility.yul\":1481:1558   */\n  0x4e487b7100000000000000000000000000000000000000000000000000000000\n    /* \"#utility.yul\":1478:1479   */\n  0x00\n    /* \"#utility.yul\":1471:1559   */\n  mstore\n    /* \"#utility.yul\":1578:1582   */\n  0x41\n    /* \"#utility.yul\":1575:1576   */\n  0x04\n    /* \"#utility.yul\":1568:1583   */\n  mstore\n    /* \"#utility.yul\":1602:1606   */\n  0x24\n    /* \"#utility.yul\":1599:1600   */\n  0x00\n    /* \"#utility.yul\":1592:1607   */\n  revert\n    /* \"#utility.yul\":1619:1900   */\ntag_30:\n    /* \"#utility.yul\":1702:1729   */\n  tag_56\n    /* \"#utility.yul\":1724:1728   */\n  dup3\n    /* \"#utility.yul\":1702:1729   */\n  tag_28\n  jump\t// in\ntag_56:\n    /* \"#utility.yul\":1694:1700   */\n  dup2\n    /* \"#utility.yul\":1690:1730   */\n  add\n    /* \"#utility.yul\":1832:1838   */\n  dup2\n    /* \"#utility.yul\":1820:1830   */\n  dup2\n    /* \"#utility.yul\":1817:1839   */\n  lt\n    /* \"#utility.yul\":1796:1814   */\n  0xffffffffffffffff\n    /* \"#utility.yul\":1784:1794   */\n  dup3\n    /* \"#utility.yul\":1781:1815   */\n  gt\n    /* \"#utility.yul\":1778:1840   */\n  or\n    /* \"#utility.yul\":1775:1863   */\n  iszero\n  tag_57\n  jumpi\n    /* \"#utility.yul\":1843:1861   */\n  tag_58\n  tag_29\n  jump\t// in\ntag_58:\n    /* \"#utility.yul\":1775:1863   */\ntag_57:\n    /* \"#utility.yul\":1883:1893   */\n  dup1\n    /* \"#utility.yul\":1879:1881   */\n  0x40\n    /* \"#utility.yul\":1872:1894   */\n  mstore\n    /* \"#utility.yul\":1662:1900   */\n  pop\n    /* \"#utility.yul\":1619:1900   */\n  pop\n  pop\n  jump\t// out\n    /* \"#utility.yul\":1906:2035   */\ntag_31:\n    /* \"#utility.yul\":1940:1946   */\n  0x00\n    /* \"#utility.yul\":1967:1987   */\n  tag_60\n  tag_20\n  jump\t// in\ntag_60:\n    /* \"#utility.yul\":1957:1987   */\n  swap1\n  pop\n    /* \"#utility.yul\":1996:2029   */\n  tag_61\n    /* \"#utility.yul\":2024:2028   */\n  dup3\n    /* \"#utility.yul\":2016:2022   */\n  dup3\n    /* \"#utility.yul\":1996:2029   */\n  tag_30\n  jump\t// in\ntag_61:\n    /* \"#utility.yul\":1906:2035   */\n  swap2\n  swap1\n  pop\n  jump\t// out\n    /* \"#utility.yul\":2041:2352   */\ntag_32:\n    /* \"#utility.yul\":2118:2122   */\n  0x00\n    /* \"#utility.yul\":2208:2226   */\n  0xffffffffffffffff\n    /* \"#utility.yul\":2200:2206   */\n  dup3\n    /* \"#utility.yul\":2197:2227   */\n  gt\n    /* \"#utility.yul\":2194:2250   */\n  iszero\n  tag_63\n  jumpi\n    /* \"#utility.yul\":2230:2248   */\n  tag_64\n  tag_29\n  jump\t// in\ntag_64:\n    /* \"#utility.yul\":2194:2250   */\ntag_63:\n    /* \"#utility.yul\":2280:2284   */\n  0x20\n    /* \"#utility.yul\":2272:2278   */\n  dup3\n    /* \"#utility.yul\":2268:2285   */\n  mul\n    /* \"#utility.yul\":2260:2285   */\n  swap1\n  pop\n    /* \"#utility.yul\":2340:2344   */\n  0x20\n    /* \"#utility.yul\":2334:2338   */\n  dup2\n    /* \"#utility.yul\":2330:2345   */\n  add\n    /* \"#utility.yul\":2322:2345   */\n  swap1\n  pop\n    /* \"#utility.yul\":2041:2352   */\n  swap2\n  swap1\n  pop\n  jump\t// out\n    /* \"#utility.yul\":2358:2475   */\ntag_33:\n    /* \"#utility.yul\":2467:2468   */\n  0x00\n    /* \"#utility.yul\":2464:2465   */\n  dup1\n    /* \"#utility.yul\":2457:2469   */\n  revert\n    /* \"#utility.yul\":2498:3230   */\ntag_34:\n    /* \"#utility.yul\":2605:2610   */\n  0x00\n    /* \"#utility.yul\":2630:2711   */\n  tag_67\n    /* \"#utility.yul\":2646:2710   */\n  tag_68\n    /* \"#utility.yul\":2703:2709   */\n  dup5\n    /* \"#utility.yul\":2646:2710   */\n  tag_32\n  jump\t// in\ntag_68:\n    /* \"#utility.yul\":2630:2711   */\n  tag_31\n  jump\t// in\ntag_67:\n    /* \"#utility.yul\":2621:2711   */\n  swap1\n  pop\n    /* \"#utility.yul\":2731:2736   */\n  dup1\n    /* \"#utility.yul\":2760:2766   */\n  dup4\n    /* \"#utility.yul\":2753:2758   */\n  dup3\n    /* \"#utility.yul\":2746:2767   */\n  mstore\n    /* \"#utility.yul\":2794:2798   */\n  0x20\n    /* \"#utility.yul\":2787:2792   */\n  dup3\n    /* \"#utility.yul\":2783:2799   */\n  add\n    /* \"#utility.yul\":2776:2799   */\n  swap1\n  pop\n    /* \"#utility.yul\":2847:2851   */\n  0x20\n    /* \"#utility.yul\":2839:2845   */\n  dup5\n    /* \"#utility.yul\":2835:2852   */\n  mul\n    /* \"#utility.yul\":2827:2833   */\n  dup4\n    /* \"#utility.yul\":2823:2853   */\n  add\n    /* \"#utility.yul\":2876:2879   */\n  dup6\n    /* \"#utility.yul\":2868:2874   */\n  dup2\n    /* \"#utility.yul\":2865:2880   */\n  gt\n    /* \"#utility.yul\":2862:2984   */\n  iszero\n  tag_69\n  jumpi\n    /* \"#utility.yul\":2895:2974   */\n  tag_70\n  tag_33\n  jump\t// in\ntag_70:\n    /* \"#utility.yul\":2862:2984   */\ntag_69:\n    /* \"#utility.yul\":3010:3016   */\n  dup4\n    /* \"#utility.yul\":2993:3224   */\ntag_71:\n    /* \"#utility.yul\":3027:3033   */\n  dup2\n    /* \"#utility.yul\":3022:3025   */\n  dup2\n    /* \"#utility.yul\":3019:3034   */\n  lt\n    /* \"#utility.yul\":2993:3224   */\n  iszero\n  tag_73\n  jumpi\n    /* \"#utility.yul\":3102:3105   */\n  dup1\n    /* \"#utility.yul\":3131:3179   */\n  tag_74\n    /* \"#utility.yul\":3175:3178   */\n  dup9\n    /* \"#utility.yul\":3163:3173   */\n  dup3\n    /* \"#utility.yul\":3131:3179   */\n  tag_26\n  jump\t// in\ntag_74:\n    /* \"#utility.yul\":3126:3129   */\n  dup5\n    /* \"#utility.yul\":3119:3180   */\n  mstore\n    /* \"#utility.yul\":3209:3213   */\n  0x20\n    /* \"#utility.yul\":3204:3207   */\n  dup5\n    /* \"#utility.yul\":3200:3214   */\n  add\n    /* \"#utility.yul\":3193:3214   */\n  swap4\n  pop\n    /* \"#utility.yul\":3069:3224   */\n  pop\n    /* \"#utility.yul\":3053:3057   */\n  0x20\n    /* \"#utility.yul\":3048:3051   */\n  dup2\n    /* \"#utility.yul\":3044:3058   */\n  add\n    /* \"#utility.yul\":3037:3058   */\n  swap1\n  pop\n    /* \"#utility.yul\":2993:3224   */\n  jump(tag_71)\ntag_73:\n    /* \"#utility.yul\":2997:3018   */\n  pop\n    /* \"#utility.yul\":2611:3230   */\n  pop\n  pop\n    /* \"#utility.yul\":2498:3230   */\n  swap4\n  swap3\n  pop\n  pop\n  pop\n  jump\t// out\n    /* \"#utility.yul\":3253:3638   */\ntag_35:\n    /* \"#utility.yul\":3335:3340   */\n  0x00\n    /* \"#utility.yul\":3384:3387   */\n  dup3\n    /* \"#utility.yul\":3377:3381   */\n  0x1f\n    /* \"#utility.yul\":3369:3375   */\n  dup4\n    /* \"#utility.yul\":3365:3382   */\n  add\n    /* \"#utility.yul\":3361:3388   */\n  slt\n    /* \"#utility.yul\":3351:3473   */\n  tag_76\n  jumpi\n    /* \"#utility.yul\":3392:3471   */\n  tag_77\n  tag_27\n  jump\t// in\ntag_77:\n    /* \"#utility.yul\":3351:3473   */\ntag_76:\n    /* \"#utility.yul\":3502:3508   */\n  dup2\n    /* \"#utility.yul\":3496:3509   */\n  mload\n    /* \"#utility.yul\":3527:3632   */\n  tag_78\n    /* \"#utility.yul\":3628:3631   */\n  dup5\n    /* \"#utility.yul\":3620:3626   */\n  dup3\n    /* \"#utility.yul\":3613:3617   */\n  0x20\n    /* \"#utility.yul\":3605:3611   */\n  dup7\n    /* \"#utility.yul\":3601:3618   */\n  add\n    /* \"#utility.yul\":3527:3632   */\n  tag_34\n  jump\t// in\ntag_78:\n    /* \"#utility.yul\":3518:3632   */\n  swap2\n  pop\n    /* \"#utility.yul\":3341:3638   */\n  pop\n    /* \"#utility.yul\":3253:3638   */\n  swap3\n  swap2\n  pop\n  pop\n  jump\t// out\n    /* \"#utility.yul\":3644:4198   */\ntag_9:\n    /* \"#utility.yul\":3739:3745   */\n  0x00\n    /* \"#utility.yul\":3788:3790   */\n  0x20\n    /* \"#utility.yul\":3776:3785   */\n  dup3\n    /* \"#utility.yul\":3767:3774   */\n  dup5\n    /* \"#utility.yul\":3763:3786   */\n  sub\n    /* \"#utility.yul\":3759:3791   */\n  slt\n    /* \"#utility.yul\":3756:3875   */\n  iszero\n  tag_80\n  jumpi\n    /* \"#utility.yul\":3794:3873   */\n  tag_81\n  tag_21\n  jump\t// in\ntag_81:\n    /* \"#utility.yul\":3756:3875   */\ntag_80:\n    /* \"#utility.yul\":3935:3936   */\n  0x00\n    /* \"#utility.yul\":3924:3933   */\n  dup3\n    /* \"#utility.yul\":3920:3937   */\n  add\n    /* \"#utility.yul\":3914:3938   */\n  mload\n    /* \"#utility.yul\":3965:3983   */\n  0xffffffffffffffff\n    /* \"#utility.yul\":3957:3963   */\n  dup2\n    /* \"#utility.yul\":3954:3984   */\n  gt\n    /* \"#utility.yul\":3951:4068   */\n  iszero\n  tag_82\n  jumpi\n    /* \"#utility.yul\":3987:4066   */\n  tag_83\n  tag_22\n  jump\t// in\ntag_83:\n    /* \"#utility.yul\":3951:4068   */\ntag_82:\n    /* \"#utility.yul\":4092:4181   */\n  tag_84\n    /* \"#utility.yul\":4173:4180   */\n  dup5\n    /* \"#utility.yul\":4164:4170   */\n  dup3\n    /* \"#utility.yul\":4153:4162   */\n  dup6\n    /* \"#utility.yul\":4149:4171   */\n  add\n    /* \"#utility.yul\":4092:4181   */\n  tag_35\n  jump\t// in\ntag_84:\n    /* \"#utility.yul\":4082:4181   */\n  swap2\n  pop\n    /* \"#utility.yul\":3885:4191   */\n  pop\n    /* \"#utility.yul\":3644:4198   */\n  swap3\n  swap2\n  pop\n  pop\n  jump\t// out\n    /* \"uen_management.sol\":630:5075  contract uen_management {... */\ntag_12:\n  dataSize(sub_0)\n  dup1\n  dataOffset(sub_0)\n  0x00\n  codecopy\n  0x00\n  return\nstop\n\nsub_0: assembly {\n        /* \"uen_management.sol\":630:5075  contract uen_management {... */\n      mstore(0x40, 0x80)\n      callvalue\n      dup1\n      iszero\n      tag_1\n      jumpi\n      0x00\n      dup1\n      revert\n    tag_1:\n      pop\n      jumpi(tag_2, lt(calldatasize, 0x04))\n      shr(0xe0, calldataload(0x00))\n      dup1\n      0xa8f5d7a6\n      gt\n      tag_13\n      jumpi\n      dup1\n      0xa8f5d7a6\n      eq\n      tag_8\n      jumpi\n      dup1\n      0xb30282fa\n      eq\n      tag_9\n      jumpi\n      dup1\n      0xb3d6da6e\n      eq\n      tag_10\n      jumpi\n      dup1\n      0xbeada813\n      eq\n      tag_11\n      jumpi\n      dup1\n      0xf9b378c2\n      eq\n      tag_12\n      jumpi\n      jump(tag_2)\n    tag_13:\n      dup1\n      0x14bfd6d0\n      eq\n      tag_3\n      jumpi\n      dup1\n      0x35b13db2\n      eq\n      tag_4\n      jumpi\n      dup1\n      0x36693c04\n      eq\n      tag_5\n      jumpi\n      dup1\n      0x46dc1ffc\n      eq\n      tag_6\n      jumpi\n      dup1\n      0x9926aa34\n      eq\n      tag_7\n      jumpi\n    tag_2:\n      0x00\n      dup1\n      revert\n        /* \"uen_management.sol\":1439:1462  address[] public admins */\n    tag_3:\n      tag_14\n      0x04\n      dup1\n      calldatasize\n      sub\n      dup2\n      add\n      swap1\n      tag_15\n      swap2\n      swap1\n      tag_16\n      jump\t// in\n    tag_15:\n      tag_17\n      jump\t// in\n    tag_14:\n      mload(0x40)\n      tag_18\n      swap2\n      swap1\n      tag_19\n      jump\t// in\n    tag_18:\n      mload(0x40)\n      dup1\n      swap2\n      sub\n      swap1\n      return\n        /* \"uen_management.sol\":3635:4151  function remove_uens(string[] memory _uens) external only_admin {... */\n    tag_4:\n      tag_20\n      0x04\n      dup1\n      calldatasize\n      sub\n      dup2\n      add\n      swap1\n      tag_21\n      swap2\n      swap1\n      tag_22\n      jump\t// in\n    tag_21:\n      tag_23\n      jump\t// in\n    tag_20:\n      stop\n        /* \"uen_management.sol\":1348:1396  Iadmin_management public get_admin_list_contract */\n    tag_5:\n      tag_24\n      tag_25\n      jump\t// in\n    tag_24:\n      mload(0x40)\n      tag_26\n      swap2\n      swap1\n      tag_27\n      jump\t// in\n    tag_26:\n      mload(0x40)\n      dup1\n      swap2\n      sub\n      swap1\n      return\n        /* \"uen_management.sol\":1256:1290  address public admin_list_contract */\n    tag_6:\n      tag_28\n      tag_29\n      jump\t// in\n    tag_28:\n      mload(0x40)\n      tag_30\n      swap2\n      swap1\n      tag_19\n      jump\t// in\n    tag_30:\n      mload(0x40)\n      dup1\n      swap2\n      sub\n      swap1\n      return\n        /* \"uen_management.sol\":4650:5026  function modify_uens(string[] memory _uens, string[] memory _names) external only_admin {... */\n    tag_7:\n      tag_31\n      0x04\n      dup1\n      calldatasize\n      sub\n      dup2\n      add\n      swap1\n      tag_32\n      swap2\n      swap1\n      tag_33\n      jump\t// in\n    tag_32:\n      tag_34\n      jump\t// in\n    tag_31:\n      stop\n        /* \"uen_management.sol\":2448:2563  function get_name(string memory _uen) public view returns (string memory) {... */\n    tag_8:\n      tag_35\n      0x04\n      dup1\n      calldatasize\n      sub\n      dup2\n      add\n      swap1\n      tag_36\n      swap2\n      swap1\n      tag_37\n      jump\t// in\n    tag_36:\n      tag_38\n      jump\t// in\n    tag_35:\n      mload(0x40)\n      tag_39\n      swap2\n      swap1\n      tag_40\n      jump\t// in\n    tag_39:\n      mload(0x40)\n      dup1\n      swap2\n      sub\n      swap1\n      return\n        /* \"uen_management.sol\":935:959  string[] public uen_list */\n    tag_9:\n      tag_41\n      0x04\n      dup1\n      calldatasize\n      sub\n      dup2\n      add\n      swap1\n      tag_42\n      swap2\n      swap1\n      tag_16\n      jump\t// in\n    tag_42:\n      tag_43\n      jump\t// in\n    tag_41:\n      mload(0x40)\n      tag_44\n      swap2\n      swap1\n      tag_40\n      jump\t// in\n    tag_44:\n      mload(0x40)\n      dup1\n      swap2\n      sub\n      swap1\n      return\n        /* \"uen_management.sol\":2631:2725  function get_all_uens() public view returns (string[] memory) {... */\n    tag_10:\n      tag_45\n      tag_46\n      jump\t// in\n    tag_45:\n      mload(0x40)\n      tag_47\n      swap2\n      swap1\n      tag_48\n      jump\t// in\n    tag_47:\n      mload(0x40)\n      dup1\n      swap2\n      sub\n      swap1\n      return\n        /* \"uen_management.sol\":2282:2385  function get_admin_contract() public view returns (address) {... */\n    tag_11:\n      tag_49\n      tag_50\n      jump\t// in\n    tag_49:\n      mload(0x40)\n      tag_51\n      swap2\n      swap1\n      tag_19\n      jump\t// in\n    tag_51:\n      mload(0x40)\n      dup1\n      swap2\n      sub\n      swap1\n      return\n        /* \"uen_management.sol\":2986:3499  function add_uens(string[] memory _uens, string[] memory _names) external only_admin {... */\n    tag_12:\n      tag_52\n      0x04\n      dup1\n      calldatasize\n      sub\n      dup2\n      add\n      swap1\n      tag_53\n      swap2\n      swap1\n      tag_33\n      jump\t// in\n    tag_53:\n      tag_54\n      jump\t// in\n    tag_52:\n      stop\n        /* \"uen_management.sol\":1439:1462  address[] public admins */\n    tag_17:\n      0x05\n      dup2\n      dup2\n      sload\n      dup2\n      lt\n      tag_55\n      jumpi\n      0x00\n      dup1\n      revert\n    tag_55:\n      swap1\n      0x00\n      mstore\n      keccak256(0x00, 0x20)\n      add\n      0x00\n      swap2\n      pop\n      sload\n      swap1\n      0x0100\n      exp\n      swap1\n      div\n      0xffffffffffffffffffffffffffffffffffffffff\n      and\n      dup2\n      jump\t// out\n        /* \"uen_management.sol\":3635:4151  function remove_uens(string[] memory _uens) external only_admin {... */\n    tag_23:\n        /* \"uen_management.sol\":1941:1954  bool is_owner */\n      0x00\n        /* \"uen_management.sol\":1977:1986  uint256 i */\n      dup1\n        /* \"uen_management.sol\":1972:2140  for (uint256 i = 0; i < admins.length; i++) {... */\n    tag_58:\n        /* \"uen_management.sol\":1996:2002  admins */\n      0x05\n        /* \"uen_management.sol\":1996:2009  admins.length */\n      dup1\n      sload\n      swap1\n      pop\n        /* \"uen_management.sol\":1992:1993  i */\n      dup2\n        /* \"uen_management.sol\":1992:2009  i < admins.length */\n      lt\n        /* \"uen_management.sol\":1972:2140  for (uint256 i = 0; i < admins.length; i++) {... */\n      iszero\n      tag_59\n      jumpi\n        /* \"uen_management.sol\":2048:2054  admins */\n      0x05\n        /* \"uen_management.sol\":2055:2056  i */\n      dup2\n        /* \"uen_management.sol\":2048:2057  admins[i] */\n      dup2\n      sload\n      dup2\n      lt\n      tag_61\n      jumpi\n      tag_62\n      tag_63\n      jump\t// in\n    tag_62:\n    tag_61:\n      swap1\n      0x00\n      mstore\n      keccak256(0x00, 0x20)\n      add\n      0x00\n      swap1\n      sload\n      swap1\n      0x0100\n      exp\n      swap1\n      div\n      0xffffffffffffffffffffffffffffffffffffffff\n      and\n        /* \"uen_management.sol\":2034:2057  msg.sender == admins[i] */\n      0xffffffffffffffffffffffffffffffffffffffff\n      and\n        /* \"uen_management.sol\":2034:2044  msg.sender */\n      caller\n        /* \"uen_management.sol\":2034:2057  msg.sender == admins[i] */\n      0xffffffffffffffffffffffffffffffffffffffff\n      and\n      sub\n        /* \"uen_management.sol\":2030:2130  if (msg.sender == admins[i]) {... */\n      tag_65\n      jumpi\n        /* \"uen_management.sol\":2088:2092  true */\n      0x01\n        /* \"uen_management.sol\":2077:2092  is_owner = true */\n      swap2\n      pop\n        /* \"uen_management.sol\":2110:2115  break */\n      jump(tag_59)\n        /* \"uen_management.sol\":2030:2130  if (msg.sender == admins[i]) {... */\n    tag_65:\n        /* \"uen_management.sol\":2011:2014  i++ */\n      dup1\n      dup1\n      0x01\n      add\n      swap2\n      pop\n      pop\n        /* \"uen_management.sol\":1972:2140  for (uint256 i = 0; i < admins.length; i++) {... */\n      jump(tag_58)\n    tag_59:\n      pop\n        /* \"uen_management.sol\":2157:2165  is_owner */\n      dup1\n        /* \"uen_management.sol\":2149:2204  require(is_owner, \"Only admins can call this function\") */\n      tag_66\n      jumpi\n      mload(0x40)\n      0x08c379a000000000000000000000000000000000000000000000000000000000\n      dup2\n      mstore\n      0x04\n      add\n      tag_67\n      swap1\n      tag_68\n      jump\t// in\n    tag_67:\n      mload(0x40)\n      dup1\n      swap2\n      sub\n      swap1\n      revert\n    tag_66:\n        /* \"uen_management.sol\":3714:3723  uint256 i */\n      0x00\n        /* \"uen_management.sol\":3709:4098  for (uint256 i = 0; i < _uens.length; i++) {... */\n    tag_70:\n        /* \"uen_management.sol\":3733:3738  _uens */\n      dup3\n        /* \"uen_management.sol\":3733:3745  _uens.length */\n      mload\n        /* \"uen_management.sol\":3729:3730  i */\n      dup2\n        /* \"uen_management.sol\":3729:3745  i < _uens.length */\n      lt\n        /* \"uen_management.sol\":3709:4098  for (uint256 i = 0; i < _uens.length; i++) {... */\n      iszero\n      tag_71\n      jumpi\n        /* \"uen_management.sol\":3773:3784  uen_to_name */\n      0x01\n        /* \"uen_management.sol\":3785:3790  _uens */\n      dup4\n        /* \"uen_management.sol\":3791:3792  i */\n      dup3\n        /* \"uen_management.sol\":3785:3793  _uens[i] */\n      dup2\n      mload\n      dup2\n      lt\n      tag_73\n      jumpi\n      tag_74\n      tag_63\n      jump\t// in\n    tag_74:\n    tag_73:\n      0x20\n      mul\n      0x20\n      add\n      add\n      mload\n        /* \"uen_management.sol\":3773:3794  uen_to_name[_uens[i]] */\n      mload(0x40)\n      tag_75\n      swap2\n      swap1\n      tag_76\n      jump\t// in\n    tag_75:\n      swap1\n      dup2\n      mstore\n      0x20\n      add\n      mload(0x40)\n      dup1\n      swap2\n      sub\n      swap1\n      keccak256\n      0x00\n        /* \"uen_management.sol\":3766:3794  delete uen_to_name[_uens[i]] */\n      tag_77\n      swap2\n      swap1\n      tag_78\n      jump\t// in\n    tag_77:\n        /* \"uen_management.sol\":4007:4044  uen_list[uen_to_index[_uens[i]]] = \"\" */\n      mload(0x40)\n      dup1\n      0x20\n      add\n      0x40\n      mstore\n      dup1\n      0x00\n      dup2\n      mstore\n      pop\n        /* \"uen_management.sol\":4007:4015  uen_list */\n      0x00\n        /* \"uen_management.sol\":4016:4028  uen_to_index */\n      0x02\n        /* \"uen_management.sol\":4029:4034  _uens */\n      dup6\n        /* \"uen_management.sol\":4035:4036  i */\n      dup5\n        /* \"uen_management.sol\":4029:4037  _uens[i] */\n      dup2\n      mload\n      dup2\n      lt\n      tag_79\n      jumpi\n      tag_80\n      tag_63\n      jump\t// in\n    tag_80:\n    tag_79:\n      0x20\n      mul\n      0x20\n      add\n      add\n      mload\n        /* \"uen_management.sol\":4016:4038  uen_to_index[_uens[i]] */\n      mload(0x40)\n      tag_81\n      swap2\n      swap1\n      tag_76\n      jump\t// in\n    tag_81:\n      swap1\n      dup2\n      mstore\n      0x20\n      add\n      mload(0x40)\n      dup1\n      swap2\n      sub\n      swap1\n      keccak256\n      sload\n        /* \"uen_management.sol\":4007:4039  uen_list[uen_to_index[_uens[i]]] */\n      dup2\n      sload\n      dup2\n      lt\n      tag_82\n      jumpi\n      tag_83\n      tag_63\n      jump\t// in\n    tag_83:\n    tag_82:\n      swap1\n      0x00\n      mstore\n      keccak256(0x00, 0x20)\n      add\n        /* \"uen_management.sol\":4007:4044  uen_list[uen_to_index[_uens[i]]] = \"\" */\n      swap1\n      dup2\n      tag_85\n      swap2\n      swap1\n      tag_86\n      jump\t// in\n    tag_85:\n      pop\n        /* \"uen_management.sol\":4065:4077  uen_to_index */\n      0x02\n        /* \"uen_management.sol\":4078:4083  _uens */\n      dup4\n        /* \"uen_management.sol\":4084:4085  i */\n      dup3\n        /* \"uen_management.sol\":4078:4086  _uens[i] */\n      dup2\n      mload\n      dup2\n      lt\n      tag_87\n      jumpi\n      tag_88\n      tag_63\n      jump\t// in\n    tag_88:\n    tag_87:\n      0x20\n      mul\n      0x20\n      add\n      add\n      mload\n        /* \"uen_management.sol\":4065:4087  uen_to_index[_uens[i]] */\n      mload(0x40)\n      tag_89\n      swap2\n      swap1\n      tag_76\n      jump\t// in\n    tag_89:\n      swap1\n      dup2\n      mstore\n      0x20\n      add\n      mload(0x40)\n      dup1\n      swap2\n      sub\n      swap1\n      keccak256\n        /* \"uen_management.sol\":4058:4087  delete uen_to_index[_uens[i]] */\n      0x00\n      swap1\n      sstore\n        /* \"uen_management.sol\":3747:3750  i++ */\n      dup1\n      dup1\n      0x01\n      add\n      swap2\n      pop\n      pop\n        /* \"uen_management.sol\":3709:4098  for (uint256 i = 0; i < _uens.length; i++) {... */\n      jump(tag_70)\n    tag_71:\n      pop\n        /* \"uen_management.sol\":4112:4144  uen_event(_uens, \"UENs removed\") */\n      0x5462cca44bd73f863d8a33c18eddea04a24e4ac8e252404333dd97ac7a732ac8\n        /* \"uen_management.sol\":4122:4127  _uens */\n      dup3\n        /* \"uen_management.sol\":4112:4144  uen_event(_uens, \"UENs removed\") */\n      mload(0x40)\n      tag_90\n      swap2\n      swap1\n      tag_91\n      jump\t// in\n    tag_90:\n      mload(0x40)\n      dup1\n      swap2\n      sub\n      swap1\n      log1\n        /* \"uen_management.sol\":1931:2222  {... */\n      pop\n        /* \"uen_management.sol\":3635:4151  function remove_uens(string[] memory _uens) external only_admin {... */\n      pop\n      jump\t// out\n        /* \"uen_management.sol\":1348:1396  Iadmin_management public get_admin_list_contract */\n    tag_25:\n      0x04\n      0x00\n      swap1\n      sload\n      swap1\n      0x0100\n      exp\n      swap1\n      div\n      0xffffffffffffffffffffffffffffffffffffffff\n      and\n      dup2\n      jump\t// out\n        /* \"uen_management.sol\":1256:1290  address public admin_list_contract */\n    tag_29:\n      0x03\n      0x00\n      swap1\n      sload\n      swap1\n      0x0100\n      exp\n      swap1\n      div\n      0xffffffffffffffffffffffffffffffffffffffff\n      and\n      dup2\n      jump\t// out\n        /* \"uen_management.sol\":4650:5026  function modify_uens(string[] memory _uens, string[] memory _names) external only_admin {... */\n    tag_34:\n        /* \"uen_management.sol\":1941:1954  bool is_owner */\n      0x00\n        /* \"uen_management.sol\":1977:1986  uint256 i */\n      dup1\n        /* \"uen_management.sol\":1972:2140  for (uint256 i = 0; i < admins.length; i++) {... */\n    tag_93:\n        /* \"uen_management.sol\":1996:2002  admins */\n      0x05\n        /* \"uen_management.sol\":1996:2009  admins.length */\n      dup1\n      sload\n      swap1\n      pop\n        /* \"uen_management.sol\":1992:1993  i */\n      dup2\n        /* \"uen_management.sol\":1992:2009  i < admins.length */\n      lt\n        /* \"uen_management.sol\":1972:2140  for (uint256 i = 0; i < admins.length; i++) {... */\n      iszero\n      tag_94\n      jumpi\n        /* \"uen_management.sol\":2048:2054  admins */\n      0x05\n        /* \"uen_management.sol\":2055:2056  i */\n      dup2\n        /* \"uen_management.sol\":2048:2057  admins[i] */\n      dup2\n      sload\n      dup2\n      lt\n      tag_96\n      jumpi\n      tag_97\n      tag_63\n      jump\t// in\n    tag_97:\n    tag_96:\n      swap1\n      0x00\n      mstore\n      keccak256(0x00, 0x20)\n      add\n      0x00\n      swap1\n      sload\n      swap1\n      0x0100\n      exp\n      swap1\n      div\n      0xffffffffffffffffffffffffffffffffffffffff\n      and\n        /* \"uen_management.sol\":2034:2057  msg.sender == admins[i] */\n      0xffffffffffffffffffffffffffffffffffffffff\n      and\n        /* \"uen_management.sol\":2034:2044  msg.sender */\n      caller\n        /* \"uen_management.sol\":2034:2057  msg.sender == admins[i] */\n      0xffffffffffffffffffffffffffffffffffffffff\n      and\n      sub\n        /* \"uen_management.sol\":2030:2130  if (msg.sender == admins[i]) {... */\n      tag_99\n      jumpi\n        /* \"uen_management.sol\":2088:2092  true */\n      0x01\n        /* \"uen_management.sol\":2077:2092  is_owner = true */\n      swap2\n      pop\n        /* \"uen_management.sol\":2110:2115  break */\n      jump(tag_94)\n        /* \"uen_management.sol\":2030:2130  if (msg.sender == admins[i]) {... */\n    tag_99:\n        /* \"uen_management.sol\":2011:2014  i++ */\n      dup1\n      dup1\n      0x01\n      add\n      swap2\n      pop\n      pop\n        /* \"uen_management.sol\":1972:2140  for (uint256 i = 0; i < admins.length; i++) {... */\n      jump(tag_93)\n    tag_94:\n      pop\n        /* \"uen_management.sol\":2157:2165  is_owner */\n      dup1\n        /* \"uen_management.sol\":2149:2204  require(is_owner, \"Only admins can call this function\") */\n      tag_100\n      jumpi\n      mload(0x40)\n      0x08c379a000000000000000000000000000000000000000000000000000000000\n      dup2\n      mstore\n      0x04\n      add\n      tag_101\n      swap1\n      tag_68\n      jump\t// in\n    tag_101:\n      mload(0x40)\n      dup1\n      swap2\n      sub\n      swap1\n      revert\n    tag_100:\n        /* \"uen_management.sol\":4772:4778  _names */\n      dup2\n        /* \"uen_management.sol\":4772:4785  _names.length */\n      mload\n        /* \"uen_management.sol\":4756:4761  _uens */\n      dup4\n        /* \"uen_management.sol\":4756:4768  _uens.length */\n      mload\n        /* \"uen_management.sol\":4756:4785  _uens.length == _names.length */\n      eq\n        /* \"uen_management.sol\":4748:4824  require(_uens.length == _names.length, \"Mappings must have the same length\") */\n      tag_103\n      jumpi\n      mload(0x40)\n      0x08c379a000000000000000000000000000000000000000000000000000000000\n      dup2\n      mstore\n      0x04\n      add\n      tag_104\n      swap1\n      tag_105\n      jump\t// in\n    tag_104:\n      mload(0x40)\n      dup1\n      swap2\n      sub\n      swap1\n      revert\n    tag_103:\n        /* \"uen_management.sol\":4839:4848  uint256 i */\n      0x00\n        /* \"uen_management.sol\":4834:5020  for (uint256 i = 0; i < _uens.length; i++) {... */\n    tag_106:\n        /* \"uen_management.sol\":4858:4863  _uens */\n      dup4\n        /* \"uen_management.sol\":4858:4870  _uens.length */\n      mload\n        /* \"uen_management.sol\":4854:4855  i */\n      dup2\n        /* \"uen_management.sol\":4854:4870  i < _uens.length */\n      lt\n        /* \"uen_management.sol\":4834:5020  for (uint256 i = 0; i < _uens.length; i++) {... */\n      iszero\n      tag_107\n      jumpi\n        /* \"uen_management.sol\":4938:4939  0 */\n      0x00\n        /* \"uen_management.sol\":4905:4916  uen_to_name */\n      0x01\n        /* \"uen_management.sol\":4917:4922  _uens */\n      dup6\n        /* \"uen_management.sol\":4923:4924  i */\n      dup4\n        /* \"uen_management.sol\":4917:4925  _uens[i] */\n      dup2\n      mload\n      dup2\n      lt\n      tag_109\n      jumpi\n      tag_110\n      tag_63\n      jump\t// in\n    tag_110:\n    tag_109:\n      0x20\n      mul\n      0x20\n      add\n      add\n      mload\n        /* \"uen_management.sol\":4905:4926  uen_to_name[_uens[i]] */\n      mload(0x40)\n      tag_111\n      swap2\n      swap1\n      tag_76\n      jump\t// in\n    tag_111:\n      swap1\n      dup2\n      mstore\n      0x20\n      add\n      mload(0x40)\n      dup1\n      swap2\n      sub\n      swap1\n      keccak256\n        /* \"uen_management.sol\":4899:4934  bytes(uen_to_name[_uens[i]]).length */\n      dup1\n      sload\n      tag_112\n      swap1\n      tag_113\n      jump\t// in\n    tag_112:\n      swap1\n      pop\n        /* \"uen_management.sol\":4899:4939  bytes(uen_to_name[_uens[i]]).length != 0 */\n      sub\n        /* \"uen_management.sol\":4891:4962  require(bytes(uen_to_name[_uens[i]]).length != 0, \"UEN does not exist\") */\n      tag_114\n      jumpi\n      mload(0x40)\n      0x08c379a000000000000000000000000000000000000000000000000000000000\n      dup2\n      mstore\n      0x04\n      add\n      tag_115\n      swap1\n      tag_116\n      jump\t// in\n    tag_115:\n      mload(0x40)\n      dup1\n      swap2\n      sub\n      swap1\n      revert\n    tag_114:\n        /* \"uen_management.sol\":5000:5006  _names */\n      dup3\n        /* \"uen_management.sol\":5007:5008  i */\n      dup2\n        /* \"uen_management.sol\":5000:5009  _names[i] */\n      dup2\n      mload\n      dup2\n      lt\n      tag_117\n      jumpi\n      tag_118\n      tag_63\n      jump\t// in\n    tag_118:\n    tag_117:\n      0x20\n      mul\n      0x20\n      add\n      add\n      mload\n        /* \"uen_management.sol\":4976:4987  uen_to_name */\n      0x01\n        /* \"uen_management.sol\":4988:4993  _uens */\n      dup6\n        /* \"uen_management.sol\":4994:4995  i */\n      dup4\n        /* \"uen_management.sol\":4988:4996  _uens[i] */\n      dup2\n      mload\n      dup2\n      lt\n      tag_119\n      jumpi\n      tag_120\n      tag_63\n      jump\t// in\n    tag_120:\n    tag_119:\n      0x20\n      mul\n      0x20\n      add\n      add\n      mload\n        /* \"uen_management.sol\":4976:4997  uen_to_name[_uens[i]] */\n      mload(0x40)\n      tag_121\n      swap2\n      swap1\n      tag_76\n      jump\t// in\n    tag_121:\n      swap1\n      dup2\n      mstore\n      0x20\n      add\n      mload(0x40)\n      dup1\n      swap2\n      sub\n      swap1\n      keccak256\n        /* \"uen_management.sol\":4976:5009  uen_to_name[_uens[i]] = _names[i] */\n      swap1\n      dup2\n      tag_122\n      swap2\n      swap1\n      tag_86\n      jump\t// in\n    tag_122:\n      pop\n        /* \"uen_management.sol\":4872:4875  i++ */\n      dup1\n      dup1\n      0x01\n      add\n      swap2\n      pop\n      pop\n        /* \"uen_management.sol\":4834:5020  for (uint256 i = 0; i < _uens.length; i++) {... */\n      jump(tag_106)\n    tag_107:\n      pop\n        /* \"uen_management.sol\":1931:2222  {... */\n      pop\n        /* \"uen_management.sol\":4650:5026  function modify_uens(string[] memory _uens, string[] memory _names) external only_admin {... */\n      pop\n      pop\n      jump\t// out\n        /* \"uen_management.sol\":2448:2563  function get_name(string memory _uen) public view returns (string memory) {... */\n    tag_38:\n        /* \"uen_management.sol\":2507:2520  string memory */\n      0x60\n        /* \"uen_management.sol\":2539:2550  uen_to_name */\n      0x01\n        /* \"uen_management.sol\":2551:2555  _uen */\n      dup3\n        /* \"uen_management.sol\":2539:2556  uen_to_name[_uen] */\n      mload(0x40)\n      tag_124\n      swap2\n      swap1\n      tag_76\n      jump\t// in\n    tag_124:\n      swap1\n      dup2\n      mstore\n      0x20\n      add\n      mload(0x40)\n      dup1\n      swap2\n      sub\n      swap1\n      keccak256\n        /* \"uen_management.sol\":2532:2556  return uen_to_name[_uen] */\n      dup1\n      sload\n      tag_125\n      swap1\n      tag_113\n      jump\t// in\n    tag_125:\n      dup1\n      0x1f\n      add\n      0x20\n      dup1\n      swap2\n      div\n      mul\n      0x20\n      add\n      mload(0x40)\n      swap1\n      dup2\n      add\n      0x40\n      mstore\n      dup1\n      swap3\n      swap2\n      swap1\n      dup2\n      dup2\n      mstore\n      0x20\n      add\n      dup3\n      dup1\n      sload\n      tag_126\n      swap1\n      tag_113\n      jump\t// in\n    tag_126:\n      dup1\n      iszero\n      tag_127\n      jumpi\n      dup1\n      0x1f\n      lt\n      tag_128\n      jumpi\n      0x0100\n      dup1\n      dup4\n      sload\n      div\n      mul\n      dup4\n      mstore\n      swap2\n      0x20\n      add\n      swap2\n      jump(tag_127)\n    tag_128:\n      dup3\n      add\n      swap2\n      swap1\n      0x00\n      mstore\n      keccak256(0x00, 0x20)\n      swap1\n    tag_129:\n      dup2\n      sload\n      dup2\n      mstore\n      swap1\n      0x01\n      add\n      swap1\n      0x20\n      add\n      dup1\n      dup4\n      gt\n      tag_129\n      jumpi\n      dup3\n      swap1\n      sub\n      0x1f\n      and\n      dup3\n      add\n      swap2\n    tag_127:\n      pop\n      pop\n      pop\n      pop\n      pop\n      swap1\n      pop\n        /* \"uen_management.sol\":2448:2563  function get_name(string memory _uen) public view returns (string memory) {... */\n      swap2\n      swap1\n      pop\n      jump\t// out\n        /* \"uen_management.sol\":935:959  string[] public uen_list */\n    tag_43:\n      0x00\n      dup2\n      dup2\n      sload\n      dup2\n      lt\n      tag_130\n      jumpi\n      0x00\n      dup1\n      revert\n    tag_130:\n      swap1\n      0x00\n      mstore\n      keccak256(0x00, 0x20)\n      add\n      0x00\n      swap2\n      pop\n      swap1\n      pop\n      dup1\n      sload\n      tag_132\n      swap1\n      tag_113\n      jump\t// in\n    tag_132:\n      dup1\n      0x1f\n      add\n      0x20\n      dup1\n      swap2\n      div\n      mul\n      0x20\n      add\n      mload(0x40)\n      swap1\n      dup2\n      add\n      0x40\n      mstore\n      dup1\n      swap3\n      swap2\n      swap1\n      dup2\n      dup2\n      mstore\n      0x20\n      add\n      dup3\n      dup1\n      sload\n      tag_133\n      swap1\n      tag_113\n      jump\t// in\n    tag_133:\n      dup1\n      iszero\n      tag_134\n      jumpi\n      dup1\n      0x1f\n      lt\n      tag_135\n      jumpi\n      0x0100\n      dup1\n      dup4\n      sload\n      div\n      mul\n      dup4\n      mstore\n      swap2\n      0x20\n      add\n      swap2\n      jump(tag_134)\n    tag_135:\n      dup3\n      add\n      swap2\n      swap1\n      0x00\n      mstore\n      keccak256(0x00, 0x20)\n      swap1\n    tag_136:\n      dup2\n      sload\n      dup2\n      mstore\n      swap1\n      0x01\n      add\n      swap1\n      0x20\n      add\n      dup1\n      dup4\n      gt\n      tag_136\n      jumpi\n      dup3\n      swap1\n      sub\n      0x1f\n      and\n      dup3\n      add\n      swap2\n    tag_134:\n      pop\n      pop\n      pop\n      pop\n      pop\n      dup2\n      jump\t// out\n        /* \"uen_management.sol\":2631:2725  function get_all_uens() public view returns (string[] memory) {... */\n    tag_46:\n        /* \"uen_management.sol\":2676:2691  string[] memory */\n      0x60\n        /* \"uen_management.sol\":2710:2718  uen_list */\n      0x00\n        /* \"uen_management.sol\":2703:2718  return uen_list */\n      dup1\n      sload\n      dup1\n      0x20\n      mul\n      0x20\n      add\n      mload(0x40)\n      swap1\n      dup2\n      add\n      0x40\n      mstore\n      dup1\n      swap3\n      swap2\n      swap1\n      dup2\n      dup2\n      mstore\n      0x20\n      add\n      0x00\n      swap1\n    tag_138:\n      dup3\n      dup3\n      lt\n      iszero\n      tag_139\n      jumpi\n      dup4\n      dup3\n      swap1\n      0x00\n      mstore\n      keccak256(0x00, 0x20)\n      add\n      dup1\n      sload\n      tag_141\n      swap1\n      tag_113\n      jump\t// in\n    tag_141:\n      dup1\n      0x1f\n      add\n      0x20\n      dup1\n      swap2\n      div\n      mul\n      0x20\n      add\n      mload(0x40)\n      swap1\n      dup2\n      add\n      0x40\n      mstore\n      dup1\n      swap3\n      swap2\n      swap1\n      dup2\n      dup2\n      mstore\n      0x20\n      add\n      dup3\n      dup1\n      sload\n      tag_142\n      swap1\n      tag_113\n      jump\t// in\n    tag_142:\n      dup1\n      iszero\n      tag_143\n      jumpi\n      dup1\n      0x1f\n      lt\n      tag_144\n      jumpi\n      0x0100\n      dup1\n      dup4\n      sload\n      div\n      mul\n      dup4\n      mstore\n      swap2\n      0x20\n      add\n      swap2\n      jump(tag_143)\n    tag_144:\n      dup3\n      add\n      swap2\n      swap1\n      0x00\n      mstore\n      keccak256(0x00, 0x20)\n      swap1\n    tag_145:\n      dup2\n      sload\n      dup2\n      mstore\n      swap1\n      0x01\n      add\n      swap1\n      0x20\n      add\n      dup1\n      dup4\n      gt\n      tag_145\n      jumpi\n      dup3\n      swap1\n      sub\n      0x1f\n      and\n      dup3\n      add\n      swap2\n    tag_143:\n      pop\n      pop\n      pop\n      pop\n      pop\n      dup2\n      mstore\n      0x20\n      add\n      swap1\n      0x01\n      add\n      swap1\n      jump(tag_138)\n    tag_139:\n      pop\n      pop\n      pop\n      pop\n      swap1\n      pop\n        /* \"uen_management.sol\":2631:2725  function get_all_uens() public view returns (string[] memory) {... */\n      swap1\n      jump\t// out\n        /* \"uen_management.sol\":2282:2385  function get_admin_contract() public view returns (address) {... */\n    tag_50:\n        /* \"uen_management.sol\":2333:2340  address */\n      0x00\n        /* \"uen_management.sol\":2359:2378  admin_list_contract */\n      0x03\n      0x00\n      swap1\n      sload\n      swap1\n      0x0100\n      exp\n      swap1\n      div\n      0xffffffffffffffffffffffffffffffffffffffff\n      and\n        /* \"uen_management.sol\":2352:2378  return admin_list_contract */\n      swap1\n      pop\n        /* \"uen_management.sol\":2282:2385  function get_admin_contract() public view returns (address) {... */\n      swap1\n      jump\t// out\n        /* \"uen_management.sol\":2986:3499  function add_uens(string[] memory _uens, string[] memory _names) external only_admin {... */\n    tag_54:\n        /* \"uen_management.sol\":1941:1954  bool is_owner */\n      0x00\n        /* \"uen_management.sol\":1977:1986  uint256 i */\n      dup1\n        /* \"uen_management.sol\":1972:2140  for (uint256 i = 0; i < admins.length; i++) {... */\n    tag_148:\n        /* \"uen_management.sol\":1996:2002  admins */\n      0x05\n        /* \"uen_management.sol\":1996:2009  admins.length */\n      dup1\n      sload\n      swap1\n      pop\n        /* \"uen_management.sol\":1992:1993  i */\n      dup2\n        /* \"uen_management.sol\":1992:2009  i < admins.length */\n      lt\n        /* \"uen_management.sol\":1972:2140  for (uint256 i = 0; i < admins.length; i++) {... */\n      iszero\n      tag_149\n      jumpi\n        /* \"uen_management.sol\":2048:2054  admins */\n      0x05\n        /* \"uen_management.sol\":2055:2056  i */\n      dup2\n        /* \"uen_management.sol\":2048:2057  admins[i] */\n      dup2\n      sload\n      dup2\n      lt\n      tag_151\n      jumpi\n      tag_152\n      tag_63\n      jump\t// in\n    tag_152:\n    tag_151:\n      swap1\n      0x00\n      mstore\n      keccak256(0x00, 0x20)\n      add\n      0x00\n      swap1\n      sload\n      swap1\n      0x0100\n      exp\n      swap1\n      div\n      0xffffffffffffffffffffffffffffffffffffffff\n      and\n        /* \"uen_management.sol\":2034:2057  msg.sender == admins[i] */\n      0xffffffffffffffffffffffffffffffffffffffff\n      and\n        /* \"uen_management.sol\":2034:2044  msg.sender */\n      caller\n        /* \"uen_management.sol\":2034:2057  msg.sender == admins[i] */\n      0xffffffffffffffffffffffffffffffffffffffff\n      and\n      sub\n        /* \"uen_management.sol\":2030:2130  if (msg.sender == admins[i]) {... */\n      tag_154\n      jumpi\n        /* \"uen_management.sol\":2088:2092  true */\n      0x01\n        /* \"uen_management.sol\":2077:2092  is_owner = true */\n      swap2\n      pop\n        /* \"uen_management.sol\":2110:2115  break */\n      jump(tag_149)\n        /* \"uen_management.sol\":2030:2130  if (msg.sender == admins[i]) {... */\n    tag_154:\n        /* \"uen_management.sol\":2011:2014  i++ */\n      dup1\n      dup1\n      0x01\n      add\n      swap2\n      pop\n      pop\n        /* \"uen_management.sol\":1972:2140  for (uint256 i = 0; i < admins.length; i++) {... */\n      jump(tag_148)\n    tag_149:\n      pop\n        /* \"uen_management.sol\":2157:2165  is_owner */\n      dup1\n        /* \"uen_management.sol\":2149:2204  require(is_owner, \"Only admins can call this function\") */\n      tag_155\n      jumpi\n      mload(0x40)\n      0x08c379a000000000000000000000000000000000000000000000000000000000\n      dup2\n      mstore\n      0x04\n      add\n      tag_156\n      swap1\n      tag_68\n      jump\t// in\n    tag_156:\n      mload(0x40)\n      dup1\n      swap2\n      sub\n      swap1\n      revert\n    tag_155:\n        /* \"uen_management.sol\":3105:3111  _names */\n      dup2\n        /* \"uen_management.sol\":3105:3118  _names.length */\n      mload\n        /* \"uen_management.sol\":3089:3094  _uens */\n      dup4\n        /* \"uen_management.sol\":3089:3101  _uens.length */\n      mload\n        /* \"uen_management.sol\":3089:3118  _uens.length == _names.length */\n      eq\n        /* \"uen_management.sol\":3081:3157  require(_uens.length == _names.length, \"Mappings must have the same length\") */\n      tag_158\n      jumpi\n      mload(0x40)\n      0x08c379a000000000000000000000000000000000000000000000000000000000\n      dup2\n      mstore\n      0x04\n      add\n      tag_159\n      swap1\n      tag_105\n      jump\t// in\n    tag_159:\n      mload(0x40)\n      dup1\n      swap2\n      sub\n      swap1\n      revert\n    tag_158:\n        /* \"uen_management.sol\":3172:3181  uint256 i */\n      0x00\n        /* \"uen_management.sol\":3167:3448  for (uint256 i = 0; i < _uens.length; i++) {... */\n    tag_160:\n        /* \"uen_management.sol\":3191:3196  _uens */\n      dup4\n        /* \"uen_management.sol\":3191:3203  _uens.length */\n      mload\n        /* \"uen_management.sol\":3187:3188  i */\n      dup2\n        /* \"uen_management.sol\":3187:3203  i < _uens.length */\n      lt\n        /* \"uen_management.sol\":3167:3448  for (uint256 i = 0; i < _uens.length; i++) {... */\n      iszero\n      tag_161\n      jumpi\n        /* \"uen_management.sol\":3271:3272  0 */\n      0x00\n        /* \"uen_management.sol\":3238:3249  uen_to_name */\n      0x01\n        /* \"uen_management.sol\":3250:3255  _uens */\n      dup6\n        /* \"uen_management.sol\":3256:3257  i */\n      dup4\n        /* \"uen_management.sol\":3250:3258  _uens[i] */\n      dup2\n      mload\n      dup2\n      lt\n      tag_163\n      jumpi\n      tag_164\n      tag_63\n      jump\t// in\n    tag_164:\n    tag_163:\n      0x20\n      mul\n      0x20\n      add\n      add\n      mload\n        /* \"uen_management.sol\":3238:3259  uen_to_name[_uens[i]] */\n      mload(0x40)\n      tag_165\n      swap2\n      swap1\n      tag_76\n      jump\t// in\n    tag_165:\n      swap1\n      dup2\n      mstore\n      0x20\n      add\n      mload(0x40)\n      dup1\n      swap2\n      sub\n      swap1\n      keccak256\n        /* \"uen_management.sol\":3232:3267  bytes(uen_to_name[_uens[i]]).length */\n      dup1\n      sload\n      tag_166\n      swap1\n      tag_113\n      jump\t// in\n    tag_166:\n      swap1\n      pop\n        /* \"uen_management.sol\":3232:3272  bytes(uen_to_name[_uens[i]]).length == 0 */\n      eq\n        /* \"uen_management.sol\":3224:3295  require(bytes(uen_to_name[_uens[i]]).length == 0, \"UEN already exists\") */\n      tag_167\n      jumpi\n      mload(0x40)\n      0x08c379a000000000000000000000000000000000000000000000000000000000\n      dup2\n      mstore\n      0x04\n      add\n      tag_168\n      swap1\n      tag_169\n      jump\t// in\n    tag_168:\n      mload(0x40)\n      dup1\n      swap2\n      sub\n      swap1\n      revert\n    tag_167:\n        /* \"uen_management.sol\":3333:3339  _names */\n      dup3\n        /* \"uen_management.sol\":3340:3341  i */\n      dup2\n        /* \"uen_management.sol\":3333:3342  _names[i] */\n      dup2\n      mload\n      dup2\n      lt\n      tag_170\n      jumpi\n      tag_171\n      tag_63\n      jump\t// in\n    tag_171:\n    tag_170:\n      0x20\n      mul\n      0x20\n      add\n      add\n      mload\n        /* \"uen_management.sol\":3309:3320  uen_to_name */\n      0x01\n        /* \"uen_management.sol\":3321:3326  _uens */\n      dup6\n        /* \"uen_management.sol\":3327:3328  i */\n      dup4\n        /* \"uen_management.sol\":3321:3329  _uens[i] */\n      dup2\n      mload\n      dup2\n      lt\n      tag_172\n      jumpi\n      tag_173\n      tag_63\n      jump\t// in\n    tag_173:\n    tag_172:\n      0x20\n      mul\n      0x20\n      add\n      add\n      mload\n        /* \"uen_management.sol\":3309:3330  uen_to_name[_uens[i]] */\n      mload(0x40)\n      tag_174\n      swap2\n      swap1\n      tag_76\n      jump\t// in\n    tag_174:\n      swap1\n      dup2\n      mstore\n      0x20\n      add\n      mload(0x40)\n      dup1\n      swap2\n      sub\n      swap1\n      keccak256\n        /* \"uen_management.sol\":3309:3342  uen_to_name[_uens[i]] = _names[i] */\n      swap1\n      dup2\n      tag_175\n      swap2\n      swap1\n      tag_86\n      jump\t// in\n    tag_175:\n      pop\n        /* \"uen_management.sol\":3356:3364  uen_list */\n      0x00\n        /* \"uen_management.sol\":3370:3375  _uens */\n      dup5\n        /* \"uen_management.sol\":3376:3377  i */\n      dup3\n        /* \"uen_management.sol\":3370:3378  _uens[i] */\n      dup2\n      mload\n      dup2\n      lt\n      tag_176\n      jumpi\n      tag_177\n      tag_63\n      jump\t// in\n    tag_177:\n    tag_176:\n      0x20\n      mul\n      0x20\n      add\n      add\n      mload\n        /* \"uen_management.sol\":3356:3379  uen_list.push(_uens[i]) */\n      swap1\n      dup1\n      0x01\n      dup2\n      sload\n      add\n      dup1\n      dup3\n      sstore\n      dup1\n      swap2\n      pop\n      pop\n      0x01\n      swap1\n      sub\n      swap1\n      0x00\n      mstore\n      keccak256(0x00, 0x20)\n      add\n      0x00\n      swap1\n      swap2\n      swap1\n      swap2\n      swap1\n      swap2\n      pop\n      swap1\n      dup2\n      tag_179\n      swap2\n      swap1\n      tag_86\n      jump\t// in\n    tag_179:\n      pop\n        /* \"uen_management.sol\":3436:3437  1 */\n      0x01\n        /* \"uen_management.sol\":3418:3426  uen_list */\n      0x00\n        /* \"uen_management.sol\":3418:3433  uen_list.length */\n      dup1\n      sload\n      swap1\n      pop\n        /* \"uen_management.sol\":3418:3437  uen_list.length - 1 */\n      tag_180\n      swap2\n      swap1\n      tag_181\n      jump\t// in\n    tag_180:\n        /* \"uen_management.sol\":3393:3405  uen_to_index */\n      0x02\n        /* \"uen_management.sol\":3406:3411  _uens */\n      dup6\n        /* \"uen_management.sol\":3412:3413  i */\n      dup4\n        /* \"uen_management.sol\":3406:3414  _uens[i] */\n      dup2\n      mload\n      dup2\n      lt\n      tag_182\n      jumpi\n      tag_183\n      tag_63\n      jump\t// in\n    tag_183:\n    tag_182:\n      0x20\n      mul\n      0x20\n      add\n      add\n      mload\n        /* \"uen_management.sol\":3393:3415  uen_to_index[_uens[i]] */\n      mload(0x40)\n      tag_184\n      swap2\n      swap1\n      tag_76\n      jump\t// in\n    tag_184:\n      swap1\n      dup2\n      mstore\n      0x20\n      add\n      mload(0x40)\n      dup1\n      swap2\n      sub\n      swap1\n      keccak256\n        /* \"uen_management.sol\":3393:3437  uen_to_index[_uens[i]] = uen_list.length - 1 */\n      dup2\n      swap1\n      sstore\n      pop\n        /* \"uen_management.sol\":3205:3208  i++ */\n      dup1\n      dup1\n      0x01\n      add\n      swap2\n      pop\n      pop\n        /* \"uen_management.sol\":3167:3448  for (uint256 i = 0; i < _uens.length; i++) {... */\n      jump(tag_160)\n    tag_161:\n      pop\n        /* \"uen_management.sol\":3462:3492  uen_event(_uens, \"UENs added\") */\n      0x5462cca44bd73f863d8a33c18eddea04a24e4ac8e252404333dd97ac7a732ac8\n        /* \"uen_management.sol\":3472:3477  _uens */\n      dup4\n        /* \"uen_management.sol\":3462:3492  uen_event(_uens, \"UENs added\") */\n      mload(0x40)\n      tag_185\n      swap2\n      swap1\n      tag_186\n      jump\t// in\n    tag_185:\n      mload(0x40)\n      dup1\n      swap2\n      sub\n      swap1\n      log1\n        /* \"uen_management.sol\":1931:2222  {... */\n      pop\n        /* \"uen_management.sol\":2986:3499  function add_uens(string[] memory _uens, string[] memory _names) external only_admin {... */\n      pop\n      pop\n      jump\t// out\n    tag_78:\n      pop\n      dup1\n      sload\n      tag_187\n      swap1\n      tag_113\n      jump\t// in\n    tag_187:\n      0x00\n      dup3\n      sstore\n      dup1\n      0x1f\n      lt\n      tag_189\n      jumpi\n      pop\n      jump(tag_188)\n    tag_189:\n      0x1f\n      add\n      0x20\n      swap1\n      div\n      swap1\n      0x00\n      mstore\n      keccak256(0x00, 0x20)\n      swap1\n      dup2\n      add\n      swap1\n      tag_190\n      swap2\n      swap1\n      tag_191\n      jump\t// in\n    tag_190:\n    tag_188:\n      pop\n      jump\t// out\n    tag_191:\n    tag_192:\n      dup1\n      dup3\n      gt\n      iszero\n      tag_193\n      jumpi\n      0x00\n      dup2\n      0x00\n      swap1\n      sstore\n      pop\n      0x01\n      add\n      jump(tag_192)\n    tag_193:\n      pop\n      swap1\n      jump\t// out\n        /* \"#utility.yul\":7:82   */\n    tag_194:\n        /* \"#utility.yul\":40:46   */\n      0x00\n        /* \"#utility.yul\":73:75   */\n      0x40\n        /* \"#utility.yul\":67:76   */\n      mload\n        /* \"#utility.yul\":57:76   */\n      swap1\n      pop\n        /* \"#utility.yul\":7:82   */\n      swap1\n      jump\t// out\n        /* \"#utility.yul\":88:205   */\n    tag_195:\n        /* \"#utility.yul\":197:198   */\n      0x00\n        /* \"#utility.yul\":194:195   */\n      dup1\n        /* \"#utility.yul\":187:199   */\n      revert\n        /* \"#utility.yul\":211:328   */\n    tag_196:\n        /* \"#utility.yul\":320:321   */\n      0x00\n        /* \"#utility.yul\":317:318   */\n      dup1\n        /* \"#utility.yul\":310:322   */\n      revert\n        /* \"#utility.yul\":334:411   */\n    tag_197:\n        /* \"#utility.yul\":371:378   */\n      0x00\n        /* \"#utility.yul\":400:405   */\n      dup2\n        /* \"#utility.yul\":389:405   */\n      swap1\n      pop\n        /* \"#utility.yul\":334:411   */\n      swap2\n      swap1\n      pop\n      jump\t// out\n        /* \"#utility.yul\":417:539   */\n    tag_198:\n        /* \"#utility.yul\":490:514   */\n      tag_270\n        /* \"#utility.yul\":508:513   */\n      dup2\n        /* \"#utility.yul\":490:514   */\n      tag_197\n      jump\t// in\n    tag_270:\n        /* \"#utility.yul\":483:488   */\n      dup2\n        /* \"#utility.yul\":480:515   */\n      eq\n        /* \"#utility.yul\":470:533   */\n      tag_271\n      jumpi\n        /* \"#utility.yul\":529:530   */\n      0x00\n        /* \"#utility.yul\":526:527   */\n      dup1\n        /* \"#utility.yul\":519:531   */\n      revert\n        /* \"#utility.yul\":470:533   */\n    tag_271:\n        /* \"#utility.yul\":417:539   */\n      pop\n      jump\t// out\n        /* \"#utility.yul\":545:684   */\n    tag_199:\n        /* \"#utility.yul\":591:596   */\n      0x00\n        /* \"#utility.yul\":629:635   */\n      dup2\n        /* \"#utility.yul\":616:636   */\n      calldataload\n        /* \"#utility.yul\":607:636   */\n      swap1\n      pop\n        /* \"#utility.yul\":645:678   */\n      tag_273\n        /* \"#utility.yul\":672:677   */\n      dup2\n        /* \"#utility.yul\":645:678   */\n      tag_198\n      jump\t// in\n    tag_273:\n        /* \"#utility.yul\":545:684   */\n      swap3\n      swap2\n      pop\n      pop\n      jump\t// out\n        /* \"#utility.yul\":690:1019   */\n    tag_16:\n        /* \"#utility.yul\":749:755   */\n      0x00\n        /* \"#utility.yul\":798:800   */\n      0x20\n        /* \"#utility.yul\":786:795   */\n      dup3\n        /* \"#utility.yul\":777:784   */\n      dup5\n        /* \"#utility.yul\":773:796   */\n      sub\n        /* \"#utility.yul\":769:801   */\n      slt\n        /* \"#utility.yul\":766:885   */\n      iszero\n      tag_275\n      jumpi\n        /* \"#utility.yul\":804:883   */\n      tag_276\n      tag_195\n      jump\t// in\n    tag_276:\n        /* \"#utility.yul\":766:885   */\n    tag_275:\n        /* \"#utility.yul\":924:925   */\n      0x00\n        /* \"#utility.yul\":949:1002   */\n      tag_277\n        /* \"#utility.yul\":994:1001   */\n      dup5\n        /* \"#utility.yul\":985:991   */\n      dup3\n        /* \"#utility.yul\":974:983   */\n      dup6\n        /* \"#utility.yul\":970:992   */\n      add\n        /* \"#utility.yul\":949:1002   */\n      tag_199\n      jump\t// in\n    tag_277:\n        /* \"#utility.yul\":939:1002   */\n      swap2\n      pop\n        /* \"#utility.yul\":895:1012   */\n      pop\n        /* \"#utility.yul\":690:1019   */\n      swap3\n      swap2\n      pop\n      pop\n      jump\t// out\n        /* \"#utility.yul\":1025:1151   */\n    tag_200:\n        /* \"#utility.yul\":1062:1069   */\n      0x00\n        /* \"#utility.yul\":1102:1144   */\n      0xffffffffffffffffffffffffffffffffffffffff\n        /* \"#utility.yul\":1095:1100   */\n      dup3\n        /* \"#utility.yul\":1091:1145   */\n      and\n        /* \"#utility.yul\":1080:1145   */\n      swap1\n      pop\n        /* \"#utility.yul\":1025:1151   */\n      swap2\n      swap1\n      pop\n      jump\t// out\n        /* \"#utility.yul\":1157:1253   */\n    tag_201:\n        /* \"#utility.yul\":1194:1201   */\n      0x00\n        /* \"#utility.yul\":1223:1247   */\n      tag_280\n        /* \"#utility.yul\":1241:1246   */\n      dup3\n        /* \"#utility.yul\":1223:1247   */\n      tag_200\n      jump\t// in\n    tag_280:\n        /* \"#utility.yul\":1212:1247   */\n      swap1\n      pop\n        /* \"#utility.yul\":1157:1253   */\n      swap2\n      swap1\n      pop\n      jump\t// out\n        /* \"#utility.yul\":1259:1377   */\n    tag_202:\n        /* \"#utility.yul\":1346:1370   */\n      tag_282\n        /* \"#utility.yul\":1364:1369   */\n      dup2\n        /* \"#utility.yul\":1346:1370   */\n      tag_201\n      jump\t// in\n    tag_282:\n        /* \"#utility.yul\":1341:1344   */\n      dup3\n        /* \"#utility.yul\":1334:1371   */\n      mstore\n        /* \"#utility.yul\":1259:1377   */\n      pop\n      pop\n      jump\t// out\n        /* \"#utility.yul\":1383:1605   */\n    tag_19:\n        /* \"#utility.yul\":1476:1480   */\n      0x00\n        /* \"#utility.yul\":1514:1516   */\n      0x20\n        /* \"#utility.yul\":1503:1512   */\n      dup3\n        /* \"#utility.yul\":1499:1517   */\n      add\n        /* \"#utility.yul\":1491:1517   */\n      swap1\n      pop\n        /* \"#utility.yul\":1527:1598   */\n      tag_284\n        /* \"#utility.yul\":1595:1596   */\n      0x00\n        /* \"#utility.yul\":1584:1593   */\n      dup4\n        /* \"#utility.yul\":1580:1597   */\n      add\n        /* \"#utility.yul\":1571:1577   */\n      dup5\n        /* \"#utility.yul\":1527:1598   */\n      tag_202\n      jump\t// in\n    tag_284:\n        /* \"#utility.yul\":1383:1605   */\n      swap3\n      swap2\n      pop\n      pop\n      jump\t// out\n        /* \"#utility.yul\":1611:1728   */\n    tag_203:\n        /* \"#utility.yul\":1720:1721   */\n      0x00\n        /* \"#utility.yul\":1717:1718   */\n      dup1\n        /* \"#utility.yul\":1710:1722   */\n      revert\n        /* \"#utility.yul\":1734:1836   */\n    tag_204:\n        /* \"#utility.yul\":1775:1781   */\n      0x00\n        /* \"#utility.yul\":1826:1828   */\n      0x1f\n        /* \"#utility.yul\":1822:1829   */\n      not\n        /* \"#utility.yul\":1817:1819   */\n      0x1f\n        /* \"#utility.yul\":1810:1815   */\n      dup4\n        /* \"#utility.yul\":1806:1820   */\n      add\n        /* \"#utility.yul\":1802:1830   */\n      and\n        /* \"#utility.yul\":1792:1830   */\n      swap1\n      pop\n        /* \"#utility.yul\":1734:1836   */\n      swap2\n      swap1\n      pop\n      jump\t// out\n        /* \"#utility.yul\":1842:2022   */\n    tag_205:\n        /* \"#utility.yul\":1890:1967   */\n      0x4e487b7100000000000000000000000000000000000000000000000000000000\n        /* \"#utility.yul\":1887:1888   */\n      0x00\n        /* \"#utility.yul\":1880:1968   */\n      mstore\n        /* \"#utility.yul\":1987:1991   */\n      0x41\n        /* \"#utility.yul\":1984:1985   */\n      0x04\n        /* \"#utility.yul\":1977:1992   */\n      mstore\n        /* \"#utility.yul\":2011:2015   */\n      0x24\n        /* \"#utility.yul\":2008:2009   */\n      0x00\n        /* \"#utility.yul\":2001:2016   */\n      revert\n        /* \"#utility.yul\":2028:2309   */\n    tag_206:\n        /* \"#utility.yul\":2111:2138   */\n      tag_289\n        /* \"#utility.yul\":2133:2137   */\n      dup3\n        /* \"#utility.yul\":2111:2138   */\n      tag_204\n      jump\t// in\n    tag_289:\n        /* \"#utility.yul\":2103:2109   */\n      dup2\n        /* \"#utility.yul\":2099:2139   */\n      add\n        /* \"#utility.yul\":2241:2247   */\n      dup2\n        /* \"#utility.yul\":2229:2239   */\n      dup2\n        /* \"#utility.yul\":2226:2248   */\n      lt\n        /* \"#utility.yul\":2205:2223   */\n      0xffffffffffffffff\n        /* \"#utility.yul\":2193:2203   */\n      dup3\n        /* \"#utility.yul\":2190:2224   */\n      gt\n        /* \"#utility.yul\":2187:2249   */\n      or\n        /* \"#utility.yul\":2184:2272   */\n      iszero\n      tag_290\n      jumpi\n        /* \"#utility.yul\":2252:2270   */\n      tag_291\n      tag_205\n      jump\t// in\n    tag_291:\n        /* \"#utility.yul\":2184:2272   */\n    tag_290:\n        /* \"#utility.yul\":2292:2302   */\n      dup1\n        /* \"#utility.yul\":2288:2290   */\n      0x40\n        /* \"#utility.yul\":2281:2303   */\n      mstore\n        /* \"#utility.yul\":2071:2309   */\n      pop\n        /* \"#utility.yul\":2028:2309   */\n      pop\n      pop\n      jump\t// out\n        /* \"#utility.yul\":2315:2444   */\n    tag_207:\n        /* \"#utility.yul\":2349:2355   */\n      0x00\n        /* \"#utility.yul\":2376:2396   */\n      tag_293\n      tag_194\n      jump\t// in\n    tag_293:\n        /* \"#utility.yul\":2366:2396   */\n      swap1\n      pop\n        /* \"#utility.yul\":2405:2438   */\n      tag_294\n        /* \"#utility.yul\":2433:2437   */\n      dup3\n        /* \"#utility.yul\":2425:2431   */\n      dup3\n        /* \"#utility.yul\":2405:2438   */\n      tag_206\n      jump\t// in\n    tag_294:\n        /* \"#utility.yul\":2315:2444   */\n      swap2\n      swap1\n      pop\n      jump\t// out\n        /* \"#utility.yul\":2450:2771   */\n    tag_208:\n        /* \"#utility.yul\":2537:2541   */\n      0x00\n        /* \"#utility.yul\":2627:2645   */\n      0xffffffffffffffff\n        /* \"#utility.yul\":2619:2625   */\n      dup3\n        /* \"#utility.yul\":2616:2646   */\n      gt\n        /* \"#utility.yul\":2613:2669   */\n      iszero\n      tag_296\n      jumpi\n        /* \"#utility.yul\":2649:2667   */\n      tag_297\n      tag_205\n      jump\t// in\n    tag_297:\n        /* \"#utility.yul\":2613:2669   */\n    tag_296:\n        /* \"#utility.yul\":2699:2703   */\n      0x20\n        /* \"#utility.yul\":2691:2697   */\n      dup3\n        /* \"#utility.yul\":2687:2704   */\n      mul\n        /* \"#utility.yul\":2679:2704   */\n      swap1\n      pop\n        /* \"#utility.yul\":2759:2763   */\n      0x20\n        /* \"#utility.yul\":2753:2757   */\n      dup2\n        /* \"#utility.yul\":2749:2764   */\n      add\n        /* \"#utility.yul\":2741:2764   */\n      swap1\n      pop\n        /* \"#utility.yul\":2450:2771   */\n      swap2\n      swap1\n      pop\n      jump\t// out\n        /* \"#utility.yul\":2777:2894   */\n    tag_209:\n        /* \"#utility.yul\":2886:2887   */\n      0x00\n        /* \"#utility.yul\":2883:2884   */\n      dup1\n        /* \"#utility.yul\":2876:2888   */\n      revert\n        /* \"#utility.yul\":2900:3017   */\n    tag_210:\n        /* \"#utility.yul\":3009:3010   */\n      0x00\n        /* \"#utility.yul\":3006:3007   */\n      dup1\n        /* \"#utility.yul\":2999:3011   */\n      revert\n        /* \"#utility.yul\":3023:3331   */\n    tag_211:\n        /* \"#utility.yul\":3085:3089   */\n      0x00\n        /* \"#utility.yul\":3175:3193   */\n      0xffffffffffffffff\n        /* \"#utility.yul\":3167:3173   */\n      dup3\n        /* \"#utility.yul\":3164:3194   */\n      gt\n        /* \"#utility.yul\":3161:3217   */\n      iszero\n      tag_301\n      jumpi\n        /* \"#utility.yul\":3197:3215   */\n      tag_302\n      tag_205\n      jump\t// in\n    tag_302:\n        /* \"#utility.yul\":3161:3217   */\n    tag_301:\n        /* \"#utility.yul\":3235:3264   */\n      tag_303\n        /* \"#utility.yul\":3257:3263   */\n      dup3\n        /* \"#utility.yul\":3235:3264   */\n      tag_204\n      jump\t// in\n    tag_303:\n        /* \"#utility.yul\":3227:3264   */\n      swap1\n      pop\n        /* \"#utility.yul\":3319:3323   */\n      0x20\n        /* \"#utility.yul\":3313:3317   */\n      dup2\n        /* \"#utility.yul\":3309:3324   */\n      add\n        /* \"#utility.yul\":3301:3324   */\n      swap1\n      pop\n        /* \"#utility.yul\":3023:3331   */\n      swap2\n      swap1\n      pop\n      jump\t// out\n        /* \"#utility.yul\":3337:3483   */\n    tag_212:\n        /* \"#utility.yul\":3434:3440   */\n      dup3\n        /* \"#utility.yul\":3429:3432   */\n      dup2\n        /* \"#utility.yul\":3424:3427   */\n      dup4\n        /* \"#utility.yul\":3411:3441   */\n      calldatacopy\n        /* \"#utility.yul\":3475:3476   */\n      0x00\n        /* \"#utility.yul\":3466:3472   */\n      dup4\n        /* \"#utility.yul\":3461:3464   */\n      dup4\n        /* \"#utility.yul\":3457:3473   */\n      add\n        /* \"#utility.yul\":3450:3477   */\n      mstore\n        /* \"#utility.yul\":3337:3483   */\n      pop\n      pop\n      pop\n      jump\t// out\n        /* \"#utility.yul\":3489:3914   */\n    tag_213:\n        /* \"#utility.yul\":3567:3572   */\n      0x00\n        /* \"#utility.yul\":3592:3658   */\n      tag_306\n        /* \"#utility.yul\":3608:3657   */\n      tag_307\n        /* \"#utility.yul\":3650:3656   */\n      dup5\n        /* \"#utility.yul\":3608:3657   */\n      tag_211\n      jump\t// in\n    tag_307:\n        /* \"#utility.yul\":3592:3658   */\n      tag_207\n      jump\t// in\n    tag_306:\n        /* \"#utility.yul\":3583:3658   */\n      swap1\n      pop\n        /* \"#utility.yul\":3681:3687   */\n      dup3\n        /* \"#utility.yul\":3674:3679   */\n      dup2\n        /* \"#utility.yul\":3667:3688   */\n      mstore\n        /* \"#utility.yul\":3719:3723   */\n      0x20\n        /* \"#utility.yul\":3712:3717   */\n      dup2\n        /* \"#utility.yul\":3708:3724   */\n      add\n        /* \"#utility.yul\":3757:3760   */\n      dup5\n        /* \"#utility.yul\":3748:3754   */\n      dup5\n        /* \"#utility.yul\":3743:3746   */\n      dup5\n        /* \"#utility.yul\":3739:3755   */\n      add\n        /* \"#utility.yul\":3736:3761   */\n      gt\n        /* \"#utility.yul\":3733:3845   */\n      iszero\n      tag_308\n      jumpi\n        /* \"#utility.yul\":3764:3843   */\n      tag_309\n      tag_210\n      jump\t// in\n    tag_309:\n        /* \"#utility.yul\":3733:3845   */\n    tag_308:\n        /* \"#utility.yul\":3854:3908   */\n      tag_310\n        /* \"#utility.yul\":3901:3907   */\n      dup5\n        /* \"#utility.yul\":3896:3899   */\n      dup3\n        /* \"#utility.yul\":3891:3894   */\n      dup6\n        /* \"#utility.yul\":3854:3908   */\n      tag_212\n      jump\t// in\n    tag_310:\n        /* \"#utility.yul\":3573:3914   */\n      pop\n        /* \"#utility.yul\":3489:3914   */\n      swap4\n      swap3\n      pop\n      pop\n      pop\n      jump\t// out\n        /* \"#utility.yul\":3934:4274   */\n    tag_214:\n        /* \"#utility.yul\":3990:3995   */\n      0x00\n        /* \"#utility.yul\":4039:4042   */\n      dup3\n        /* \"#utility.yul\":4032:4036   */\n      0x1f\n        /* \"#utility.yul\":4024:4030   */\n      dup4\n        /* \"#utility.yul\":4020:4037   */\n      add\n        /* \"#utility.yul\":4016:4043   */\n      slt\n        /* \"#utility.yul\":4006:4128   */\n      tag_312\n      jumpi\n        /* \"#utility.yul\":4047:4126   */\n      tag_313\n      tag_203\n      jump\t// in\n    tag_313:\n        /* \"#utility.yul\":4006:4128   */\n    tag_312:\n        /* \"#utility.yul\":4164:4170   */\n      dup2\n        /* \"#utility.yul\":4151:4171   */\n      calldataload\n        /* \"#utility.yul\":4189:4268   */\n      tag_314\n        /* \"#utility.yul\":4264:4267   */\n      dup5\n        /* \"#utility.yul\":4256:4262   */\n      dup3\n        /* \"#utility.yul\":4249:4253   */\n      0x20\n        /* \"#utility.yul\":4241:4247   */\n      dup7\n        /* \"#utility.yul\":4237:4254   */\n      add\n        /* \"#utility.yul\":4189:4268   */\n      tag_213\n      jump\t// in\n    tag_314:\n        /* \"#utility.yul\":4180:4268   */\n      swap2\n      pop\n        /* \"#utility.yul\":3996:4274   */\n      pop\n        /* \"#utility.yul\":3934:4274   */\n      swap3\n      swap2\n      pop\n      pop\n      jump\t// out\n        /* \"#utility.yul\":4296:5241   */\n    tag_215:\n        /* \"#utility.yul\":4402:4407   */\n      0x00\n        /* \"#utility.yul\":4427:4518   */\n      tag_316\n        /* \"#utility.yul\":4443:4517   */\n      tag_317\n        /* \"#utility.yul\":4510:4516   */\n      dup5\n        /* \"#utility.yul\":4443:4517   */\n      tag_208\n      jump\t// in\n    tag_317:\n        /* \"#utility.yul\":4427:4518   */\n      tag_207\n      jump\t// in\n    tag_316:\n        /* \"#utility.yul\":4418:4518   */\n      swap1\n      pop\n        /* \"#utility.yul\":4538:4543   */\n      dup1\n        /* \"#utility.yul\":4567:4573   */\n      dup4\n        /* \"#utility.yul\":4560:4565   */\n      dup3\n        /* \"#utility.yul\":4553:4574   */\n      mstore\n        /* \"#utility.yul\":4601:4605   */\n      0x20\n        /* \"#utility.yul\":4594:4599   */\n      dup3\n        /* \"#utility.yul\":4590:4606   */\n      add\n        /* \"#utility.yul\":4583:4606   */\n      swap1\n      pop\n        /* \"#utility.yul\":4654:4658   */\n      0x20\n        /* \"#utility.yul\":4646:4652   */\n      dup5\n        /* \"#utility.yul\":4642:4659   */\n      mul\n        /* \"#utility.yul\":4634:4640   */\n      dup4\n        /* \"#utility.yul\":4630:4660   */\n      add\n        /* \"#utility.yul\":4683:4686   */\n      dup6\n        /* \"#utility.yul\":4675:4681   */\n      dup2\n        /* \"#utility.yul\":4672:4687   */\n      gt\n        /* \"#utility.yul\":4669:4791   */\n      iszero\n      tag_318\n      jumpi\n        /* \"#utility.yul\":4702:4781   */\n      tag_319\n      tag_209\n      jump\t// in\n    tag_319:\n        /* \"#utility.yul\":4669:4791   */\n    tag_318:\n        /* \"#utility.yul\":4817:4823   */\n      dup4\n        /* \"#utility.yul\":4800:5235   */\n    tag_320:\n        /* \"#utility.yul\":4834:4840   */\n      dup2\n        /* \"#utility.yul\":4829:4832   */\n      dup2\n        /* \"#utility.yul\":4826:4841   */\n      lt\n        /* \"#utility.yul\":4800:5235   */\n      iszero\n      tag_322\n      jumpi\n        /* \"#utility.yul\":4923:4926   */\n      dup1\n        /* \"#utility.yul\":4910:4927   */\n      calldataload\n        /* \"#utility.yul\":4959:4977   */\n      0xffffffffffffffff\n        /* \"#utility.yul\":4946:4957   */\n      dup2\n        /* \"#utility.yul\":4943:4978   */\n      gt\n        /* \"#utility.yul\":4940:5062   */\n      iszero\n      tag_323\n      jumpi\n        /* \"#utility.yul\":4981:5060   */\n      tag_324\n      tag_203\n      jump\t// in\n    tag_324:\n        /* \"#utility.yul\":4940:5062   */\n    tag_323:\n        /* \"#utility.yul\":5105:5116   */\n      dup1\n        /* \"#utility.yul\":5097:5103   */\n      dup7\n        /* \"#utility.yul\":5093:5117   */\n      add\n        /* \"#utility.yul\":5143:5190   */\n      tag_325\n        /* \"#utility.yul\":5186:5189   */\n      dup10\n        /* \"#utility.yul\":5174:5184   */\n      dup3\n        /* \"#utility.yul\":5143:5190   */\n      tag_214\n      jump\t// in\n    tag_325:\n        /* \"#utility.yul\":5138:5141   */\n      dup6\n        /* \"#utility.yul\":5131:5191   */\n      mstore\n        /* \"#utility.yul\":5220:5224   */\n      0x20\n        /* \"#utility.yul\":5215:5218   */\n      dup6\n        /* \"#utility.yul\":5211:5225   */\n      add\n        /* \"#utility.yul\":5204:5225   */\n      swap5\n      pop\n        /* \"#utility.yul\":4876:5235   */\n      pop\n      pop\n        /* \"#utility.yul\":4860:4864   */\n      0x20\n        /* \"#utility.yul\":4855:4858   */\n      dup2\n        /* \"#utility.yul\":4851:4865   */\n      add\n        /* \"#utility.yul\":4844:4865   */\n      swap1\n      pop\n        /* \"#utility.yul\":4800:5235   */\n      jump(tag_320)\n    tag_322:\n        /* \"#utility.yul\":4804:4825   */\n      pop\n        /* \"#utility.yul\":4408:5241   */\n      pop\n      pop\n        /* \"#utility.yul\":4296:5241   */\n      swap4\n      swap3\n      pop\n      pop\n      pop\n      jump\t// out\n        /* \"#utility.yul\":5263:5653   */\n    tag_216:\n        /* \"#utility.yul\":5344:5349   */\n      0x00\n        /* \"#utility.yul\":5393:5396   */\n      dup3\n        /* \"#utility.yul\":5386:5390   */\n      0x1f\n        /* \"#utility.yul\":5378:5384   */\n      dup4\n        /* \"#utility.yul\":5374:5391   */\n      add\n        /* \"#utility.yul\":5370:5397   */\n      slt\n        /* \"#utility.yul\":5360:5482   */\n      tag_327\n      jumpi\n        /* \"#utility.yul\":5401:5480   */\n      tag_328\n      tag_203\n      jump\t// in\n    tag_328:\n        /* \"#utility.yul\":5360:5482   */\n    tag_327:\n        /* \"#utility.yul\":5518:5524   */\n      dup2\n        /* \"#utility.yul\":5505:5525   */\n      calldataload\n        /* \"#utility.yul\":5543:5647   */\n      tag_329\n        /* \"#utility.yul\":5643:5646   */\n      dup5\n        /* \"#utility.yul\":5635:5641   */\n      dup3\n        /* \"#utility.yul\":5628:5632   */\n      0x20\n        /* \"#utility.yul\":5620:5626   */\n      dup7\n        /* \"#utility.yul\":5616:5633   */\n      add\n        /* \"#utility.yul\":5543:5647   */\n      tag_215\n      jump\t// in\n    tag_329:\n        /* \"#utility.yul\":5534:5647   */\n      swap2\n      pop\n        /* \"#utility.yul\":5350:5653   */\n      pop\n        /* \"#utility.yul\":5263:5653   */\n      swap3\n      swap2\n      pop\n      pop\n      jump\t// out\n        /* \"#utility.yul\":5659:6218   */\n    tag_22:\n        /* \"#utility.yul\":5753:5759   */\n      0x00\n        /* \"#utility.yul\":5802:5804   */\n      0x20\n        /* \"#utility.yul\":5790:5799   */\n      dup3\n        /* \"#utility.yul\":5781:5788   */\n      dup5\n        /* \"#utility.yul\":5777:5800   */\n      sub\n        /* \"#utility.yul\":5773:5805   */\n      slt\n        /* \"#utility.yul\":5770:5889   */\n      iszero\n      tag_331\n      jumpi\n        /* \"#utility.yul\":5808:5887   */\n      tag_332\n      tag_195\n      jump\t// in\n    tag_332:\n        /* \"#utility.yul\":5770:5889   */\n    tag_331:\n        /* \"#utility.yul\":5956:5957   */\n      0x00\n        /* \"#utility.yul\":5945:5954   */\n      dup3\n        /* \"#utility.yul\":5941:5958   */\n      add\n        /* \"#utility.yul\":5928:5959   */\n      calldataload\n        /* \"#utility.yul\":5986:6004   */\n      0xffffffffffffffff\n        /* \"#utility.yul\":5978:5984   */\n      dup2\n        /* \"#utility.yul\":5975:6005   */\n      gt\n        /* \"#utility.yul\":5972:6089   */\n      iszero\n      tag_333\n      jumpi\n        /* \"#utility.yul\":6008:6087   */\n      tag_334\n      tag_196\n      jump\t// in\n    tag_334:\n        /* \"#utility.yul\":5972:6089   */\n    tag_333:\n        /* \"#utility.yul\":6113:6201   */\n      tag_335\n        /* \"#utility.yul\":6193:6200   */\n      dup5\n        /* \"#utility.yul\":6184:6190   */\n      dup3\n        /* \"#utility.yul\":6173:6182   */\n      dup6\n        /* \"#utility.yul\":6169:6191   */\n      add\n        /* \"#utility.yul\":6113:6201   */\n      tag_216\n      jump\t// in\n    tag_335:\n        /* \"#utility.yul\":6103:6201   */\n      swap2\n      pop\n        /* \"#utility.yul\":5899:6211   */\n      pop\n        /* \"#utility.yul\":5659:6218   */\n      swap3\n      swap2\n      pop\n      pop\n      jump\t// out\n        /* \"#utility.yul\":6224:6284   */\n    tag_217:\n        /* \"#utility.yul\":6252:6255   */\n      0x00\n        /* \"#utility.yul\":6273:6278   */\n      dup2\n        /* \"#utility.yul\":6266:6278   */\n      swap1\n      pop\n        /* \"#utility.yul\":6224:6284   */\n      swap2\n      swap1\n      pop\n      jump\t// out\n        /* \"#utility.yul\":6290:6432   */\n    tag_218:\n        /* \"#utility.yul\":6340:6349   */\n      0x00\n        /* \"#utility.yul\":6373:6426   */\n      tag_338\n        /* \"#utility.yul\":6391:6425   */\n      tag_339\n        /* \"#utility.yul\":6400:6424   */\n      tag_340\n        /* \"#utility.yul\":6418:6423   */\n      dup5\n        /* \"#utility.yul\":6400:6424   */\n      tag_200\n      jump\t// in\n    tag_340:\n        /* \"#utility.yul\":6391:6425   */\n      tag_217\n      jump\t// in\n    tag_339:\n        /* \"#utility.yul\":6373:6426   */\n      tag_200\n      jump\t// in\n    tag_338:\n        /* \"#utility.yul\":6360:6426   */\n      swap1\n      pop\n        /* \"#utility.yul\":6290:6432   */\n      swap2\n      swap1\n      pop\n      jump\t// out\n        /* \"#utility.yul\":6438:6564   */\n    tag_219:\n        /* \"#utility.yul\":6488:6497   */\n      0x00\n        /* \"#utility.yul\":6521:6558   */\n      tag_342\n        /* \"#utility.yul\":6552:6557   */\n      dup3\n        /* \"#utility.yul\":6521:6558   */\n      tag_218\n      jump\t// in\n    tag_342:\n        /* \"#utility.yul\":6508:6558   */\n      swap1\n      pop\n        /* \"#utility.yul\":6438:6564   */\n      swap2\n      swap1\n      pop\n      jump\t// out\n        /* \"#utility.yul\":6570:6719   */\n    tag_220:\n        /* \"#utility.yul\":6643:6652   */\n      0x00\n        /* \"#utility.yul\":6676:6713   */\n      tag_344\n        /* \"#utility.yul\":6707:6712   */\n      dup3\n        /* \"#utility.yul\":6676:6713   */\n      tag_219\n      jump\t// in\n    tag_344:\n        /* \"#utility.yul\":6663:6713   */\n      swap1\n      pop\n        /* \"#utility.yul\":6570:6719   */\n      swap2\n      swap1\n      pop\n      jump\t// out\n        /* \"#utility.yul\":6725:6902   */\n    tag_221:\n        /* \"#utility.yul\":6835:6895   */\n      tag_346\n        /* \"#utility.yul\":6889:6894   */\n      dup2\n        /* \"#utility.yul\":6835:6895   */\n      tag_220\n      jump\t// in\n    tag_346:\n        /* \"#utility.yul\":6830:6833   */\n      dup3\n        /* \"#utility.yul\":6823:6896   */\n      mstore\n        /* \"#utility.yul\":6725:6902   */\n      pop\n      pop\n      jump\t// out\n        /* \"#utility.yul\":6908:7176   */\n    tag_27:\n        /* \"#utility.yul\":7024:7028   */\n      0x00\n        /* \"#utility.yul\":7062:7064   */\n      0x20\n        /* \"#utility.yul\":7051:7060   */\n      dup3\n        /* \"#utility.yul\":7047:7065   */\n      add\n        /* \"#utility.yul\":7039:7065   */\n      swap1\n      pop\n        /* \"#utility.yul\":7075:7169   */\n      tag_348\n        /* \"#utility.yul\":7166:7167   */\n      0x00\n        /* \"#utility.yul\":7155:7164   */\n      dup4\n        /* \"#utility.yul\":7151:7168   */\n      add\n        /* \"#utility.yul\":7142:7148   */\n      dup5\n        /* \"#utility.yul\":7075:7169   */\n      tag_221\n      jump\t// in\n    tag_348:\n        /* \"#utility.yul\":6908:7176   */\n      swap3\n      swap2\n      pop\n      pop\n      jump\t// out\n        /* \"#utility.yul\":7182:8116   */\n    tag_33:\n        /* \"#utility.yul\":7320:7326   */\n      0x00\n        /* \"#utility.yul\":7328:7334   */\n      dup1\n        /* \"#utility.yul\":7377:7379   */\n      0x40\n        /* \"#utility.yul\":7365:7374   */\n      dup4\n        /* \"#utility.yul\":7356:7363   */\n      dup6\n        /* \"#utility.yul\":7352:7375   */\n      sub\n        /* \"#utility.yul\":7348:7380   */\n      slt\n        /* \"#utility.yul\":7345:7464   */\n      iszero\n      tag_350\n      jumpi\n        /* \"#utility.yul\":7383:7462   */\n      tag_351\n      tag_195\n      jump\t// in\n    tag_351:\n        /* \"#utility.yul\":7345:7464   */\n    tag_350:\n        /* \"#utility.yul\":7531:7532   */\n      0x00\n        /* \"#utility.yul\":7520:7529   */\n      dup4\n        /* \"#utility.yul\":7516:7533   */\n      add\n        /* \"#utility.yul\":7503:7534   */\n      calldataload\n        /* \"#utility.yul\":7561:7579   */\n      0xffffffffffffffff\n        /* \"#utility.yul\":7553:7559   */\n      dup2\n        /* \"#utility.yul\":7550:7580   */\n      gt\n        /* \"#utility.yul\":7547:7664   */\n      iszero\n      tag_352\n      jumpi\n        /* \"#utility.yul\":7583:7662   */\n      tag_353\n      tag_196\n      jump\t// in\n    tag_353:\n        /* \"#utility.yul\":7547:7664   */\n    tag_352:\n        /* \"#utility.yul\":7688:7776   */\n      tag_354\n        /* \"#utility.yul\":7768:7775   */\n      dup6\n        /* \"#utility.yul\":7759:7765   */\n      dup3\n        /* \"#utility.yul\":7748:7757   */\n      dup7\n        /* \"#utility.yul\":7744:7766   */\n      add\n        /* \"#utility.yul\":7688:7776   */\n      tag_216\n      jump\t// in\n    tag_354:\n        /* \"#utility.yul\":7678:7776   */\n      swap3\n      pop\n        /* \"#utility.yul\":7474:7786   */\n      pop\n        /* \"#utility.yul\":7853:7855   */\n      0x20\n        /* \"#utility.yul\":7842:7851   */\n      dup4\n        /* \"#utility.yul\":7838:7856   */\n      add\n        /* \"#utility.yul\":7825:7857   */\n      calldataload\n        /* \"#utility.yul\":7884:7902   */\n      0xffffffffffffffff\n        /* \"#utility.yul\":7876:7882   */\n      dup2\n        /* \"#utility.yul\":7873:7903   */\n      gt\n        /* \"#utility.yul\":7870:7987   */\n      iszero\n      tag_355\n      jumpi\n        /* \"#utility.yul\":7906:7985   */\n      tag_356\n      tag_196\n      jump\t// in\n    tag_356:\n        /* \"#utility.yul\":7870:7987   */\n    tag_355:\n        /* \"#utility.yul\":8011:8099   */\n      tag_357\n        /* \"#utility.yul\":8091:8098   */\n      dup6\n        /* \"#utility.yul\":8082:8088   */\n      dup3\n        /* \"#utility.yul\":8071:8080   */\n      dup7\n        /* \"#utility.yul\":8067:8089   */\n      add\n        /* \"#utility.yul\":8011:8099   */\n      tag_216\n      jump\t// in\n    tag_357:\n        /* \"#utility.yul\":8001:8099   */\n      swap2\n      pop\n        /* \"#utility.yul\":7796:8109   */\n      pop\n        /* \"#utility.yul\":7182:8116   */\n      swap3\n      pop\n      swap3\n      swap1\n      pop\n      jump\t// out\n        /* \"#utility.yul\":8122:8631   */\n    tag_37:\n        /* \"#utility.yul\":8191:8197   */\n      0x00\n        /* \"#utility.yul\":8240:8242   */\n      0x20\n        /* \"#utility.yul\":8228:8237   */\n      dup3\n        /* \"#utility.yul\":8219:8226   */\n      dup5\n        /* \"#utility.yul\":8215:8238   */\n      sub\n        /* \"#utility.yul\":8211:8243   */\n      slt\n        /* \"#utility.yul\":8208:8327   */\n      iszero\n      tag_359\n      jumpi\n        /* \"#utility.yul\":8246:8325   */\n      tag_360\n      tag_195\n      jump\t// in\n    tag_360:\n        /* \"#utility.yul\":8208:8327   */\n    tag_359:\n        /* \"#utility.yul\":8394:8395   */\n      0x00\n        /* \"#utility.yul\":8383:8392   */\n      dup3\n        /* \"#utility.yul\":8379:8396   */\n      add\n        /* \"#utility.yul\":8366:8397   */\n      calldataload\n        /* \"#utility.yul\":8424:8442   */\n      0xffffffffffffffff\n        /* \"#utility.yul\":8416:8422   */\n      dup2\n        /* \"#utility.yul\":8413:8443   */\n      gt\n        /* \"#utility.yul\":8410:8527   */\n      iszero\n      tag_361\n      jumpi\n        /* \"#utility.yul\":8446:8525   */\n      tag_362\n      tag_196\n      jump\t// in\n    tag_362:\n        /* \"#utility.yul\":8410:8527   */\n    tag_361:\n        /* \"#utility.yul\":8551:8614   */\n      tag_363\n        /* \"#utility.yul\":8606:8613   */\n      dup5\n        /* \"#utility.yul\":8597:8603   */\n      dup3\n        /* \"#utility.yul\":8586:8595   */\n      dup6\n        /* \"#utility.yul\":8582:8604   */\n      add\n        /* \"#utility.yul\":8551:8614   */\n      tag_214\n      jump\t// in\n    tag_363:\n        /* \"#utility.yul\":8541:8614   */\n      swap2\n      pop\n        /* \"#utility.yul\":8337:8624   */\n      pop\n        /* \"#utility.yul\":8122:8631   */\n      swap3\n      swap2\n      pop\n      pop\n      jump\t// out\n        /* \"#utility.yul\":8637:8736   */\n    tag_222:\n        /* \"#utility.yul\":8689:8695   */\n      0x00\n        /* \"#utility.yul\":8723:8728   */\n      dup2\n        /* \"#utility.yul\":8717:8729   */\n      mload\n        /* \"#utility.yul\":8707:8729   */\n      swap1\n      pop\n        /* \"#utility.yul\":8637:8736   */\n      swap2\n      swap1\n      pop\n      jump\t// out\n        /* \"#utility.yul\":8742:8911   */\n    tag_223:\n        /* \"#utility.yul\":8826:8837   */\n      0x00\n        /* \"#utility.yul\":8860:8866   */\n      dup3\n        /* \"#utility.yul\":8855:8858   */\n      dup3\n        /* \"#utility.yul\":8848:8867   */\n      mstore\n        /* \"#utility.yul\":8900:8904   */\n      0x20\n        /* \"#utility.yul\":8895:8898   */\n      dup3\n        /* \"#utility.yul\":8891:8905   */\n      add\n        /* \"#utility.yul\":8876:8905   */\n      swap1\n      pop\n        /* \"#utility.yul\":8742:8911   */\n      swap3\n      swap2\n      pop\n      pop\n      jump\t// out\n        /* \"#utility.yul\":8917:9163   */\n    tag_224:\n        /* \"#utility.yul\":8998:8999   */\n      0x00\n        /* \"#utility.yul\":9008:9121   */\n    tag_367:\n        /* \"#utility.yul\":9022:9028   */\n      dup4\n        /* \"#utility.yul\":9019:9020   */\n      dup2\n        /* \"#utility.yul\":9016:9029   */\n      lt\n        /* \"#utility.yul\":9008:9121   */\n      iszero\n      tag_369\n      jumpi\n        /* \"#utility.yul\":9107:9108   */\n      dup1\n        /* \"#utility.yul\":9102:9105   */\n      dup3\n        /* \"#utility.yul\":9098:9109   */\n      add\n        /* \"#utility.yul\":9092:9110   */\n      mload\n        /* \"#utility.yul\":9088:9089   */\n      dup2\n        /* \"#utility.yul\":9083:9086   */\n      dup5\n        /* \"#utility.yul\":9079:9090   */\n      add\n        /* \"#utility.yul\":9072:9111   */\n      mstore\n        /* \"#utility.yul\":9044:9046   */\n      0x20\n        /* \"#utility.yul\":9041:9042   */\n      dup2\n        /* \"#utility.yul\":9037:9047   */\n      add\n        /* \"#utility.yul\":9032:9047   */\n      swap1\n      pop\n        /* \"#utility.yul\":9008:9121   */\n      jump(tag_367)\n    tag_369:\n        /* \"#utility.yul\":9155:9156   */\n      0x00\n        /* \"#utility.yul\":9146:9152   */\n      dup5\n        /* \"#utility.yul\":9141:9144   */\n      dup5\n        /* \"#utility.yul\":9137:9153   */\n      add\n        /* \"#utility.yul\":9130:9157   */\n      mstore\n        /* \"#utility.yul\":8979:9163   */\n      pop\n        /* \"#utility.yul\":8917:9163   */\n      pop\n      pop\n      pop\n      jump\t// out\n        /* \"#utility.yul\":9169:9546   */\n    tag_225:\n        /* \"#utility.yul\":9257:9260   */\n      0x00\n        /* \"#utility.yul\":9285:9324   */\n      tag_371\n        /* \"#utility.yul\":9318:9323   */\n      dup3\n        /* \"#utility.yul\":9285:9324   */\n      tag_222\n      jump\t// in\n    tag_371:\n        /* \"#utility.yul\":9340:9411   */\n      tag_372\n        /* \"#utility.yul\":9404:9410   */\n      dup2\n        /* \"#utility.yul\":9399:9402   */\n      dup6\n        /* \"#utility.yul\":9340:9411   */\n      tag_223\n      jump\t// in\n    tag_372:\n        /* \"#utility.yul\":9333:9411   */\n      swap4\n      pop\n        /* \"#utility.yul\":9420:9485   */\n      tag_373\n        /* \"#utility.yul\":9478:9484   */\n      dup2\n        /* \"#utility.yul\":9473:9476   */\n      dup6\n        /* \"#utility.yul\":9466:9470   */\n      0x20\n        /* \"#utility.yul\":9459:9464   */\n      dup7\n        /* \"#utility.yul\":9455:9471   */\n      add\n        /* \"#utility.yul\":9420:9485   */\n      tag_224\n      jump\t// in\n    tag_373:\n        /* \"#utility.yul\":9510:9539   */\n      tag_374\n        /* \"#utility.yul\":9532:9538   */\n      dup2\n        /* \"#utility.yul\":9510:9539   */\n      tag_204\n      jump\t// in\n    tag_374:\n        /* \"#utility.yul\":9505:9508   */\n      dup5\n        /* \"#utility.yul\":9501:9540   */\n      add\n        /* \"#utility.yul\":9494:9540   */\n      swap2\n      pop\n        /* \"#utility.yul\":9261:9546   */\n      pop\n        /* \"#utility.yul\":9169:9546   */\n      swap3\n      swap2\n      pop\n      pop\n      jump\t// out\n        /* \"#utility.yul\":9552:9865   */\n    tag_40:\n        /* \"#utility.yul\":9665:9669   */\n      0x00\n        /* \"#utility.yul\":9703:9705   */\n      0x20\n        /* \"#utility.yul\":9692:9701   */\n      dup3\n        /* \"#utility.yul\":9688:9706   */\n      add\n        /* \"#utility.yul\":9680:9706   */\n      swap1\n      pop\n        /* \"#utility.yul\":9752:9761   */\n      dup2\n        /* \"#utility.yul\":9746:9750   */\n      dup2\n        /* \"#utility.yul\":9742:9762   */\n      sub\n        /* \"#utility.yul\":9738:9739   */\n      0x00\n        /* \"#utility.yul\":9727:9736   */\n      dup4\n        /* \"#utility.yul\":9723:9740   */\n      add\n        /* \"#utility.yul\":9716:9763   */\n      mstore\n        /* \"#utility.yul\":9780:9858   */\n      tag_376\n        /* \"#utility.yul\":9853:9857   */\n      dup2\n        /* \"#utility.yul\":9844:9850   */\n      dup5\n        /* \"#utility.yul\":9780:9858   */\n      tag_225\n      jump\t// in\n    tag_376:\n        /* \"#utility.yul\":9772:9858   */\n      swap1\n      pop\n        /* \"#utility.yul\":9552:9865   */\n      swap3\n      swap2\n      pop\n      pop\n      jump\t// out\n        /* \"#utility.yul\":9871:9995   */\n    tag_226:\n        /* \"#utility.yul\":9948:9954   */\n      0x00\n        /* \"#utility.yul\":9982:9987   */\n      dup2\n        /* \"#utility.yul\":9976:9988   */\n      mload\n        /* \"#utility.yul\":9966:9988   */\n      swap1\n      pop\n        /* \"#utility.yul\":9871:9995   */\n      swap2\n      swap1\n      pop\n      jump\t// out\n        /* \"#utility.yul\":10001:10195   */\n    tag_227:\n        /* \"#utility.yul\":10110:10121   */\n      0x00\n        /* \"#utility.yul\":10144:10150   */\n      dup3\n        /* \"#utility.yul\":10139:10142   */\n      dup3\n        /* \"#utility.yul\":10132:10151   */\n      mstore\n        /* \"#utility.yul\":10184:10188   */\n      0x20\n        /* \"#utility.yul\":10179:10182   */\n      dup3\n        /* \"#utility.yul\":10175:10189   */\n      add\n        /* \"#utility.yul\":10160:10189   */\n      swap1\n      pop\n        /* \"#utility.yul\":10001:10195   */\n      swap3\n      swap2\n      pop\n      pop\n      jump\t// out\n        /* \"#utility.yul\":10201:10343   */\n    tag_228:\n        /* \"#utility.yul\":10278:10282   */\n      0x00\n        /* \"#utility.yul\":10301:10304   */\n      dup2\n        /* \"#utility.yul\":10293:10304   */\n      swap1\n      pop\n        /* \"#utility.yul\":10331:10335   */\n      0x20\n        /* \"#utility.yul\":10326:10329   */\n      dup3\n        /* \"#utility.yul\":10322:10336   */\n      add\n        /* \"#utility.yul\":10314:10336   */\n      swap1\n      pop\n        /* \"#utility.yul\":10201:10343   */\n      swap2\n      swap1\n      pop\n      jump\t// out\n        /* \"#utility.yul\":10349:10508   */\n    tag_229:\n        /* \"#utility.yul\":10423:10434   */\n      0x00\n        /* \"#utility.yul\":10457:10463   */\n      dup3\n        /* \"#utility.yul\":10452:10455   */\n      dup3\n        /* \"#utility.yul\":10445:10464   */\n      mstore\n        /* \"#utility.yul\":10497:10501   */\n      0x20\n        /* \"#utility.yul\":10492:10495   */\n      dup3\n        /* \"#utility.yul\":10488:10502   */\n      add\n        /* \"#utility.yul\":10473:10502   */\n      swap1\n      pop\n        /* \"#utility.yul\":10349:10508   */\n      swap3\n      swap2\n      pop\n      pop\n      jump\t// out\n        /* \"#utility.yul\":10514:10871   */\n    tag_230:\n        /* \"#utility.yul\":10592:10595   */\n      0x00\n        /* \"#utility.yul\":10620:10659   */\n      tag_382\n        /* \"#utility.yul\":10653:10658   */\n      dup3\n        /* \"#utility.yul\":10620:10659   */\n      tag_222\n      jump\t// in\n    tag_382:\n        /* \"#utility.yul\":10675:10736   */\n      tag_383\n        /* \"#utility.yul\":10729:10735   */\n      dup2\n        /* \"#utility.yul\":10724:10727   */\n      dup6\n        /* \"#utility.yul\":10675:10736   */\n      tag_229\n      jump\t// in\n    tag_383:\n        /* \"#utility.yul\":10668:10736   */\n      swap4\n      pop\n        /* \"#utility.yul\":10745:10810   */\n      tag_384\n        /* \"#utility.yul\":10803:10809   */\n      dup2\n        /* \"#utility.yul\":10798:10801   */\n      dup6\n        /* \"#utility.yul\":10791:10795   */\n      0x20\n        /* \"#utility.yul\":10784:10789   */\n      dup7\n        /* \"#utility.yul\":10780:10796   */\n      add\n        /* \"#utility.yul\":10745:10810   */\n      tag_224\n      jump\t// in\n    tag_384:\n        /* \"#utility.yul\":10835:10864   */\n      tag_385\n        /* \"#utility.yul\":10857:10863   */\n      dup2\n        /* \"#utility.yul\":10835:10864   */\n      tag_204\n      jump\t// in\n    tag_385:\n        /* \"#utility.yul\":10830:10833   */\n      dup5\n        /* \"#utility.yul\":10826:10865   */\n      add\n        /* \"#utility.yul\":10819:10865   */\n      swap2\n      pop\n        /* \"#utility.yul\":10596:10871   */\n      pop\n        /* \"#utility.yul\":10514:10871   */\n      swap3\n      swap2\n      pop\n      pop\n      jump\t// out\n        /* \"#utility.yul\":10877:11073   */\n    tag_231:\n        /* \"#utility.yul\":10966:10976   */\n      0x00\n        /* \"#utility.yul\":11001:11067   */\n      tag_387\n        /* \"#utility.yul\":11063:11066   */\n      dup4\n        /* \"#utility.yul\":11055:11061   */\n      dup4\n        /* \"#utility.yul\":11001:11067   */\n      tag_230\n      jump\t// in\n    tag_387:\n        /* \"#utility.yul\":10987:11067   */\n      swap1\n      pop\n        /* \"#utility.yul\":10877:11073   */\n      swap3\n      swap2\n      pop\n      pop\n      jump\t// out\n        /* \"#utility.yul\":11079:11202   */\n    tag_232:\n        /* \"#utility.yul\":11159:11163   */\n      0x00\n        /* \"#utility.yul\":11191:11195   */\n      0x20\n        /* \"#utility.yul\":11186:11189   */\n      dup3\n        /* \"#utility.yul\":11182:11196   */\n      add\n        /* \"#utility.yul\":11174:11196   */\n      swap1\n      pop\n        /* \"#utility.yul\":11079:11202   */\n      swap2\n      swap1\n      pop\n      jump\t// out\n        /* \"#utility.yul\":11236:12227   */\n    tag_233:\n        /* \"#utility.yul\":11375:11378   */\n      0x00\n        /* \"#utility.yul\":11404:11468   */\n      tag_390\n        /* \"#utility.yul\":11462:11467   */\n      dup3\n        /* \"#utility.yul\":11404:11468   */\n      tag_226\n      jump\t// in\n    tag_390:\n        /* \"#utility.yul\":11484:11580   */\n      tag_391\n        /* \"#utility.yul\":11573:11579   */\n      dup2\n        /* \"#utility.yul\":11568:11571   */\n      dup6\n        /* \"#utility.yul\":11484:11580   */\n      tag_227\n      jump\t// in\n    tag_391:\n        /* \"#utility.yul\":11477:11580   */\n      swap4\n      pop\n        /* \"#utility.yul\":11606:11609   */\n      dup4\n        /* \"#utility.yul\":11651:11655   */\n      0x20\n        /* \"#utility.yul\":11643:11649   */\n      dup3\n        /* \"#utility.yul\":11639:11656   */\n      mul\n        /* \"#utility.yul\":11634:11637   */\n      dup6\n        /* \"#utility.yul\":11630:11657   */\n      add\n        /* \"#utility.yul\":11681:11747   */\n      tag_392\n        /* \"#utility.yul\":11741:11746   */\n      dup6\n        /* \"#utility.yul\":11681:11747   */\n      tag_228\n      jump\t// in\n    tag_392:\n        /* \"#utility.yul\":11770:11777   */\n      dup1\n        /* \"#utility.yul\":11801:11802   */\n      0x00\n        /* \"#utility.yul\":11786:12182   */\n    tag_393:\n        /* \"#utility.yul\":11811:11817   */\n      dup6\n        /* \"#utility.yul\":11808:11809   */\n      dup2\n        /* \"#utility.yul\":11805:11818   */\n      lt\n        /* \"#utility.yul\":11786:12182   */\n      iszero\n      tag_395\n      jumpi\n        /* \"#utility.yul\":11882:11891   */\n      dup5\n        /* \"#utility.yul\":11876:11880   */\n      dup5\n        /* \"#utility.yul\":11872:11892   */\n      sub\n        /* \"#utility.yul\":11867:11870   */\n      dup10\n        /* \"#utility.yul\":11860:11893   */\n      mstore\n        /* \"#utility.yul\":11933:11939   */\n      dup2\n        /* \"#utility.yul\":11927:11940   */\n      mload\n        /* \"#utility.yul\":11961:12045   */\n      tag_396\n        /* \"#utility.yul\":12040:12044   */\n      dup6\n        /* \"#utility.yul\":12025:12038   */\n      dup3\n        /* \"#utility.yul\":11961:12045   */\n      tag_231\n      jump\t// in\n    tag_396:\n        /* \"#utility.yul\":11953:12045   */\n      swap5\n      pop\n        /* \"#utility.yul\":12068:12138   */\n      tag_397\n        /* \"#utility.yul\":12131:12137   */\n      dup4\n        /* \"#utility.yul\":12068:12138   */\n      tag_232\n      jump\t// in\n    tag_397:\n        /* \"#utility.yul\":12058:12138   */\n      swap3\n      pop\n        /* \"#utility.yul\":12167:12171   */\n      0x20\n        /* \"#utility.yul\":12162:12165   */\n      dup11\n        /* \"#utility.yul\":12158:12172   */\n      add\n        /* \"#utility.yul\":12151:12172   */\n      swap10\n      pop\n        /* \"#utility.yul\":11846:12182   */\n      pop\n        /* \"#utility.yul\":11833:11834   */\n      0x01\n        /* \"#utility.yul\":11830:11831   */\n      dup2\n        /* \"#utility.yul\":11826:11835   */\n      add\n        /* \"#utility.yul\":11821:11835   */\n      swap1\n      pop\n        /* \"#utility.yul\":11786:12182   */\n      jump(tag_393)\n    tag_395:\n        /* \"#utility.yul\":11790:11804   */\n      pop\n        /* \"#utility.yul\":12198:12202   */\n      dup3\n        /* \"#utility.yul\":12191:12202   */\n      swap8\n      pop\n        /* \"#utility.yul\":12218:12221   */\n      dup8\n        /* \"#utility.yul\":12211:12221   */\n      swap6\n      pop\n        /* \"#utility.yul\":11380:12227   */\n      pop\n      pop\n      pop\n      pop\n      pop\n        /* \"#utility.yul\":11236:12227   */\n      swap3\n      swap2\n      pop\n      pop\n      jump\t// out\n        /* \"#utility.yul\":12233:12646   */\n    tag_48:\n        /* \"#utility.yul\":12396:12400   */\n      0x00\n        /* \"#utility.yul\":12434:12436   */\n      0x20\n        /* \"#utility.yul\":12423:12432   */\n      dup3\n        /* \"#utility.yul\":12419:12437   */\n      add\n        /* \"#utility.yul\":12411:12437   */\n      swap1\n      pop\n        /* \"#utility.yul\":12483:12492   */\n      dup2\n        /* \"#utility.yul\":12477:12481   */\n      dup2\n        /* \"#utility.yul\":12473:12493   */\n      sub\n        /* \"#utility.yul\":12469:12470   */\n      0x00\n        /* \"#utility.yul\":12458:12467   */\n      dup4\n        /* \"#utility.yul\":12454:12471   */\n      add\n        /* \"#utility.yul\":12447:12494   */\n      mstore\n        /* \"#utility.yul\":12511:12639   */\n      tag_399\n        /* \"#utility.yul\":12634:12638   */\n      dup2\n        /* \"#utility.yul\":12625:12631   */\n      dup5\n        /* \"#utility.yul\":12511:12639   */\n      tag_233\n      jump\t// in\n    tag_399:\n        /* \"#utility.yul\":12503:12639   */\n      swap1\n      pop\n        /* \"#utility.yul\":12233:12646   */\n      swap3\n      swap2\n      pop\n      pop\n      jump\t// out\n        /* \"#utility.yul\":12652:12832   */\n    tag_63:\n        /* \"#utility.yul\":12700:12777   */\n      0x4e487b7100000000000000000000000000000000000000000000000000000000\n        /* \"#utility.yul\":12697:12698   */\n      0x00\n        /* \"#utility.yul\":12690:12778   */\n      mstore\n        /* \"#utility.yul\":12797:12801   */\n      0x32\n        /* \"#utility.yul\":12794:12795   */\n      0x04\n        /* \"#utility.yul\":12787:12802   */\n      mstore\n        /* \"#utility.yul\":12821:12825   */\n      0x24\n        /* \"#utility.yul\":12818:12819   */\n      0x00\n        /* \"#utility.yul\":12811:12826   */\n      revert\n        /* \"#utility.yul\":12838:13059   */\n    tag_234:\n        /* \"#utility.yul\":12978:13012   */\n      0x4f6e6c792061646d696e732063616e2063616c6c20746869732066756e637469\n        /* \"#utility.yul\":12974:12975   */\n      0x00\n        /* \"#utility.yul\":12966:12972   */\n      dup3\n        /* \"#utility.yul\":12962:12976   */\n      add\n        /* \"#utility.yul\":12955:13013   */\n      mstore\n        /* \"#utility.yul\":13047:13051   */\n      0x6f6e000000000000000000000000000000000000000000000000000000000000\n        /* \"#utility.yul\":13042:13044   */\n      0x20\n        /* \"#utility.yul\":13034:13040   */\n      dup3\n        /* \"#utility.yul\":13030:13045   */\n      add\n        /* \"#utility.yul\":13023:13052   */\n      mstore\n        /* \"#utility.yul\":12838:13059   */\n      pop\n      jump\t// out\n        /* \"#utility.yul\":13065:13431   */\n    tag_235:\n        /* \"#utility.yul\":13207:13210   */\n      0x00\n        /* \"#utility.yul\":13228:13295   */\n      tag_403\n        /* \"#utility.yul\":13292:13294   */\n      0x22\n        /* \"#utility.yul\":13287:13290   */\n      dup4\n        /* \"#utility.yul\":13228:13295   */\n      tag_223\n      jump\t// in\n    tag_403:\n        /* \"#utility.yul\":13221:13295   */\n      swap2\n      pop\n        /* \"#utility.yul\":13304:13397   */\n      tag_404\n        /* \"#utility.yul\":13393:13396   */\n      dup3\n        /* \"#utility.yul\":13304:13397   */\n      tag_234\n      jump\t// in\n    tag_404:\n        /* \"#utility.yul\":13422:13424   */\n      0x40\n        /* \"#utility.yul\":13417:13420   */\n      dup3\n        /* \"#utility.yul\":13413:13425   */\n      add\n        /* \"#utility.yul\":13406:13425   */\n      swap1\n      pop\n        /* \"#utility.yul\":13065:13431   */\n      swap2\n      swap1\n      pop\n      jump\t// out\n        /* \"#utility.yul\":13437:13856   */\n    tag_68:\n        /* \"#utility.yul\":13603:13607   */\n      0x00\n        /* \"#utility.yul\":13641:13643   */\n      0x20\n        /* \"#utility.yul\":13630:13639   */\n      dup3\n        /* \"#utility.yul\":13626:13644   */\n      add\n        /* \"#utility.yul\":13618:13644   */\n      swap1\n      pop\n        /* \"#utility.yul\":13690:13699   */\n      dup2\n        /* \"#utility.yul\":13684:13688   */\n      dup2\n        /* \"#utility.yul\":13680:13700   */\n      sub\n        /* \"#utility.yul\":13676:13677   */\n      0x00\n        /* \"#utility.yul\":13665:13674   */\n      dup4\n        /* \"#utility.yul\":13661:13678   */\n      add\n        /* \"#utility.yul\":13654:13701   */\n      mstore\n        /* \"#utility.yul\":13718:13849   */\n      tag_406\n        /* \"#utility.yul\":13844:13848   */\n      dup2\n        /* \"#utility.yul\":13718:13849   */\n      tag_235\n      jump\t// in\n    tag_406:\n        /* \"#utility.yul\":13710:13849   */\n      swap1\n      pop\n        /* \"#utility.yul\":13437:13856   */\n      swap2\n      swap1\n      pop\n      jump\t// out\n        /* \"#utility.yul\":13862:14010   */\n    tag_236:\n        /* \"#utility.yul\":13964:13975   */\n      0x00\n        /* \"#utility.yul\":14001:14004   */\n      dup2\n        /* \"#utility.yul\":13986:14004   */\n      swap1\n      pop\n        /* \"#utility.yul\":13862:14010   */\n      swap3\n      swap2\n      pop\n      pop\n      jump\t// out\n        /* \"#utility.yul\":14016:14406   */\n    tag_237:\n        /* \"#utility.yul\":14122:14125   */\n      0x00\n        /* \"#utility.yul\":14150:14189   */\n      tag_409\n        /* \"#utility.yul\":14183:14188   */\n      dup3\n        /* \"#utility.yul\":14150:14189   */\n      tag_222\n      jump\t// in\n    tag_409:\n        /* \"#utility.yul\":14205:14294   */\n      tag_410\n        /* \"#utility.yul\":14287:14293   */\n      dup2\n        /* \"#utility.yul\":14282:14285   */\n      dup6\n        /* \"#utility.yul\":14205:14294   */\n      tag_236\n      jump\t// in\n    tag_410:\n        /* \"#utility.yul\":14198:14294   */\n      swap4\n      pop\n        /* \"#utility.yul\":14303:14368   */\n      tag_411\n        /* \"#utility.yul\":14361:14367   */\n      dup2\n        /* \"#utility.yul\":14356:14359   */\n      dup6\n        /* \"#utility.yul\":14349:14353   */\n      0x20\n        /* \"#utility.yul\":14342:14347   */\n      dup7\n        /* \"#utility.yul\":14338:14354   */\n      add\n        /* \"#utility.yul\":14303:14368   */\n      tag_224\n      jump\t// in\n    tag_411:\n        /* \"#utility.yul\":14393:14399   */\n      dup1\n        /* \"#utility.yul\":14388:14391   */\n      dup5\n        /* \"#utility.yul\":14384:14400   */\n      add\n        /* \"#utility.yul\":14377:14400   */\n      swap2\n      pop\n        /* \"#utility.yul\":14126:14406   */\n      pop\n        /* \"#utility.yul\":14016:14406   */\n      swap3\n      swap2\n      pop\n      pop\n      jump\t// out\n        /* \"#utility.yul\":14412:14687   */\n    tag_76:\n        /* \"#utility.yul\":14544:14547   */\n      0x00\n        /* \"#utility.yul\":14566:14661   */\n      tag_413\n        /* \"#utility.yul\":14657:14660   */\n      dup3\n        /* \"#utility.yul\":14648:14654   */\n      dup5\n        /* \"#utility.yul\":14566:14661   */\n      tag_237\n      jump\t// in\n    tag_413:\n        /* \"#utility.yul\":14559:14661   */\n      swap2\n      pop\n        /* \"#utility.yul\":14678:14681   */\n      dup2\n        /* \"#utility.yul\":14671:14681   */\n      swap1\n      pop\n        /* \"#utility.yul\":14412:14687   */\n      swap3\n      swap2\n      pop\n      pop\n      jump\t// out\n        /* \"#utility.yul\":14693:14873   */\n    tag_238:\n        /* \"#utility.yul\":14741:14818   */\n      0x4e487b7100000000000000000000000000000000000000000000000000000000\n        /* \"#utility.yul\":14738:14739   */\n      0x00\n        /* \"#utility.yul\":14731:14819   */\n      mstore\n        /* \"#utility.yul\":14838:14842   */\n      0x22\n        /* \"#utility.yul\":14835:14836   */\n      0x04\n        /* \"#utility.yul\":14828:14843   */\n      mstore\n        /* \"#utility.yul\":14862:14866   */\n      0x24\n        /* \"#utility.yul\":14859:14860   */\n      0x00\n        /* \"#utility.yul\":14852:14867   */\n      revert\n        /* \"#utility.yul\":14879:15199   */\n    tag_113:\n        /* \"#utility.yul\":14923:14929   */\n      0x00\n        /* \"#utility.yul\":14960:14961   */\n      0x02\n        /* \"#utility.yul\":14954:14958   */\n      dup3\n        /* \"#utility.yul\":14950:14962   */\n      div\n        /* \"#utility.yul\":14940:14962   */\n      swap1\n      pop\n        /* \"#utility.yul\":15007:15008   */\n      0x01\n        /* \"#utility.yul\":15001:15005   */\n      dup3\n        /* \"#utility.yul\":14997:15009   */\n      and\n        /* \"#utility.yul\":15028:15046   */\n      dup1\n        /* \"#utility.yul\":15018:15099   */\n      tag_416\n      jumpi\n        /* \"#utility.yul\":15084:15088   */\n      0x7f\n        /* \"#utility.yul\":15076:15082   */\n      dup3\n        /* \"#utility.yul\":15072:15089   */\n      and\n        /* \"#utility.yul\":15062:15089   */\n      swap2\n      pop\n        /* \"#utility.yul\":15018:15099   */\n    tag_416:\n        /* \"#utility.yul\":15146:15148   */\n      0x20\n        /* \"#utility.yul\":15138:15144   */\n      dup3\n        /* \"#utility.yul\":15135:15149   */\n      lt\n        /* \"#utility.yul\":15115:15133   */\n      dup2\n        /* \"#utility.yul\":15112:15150   */\n      sub\n        /* \"#utility.yul\":15109:15193   */\n      tag_417\n      jumpi\n        /* \"#utility.yul\":15165:15183   */\n      tag_418\n      tag_238\n      jump\t// in\n    tag_418:\n        /* \"#utility.yul\":15109:15193   */\n    tag_417:\n        /* \"#utility.yul\":14930:15199   */\n      pop\n        /* \"#utility.yul\":14879:15199   */\n      swap2\n      swap1\n      pop\n      jump\t// out\n        /* \"#utility.yul\":15205:15346   */\n    tag_239:\n        /* \"#utility.yul\":15254:15258   */\n      0x00\n        /* \"#utility.yul\":15277:15280   */\n      dup2\n        /* \"#utility.yul\":15269:15280   */\n      swap1\n      pop\n        /* \"#utility.yul\":15300:15303   */\n      dup2\n        /* \"#utility.yul\":15297:15298   */\n      0x00\n        /* \"#utility.yul\":15290:15304   */\n      mstore\n        /* \"#utility.yul\":15334:15338   */\n      0x20\n        /* \"#utility.yul\":15331:15332   */\n      0x00\n        /* \"#utility.yul\":15321:15339   */\n      keccak256\n        /* \"#utility.yul\":15313:15339   */\n      swap1\n      pop\n        /* \"#utility.yul\":15205:15346   */\n      swap2\n      swap1\n      pop\n      jump\t// out\n        /* \"#utility.yul\":15352:15445   */\n    tag_240:\n        /* \"#utility.yul\":15389:15395   */\n      0x00\n        /* \"#utility.yul\":15436:15438   */\n      0x20\n        /* \"#utility.yul\":15431:15433   */\n      0x1f\n        /* \"#utility.yul\":15424:15429   */\n      dup4\n        /* \"#utility.yul\":15420:15434   */\n      add\n        /* \"#utility.yul\":15416:15439   */\n      div\n        /* \"#utility.yul\":15406:15439   */\n      swap1\n      pop\n        /* \"#utility.yul\":15352:15445   */\n      swap2\n      swap1\n      pop\n      jump\t// out\n        /* \"#utility.yul\":15451:15558   */\n    tag_241:\n        /* \"#utility.yul\":15495:15503   */\n      0x00\n        /* \"#utility.yul\":15545:15550   */\n      dup3\n        /* \"#utility.yul\":15539:15543   */\n      dup3\n        /* \"#utility.yul\":15535:15551   */\n      shl\n        /* \"#utility.yul\":15514:15551   */\n      swap1\n      pop\n        /* \"#utility.yul\":15451:15558   */\n      swap3\n      swap2\n      pop\n      pop\n      jump\t// out\n        /* \"#utility.yul\":15564:15957   */\n    tag_242:\n        /* \"#utility.yul\":15633:15639   */\n      0x00\n        /* \"#utility.yul\":15683:15684   */\n      0x08\n        /* \"#utility.yul\":15671:15681   */\n      dup4\n        /* \"#utility.yul\":15667:15685   */\n      mul\n        /* \"#utility.yul\":15706:15803   */\n      tag_423\n        /* \"#utility.yul\":15736:15802   */\n      0xffffffffffffffffffffffffffffffffffffffffffffffffffffffffffffffff\n        /* \"#utility.yul\":15725:15734   */\n      dup3\n        /* \"#utility.yul\":15706:15803   */\n      tag_241\n      jump\t// in\n    tag_423:\n        /* \"#utility.yul\":15824:15863   */\n      tag_424\n        /* \"#utility.yul\":15854:15862   */\n      dup7\n        /* \"#utility.yul\":15843:15852   */\n      dup4\n        /* \"#utility.yul\":15824:15863   */\n      tag_241\n      jump\t// in\n    tag_424:\n        /* \"#utility.yul\":15812:15863   */\n      swap6\n      pop\n        /* \"#utility.yul\":15896:15900   */\n      dup1\n        /* \"#utility.yul\":15892:15901   */\n      not\n        /* \"#utility.yul\":15885:15890   */\n      dup5\n        /* \"#utility.yul\":15881:15902   */\n      and\n        /* \"#utility.yul\":15872:15902   */\n      swap4\n      pop\n        /* \"#utility.yul\":15945:15949   */\n      dup1\n        /* \"#utility.yul\":15935:15943   */\n      dup7\n        /* \"#utility.yul\":15931:15950   */\n      and\n        /* \"#utility.yul\":15924:15929   */\n      dup5\n        /* \"#utility.yul\":15921:15951   */\n      or\n        /* \"#utility.yul\":15911:15951   */\n      swap3\n      pop\n        /* \"#utility.yul\":15640:15957   */\n      pop\n      pop\n        /* \"#utility.yul\":15564:15957   */\n      swap4\n      swap3\n      pop\n      pop\n      pop\n      jump\t// out\n        /* \"#utility.yul\":15963:16105   */\n    tag_243:\n        /* \"#utility.yul\":16013:16022   */\n      0x00\n        /* \"#utility.yul\":16046:16099   */\n      tag_426\n        /* \"#utility.yul\":16064:16098   */\n      tag_427\n        /* \"#utility.yul\":16073:16097   */\n      tag_428\n        /* \"#utility.yul\":16091:16096   */\n      dup5\n        /* \"#utility.yul\":16073:16097   */\n      tag_197\n      jump\t// in\n    tag_428:\n        /* \"#utility.yul\":16064:16098   */\n      tag_217\n      jump\t// in\n    tag_427:\n        /* \"#utility.yul\":16046:16099   */\n      tag_197\n      jump\t// in\n    tag_426:\n        /* \"#utility.yul\":16033:16099   */\n      swap1\n      pop\n        /* \"#utility.yul\":15963:16105   */\n      swap2\n      swap1\n      pop\n      jump\t// out\n        /* \"#utility.yul\":16111:16186   */\n    tag_244:\n        /* \"#utility.yul\":16154:16157   */\n      0x00\n        /* \"#utility.yul\":16175:16180   */\n      dup2\n        /* \"#utility.yul\":16168:16180   */\n      swap1\n      pop\n        /* \"#utility.yul\":16111:16186   */\n      swap2\n      swap1\n      pop\n      jump\t// out\n        /* \"#utility.yul\":16192:16461   */\n    tag_245:\n        /* \"#utility.yul\":16302:16341   */\n      tag_431\n        /* \"#utility.yul\":16333:16340   */\n      dup4\n        /* \"#utility.yul\":16302:16341   */\n      tag_243\n      jump\t// in\n    tag_431:\n        /* \"#utility.yul\":16363:16454   */\n      tag_432\n        /* \"#utility.yul\":16412:16453   */\n      tag_433\n        /* \"#utility.yul\":16436:16452   */\n      dup3\n        /* \"#utility.yul\":16412:16453   */\n      tag_244\n      jump\t// in\n    tag_433:\n        /* \"#utility.yul\":16404:16410   */\n      dup5\n        /* \"#utility.yul\":16397:16401   */\n      dup5\n        /* \"#utility.yul\":16391:16402   */\n      sload\n        /* \"#utility.yul\":16363:16454   */\n      tag_242\n      jump\t// in\n    tag_432:\n        /* \"#utility.yul\":16357:16361   */\n      dup3\n        /* \"#utility.yul\":16350:16455   */\n      sstore\n        /* \"#utility.yul\":16268:16461   */\n      pop\n        /* \"#utility.yul\":16192:16461   */\n      pop\n      pop\n      pop\n      jump\t// out\n        /* \"#utility.yul\":16467:16540   */\n    tag_246:\n        /* \"#utility.yul\":16512:16515   */\n      0x00\n        /* \"#utility.yul\":16467:16540   */\n      swap1\n      jump\t// out\n        /* \"#utility.yul\":16546:16735   */\n    tag_247:\n        /* \"#utility.yul\":16623:16655   */\n      tag_436\n      tag_246\n      jump\t// in\n    tag_436:\n        /* \"#utility.yul\":16664:16729   */\n      tag_437\n        /* \"#utility.yul\":16722:16728   */\n      dup2\n        /* \"#utility.yul\":16714:16720   */\n      dup5\n        /* \"#utility.yul\":16708:16712   */\n      dup5\n        /* \"#utility.yul\":16664:16729   */\n      tag_245\n      jump\t// in\n    tag_437:\n        /* \"#utility.yul\":16599:16735   */\n      pop\n        /* \"#utility.yul\":16546:16735   */\n      pop\n      pop\n      jump\t// out\n        /* \"#utility.yul\":16741:16927   */\n    tag_248:\n        /* \"#utility.yul\":16801:16921   */\n    tag_439:\n        /* \"#utility.yul\":16818:16821   */\n      dup2\n        /* \"#utility.yul\":16811:16816   */\n      dup2\n        /* \"#utility.yul\":16808:16822   */\n      lt\n        /* \"#utility.yul\":16801:16921   */\n      iszero\n      tag_441\n      jumpi\n        /* \"#utility.yul\":16872:16911   */\n      tag_442\n        /* \"#utility.yul\":16909:16910   */\n      0x00\n        /* \"#utility.yul\":16902:16907   */\n      dup3\n        /* \"#utility.yul\":16872:16911   */\n      tag_247\n      jump\t// in\n    tag_442:\n        /* \"#utility.yul\":16845:16846   */\n      0x01\n        /* \"#utility.yul\":16838:16843   */\n      dup2\n        /* \"#utility.yul\":16834:16847   */\n      add\n        /* \"#utility.yul\":16825:16847   */\n      swap1\n      pop\n        /* \"#utility.yul\":16801:16921   */\n      jump(tag_439)\n    tag_441:\n        /* \"#utility.yul\":16741:16927   */\n      pop\n      pop\n      jump\t// out\n        /* \"#utility.yul\":16933:17476   */\n    tag_249:\n        /* \"#utility.yul\":17034:17036   */\n      0x1f\n        /* \"#utility.yul\":17029:17032   */\n      dup3\n        /* \"#utility.yul\":17026:17037   */\n      gt\n        /* \"#utility.yul\":17023:17469   */\n      iszero\n      tag_444\n      jumpi\n        /* \"#utility.yul\":17068:17106   */\n      tag_445\n        /* \"#utility.yul\":17100:17105   */\n      dup2\n        /* \"#utility.yul\":17068:17106   */\n      tag_239\n      jump\t// in\n    tag_445:\n        /* \"#utility.yul\":17152:17181   */\n      tag_446\n        /* \"#utility.yul\":17170:17180   */\n      dup5\n        /* \"#utility.yul\":17152:17181   */\n      tag_240\n      jump\t// in\n    tag_446:\n        /* \"#utility.yul\":17142:17150   */\n      dup2\n        /* \"#utility.yul\":17138:17182   */\n      add\n        /* \"#utility.yul\":17335:17337   */\n      0x20\n        /* \"#utility.yul\":17323:17333   */\n      dup6\n        /* \"#utility.yul\":17320:17338   */\n      lt\n        /* \"#utility.yul\":17317:17366   */\n      iszero\n      tag_447\n      jumpi\n        /* \"#utility.yul\":17356:17364   */\n      dup2\n        /* \"#utility.yul\":17341:17364   */\n      swap1\n      pop\n        /* \"#utility.yul\":17317:17366   */\n    tag_447:\n        /* \"#utility.yul\":17379:17459   */\n      tag_448\n        /* \"#utility.yul\":17435:17457   */\n      tag_449\n        /* \"#utility.yul\":17453:17456   */\n      dup6\n        /* \"#utility.yul\":17435:17457   */\n      tag_240\n      jump\t// in\n    tag_449:\n        /* \"#utility.yul\":17425:17433   */\n      dup4\n        /* \"#utility.yul\":17421:17458   */\n      add\n        /* \"#utility.yul\":17408:17419   */\n      dup3\n        /* \"#utility.yul\":17379:17459   */\n      tag_248\n      jump\t// in\n    tag_448:\n        /* \"#utility.yul\":17038:17469   */\n      pop\n      pop\n        /* \"#utility.yul\":17023:17469   */\n    tag_444:\n        /* \"#utility.yul\":16933:17476   */\n      pop\n      pop\n      pop\n      jump\t// out\n        /* \"#utility.yul\":17482:17599   */\n    tag_250:\n        /* \"#utility.yul\":17536:17544   */\n      0x00\n        /* \"#utility.yul\":17586:17591   */\n      dup3\n        /* \"#utility.yul\":17580:17584   */\n      dup3\n        /* \"#utility.yul\":17576:17592   */\n      shr\n        /* \"#utility.yul\":17555:17592   */\n      swap1\n      pop\n        /* \"#utility.yul\":17482:17599   */\n      swap3\n      swap2\n      pop\n      pop\n      jump\t// out\n        /* \"#utility.yul\":17605:17774   */\n    tag_251:\n        /* \"#utility.yul\":17649:17655   */\n      0x00\n        /* \"#utility.yul\":17682:17733   */\n      tag_452\n        /* \"#utility.yul\":17730:17731   */\n      0x00\n        /* \"#utility.yul\":17726:17732   */\n      not\n        /* \"#utility.yul\":17718:17723   */\n      dup5\n        /* \"#utility.yul\":17715:17716   */\n      0x08\n        /* \"#utility.yul\":17711:17724   */\n      mul\n        /* \"#utility.yul\":17682:17733   */\n      tag_250\n      jump\t// in\n    tag_452:\n        /* \"#utility.yul\":17678:17734   */\n      not\n        /* \"#utility.yul\":17763:17767   */\n      dup1\n        /* \"#utility.yul\":17757:17761   */\n      dup4\n        /* \"#utility.yul\":17753:17768   */\n      and\n        /* \"#utility.yul\":17743:17768   */\n      swap2\n      pop\n        /* \"#utility.yul\":17656:17774   */\n      pop\n        /* \"#utility.yul\":17605:17774   */\n      swap3\n      swap2\n      pop\n      pop\n      jump\t// out\n        /* \"#utility.yul\":17779:18074   */\n    tag_252:\n        /* \"#utility.yul\":17855:17859   */\n      0x00\n        /* \"#utility.yul\":18001:18030   */\n      tag_454\n        /* \"#utility.yul\":18026:18029   */\n      dup4\n        /* \"#utility.yul\":18020:18024   */\n      dup4\n        /* \"#utility.yul\":18001:18030   */\n      tag_251\n      jump\t// in\n    tag_454:\n        /* \"#utility.yul\":17993:18030   */\n      swap2\n      pop\n        /* \"#utility.yul\":18063:18066   */\n      dup3\n        /* \"#utility.yul\":18060:18061   */\n      0x02\n        /* \"#utility.yul\":18056:18067   */\n      mul\n        /* \"#utility.yul\":18050:18054   */\n      dup3\n        /* \"#utility.yul\":18047:18068   */\n      or\n        /* \"#utility.yul\":18039:18068   */\n      swap1\n      pop\n        /* \"#utility.yul\":17779:18074   */\n      swap3\n      swap2\n      pop\n      pop\n      jump\t// out\n        /* \"#utility.yul\":18079:19474   */\n    tag_86:\n        /* \"#utility.yul\":18196:18233   */\n      tag_456\n        /* \"#utility.yul\":18229:18232   */\n      dup3\n        /* \"#utility.yul\":18196:18233   */\n      tag_222\n      jump\t// in\n    tag_456:\n        /* \"#utility.yul\":18298:18316   */\n      0xffffffffffffffff\n        /* \"#utility.yul\":18290:18296   */\n      dup2\n        /* \"#utility.yul\":18287:18317   */\n      gt\n        /* \"#utility.yul\":18284:18340   */\n      iszero\n      tag_457\n      jumpi\n        /* \"#utility.yul\":18320:18338   */\n      tag_458\n      tag_205\n      jump\t// in\n    tag_458:\n        /* \"#utility.yul\":18284:18340   */\n    tag_457:\n        /* \"#utility.yul\":18364:18402   */\n      tag_459\n        /* \"#utility.yul\":18396:18400   */\n      dup3\n        /* \"#utility.yul\":18390:18401   */\n      sload\n        /* \"#utility.yul\":18364:18402   */\n      tag_113\n      jump\t// in\n    tag_459:\n        /* \"#utility.yul\":18449:18516   */\n      tag_460\n        /* \"#utility.yul\":18509:18515   */\n      dup3\n        /* \"#utility.yul\":18501:18507   */\n      dup3\n        /* \"#utility.yul\":18495:18499   */\n      dup6\n        /* \"#utility.yul\":18449:18516   */\n      tag_249\n      jump\t// in\n    tag_460:\n        /* \"#utility.yul\":18543:18544   */\n      0x00\n        /* \"#utility.yul\":18567:18571   */\n      0x20\n        /* \"#utility.yul\":18554:18571   */\n      swap1\n      pop\n        /* \"#utility.yul\":18599:18601   */\n      0x1f\n        /* \"#utility.yul\":18591:18597   */\n      dup4\n        /* \"#utility.yul\":18588:18602   */\n      gt\n        /* \"#utility.yul\":18616:18617   */\n      0x01\n        /* \"#utility.yul\":18611:19229   */\n      dup2\n      eq\n      tag_462\n      jumpi\n        /* \"#utility.yul\":19273:19274   */\n      0x00\n        /* \"#utility.yul\":19290:19296   */\n      dup5\n        /* \"#utility.yul\":19287:19364   */\n      iszero\n      tag_463\n      jumpi\n        /* \"#utility.yul\":19339:19348   */\n      dup3\n        /* \"#utility.yul\":19334:19337   */\n      dup8\n        /* \"#utility.yul\":19330:19349   */\n      add\n        /* \"#utility.yul\":19324:19350   */\n      mload\n        /* \"#utility.yul\":19315:19350   */\n      swap1\n      pop\n        /* \"#utility.yul\":19287:19364   */\n    tag_463:\n        /* \"#utility.yul\":19390:19457   */\n      tag_464\n        /* \"#utility.yul\":19450:19456   */\n      dup6\n        /* \"#utility.yul\":19443:19448   */\n      dup3\n        /* \"#utility.yul\":19390:19457   */\n      tag_252\n      jump\t// in\n    tag_464:\n        /* \"#utility.yul\":19384:19388   */\n      dup7\n        /* \"#utility.yul\":19377:19458   */\n      sstore\n        /* \"#utility.yul\":19246:19468   */\n      pop\n        /* \"#utility.yul\":18581:19468   */\n      jump(tag_461)\n        /* \"#utility.yul\":18611:19229   */\n    tag_462:\n        /* \"#utility.yul\":18663:18667   */\n      0x1f\n        /* \"#utility.yul\":18659:18668   */\n      not\n        /* \"#utility.yul\":18651:18657   */\n      dup5\n        /* \"#utility.yul\":18647:18669   */\n      and\n        /* \"#utility.yul\":18697:18734   */\n      tag_465\n        /* \"#utility.yul\":18729:18733   */\n      dup7\n        /* \"#utility.yul\":18697:18734   */\n      tag_239\n      jump\t// in\n    tag_465:\n        /* \"#utility.yul\":18756:18757   */\n      0x00\n        /* \"#utility.yul\":18770:18978   */\n    tag_466:\n        /* \"#utility.yul\":18784:18791   */\n      dup3\n        /* \"#utility.yul\":18781:18782   */\n      dup2\n        /* \"#utility.yul\":18778:18792   */\n      lt\n        /* \"#utility.yul\":18770:18978   */\n      iszero\n      tag_468\n      jumpi\n        /* \"#utility.yul\":18863:18872   */\n      dup5\n        /* \"#utility.yul\":18858:18861   */\n      dup10\n        /* \"#utility.yul\":18854:18873   */\n      add\n        /* \"#utility.yul\":18848:18874   */\n      mload\n        /* \"#utility.yul\":18840:18846   */\n      dup3\n        /* \"#utility.yul\":18833:18875   */\n      sstore\n        /* \"#utility.yul\":18914:18915   */\n      0x01\n        /* \"#utility.yul\":18906:18912   */\n      dup3\n        /* \"#utility.yul\":18902:18916   */\n      add\n        /* \"#utility.yul\":18892:18916   */\n      swap2\n      pop\n        /* \"#utility.yul\":18961:18963   */\n      0x20\n        /* \"#utility.yul\":18950:18959   */\n      dup6\n        /* \"#utility.yul\":18946:18964   */\n      add\n        /* \"#utility.yul\":18933:18964   */\n      swap5\n      pop\n        /* \"#utility.yul\":18807:18811   */\n      0x20\n        /* \"#utility.yul\":18804:18805   */\n      dup2\n        /* \"#utility.yul\":18800:18812   */\n      add\n        /* \"#utility.yul\":18795:18812   */\n      swap1\n      pop\n        /* \"#utility.yul\":18770:18978   */\n      jump(tag_466)\n    tag_468:\n        /* \"#utility.yul\":19006:19012   */\n      dup7\n        /* \"#utility.yul\":18997:19004   */\n      dup4\n        /* \"#utility.yul\":18994:19013   */\n      lt\n        /* \"#utility.yul\":18991:19170   */\n      iszero\n      tag_469\n      jumpi\n        /* \"#utility.yul\":19064:19073   */\n      dup5\n        /* \"#utility.yul\":19059:19062   */\n      dup10\n        /* \"#utility.yul\":19055:19074   */\n      add\n        /* \"#utility.yul\":19049:19075   */\n      mload\n        /* \"#utility.yul\":19107:19155   */\n      tag_470\n        /* \"#utility.yul\":19149:19153   */\n      0x1f\n        /* \"#utility.yul\":19141:19147   */\n      dup10\n        /* \"#utility.yul\":19137:19154   */\n      and\n        /* \"#utility.yul\":19126:19135   */\n      dup3\n        /* \"#utility.yul\":19107:19155   */\n      tag_251\n      jump\t// in\n    tag_470:\n        /* \"#utility.yul\":19099:19105   */\n      dup4\n        /* \"#utility.yul\":19092:19156   */\n      sstore\n        /* \"#utility.yul\":19014:19170   */\n      pop\n        /* \"#utility.yul\":18991:19170   */\n    tag_469:\n        /* \"#utility.yul\":19216:19217   */\n      0x01\n        /* \"#utility.yul\":19212:19213   */\n      0x02\n        /* \"#utility.yul\":19204:19210   */\n      dup9\n        /* \"#utility.yul\":19200:19214   */\n      mul\n        /* \"#utility.yul\":19196:19218   */\n      add\n        /* \"#utility.yul\":19190:19194   */\n      dup9\n        /* \"#utility.yul\":19183:19219   */\n      sstore\n        /* \"#utility.yul\":18618:19229   */\n      pop\n      pop\n      pop\n        /* \"#utility.yul\":18581:19468   */\n    tag_461:\n      pop\n        /* \"#utility.yul\":18171:19474   */\n      pop\n      pop\n      pop\n        /* \"#utility.yul\":18079:19474   */\n      pop\n      pop\n      jump\t// out\n        /* \"#utility.yul\":19480:19642   */\n    tag_253:\n        /* \"#utility.yul\":19620:19634   */\n      0x55454e732072656d6f7665640000000000000000000000000000000000000000\n        /* \"#utility.yul\":19616:19617   */\n      0x00\n        /* \"#utility.yul\":19608:19614   */\n      dup3\n        /* \"#utility.yul\":19604:19618   */\n      add\n        /* \"#utility.yul\":19597:19635   */\n      mstore\n        /* \"#utility.yul\":19480:19642   */\n      pop\n      jump\t// out\n        /* \"#utility.yul\":19648:20014   */\n    tag_254:\n        /* \"#utility.yul\":19790:19793   */\n      0x00\n        /* \"#utility.yul\":19811:19878   */\n      tag_473\n        /* \"#utility.yul\":19875:19877   */\n      0x0c\n        /* \"#utility.yul\":19870:19873   */\n      dup4\n        /* \"#utility.yul\":19811:19878   */\n      tag_223\n      jump\t// in\n    tag_473:\n        /* \"#utility.yul\":19804:19878   */\n      swap2\n      pop\n        /* \"#utility.yul\":19887:19980   */\n      tag_474\n        /* \"#utility.yul\":19976:19979   */\n      dup3\n        /* \"#utility.yul\":19887:19980   */\n      tag_253\n      jump\t// in\n    tag_474:\n        /* \"#utility.yul\":20005:20007   */\n      0x20\n        /* \"#utility.yul\":20000:20003   */\n      dup3\n        /* \"#utility.yul\":19996:20008   */\n      add\n        /* \"#utility.yul\":19989:20008   */\n      swap1\n      pop\n        /* \"#utility.yul\":19648:20014   */\n      swap2\n      swap1\n      pop\n      jump\t// out\n        /* \"#utility.yul\":20020:20740   */\n    tag_91:\n        /* \"#utility.yul\":20284:20288   */\n      0x00\n        /* \"#utility.yul\":20322:20324   */\n      0x40\n        /* \"#utility.yul\":20311:20320   */\n      dup3\n        /* \"#utility.yul\":20307:20325   */\n      add\n        /* \"#utility.yul\":20299:20325   */\n      swap1\n      pop\n        /* \"#utility.yul\":20371:20380   */\n      dup2\n        /* \"#utility.yul\":20365:20369   */\n      dup2\n        /* \"#utility.yul\":20361:20381   */\n      sub\n        /* \"#utility.yul\":20357:20358   */\n      0x00\n        /* \"#utility.yul\":20346:20355   */\n      dup4\n        /* \"#utility.yul\":20342:20359   */\n      add\n        /* \"#utility.yul\":20335:20382   */\n      mstore\n        /* \"#utility.yul\":20399:20527   */\n      tag_476\n        /* \"#utility.yul\":20522:20526   */\n      dup2\n        /* \"#utility.yul\":20513:20519   */\n      dup5\n        /* \"#utility.yul\":20399:20527   */\n      tag_233\n      jump\t// in\n    tag_476:\n        /* \"#utility.yul\":20391:20527   */\n      swap1\n      pop\n        /* \"#utility.yul\":20574:20583   */\n      dup2\n        /* \"#utility.yul\":20568:20572   */\n      dup2\n        /* \"#utility.yul\":20564:20584   */\n      sub\n        /* \"#utility.yul\":20559:20561   */\n      0x20\n        /* \"#utility.yul\":20548:20557   */\n      dup4\n        /* \"#utility.yul\":20544:20562   */\n      add\n        /* \"#utility.yul\":20537:20585   */\n      mstore\n        /* \"#utility.yul\":20602:20733   */\n      tag_477\n        /* \"#utility.yul\":20728:20732   */\n      dup2\n        /* \"#utility.yul\":20602:20733   */\n      tag_254\n      jump\t// in\n    tag_477:\n        /* \"#utility.yul\":20594:20733   */\n      swap1\n      pop\n        /* \"#utility.yul\":20020:20740   */\n      swap3\n      swap2\n      pop\n      pop\n      jump\t// out\n        /* \"#utility.yul\":20746:20967   */\n    tag_255:\n        /* \"#utility.yul\":20886:20920   */\n      0x4d617070696e6773206d7573742068617665207468652073616d65206c656e67\n        /* \"#utility.yul\":20882:20883   */\n      0x00\n        /* \"#utility.yul\":20874:20880   */\n      dup3\n        /* \"#utility.yul\":20870:20884   */\n      add\n        /* \"#utility.yul\":20863:20921   */\n      mstore\n        /* \"#utility.yul\":20955:20959   */\n      0x7468000000000000000000000000000000000000000000000000000000000000\n        /* \"#utility.yul\":20950:20952   */\n      0x20\n        /* \"#utility.yul\":20942:20948   */\n      dup3\n        /* \"#utility.yul\":20938:20953   */\n      add\n        /* \"#utility.yul\":20931:20960   */\n      mstore\n        /* \"#utility.yul\":20746:20967   */\n      pop\n      jump\t// out\n        /* \"#utility.yul\":20973:21339   */\n    tag_256:\n        /* \"#utility.yul\":21115:21118   */\n      0x00\n        /* \"#utility.yul\":21136:21203   */\n      tag_480\n        /* \"#utility.yul\":21200:21202   */\n      0x22\n        /* \"#utility.yul\":21195:21198   */\n      dup4\n        /* \"#utility.yul\":21136:21203   */\n      tag_223\n      jump\t// in\n    tag_480:\n        /* \"#utility.yul\":21129:21203   */\n      swap2\n      pop\n        /* \"#utility.yul\":21212:21305   */\n      tag_481\n        /* \"#utility.yul\":21301:21304   */\n      dup3\n        /* \"#utility.yul\":21212:21305   */\n      tag_255\n      jump\t// in\n    tag_481:\n        /* \"#utility.yul\":21330:21332   */\n      0x40\n        /* \"#utility.yul\":21325:21328   */\n      dup3\n        /* \"#utility.yul\":21321:21333   */\n      add\n        /* \"#utility.yul\":21314:21333   */\n      swap1\n      pop\n        /* \"#utility.yul\":20973:21339   */\n      swap2\n      swap1\n      pop\n      jump\t// out\n        /* \"#utility.yul\":21345:21764   */\n    tag_105:\n        /* \"#utility.yul\":21511:21515   */\n      0x00\n        /* \"#utility.yul\":21549:21551   */\n      0x20\n        /* \"#utility.yul\":21538:21547   */\n      dup3\n        /* \"#utility.yul\":21534:21552   */\n      add\n        /* \"#utility.yul\":21526:21552   */\n      swap1\n      pop\n        /* \"#utility.yul\":21598:21607   */\n      dup2\n        /* \"#utility.yul\":21592:21596   */\n      dup2\n        /* \"#utility.yul\":21588:21608   */\n      sub\n        /* \"#utility.yul\":21584:21585   */\n      0x00\n        /* \"#utility.yul\":21573:21582   */\n      dup4\n        /* \"#utility.yul\":21569:21586   */\n      add\n        /* \"#utility.yul\":21562:21609   */\n      mstore\n        /* \"#utility.yul\":21626:21757   */\n      tag_483\n        /* \"#utility.yul\":21752:21756   */\n      dup2\n        /* \"#utility.yul\":21626:21757   */\n      tag_256\n      jump\t// in\n    tag_483:\n        /* \"#utility.yul\":21618:21757   */\n      swap1\n      pop\n        /* \"#utility.yul\":21345:21764   */\n      swap2\n      swap1\n      pop\n      jump\t// out\n        /* \"#utility.yul\":21770:21938   */\n    tag_257:\n        /* \"#utility.yul\":21910:21930   */\n      0x55454e20646f6573206e6f742065786973740000000000000000000000000000\n        /* \"#utility.yul\":21906:21907   */\n      0x00\n        /* \"#utility.yul\":21898:21904   */\n      dup3\n        /* \"#utility.yul\":21894:21908   */\n      add\n        /* \"#utility.yul\":21887:21931   */\n      mstore\n        /* \"#utility.yul\":21770:21938   */\n      pop\n      jump\t// out\n        /* \"#utility.yul\":21944:22310   */\n    tag_258:\n        /* \"#utility.yul\":22086:22089   */\n      0x00\n        /* \"#utility.yul\":22107:22174   */\n      tag_486\n        /* \"#utility.yul\":22171:22173   */\n      0x12\n        /* \"#utility.yul\":22166:22169   */\n      dup4\n        /* \"#utility.yul\":22107:22174   */\n      tag_223\n      jump\t// in\n    tag_486:\n        /* \"#utility.yul\":22100:22174   */\n      swap2\n      pop\n        /* \"#utility.yul\":22183:22276   */\n      tag_487\n        /* \"#utility.yul\":22272:22275   */\n      dup3\n        /* \"#utility.yul\":22183:22276   */\n      tag_257\n      jump\t// in\n    tag_487:\n        /* \"#utility.yul\":22301:22303   */\n      0x20\n        /* \"#utility.yul\":22296:22299   */\n      dup3\n        /* \"#utility.yul\":22292:22304   */\n      add\n        /* \"#utility.yul\":22285:22304   */\n      swap1\n      pop\n        /* \"#utility.yul\":21944:22310   */\n      swap2\n      swap1\n      pop\n      jump\t// out\n        /* \"#utility.yul\":22316:22735   */\n    tag_116:\n        /* \"#utility.yul\":22482:22486   */\n      0x00\n        /* \"#utility.yul\":22520:22522   */\n      0x20\n        /* \"#utility.yul\":22509:22518   */\n      dup3\n        /* \"#utility.yul\":22505:22523   */\n      add\n        /* \"#utility.yul\":22497:22523   */\n      swap1\n      pop\n        /* \"#utility.yul\":22569:22578   */\n      dup2\n        /* \"#utility.yul\":22563:22567   */\n      dup2\n        /* \"#utility.yul\":22559:22579   */\n      sub\n        /* \"#utility.yul\":22555:22556   */\n      0x00\n        /* \"#utility.yul\":22544:22553   */\n      dup4\n        /* \"#utility.yul\":22540:22557   */\n      add\n        /* \"#utility.yul\":22533:22580   */\n      mstore\n        /* \"#utility.yul\":22597:22728   */\n      tag_489\n        /* \"#utility.yul\":22723:22727   */\n      dup2\n        /* \"#utility.yul\":22597:22728   */\n      tag_258\n      jump\t// in\n    tag_489:\n        /* \"#utility.yul\":22589:22728   */\n      swap1\n      pop\n        /* \"#utility.yul\":22316:22735   */\n      swap2\n      swap1\n      pop\n      jump\t// out\n        /* \"#utility.yul\":22741:22909   */\n    tag_259:\n        /* \"#utility.yul\":22881:22901   */\n      0x55454e20616c7265616479206578697374730000000000000000000000000000\n        /* \"#utility.yul\":22877:22878   */\n      0x00\n        /* \"#utility.yul\":22869:22875   */\n      dup3\n        /* \"#utility.yul\":22865:22879   */\n      add\n        /* \"#utility.yul\":22858:22902   */\n      mstore\n        /* \"#utility.yul\":22741:22909   */\n      pop\n      jump\t// out\n        /* \"#utility.yul\":22915:23281   */\n    tag_260:\n        /* \"#utility.yul\":23057:23060   */\n      0x00\n        /* \"#utility.yul\":23078:23145   */\n      tag_492\n        /* \"#utility.yul\":23142:23144   */\n      0x12\n        /* \"#utility.yul\":23137:23140   */\n      dup4\n        /* \"#utility.yul\":23078:23145   */\n      tag_223\n      jump\t// in\n    tag_492:\n        /* \"#utility.yul\":23071:23145   */\n      swap2\n      pop\n        /* \"#utility.yul\":23154:23247   */\n      tag_493\n        /* \"#utility.yul\":23243:23246   */\n      dup3\n        /* \"#utility.yul\":23154:23247   */\n      tag_259\n      jump\t// in\n    tag_493:\n        /* \"#utility.yul\":23272:23274   */\n      0x20\n        /* \"#utility.yul\":23267:23270   */\n      dup3\n        /* \"#utility.yul\":23263:23275   */\n      add\n        /* \"#utility.yul\":23256:23275   */\n      swap1\n      pop\n        /* \"#utility.yul\":22915:23281   */\n      swap2\n      swap1\n      pop\n      jump\t// out\n        /* \"#utility.yul\":23287:23706   */\n    tag_169:\n        /* \"#utility.yul\":23453:23457   */\n      0x00\n        /* \"#utility.yul\":23491:23493   */\n      0x20\n        /* \"#utility.yul\":23480:23489   */\n      dup3\n        /* \"#utility.yul\":23476:23494   */\n      add\n        /* \"#utility.yul\":23468:23494   */\n      swap1\n      pop\n        /* \"#utility.yul\":23540:23549   */\n      dup2\n        /* \"#utility.yul\":23534:23538   */\n      dup2\n        /* \"#utility.yul\":23530:23550   */\n      sub\n        /* \"#utility.yul\":23526:23527   */\n      0x00\n        /* \"#utility.yul\":23515:23524   */\n      dup4\n        /* \"#utility.yul\":23511:23528   */\n      add\n        /* \"#utility.yul\":23504:23551   */\n      mstore\n        /* \"#utility.yul\":23568:23699   */\n      tag_495\n        /* \"#utility.yul\":23694:23698   */\n      dup2\n        /* \"#utility.yul\":23568:23699   */\n      tag_260\n      jump\t// in\n    tag_495:\n        /* \"#utility.yul\":23560:23699   */\n      swap1\n      pop\n        /* \"#utility.yul\":23287:23706   */\n      swap2\n      swap1\n      pop\n      jump\t// out\n        /* \"#utility.yul\":23712:23892   */\n    tag_261:\n        /* \"#utility.yul\":23760:23837   */\n      0x4e487b7100000000000000000000000000000000000000000000000000000000\n        /* \"#utility.yul\":23757:23758   */\n      0x00\n        /* \"#utility.yul\":23750:23838   */\n      mstore\n        /* \"#utility.yul\":23857:23861   */\n      0x11\n        /* \"#utility.yul\":23854:23855   */\n      0x04\n        /* \"#utility.yul\":23847:23862   */\n      mstore\n        /* \"#utility.yul\":23881:23885   */\n      0x24\n        /* \"#utility.yul\":23878:23879   */\n      0x00\n        /* \"#utility.yul\":23871:23886   */\n      revert\n        /* \"#utility.yul\":23898:24092   */\n    tag_181:\n        /* \"#utility.yul\":23938:23942   */\n      0x00\n        /* \"#utility.yul\":23958:23978   */\n      tag_498\n        /* \"#utility.yul\":23976:23977   */\n      dup3\n        /* \"#utility.yul\":23958:23978   */\n      tag_197\n      jump\t// in\n    tag_498:\n        /* \"#utility.yul\":23953:23978   */\n      swap2\n      pop\n        /* \"#utility.yul\":23992:24012   */\n      tag_499\n        /* \"#utility.yul\":24010:24011   */\n      dup4\n        /* \"#utility.yul\":23992:24012   */\n      tag_197\n      jump\t// in\n    tag_499:\n        /* \"#utility.yul\":23987:24012   */\n      swap3\n      pop\n        /* \"#utility.yul\":24036:24037   */\n      dup3\n        /* \"#utility.yul\":24033:24034   */\n      dup3\n        /* \"#utility.yul\":24029:24038   */\n      sub\n        /* \"#utility.yul\":24021:24038   */\n      swap1\n      pop\n        /* \"#utility.yul\":24060:24061   */\n      dup2\n        /* \"#utility.yul\":24054:24058   */\n      dup2\n        /* \"#utility.yul\":24051:24062   */\n      gt\n        /* \"#utility.yul\":24048:24085   */\n      iszero\n      tag_500\n      jumpi\n        /* \"#utility.yul\":24065:24083   */\n      tag_501\n      tag_261\n      jump\t// in\n    tag_501:\n        /* \"#utility.yul\":24048:24085   */\n    tag_500:\n        /* \"#utility.yul\":23898:24092   */\n      swap3\n      swap2\n      pop\n      pop\n      jump\t// out\n        /* \"#utility.yul\":24098:24258   */\n    tag_262:\n        /* \"#utility.yul\":24238:24250   */\n      0x55454e7320616464656400000000000000000000000000000000000000000000\n        /* \"#utility.yul\":24234:24235   */\n      0x00\n        /* \"#utility.yul\":24226:24232   */\n      dup3\n        /* \"#utility.yul\":24222:24236   */\n      add\n        /* \"#utility.yul\":24215:24251   */\n      mstore\n        /* \"#utility.yul\":24098:24258   */\n      pop\n      jump\t// out\n        /* \"#utility.yul\":24264:24630   */\n    tag_263:\n        /* \"#utility.yul\":24406:24409   */\n      0x00\n        /* \"#utility.yul\":24427:24494   */\n      tag_504\n        /* \"#utility.yul\":24491:24493   */\n      0x0a\n        /* \"#utility.yul\":24486:24489   */\n      dup4\n        /* \"#utility.yul\":24427:24494   */\n      tag_223\n      jump\t// in\n    tag_504:\n        /* \"#utility.yul\":24420:24494   */\n      swap2\n      pop\n        /* \"#utility.yul\":24503:24596   */\n      tag_505\n        /* \"#utility.yul\":24592:24595   */\n      dup3\n        /* \"#utility.yul\":24503:24596   */\n      tag_262\n      jump\t// in\n    tag_505:\n        /* \"#utility.yul\":24621:24623   */\n      0x20\n        /* \"#utility.yul\":24616:24619   */\n      dup3\n        /* \"#utility.yul\":24612:24624   */\n      add\n        /* \"#utility.yul\":24605:24624   */\n      swap1\n      pop\n        /* \"#utility.yul\":24264:24630   */\n      swap2\n      swap1\n      pop\n      jump\t// out\n        /* \"#utility.yul\":24636:25356   */\n    tag_186:\n        /* \"#utility.yul\":24900:24904   */\n      0x00\n        /* \"#utility.yul\":24938:24940   */\n      0x40\n        /* \"#utility.yul\":24927:24936   */\n      dup3\n        /* \"#utility.yul\":24923:24941   */\n      add\n        /* \"#utility.yul\":24915:24941   */\n      swap1\n      pop\n        /* \"#utility.yul\":24987:24996   */\n      dup2\n        /* \"#utility.yul\":24981:24985   */\n      dup2\n        /* \"#utility.yul\":24977:24997   */\n      sub\n        /* \"#utility.yul\":24973:24974   */\n      0x00\n        /* \"#utility.yul\":24962:24971   */\n      dup4\n        /* \"#utility.yul\":24958:24975   */\n      add\n        /* \"#utility.yul\":24951:24998   */\n      mstore\n        /* \"#utility.yul\":25015:25143   */\n      tag_507\n        /* \"#utility.yul\":25138:25142   */\n      dup2\n        /* \"#utility.yul\":25129:25135   */\n      dup5\n        /* \"#utility.yul\":25015:25143   */\n      tag_233\n      jump\t// in\n    tag_507:\n        /* \"#utility.yul\":25007:25143   */\n      swap1\n      pop\n        /* \"#utility.yul\":25190:25199   */\n      dup2\n        /* \"#utility.yul\":25184:25188   */\n      dup2\n        /* \"#utility.yul\":25180:25200   */\n      sub\n        /* \"#utility.yul\":25175:25177   */\n      0x20\n        /* \"#utility.yul\":25164:25173   */\n      dup4\n        /* \"#utility.yul\":25160:25178   */\n      add\n        /* \"#utility.yul\":25153:25201   */\n      mstore\n        /* \"#utility.yul\":25218:25349   */\n      tag_508\n        /* \"#utility.yul\":25344:25348   */\n      dup2\n        /* \"#utility.yul\":25218:25349   */\n      tag_263\n      jump\t// in\n    tag_508:\n        /* \"#utility.yul\":25210:25349   */\n      swap1\n      pop\n        /* \"#utility.yul\":24636:25356   */\n      swap3\n      swap2\n      pop\n      pop\n      jump\t// out\n\n    auxdata: 0xa26469706673582212201ff469d7574a234d9b0a2013fa345b56e61672fc5aecd9747b840ce70a31abb064736f6c63430008160033\n}\n",
				"bytecode": {
					"linkReferences": {},
					"object": "608060405234801562000010575f80fd5b5060405162001d9638038062001d96833981810160405281019062000036919062000284565b8060035f6101000a81548173ffffffffffffffffffffffffffffffffffffffff021916908373ffffffffffffffffffffffffffffffffffffffff1602179055508060045f6101000a81548173ffffffffffffffffffffffffffffffffffffffff021916908373ffffffffffffffffffffffffffffffffffffffff16021790555060045f9054906101000a900473ffffffffffffffffffffffffffffffffffffffff1673ffffffffffffffffffffffffffffffffffffffff16638794b69d6040518163ffffffff1660e01b81526004015f60405180830381865afa15801562000120573d5f803e3d5ffd5b505050506040513d5f823e3d601f19601f820116820180604052508101906200014a919062000420565b600590805190602001906200016192919062000169565b50506200046f565b828054828255905f5260205f20908101928215620001e2579160200282015b82811115620001e1578251825f6101000a81548173ffffffffffffffffffffffffffffffffffffffff021916908373ffffffffffffffffffffffffffffffffffffffff1602179055509160200191906001019062000188565b5b509050620001f19190620001f5565b5090565b5b808211156200020e575f815f905550600101620001f6565b5090565b5f604051905090565b5f80fd5b5f80fd5b5f73ffffffffffffffffffffffffffffffffffffffff82169050919050565b5f6200024e8262000223565b9050919050565b620002608162000242565b81146200026b575f80fd5b50565b5f815190506200027e8162000255565b92915050565b5f602082840312156200029c576200029b6200021b565b5b5f620002ab848285016200026e565b91505092915050565b5f80fd5b5f601f19601f8301169050919050565b7f4e487b71000000000000000000000000000000000000000000000000000000005f52604160045260245ffd5b6200030082620002b8565b810181811067ffffffffffffffff82111715620003225762000321620002c8565b5b80604052505050565b5f6200033662000212565b9050620003448282620002f5565b919050565b5f67ffffffffffffffff821115620003665762000365620002c8565b5b602082029050602081019050919050565b5f80fd5b5f620003916200038b8462000349565b6200032b565b90508083825260208201905060208402830185811115620003b757620003b662000377565b5b835b81811015620003e45780620003cf88826200026e565b845260208401935050602081019050620003b9565b5050509392505050565b5f82601f830112620004055762000404620002b4565b5b8151620004178482602086016200037b565b91505092915050565b5f602082840312156200043857620004376200021b565b5b5f82015167ffffffffffffffff8111156200045857620004576200021f565b5b6200046684828501620003ee565b91505092915050565b611919806200047d5f395ff3fe608060405234801561000f575f80fd5b506004361061009c575f3560e01c8063a8f5d7a611610064578063a8f5d7a614610144578063b30282fa14610174578063b3d6da6e146101a4578063beada813146101c2578063f9b378c2146101e05761009c565b806314bfd6d0146100a057806335b13db2146100d057806336693c04146100ec57806346dc1ffc1461010a5780639926aa3414610128575b5f80fd5b6100ba60048036038101906100b59190610c8a565b6101fc565b6040516100c79190610cf4565b60405180910390f35b6100ea60048036038101906100e59190610f2b565b610237565b005b6100f461044d565b6040516101019190610fcd565b60405180910390f35b610112610472565b60405161011f9190610cf4565b60405180910390f35b610142600480360381019061013d9190610fe6565b610497565b005b61015e6004803603810190610159919061105c565b6106b4565b60405161016b919061111d565b60405180910390f35b61018e60048036038101906101899190610c8a565b610762565b60405161019b919061111d565b60405180910390f35b6101ac610807565b6040516101b99190611240565b60405180910390f35b6101ca6108da565b6040516101d79190610cf4565b60405180910390f35b6101fa60048036038101906101f59190610fe6565b610902565b005b6005818154811061020b575f80fd5b905f5260205f20015f915054906101000a900473ffffffffffffffffffffffffffffffffffffffff1681565b5f805b6005805490508110156102cb576005818154811061025b5761025a611260565b5b905f5260205f20015f9054906101000a900473ffffffffffffffffffffffffffffffffffffffff1673ffffffffffffffffffffffffffffffffffffffff163373ffffffffffffffffffffffffffffffffffffffff16036102be57600191506102cb565b808060010191505061023a565b508061030c576040517f08c379a0000000000000000000000000000000000000000000000000000000008152600401610303906112fd565b60405180910390fd5b5f5b825181101561041157600183828151811061032c5761032b611260565b5b60200260200101516040516103419190611355565b90815260200160405180910390205f61035a9190610bee565b60405180602001604052805f8152505f600285848151811061037f5761037e611260565b5b60200260200101516040516103949190611355565b908152602001604051809103902054815481106103b4576103b3611260565b5b905f5260205f200190816103c8919061155c565b5060028382815181106103de576103dd611260565b5b60200260200101516040516103f39190611355565b90815260200160405180910390205f9055808060010191505061030e565b507f5462cca44bd73f863d8a33c18eddea04a24e4ac8e252404333dd97ac7a732ac8826040516104419190611675565b60405180910390a15050565b60045f9054906101000a900473ffffffffffffffffffffffffffffffffffffffff1681565b60035f9054906101000a900473ffffffffffffffffffffffffffffffffffffffff1681565b5f805b60058054905081101561052b57600581815481106104bb576104ba611260565b5b905f5260205f20015f9054906101000a900473ffffffffffffffffffffffffffffffffffffffff1673ffffffffffffffffffffffffffffffffffffffff163373ffffffffffffffffffffffffffffffffffffffff160361051e576001915061052b565b808060010191505061049a565b508061056c576040517f08c379a0000000000000000000000000000000000000000000000000000000008152600401610563906112fd565b60405180910390fd5b81518351146105b0576040517f08c379a00000000000000000000000000000000000000000000000000000000081526004016105a790611718565b60405180910390fd5b5f5b83518110156106ae575f60018583815181106105d1576105d0611260565b5b60200260200101516040516105e69190611355565b908152602001604051809103902080546105ff90611398565b905003610641576040517f08c379a000000000000000000000000000000000000000000000000000000000815260040161063890611780565b60405180910390fd5b82818151811061065457610653611260565b5b6020026020010151600185838151811061067157610670611260565b5b60200260200101516040516106869190611355565b908152602001604051809103902090816106a0919061155c565b5080806001019150506105b2565b50505050565b60606001826040516106c69190611355565b908152602001604051809103902080546106df90611398565b80601f016020809104026020016040519081016040528092919081815260200182805461070b90611398565b80156107565780601f1061072d57610100808354040283529160200191610756565b820191905f5260205f20905b81548152906001019060200180831161073957829003601f168201915b50505050509050919050565b5f8181548110610770575f80fd5b905f5260205f20015f91509050805461078890611398565b80601f01602080910402602001604051908101604052809291908181526020018280546107b490611398565b80156107ff5780601f106107d6576101008083540402835291602001916107ff565b820191905f5260205f20905b8154815290600101906020018083116107e257829003601f168201915b505050505081565b60605f805480602002602001604051908101604052809291908181526020015f905b828210156108d1578382905f5260205f2001805461084690611398565b80601f016020809104026020016040519081016040528092919081815260200182805461087290611398565b80156108bd5780601f10610894576101008083540402835291602001916108bd565b820191905f5260205f20905b8154815290600101906020018083116108a057829003601f168201915b505050505081526020019060010190610829565b50505050905090565b5f60035f9054906101000a900473ffffffffffffffffffffffffffffffffffffffff16905090565b5f805b600580549050811015610996576005818154811061092657610925611260565b5b905f5260205f20015f9054906101000a900473ffffffffffffffffffffffffffffffffffffffff1673ffffffffffffffffffffffffffffffffffffffff163373ffffffffffffffffffffffffffffffffffffffff16036109895760019150610996565b8080600101915050610905565b50806109d7576040517f08c379a00000000000000000000000000000000000000000000000000000000081526004016109ce906112fd565b60405180910390fd5b8151835114610a1b576040517f08c379a0000000000000000000000000000000000000000000000000000000008152600401610a1290611718565b60405180910390fd5b5f5b8351811015610bb1575f6001858381518110610a3c57610a3b611260565b5b6020026020010151604051610a519190611355565b90815260200160405180910390208054610a6a90611398565b905014610aac576040517f08c379a0000000000000000000000000000000000000000000000000000000008152600401610aa3906117e8565b60405180910390fd5b828181518110610abf57610abe611260565b5b60200260200101516001858381518110610adc57610adb611260565b5b6020026020010151604051610af19190611355565b90815260200160405180910390209081610b0b919061155c565b505f848281518110610b2057610b1f611260565b5b6020026020010151908060018154018082558091505060019003905f5260205f20015f909190919091509081610b56919061155c565b5060015f80549050610b689190611833565b6002858381518110610b7d57610b7c611260565b5b6020026020010151604051610b929190611355565b9081526020016040518091039020819055508080600101915050610a1d565b507f5462cca44bd73f863d8a33c18eddea04a24e4ac8e252404333dd97ac7a732ac883604051610be191906118b0565b60405180910390a1505050565b508054610bfa90611398565b5f825580601f10610c0b5750610c28565b601f0160209004905f5260205f2090810190610c279190610c2b565b5b50565b5b80821115610c42575f815f905550600101610c2c565b5090565b5f604051905090565b5f80fd5b5f80fd5b5f819050919050565b610c6981610c57565b8114610c73575f80fd5b50565b5f81359050610c8481610c60565b92915050565b5f60208284031215610c9f57610c9e610c4f565b5b5f610cac84828501610c76565b91505092915050565b5f73ffffffffffffffffffffffffffffffffffffffff82169050919050565b5f610cde82610cb5565b9050919050565b610cee81610cd4565b82525050565b5f602082019050610d075f830184610ce5565b92915050565b5f80fd5b5f601f19601f8301169050919050565b7f4e487b71000000000000000000000000000000000000000000000000000000005f52604160045260245ffd5b610d5782610d11565b810181811067ffffffffffffffff82111715610d7657610d75610d21565b5b80604052505050565b5f610d88610c46565b9050610d948282610d4e565b919050565b5f67ffffffffffffffff821115610db357610db2610d21565b5b602082029050602081019050919050565b5f80fd5b5f80fd5b5f67ffffffffffffffff821115610de657610de5610d21565b5b610def82610d11565b9050602081019050919050565b828183375f83830152505050565b5f610e1c610e1784610dcc565b610d7f565b905082815260208101848484011115610e3857610e37610dc8565b5b610e43848285610dfc565b509392505050565b5f82601f830112610e5f57610e5e610d0d565b5b8135610e6f848260208601610e0a565b91505092915050565b5f610e8a610e8584610d99565b610d7f565b90508083825260208201905060208402830185811115610ead57610eac610dc4565b5b835b81811015610ef457803567ffffffffffffffff811115610ed257610ed1610d0d565b5b808601610edf8982610e4b565b85526020850194505050602081019050610eaf565b5050509392505050565b5f82601f830112610f1257610f11610d0d565b5b8135610f22848260208601610e78565b91505092915050565b5f60208284031215610f4057610f3f610c4f565b5b5f82013567ffffffffffffffff811115610f5d57610f5c610c53565b5b610f6984828501610efe565b91505092915050565b5f819050919050565b5f610f95610f90610f8b84610cb5565b610f72565b610cb5565b9050919050565b5f610fa682610f7b565b9050919050565b5f610fb782610f9c565b9050919050565b610fc781610fad565b82525050565b5f602082019050610fe05f830184610fbe565b92915050565b5f8060408385031215610ffc57610ffb610c4f565b5b5f83013567ffffffffffffffff81111561101957611018610c53565b5b61102585828601610efe565b925050602083013567ffffffffffffffff81111561104657611045610c53565b5b61105285828601610efe565b9150509250929050565b5f6020828403121561107157611070610c4f565b5b5f82013567ffffffffffffffff81111561108e5761108d610c53565b5b61109a84828501610e4b565b91505092915050565b5f81519050919050565b5f82825260208201905092915050565b5f5b838110156110da5780820151818401526020810190506110bf565b5f8484015250505050565b5f6110ef826110a3565b6110f981856110ad565b93506111098185602086016110bd565b61111281610d11565b840191505092915050565b5f6020820190508181035f83015261113581846110e5565b905092915050565b5f81519050919050565b5f82825260208201905092915050565b5f819050602082019050919050565b5f82825260208201905092915050565b5f611180826110a3565b61118a8185611166565b935061119a8185602086016110bd565b6111a381610d11565b840191505092915050565b5f6111b98383611176565b905092915050565b5f602082019050919050565b5f6111d78261113d565b6111e18185611147565b9350836020820285016111f385611157565b805f5b8581101561122e578484038952815161120f85826111ae565b945061121a836111c1565b925060208a019950506001810190506111f6565b50829750879550505050505092915050565b5f6020820190508181035f83015261125881846111cd565b905092915050565b7f4e487b71000000000000000000000000000000000000000000000000000000005f52603260045260245ffd5b7f4f6e6c792061646d696e732063616e2063616c6c20746869732066756e6374695f8201527f6f6e000000000000000000000000000000000000000000000000000000000000602082015250565b5f6112e76022836110ad565b91506112f28261128d565b604082019050919050565b5f6020820190508181035f830152611314816112db565b9050919050565b5f81905092915050565b5f61132f826110a3565b611339818561131b565b93506113498185602086016110bd565b80840191505092915050565b5f6113608284611325565b915081905092915050565b7f4e487b71000000000000000000000000000000000000000000000000000000005f52602260045260245ffd5b5f60028204905060018216806113af57607f821691505b6020821081036113c2576113c161136b565b5b50919050565b5f819050815f5260205f209050919050565b5f6020601f8301049050919050565b5f82821b905092915050565b5f600883026114247fffffffffffffffffffffffffffffffffffffffffffffffffffffffffffffffff826113e9565b61142e86836113e9565b95508019841693508086168417925050509392505050565b5f61146061145b61145684610c57565b610f72565b610c57565b9050919050565b5f819050919050565b61147983611446565b61148d61148582611467565b8484546113f5565b825550505050565b5f90565b6114a1611495565b6114ac818484611470565b505050565b5b818110156114cf576114c45f82611499565b6001810190506114b2565b5050565b601f821115611514576114e5816113c8565b6114ee846113da565b810160208510156114fd578190505b611511611509856113da565b8301826114b1565b50505b505050565b5f82821c905092915050565b5f6115345f1984600802611519565b1980831691505092915050565b5f61154c8383611525565b9150826002028217905092915050565b611565826110a3565b67ffffffffffffffff81111561157e5761157d610d21565b5b6115888254611398565b6115938282856114d3565b5f60209050601f8311600181146115c4575f84156115b2578287015190505b6115bc8582611541565b865550611623565b601f1984166115d2866113c8565b5f5b828110156115f9578489015182556001820191506020850194506020810190506115d4565b868310156116165784890151611612601f891682611525565b8355505b6001600288020188555050505b505050505050565b7f55454e732072656d6f76656400000000000000000000000000000000000000005f82015250565b5f61165f600c836110ad565b915061166a8261162b565b602082019050919050565b5f6040820190508181035f83015261168d81846111cd565b905081810360208301526116a081611653565b905092915050565b7f4d617070696e6773206d7573742068617665207468652073616d65206c656e675f8201527f7468000000000000000000000000000000000000000000000000000000000000602082015250565b5f6117026022836110ad565b915061170d826116a8565b604082019050919050565b5f6020820190508181035f83015261172f816116f6565b9050919050565b7f55454e20646f6573206e6f7420657869737400000000000000000000000000005f82015250565b5f61176a6012836110ad565b915061177582611736565b602082019050919050565b5f6020820190508181035f8301526117978161175e565b9050919050565b7f55454e20616c72656164792065786973747300000000000000000000000000005f82015250565b5f6117d26012836110ad565b91506117dd8261179e565b602082019050919050565b5f6020820190508181035f8301526117ff816117c6565b9050919050565b7f4e487b71000000000000000000000000000000000000000000000000000000005f52601160045260245ffd5b5f61183d82610c57565b915061184883610c57565b92508282039050818111156118605761185f611806565b5b92915050565b7f55454e73206164646564000000000000000000000000000000000000000000005f82015250565b5f61189a600a836110ad565b91506118a582611866565b602082019050919050565b5f6040820190508181035f8301526118c881846111cd565b905081810360208301526118db8161188e565b90509291505056fea26469706673582212201ff469d7574a234d9b0a2013fa345b56e61672fc5aecd9747b840ce70a31abb064736f6c63430008160033",
					"opcodes": "PUSH1 0x80 PUSH1 0x40 MSTORE CALLVALUE DUP1 ISZERO PUSH3 0x10 JUMPI PUSH0 DUP1 REVERT JUMPDEST POP PUSH1 0x40 MLOAD PUSH3 0x1D96 CODESIZE SUB DUP1 PUSH3 0x1D96 DUP4 CODECOPY DUP2 DUP2 ADD PUSH1 0x40 MSTORE DUP2 ADD SWAP1 PUSH3 0x36 SWAP2 SWAP1 PUSH3 0x284 JUMP JUMPDEST DUP1 PUSH1 0x3 PUSH0 PUSH2 0x100 EXP DUP2 SLOAD DUP2 PUSH20 0xFFFFFFFFFFFFFFFFFFFFFFFFFFFFFFFFFFFFFFFF MUL NOT AND SWAP1 DUP4 PUSH20 0xFFFFFFFFFFFFFFFFFFFFFFFFFFFFFFFFFFFFFFFF AND MUL OR SWAP1 SSTORE POP DUP1 PUSH1 0x4 PUSH0 PUSH2 0x100 EXP DUP2 SLOAD DUP2 PUSH20 0xFFFFFFFFFFFFFFFFFFFFFFFFFFFFFFFFFFFFFFFF MUL NOT AND SWAP1 DUP4 PUSH20 0xFFFFFFFFFFFFFFFFFFFFFFFFFFFFFFFFFFFFFFFF AND MUL OR SWAP1 SSTORE POP PUSH1 0x4 PUSH0 SWAP1 SLOAD SWAP1 PUSH2 0x100 EXP SWAP1 DIV PUSH20 0xFFFFFFFFFFFFFFFFFFFFFFFFFFFFFFFFFFFFFFFF AND PUSH20 0xFFFFFFFFFFFFFFFFFFFFFFFFFFFFFFFFFFFFFFFF AND PUSH4 0x8794B69D PUSH1 0x40 MLOAD DUP2 PUSH4 0xFFFFFFFF AND PUSH1 0xE0 SHL DUP2 MSTORE PUSH1 0x4 ADD PUSH0 PUSH1 0x40 MLOAD DUP1 DUP4 SUB DUP2 DUP7 GAS STATICCALL ISZERO DUP1 ISZERO PUSH3 0x120 JUMPI RETURNDATASIZE PUSH0 DUP1 RETURNDATACOPY RETURNDATASIZE PUSH0 REVERT JUMPDEST POP POP POP POP PUSH1 0x40 MLOAD RETURNDATASIZE PUSH0 DUP3 RETURNDATACOPY RETURNDATASIZE PUSH1 0x1F NOT PUSH1 0x1F DUP3 ADD AND DUP3 ADD DUP1 PUSH1 0x40 MSTORE POP DUP2 ADD SWAP1 PUSH3 0x14A SWAP2 SWAP1 PUSH3 0x420 JUMP JUMPDEST PUSH1 0x5 SWAP1 DUP1 MLOAD SWAP1 PUSH1 0x20 ADD SWAP1 PUSH3 0x161 SWAP3 SWAP2 SWAP1 PUSH3 0x169 JUMP JUMPDEST POP POP PUSH3 0x46F JUMP JUMPDEST DUP3 DUP1 SLOAD DUP3 DUP3 SSTORE SWAP1 PUSH0 MSTORE PUSH1 0x20 PUSH0 KECCAK256 SWAP1 DUP2 ADD SWAP3 DUP3 ISZERO PUSH3 0x1E2 JUMPI SWAP2 PUSH1 0x20 MUL DUP3 ADD JUMPDEST DUP3 DUP2 GT ISZERO PUSH3 0x1E1 JUMPI DUP3 MLOAD DUP3 PUSH0 PUSH2 0x100 EXP DUP2 SLOAD DUP2 PUSH20 0xFFFFFFFFFFFFFFFFFFFFFFFFFFFFFFFFFFFFFFFF MUL NOT AND SWAP1 DUP4 PUSH20 0xFFFFFFFFFFFFFFFFFFFFFFFFFFFFFFFFFFFFFFFF AND MUL OR SWAP1 SSTORE POP SWAP2 PUSH1 0x20 ADD SWAP2 SWAP1 PUSH1 0x1 ADD SWAP1 PUSH3 0x188 JUMP JUMPDEST JUMPDEST POP SWAP1 POP PUSH3 0x1F1 SWAP2 SWAP1 PUSH3 0x1F5 JUMP JUMPDEST POP SWAP1 JUMP JUMPDEST JUMPDEST DUP1 DUP3 GT ISZERO PUSH3 0x20E JUMPI PUSH0 DUP2 PUSH0 SWAP1 SSTORE POP PUSH1 0x1 ADD PUSH3 0x1F6 JUMP JUMPDEST POP SWAP1 JUMP JUMPDEST PUSH0 PUSH1 0x40 MLOAD SWAP1 POP SWAP1 JUMP JUMPDEST PUSH0 DUP1 REVERT JUMPDEST PUSH0 DUP1 REVERT JUMPDEST PUSH0 PUSH20 0xFFFFFFFFFFFFFFFFFFFFFFFFFFFFFFFFFFFFFFFF DUP3 AND SWAP1 POP SWAP2 SWAP1 POP JUMP JUMPDEST PUSH0 PUSH3 0x24E DUP3 PUSH3 0x223 JUMP JUMPDEST SWAP1 POP SWAP2 SWAP1 POP JUMP JUMPDEST PUSH3 0x260 DUP2 PUSH3 0x242 JUMP JUMPDEST DUP2 EQ PUSH3 0x26B JUMPI PUSH0 DUP1 REVERT JUMPDEST POP JUMP JUMPDEST PUSH0 DUP2 MLOAD SWAP1 POP PUSH3 0x27E DUP2 PUSH3 0x255 JUMP JUMPDEST SWAP3 SWAP2 POP POP JUMP JUMPDEST PUSH0 PUSH1 0x20 DUP3 DUP5 SUB SLT ISZERO PUSH3 0x29C JUMPI PUSH3 0x29B PUSH3 0x21B JUMP JUMPDEST JUMPDEST PUSH0 PUSH3 0x2AB DUP5 DUP3 DUP6 ADD PUSH3 0x26E JUMP JUMPDEST SWAP2 POP POP SWAP3 SWAP2 POP POP JUMP JUMPDEST PUSH0 DUP1 REVERT JUMPDEST PUSH0 PUSH1 0x1F NOT PUSH1 0x1F DUP4 ADD AND SWAP1 POP SWAP2 SWAP1 POP JUMP JUMPDEST PUSH32 0x4E487B7100000000000000000000000000000000000000000000000000000000 PUSH0 MSTORE PUSH1 0x41 PUSH1 0x4 MSTORE PUSH1 0x24 PUSH0 REVERT JUMPDEST PUSH3 0x300 DUP3 PUSH3 0x2B8 JUMP JUMPDEST DUP2 ADD DUP2 DUP2 LT PUSH8 0xFFFFFFFFFFFFFFFF DUP3 GT OR ISZERO PUSH3 0x322 JUMPI PUSH3 0x321 PUSH3 0x2C8 JUMP JUMPDEST JUMPDEST DUP1 PUSH1 0x40 MSTORE POP POP POP JUMP JUMPDEST PUSH0 PUSH3 0x336 PUSH3 0x212 JUMP JUMPDEST SWAP1 POP PUSH3 0x344 DUP3 DUP3 PUSH3 0x2F5 JUMP JUMPDEST SWAP2 SWAP1 POP JUMP JUMPDEST PUSH0 PUSH8 0xFFFFFFFFFFFFFFFF DUP3 GT ISZERO PUSH3 0x366 JUMPI PUSH3 0x365 PUSH3 0x2C8 JUMP JUMPDEST JUMPDEST PUSH1 0x20 DUP3 MUL SWAP1 POP PUSH1 0x20 DUP2 ADD SWAP1 POP SWAP2 SWAP1 POP JUMP JUMPDEST PUSH0 DUP1 REVERT JUMPDEST PUSH0 PUSH3 0x391 PUSH3 0x38B DUP5 PUSH3 0x349 JUMP JUMPDEST PUSH3 0x32B JUMP JUMPDEST SWAP1 POP DUP1 DUP4 DUP3 MSTORE PUSH1 0x20 DUP3 ADD SWAP1 POP PUSH1 0x20 DUP5 MUL DUP4 ADD DUP6 DUP2 GT ISZERO PUSH3 0x3B7 JUMPI PUSH3 0x3B6 PUSH3 0x377 JUMP JUMPDEST JUMPDEST DUP4 JUMPDEST DUP2 DUP2 LT ISZERO PUSH3 0x3E4 JUMPI DUP1 PUSH3 0x3CF DUP9 DUP3 PUSH3 0x26E JUMP JUMPDEST DUP5 MSTORE PUSH1 0x20 DUP5 ADD SWAP4 POP POP PUSH1 0x20 DUP2 ADD SWAP1 POP PUSH3 0x3B9 JUMP JUMPDEST POP POP POP SWAP4 SWAP3 POP POP POP JUMP JUMPDEST PUSH0 DUP3 PUSH1 0x1F DUP4 ADD SLT PUSH3 0x405 JUMPI PUSH3 0x404 PUSH3 0x2B4 JUMP JUMPDEST JUMPDEST DUP2 MLOAD PUSH3 0x417 DUP5 DUP3 PUSH1 0x20 DUP7 ADD PUSH3 0x37B JUMP JUMPDEST SWAP2 POP POP SWAP3 SWAP2 POP POP JUMP JUMPDEST PUSH0 PUSH1 0x20 DUP3 DUP5 SUB SLT ISZERO PUSH3 0x438 JUMPI PUSH3 0x437 PUSH3 0x21B JUMP JUMPDEST JUMPDEST PUSH0 DUP3 ADD MLOAD PUSH8 0xFFFFFFFFFFFFFFFF DUP2 GT ISZERO PUSH3 0x458 JUMPI PUSH3 0x457 PUSH3 0x21F JUMP JUMPDEST JUMPDEST PUSH3 0x466 DUP5 DUP3 DUP6 ADD PUSH3 0x3EE JUMP JUMPDEST SWAP2 POP POP SWAP3 SWAP2 POP POP JUMP JUMPDEST PUSH2 0x1919 DUP1 PUSH3 0x47D PUSH0 CODECOPY PUSH0 RETURN INVALID PUSH1 0x80 PUSH1 0x40 MSTORE CALLVALUE DUP1 ISZERO PUSH2 0xF JUMPI PUSH0 DUP1 REVERT JUMPDEST POP PUSH1 0x4 CALLDATASIZE LT PUSH2 0x9C JUMPI PUSH0 CALLDATALOAD PUSH1 0xE0 SHR DUP1 PUSH4 0xA8F5D7A6 GT PUSH2 0x64 JUMPI DUP1 PUSH4 0xA8F5D7A6 EQ PUSH2 0x144 JUMPI DUP1 PUSH4 0xB30282FA EQ PUSH2 0x174 JUMPI DUP1 PUSH4 0xB3D6DA6E EQ PUSH2 0x1A4 JUMPI DUP1 PUSH4 0xBEADA813 EQ PUSH2 0x1C2 JUMPI DUP1 PUSH4 0xF9B378C2 EQ PUSH2 0x1E0 JUMPI PUSH2 0x9C JUMP JUMPDEST DUP1 PUSH4 0x14BFD6D0 EQ PUSH2 0xA0 JUMPI DUP1 PUSH4 0x35B13DB2 EQ PUSH2 0xD0 JUMPI DUP1 PUSH4 0x36693C04 EQ PUSH2 0xEC JUMPI DUP1 PUSH4 0x46DC1FFC EQ PUSH2 0x10A JUMPI DUP1 PUSH4 0x9926AA34 EQ PUSH2 0x128 JUMPI JUMPDEST PUSH0 DUP1 REVERT JUMPDEST PUSH2 0xBA PUSH1 0x4 DUP1 CALLDATASIZE SUB DUP2 ADD SWAP1 PUSH2 0xB5 SWAP2 SWAP1 PUSH2 0xC8A JUMP JUMPDEST PUSH2 0x1FC JUMP JUMPDEST PUSH1 0x40 MLOAD PUSH2 0xC7 SWAP2 SWAP1 PUSH2 0xCF4 JUMP JUMPDEST PUSH1 0x40 MLOAD DUP1 SWAP2 SUB SWAP1 RETURN JUMPDEST PUSH2 0xEA PUSH1 0x4 DUP1 CALLDATASIZE SUB DUP2 ADD SWAP1 PUSH2 0xE5 SWAP2 SWAP1 PUSH2 0xF2B JUMP JUMPDEST PUSH2 0x237 JUMP JUMPDEST STOP JUMPDEST PUSH2 0xF4 PUSH2 0x44D JUMP JUMPDEST PUSH1 0x40 MLOAD PUSH2 0x101 SWAP2 SWAP1 PUSH2 0xFCD JUMP JUMPDEST PUSH1 0x40 MLOAD DUP1 SWAP2 SUB SWAP1 RETURN JUMPDEST PUSH2 0x112 PUSH2 0x472 JUMP JUMPDEST PUSH1 0x40 MLOAD PUSH2 0x11F SWAP2 SWAP1 PUSH2 0xCF4 JUMP JUMPDEST PUSH1 0x40 MLOAD DUP1 SWAP2 SUB SWAP1 RETURN JUMPDEST PUSH2 0x142 PUSH1 0x4 DUP1 CALLDATASIZE SUB DUP2 ADD SWAP1 PUSH2 0x13D SWAP2 SWAP1 PUSH2 0xFE6 JUMP JUMPDEST PUSH2 0x497 JUMP JUMPDEST STOP JUMPDEST PUSH2 0x15E PUSH1 0x4 DUP1 CALLDATASIZE SUB DUP2 ADD SWAP1 PUSH2 0x159 SWAP2 SWAP1 PUSH2 0x105C JUMP JUMPDEST PUSH2 0x6B4 JUMP JUMPDEST PUSH1 0x40 MLOAD PUSH2 0x16B SWAP2 SWAP1 PUSH2 0x111D JUMP JUMPDEST PUSH1 0x40 MLOAD DUP1 SWAP2 SUB SWAP1 RETURN JUMPDEST PUSH2 0x18E PUSH1 0x4 DUP1 CALLDATASIZE SUB DUP2 ADD SWAP1 PUSH2 0x189 SWAP2 SWAP1 PUSH2 0xC8A JUMP JUMPDEST PUSH2 0x762 JUMP JUMPDEST PUSH1 0x40 MLOAD PUSH2 0x19B SWAP2 SWAP1 PUSH2 0x111D JUMP JUMPDEST PUSH1 0x40 MLOAD DUP1 SWAP2 SUB SWAP1 RETURN JUMPDEST PUSH2 0x1AC PUSH2 0x807 JUMP JUMPDEST PUSH1 0x40 MLOAD PUSH2 0x1B9 SWAP2 SWAP1 PUSH2 0x1240 JUMP JUMPDEST PUSH1 0x40 MLOAD DUP1 SWAP2 SUB SWAP1 RETURN JUMPDEST PUSH2 0x1CA PUSH2 0x8DA JUMP JUMPDEST PUSH1 0x40 MLOAD PUSH2 0x1D7 SWAP2 SWAP1 PUSH2 0xCF4 JUMP JUMPDEST PUSH1 0x40 MLOAD DUP1 SWAP2 SUB SWAP1 RETURN JUMPDEST PUSH2 0x1FA PUSH1 0x4 DUP1 CALLDATASIZE SUB DUP2 ADD SWAP1 PUSH2 0x1F5 SWAP2 SWAP1 PUSH2 0xFE6 JUMP JUMPDEST PUSH2 0x902 JUMP JUMPDEST STOP JUMPDEST PUSH1 0x5 DUP2 DUP2 SLOAD DUP2 LT PUSH2 0x20B JUMPI PUSH0 DUP1 REVERT JUMPDEST SWAP1 PUSH0 MSTORE PUSH1 0x20 PUSH0 KECCAK256 ADD PUSH0 SWAP2 POP SLOAD SWAP1 PUSH2 0x100 EXP SWAP1 DIV PUSH20 0xFFFFFFFFFFFFFFFFFFFFFFFFFFFFFFFFFFFFFFFF AND DUP2 JUMP JUMPDEST PUSH0 DUP1 JUMPDEST PUSH1 0x5 DUP1 SLOAD SWAP1 POP DUP2 LT ISZERO PUSH2 0x2CB JUMPI PUSH1 0x5 DUP2 DUP2 SLOAD DUP2 LT PUSH2 0x25B JUMPI PUSH2 0x25A PUSH2 0x1260 JUMP JUMPDEST JUMPDEST SWAP1 PUSH0 MSTORE PUSH1 0x20 PUSH0 KECCAK256 ADD PUSH0 SWAP1 SLOAD SWAP1 PUSH2 0x100 EXP SWAP1 DIV PUSH20 0xFFFFFFFFFFFFFFFFFFFFFFFFFFFFFFFFFFFFFFFF AND PUSH20 0xFFFFFFFFFFFFFFFFFFFFFFFFFFFFFFFFFFFFFFFF AND CALLER PUSH20 0xFFFFFFFFFFFFFFFFFFFFFFFFFFFFFFFFFFFFFFFF AND SUB PUSH2 0x2BE JUMPI PUSH1 0x1 SWAP2 POP PUSH2 0x2CB JUMP JUMPDEST DUP1 DUP1 PUSH1 0x1 ADD SWAP2 POP POP PUSH2 0x23A JUMP JUMPDEST POP DUP1 PUSH2 0x30C JUMPI PUSH1 0x40 MLOAD PUSH32 0x8C379A000000000000000000000000000000000000000000000000000000000 DUP2 MSTORE PUSH1 0x4 ADD PUSH2 0x303 SWAP1 PUSH2 0x12FD JUMP JUMPDEST PUSH1 0x40 MLOAD DUP1 SWAP2 SUB SWAP1 REVERT JUMPDEST PUSH0 JUMPDEST DUP3 MLOAD DUP2 LT ISZERO PUSH2 0x411 JUMPI PUSH1 0x1 DUP4 DUP3 DUP2 MLOAD DUP2 LT PUSH2 0x32C JUMPI PUSH2 0x32B PUSH2 0x1260 JUMP JUMPDEST JUMPDEST PUSH1 0x20 MUL PUSH1 0x20 ADD ADD MLOAD PUSH1 0x40 MLOAD PUSH2 0x341 SWAP2 SWAP1 PUSH2 0x1355 JUMP JUMPDEST SWAP1 DUP2 MSTORE PUSH1 0x20 ADD PUSH1 0x40 MLOAD DUP1 SWAP2 SUB SWAP1 KECCAK256 PUSH0 PUSH2 0x35A SWAP2 SWAP1 PUSH2 0xBEE JUMP JUMPDEST PUSH1 0x40 MLOAD DUP1 PUSH1 0x20 ADD PUSH1 0x40 MSTORE DUP1 PUSH0 DUP2 MSTORE POP PUSH0 PUSH1 0x2 DUP6 DUP5 DUP2 MLOAD DUP2 LT PUSH2 0x37F JUMPI PUSH2 0x37E PUSH2 0x1260 JUMP JUMPDEST JUMPDEST PUSH1 0x20 MUL PUSH1 0x20 ADD ADD MLOAD PUSH1 0x40 MLOAD PUSH2 0x394 SWAP2 SWAP1 PUSH2 0x1355 JUMP JUMPDEST SWAP1 DUP2 MSTORE PUSH1 0x20 ADD PUSH1 0x40 MLOAD DUP1 SWAP2 SUB SWAP1 KECCAK256 SLOAD DUP2 SLOAD DUP2 LT PUSH2 0x3B4 JUMPI PUSH2 0x3B3 PUSH2 0x1260 JUMP JUMPDEST JUMPDEST SWAP1 PUSH0 MSTORE PUSH1 0x20 PUSH0 KECCAK256 ADD SWAP1 DUP2 PUSH2 0x3C8 SWAP2 SWAP1 PUSH2 0x155C JUMP JUMPDEST POP PUSH1 0x2 DUP4 DUP3 DUP2 MLOAD DUP2 LT PUSH2 0x3DE JUMPI PUSH2 0x3DD PUSH2 0x1260 JUMP JUMPDEST JUMPDEST PUSH1 0x20 MUL PUSH1 0x20 ADD ADD MLOAD PUSH1 0x40 MLOAD PUSH2 0x3F3 SWAP2 SWAP1 PUSH2 0x1355 JUMP JUMPDEST SWAP1 DUP2 MSTORE PUSH1 0x20 ADD PUSH1 0x40 MLOAD DUP1 SWAP2 SUB SWAP1 KECCAK256 PUSH0 SWAP1 SSTORE DUP1 DUP1 PUSH1 0x1 ADD SWAP2 POP POP PUSH2 0x30E JUMP JUMPDEST POP PUSH32 0x5462CCA44BD73F863D8A33C18EDDEA04A24E4AC8E252404333DD97AC7A732AC8 DUP3 PUSH1 0x40 MLOAD PUSH2 0x441 SWAP2 SWAP1 PUSH2 0x1675 JUMP JUMPDEST PUSH1 0x40 MLOAD DUP1 SWAP2 SUB SWAP1 LOG1 POP POP JUMP JUMPDEST PUSH1 0x4 PUSH0 SWAP1 SLOAD SWAP1 PUSH2 0x100 EXP SWAP1 DIV PUSH20 0xFFFFFFFFFFFFFFFFFFFFFFFFFFFFFFFFFFFFFFFF AND DUP2 JUMP JUMPDEST PUSH1 0x3 PUSH0 SWAP1 SLOAD SWAP1 PUSH2 0x100 EXP SWAP1 DIV PUSH20 0xFFFFFFFFFFFFFFFFFFFFFFFFFFFFFFFFFFFFFFFF AND DUP2 JUMP JUMPDEST PUSH0 DUP1 JUMPDEST PUSH1 0x5 DUP1 SLOAD SWAP1 POP DUP2 LT ISZERO PUSH2 0x52B JUMPI PUSH1 0x5 DUP2 DUP2 SLOAD DUP2 LT PUSH2 0x4BB JUMPI PUSH2 0x4BA PUSH2 0x1260 JUMP JUMPDEST JUMPDEST SWAP1 PUSH0 MSTORE PUSH1 0x20 PUSH0 KECCAK256 ADD PUSH0 SWAP1 SLOAD SWAP1 PUSH2 0x100 EXP SWAP1 DIV PUSH20 0xFFFFFFFFFFFFFFFFFFFFFFFFFFFFFFFFFFFFFFFF AND PUSH20 0xFFFFFFFFFFFFFFFFFFFFFFFFFFFFFFFFFFFFFFFF AND CALLER PUSH20 0xFFFFFFFFFFFFFFFFFFFFFFFFFFFFFFFFFFFFFFFF AND SUB PUSH2 0x51E JUMPI PUSH1 0x1 SWAP2 POP PUSH2 0x52B JUMP JUMPDEST DUP1 DUP1 PUSH1 0x1 ADD SWAP2 POP POP PUSH2 0x49A JUMP JUMPDEST POP DUP1 PUSH2 0x56C JUMPI PUSH1 0x40 MLOAD PUSH32 0x8C379A000000000000000000000000000000000000000000000000000000000 DUP2 MSTORE PUSH1 0x4 ADD PUSH2 0x563 SWAP1 PUSH2 0x12FD JUMP JUMPDEST PUSH1 0x40 MLOAD DUP1 SWAP2 SUB SWAP1 REVERT JUMPDEST DUP2 MLOAD DUP4 MLOAD EQ PUSH2 0x5B0 JUMPI PUSH1 0x40 MLOAD PUSH32 0x8C379A000000000000000000000000000000000000000000000000000000000 DUP2 MSTORE PUSH1 0x4 ADD PUSH2 0x5A7 SWAP1 PUSH2 0x1718 JUMP JUMPDEST PUSH1 0x40 MLOAD DUP1 SWAP2 SUB SWAP1 REVERT JUMPDEST PUSH0 JUMPDEST DUP4 MLOAD DUP2 LT ISZERO PUSH2 0x6AE JUMPI PUSH0 PUSH1 0x1 DUP6 DUP4 DUP2 MLOAD DUP2 LT PUSH2 0x5D1 JUMPI PUSH2 0x5D0 PUSH2 0x1260 JUMP JUMPDEST JUMPDEST PUSH1 0x20 MUL PUSH1 0x20 ADD ADD MLOAD PUSH1 0x40 MLOAD PUSH2 0x5E6 SWAP2 SWAP1 PUSH2 0x1355 JUMP JUMPDEST SWAP1 DUP2 MSTORE PUSH1 0x20 ADD PUSH1 0x40 MLOAD DUP1 SWAP2 SUB SWAP1 KECCAK256 DUP1 SLOAD PUSH2 0x5FF SWAP1 PUSH2 0x1398 JUMP JUMPDEST SWAP1 POP SUB PUSH2 0x641 JUMPI PUSH1 0x40 MLOAD PUSH32 0x8C379A000000000000000000000000000000000000000000000000000000000 DUP2 MSTORE PUSH1 0x4 ADD PUSH2 0x638 SWAP1 PUSH2 0x1780 JUMP JUMPDEST PUSH1 0x40 MLOAD DUP1 SWAP2 SUB SWAP1 REVERT JUMPDEST DUP3 DUP2 DUP2 MLOAD DUP2 LT PUSH2 0x654 JUMPI PUSH2 0x653 PUSH2 0x1260 JUMP JUMPDEST JUMPDEST PUSH1 0x20 MUL PUSH1 0x20 ADD ADD MLOAD PUSH1 0x1 DUP6 DUP4 DUP2 MLOAD DUP2 LT PUSH2 0x671 JUMPI PUSH2 0x670 PUSH2 0x1260 JUMP JUMPDEST JUMPDEST PUSH1 0x20 MUL PUSH1 0x20 ADD ADD MLOAD PUSH1 0x40 MLOAD PUSH2 0x686 SWAP2 SWAP1 PUSH2 0x1355 JUMP JUMPDEST SWAP1 DUP2 MSTORE PUSH1 0x20 ADD PUSH1 0x40 MLOAD DUP1 SWAP2 SUB SWAP1 KECCAK256 SWAP1 DUP2 PUSH2 0x6A0 SWAP2 SWAP1 PUSH2 0x155C JUMP JUMPDEST POP DUP1 DUP1 PUSH1 0x1 ADD SWAP2 POP POP PUSH2 0x5B2 JUMP JUMPDEST POP POP POP POP JUMP JUMPDEST PUSH1 0x60 PUSH1 0x1 DUP3 PUSH1 0x40 MLOAD PUSH2 0x6C6 SWAP2 SWAP1 PUSH2 0x1355 JUMP JUMPDEST SWAP1 DUP2 MSTORE PUSH1 0x20 ADD PUSH1 0x40 MLOAD DUP1 SWAP2 SUB SWAP1 KECCAK256 DUP1 SLOAD PUSH2 0x6DF SWAP1 PUSH2 0x1398 JUMP JUMPDEST DUP1 PUSH1 0x1F ADD PUSH1 0x20 DUP1 SWAP2 DIV MUL PUSH1 0x20 ADD PUSH1 0x40 MLOAD SWAP1 DUP2 ADD PUSH1 0x40 MSTORE DUP1 SWAP3 SWAP2 SWAP1 DUP2 DUP2 MSTORE PUSH1 0x20 ADD DUP3 DUP1 SLOAD PUSH2 0x70B SWAP1 PUSH2 0x1398 JUMP JUMPDEST DUP1 ISZERO PUSH2 0x756 JUMPI DUP1 PUSH1 0x1F LT PUSH2 0x72D JUMPI PUSH2 0x100 DUP1 DUP4 SLOAD DIV MUL DUP4 MSTORE SWAP2 PUSH1 0x20 ADD SWAP2 PUSH2 0x756 JUMP JUMPDEST DUP3 ADD SWAP2 SWAP1 PUSH0 MSTORE PUSH1 0x20 PUSH0 KECCAK256 SWAP1 JUMPDEST DUP2 SLOAD DUP2 MSTORE SWAP1 PUSH1 0x1 ADD SWAP1 PUSH1 0x20 ADD DUP1 DUP4 GT PUSH2 0x739 JUMPI DUP3 SWAP1 SUB PUSH1 0x1F AND DUP3 ADD SWAP2 JUMPDEST POP POP POP POP POP SWAP1 POP SWAP2 SWAP1 POP JUMP JUMPDEST PUSH0 DUP2 DUP2 SLOAD DUP2 LT PUSH2 0x770 JUMPI PUSH0 DUP1 REVERT JUMPDEST SWAP1 PUSH0 MSTORE PUSH1 0x20 PUSH0 KECCAK256 ADD PUSH0 SWAP2 POP SWAP1 POP DUP1 SLOAD PUSH2 0x788 SWAP1 PUSH2 0x1398 JUMP JUMPDEST DUP1 PUSH1 0x1F ADD PUSH1 0x20 DUP1 SWAP2 DIV MUL PUSH1 0x20 ADD PUSH1 0x40 MLOAD SWAP1 DUP2 ADD PUSH1 0x40 MSTORE DUP1 SWAP3 SWAP2 SWAP1 DUP2 DUP2 MSTORE PUSH1 0x20 ADD DUP3 DUP1 SLOAD PUSH2 0x7B4 SWAP1 PUSH2 0x1398 JUMP JUMPDEST DUP1 ISZERO PUSH2 0x7FF JUMPI DUP1 PUSH1 0x1F LT PUSH2 0x7D6 JUMPI PUSH2 0x100 DUP1 DUP4 SLOAD DIV MUL DUP4 MSTORE SWAP2 PUSH1 0x20 ADD SWAP2 PUSH2 0x7FF JUMP JUMPDEST DUP3 ADD SWAP2 SWAP1 PUSH0 MSTORE PUSH1 0x20 PUSH0 KECCAK256 SWAP1 JUMPDEST DUP2 SLOAD DUP2 MSTORE SWAP1 PUSH1 0x1 ADD SWAP1 PUSH1 0x20 ADD DUP1 DUP4 GT PUSH2 0x7E2 JUMPI DUP3 SWAP1 SUB PUSH1 0x1F AND DUP3 ADD SWAP2 JUMPDEST POP POP POP POP POP DUP2 JUMP JUMPDEST PUSH1 0x60 PUSH0 DUP1 SLOAD DUP1 PUSH1 0x20 MUL PUSH1 0x20 ADD PUSH1 0x40 MLOAD SWAP1 DUP2 ADD PUSH1 0x40 MSTORE DUP1 SWAP3 SWAP2 SWAP1 DUP2 DUP2 MSTORE PUSH1 0x20 ADD PUSH0 SWAP1 JUMPDEST DUP3 DUP3 LT ISZERO PUSH2 0x8D1 JUMPI DUP4 DUP3 SWAP1 PUSH0 MSTORE PUSH1 0x20 PUSH0 KECCAK256 ADD DUP1 SLOAD PUSH2 0x846 SWAP1 PUSH2 0x1398 JUMP JUMPDEST DUP1 PUSH1 0x1F ADD PUSH1 0x20 DUP1 SWAP2 DIV MUL PUSH1 0x20 ADD PUSH1 0x40 MLOAD SWAP1 DUP2 ADD PUSH1 0x40 MSTORE DUP1 SWAP3 SWAP2 SWAP1 DUP2 DUP2 MSTORE PUSH1 0x20 ADD DUP3 DUP1 SLOAD PUSH2 0x872 SWAP1 PUSH2 0x1398 JUMP JUMPDEST DUP1 ISZERO PUSH2 0x8BD JUMPI DUP1 PUSH1 0x1F LT PUSH2 0x894 JUMPI PUSH2 0x100 DUP1 DUP4 SLOAD DIV MUL DUP4 MSTORE SWAP2 PUSH1 0x20 ADD SWAP2 PUSH2 0x8BD JUMP JUMPDEST DUP3 ADD SWAP2 SWAP1 PUSH0 MSTORE PUSH1 0x20 PUSH0 KECCAK256 SWAP1 JUMPDEST DUP2 SLOAD DUP2 MSTORE SWAP1 PUSH1 0x1 ADD SWAP1 PUSH1 0x20 ADD DUP1 DUP4 GT PUSH2 0x8A0 JUMPI DUP3 SWAP1 SUB PUSH1 0x1F AND DUP3 ADD SWAP2 JUMPDEST POP POP POP POP POP DUP2 MSTORE PUSH1 0x20 ADD SWAP1 PUSH1 0x1 ADD SWAP1 PUSH2 0x829 JUMP JUMPDEST POP POP POP POP SWAP1 POP SWAP1 JUMP JUMPDEST PUSH0 PUSH1 0x3 PUSH0 SWAP1 SLOAD SWAP1 PUSH2 0x100 EXP SWAP1 DIV PUSH20 0xFFFFFFFFFFFFFFFFFFFFFFFFFFFFFFFFFFFFFFFF AND SWAP1 POP SWAP1 JUMP JUMPDEST PUSH0 DUP1 JUMPDEST PUSH1 0x5 DUP1 SLOAD SWAP1 POP DUP2 LT ISZERO PUSH2 0x996 JUMPI PUSH1 0x5 DUP2 DUP2 SLOAD DUP2 LT PUSH2 0x926 JUMPI PUSH2 0x925 PUSH2 0x1260 JUMP JUMPDEST JUMPDEST SWAP1 PUSH0 MSTORE PUSH1 0x20 PUSH0 KECCAK256 ADD PUSH0 SWAP1 SLOAD SWAP1 PUSH2 0x100 EXP SWAP1 DIV PUSH20 0xFFFFFFFFFFFFFFFFFFFFFFFFFFFFFFFFFFFFFFFF AND PUSH20 0xFFFFFFFFFFFFFFFFFFFFFFFFFFFFFFFFFFFFFFFF AND CALLER PUSH20 0xFFFFFFFFFFFFFFFFFFFFFFFFFFFFFFFFFFFFFFFF AND SUB PUSH2 0x989 JUMPI PUSH1 0x1 SWAP2 POP PUSH2 0x996 JUMP JUMPDEST DUP1 DUP1 PUSH1 0x1 ADD SWAP2 POP POP PUSH2 0x905 JUMP JUMPDEST POP DUP1 PUSH2 0x9D7 JUMPI PUSH1 0x40 MLOAD PUSH32 0x8C379A000000000000000000000000000000000000000000000000000000000 DUP2 MSTORE PUSH1 0x4 ADD PUSH2 0x9CE SWAP1 PUSH2 0x12FD JUMP JUMPDEST PUSH1 0x40 MLOAD DUP1 SWAP2 SUB SWAP1 REVERT JUMPDEST DUP2 MLOAD DUP4 MLOAD EQ PUSH2 0xA1B JUMPI PUSH1 0x40 MLOAD PUSH32 0x8C379A000000000000000000000000000000000000000000000000000000000 DUP2 MSTORE PUSH1 0x4 ADD PUSH2 0xA12 SWAP1 PUSH2 0x1718 JUMP JUMPDEST PUSH1 0x40 MLOAD DUP1 SWAP2 SUB SWAP1 REVERT JUMPDEST PUSH0 JUMPDEST DUP4 MLOAD DUP2 LT ISZERO PUSH2 0xBB1 JUMPI PUSH0 PUSH1 0x1 DUP6 DUP4 DUP2 MLOAD DUP2 LT PUSH2 0xA3C JUMPI PUSH2 0xA3B PUSH2 0x1260 JUMP JUMPDEST JUMPDEST PUSH1 0x20 MUL PUSH1 0x20 ADD ADD MLOAD PUSH1 0x40 MLOAD PUSH2 0xA51 SWAP2 SWAP1 PUSH2 0x1355 JUMP JUMPDEST SWAP1 DUP2 MSTORE PUSH1 0x20 ADD PUSH1 0x40 MLOAD DUP1 SWAP2 SUB SWAP1 KECCAK256 DUP1 SLOAD PUSH2 0xA6A SWAP1 PUSH2 0x1398 JUMP JUMPDEST SWAP1 POP EQ PUSH2 0xAAC JUMPI PUSH1 0x40 MLOAD PUSH32 0x8C379A000000000000000000000000000000000000000000000000000000000 DUP2 MSTORE PUSH1 0x4 ADD PUSH2 0xAA3 SWAP1 PUSH2 0x17E8 JUMP JUMPDEST PUSH1 0x40 MLOAD DUP1 SWAP2 SUB SWAP1 REVERT JUMPDEST DUP3 DUP2 DUP2 MLOAD DUP2 LT PUSH2 0xABF JUMPI PUSH2 0xABE PUSH2 0x1260 JUMP JUMPDEST JUMPDEST PUSH1 0x20 MUL PUSH1 0x20 ADD ADD MLOAD PUSH1 0x1 DUP6 DUP4 DUP2 MLOAD DUP2 LT PUSH2 0xADC JUMPI PUSH2 0xADB PUSH2 0x1260 JUMP JUMPDEST JUMPDEST PUSH1 0x20 MUL PUSH1 0x20 ADD ADD MLOAD PUSH1 0x40 MLOAD PUSH2 0xAF1 SWAP2 SWAP1 PUSH2 0x1355 JUMP JUMPDEST SWAP1 DUP2 MSTORE PUSH1 0x20 ADD PUSH1 0x40 MLOAD DUP1 SWAP2 SUB SWAP1 KECCAK256 SWAP1 DUP2 PUSH2 0xB0B SWAP2 SWAP1 PUSH2 0x155C JUMP JUMPDEST POP PUSH0 DUP5 DUP3 DUP2 MLOAD DUP2 LT PUSH2 0xB20 JUMPI PUSH2 0xB1F PUSH2 0x1260 JUMP JUMPDEST JUMPDEST PUSH1 0x20 MUL PUSH1 0x20 ADD ADD MLOAD SWAP1 DUP1 PUSH1 0x1 DUP2 SLOAD ADD DUP1 DUP3 SSTORE DUP1 SWAP2 POP POP PUSH1 0x1 SWAP1 SUB SWAP1 PUSH0 MSTORE PUSH1 0x20 PUSH0 KECCAK256 ADD PUSH0 SWAP1 SWAP2 SWAP1 SWAP2 SWAP1 SWAP2 POP SWAP1 DUP2 PUSH2 0xB56 SWAP2 SWAP1 PUSH2 0x155C JUMP JUMPDEST POP PUSH1 0x1 PUSH0 DUP1 SLOAD SWAP1 POP PUSH2 0xB68 SWAP2 SWAP1 PUSH2 0x1833 JUMP JUMPDEST PUSH1 0x2 DUP6 DUP4 DUP2 MLOAD DUP2 LT PUSH2 0xB7D JUMPI PUSH2 0xB7C PUSH2 0x1260 JUMP JUMPDEST JUMPDEST PUSH1 0x20 MUL PUSH1 0x20 ADD ADD MLOAD PUSH1 0x40 MLOAD PUSH2 0xB92 SWAP2 SWAP1 PUSH2 0x1355 JUMP JUMPDEST SWAP1 DUP2 MSTORE PUSH1 0x20 ADD PUSH1 0x40 MLOAD DUP1 SWAP2 SUB SWAP1 KECCAK256 DUP2 SWAP1 SSTORE POP DUP1 DUP1 PUSH1 0x1 ADD SWAP2 POP POP PUSH2 0xA1D JUMP JUMPDEST POP PUSH32 0x5462CCA44BD73F863D8A33C18EDDEA04A24E4AC8E252404333DD97AC7A732AC8 DUP4 PUSH1 0x40 MLOAD PUSH2 0xBE1 SWAP2 SWAP1 PUSH2 0x18B0 JUMP JUMPDEST PUSH1 0x40 MLOAD DUP1 SWAP2 SUB SWAP1 LOG1 POP POP POP JUMP JUMPDEST POP DUP1 SLOAD PUSH2 0xBFA SWAP1 PUSH2 0x1398 JUMP JUMPDEST PUSH0 DUP3 SSTORE DUP1 PUSH1 0x1F LT PUSH2 0xC0B JUMPI POP PUSH2 0xC28 JUMP JUMPDEST PUSH1 0x1F ADD PUSH1 0x20 SWAP1 DIV SWAP1 PUSH0 MSTORE PUSH1 0x20 PUSH0 KECCAK256 SWAP1 DUP2 ADD SWAP1 PUSH2 0xC27 SWAP2 SWAP1 PUSH2 0xC2B JUMP JUMPDEST JUMPDEST POP JUMP JUMPDEST JUMPDEST DUP1 DUP3 GT ISZERO PUSH2 0xC42 JUMPI PUSH0 DUP2 PUSH0 SWAP1 SSTORE POP PUSH1 0x1 ADD PUSH2 0xC2C JUMP JUMPDEST POP SWAP1 JUMP JUMPDEST PUSH0 PUSH1 0x40 MLOAD SWAP1 POP SWAP1 JUMP JUMPDEST PUSH0 DUP1 REVERT JUMPDEST PUSH0 DUP1 REVERT JUMPDEST PUSH0 DUP2 SWAP1 POP SWAP2 SWAP1 POP JUMP JUMPDEST PUSH2 0xC69 DUP2 PUSH2 0xC57 JUMP JUMPDEST DUP2 EQ PUSH2 0xC73 JUMPI PUSH0 DUP1 REVERT JUMPDEST POP JUMP JUMPDEST PUSH0 DUP2 CALLDATALOAD SWAP1 POP PUSH2 0xC84 DUP2 PUSH2 0xC60 JUMP JUMPDEST SWAP3 SWAP2 POP POP JUMP JUMPDEST PUSH0 PUSH1 0x20 DUP3 DUP5 SUB SLT ISZERO PUSH2 0xC9F JUMPI PUSH2 0xC9E PUSH2 0xC4F JUMP JUMPDEST JUMPDEST PUSH0 PUSH2 0xCAC DUP5 DUP3 DUP6 ADD PUSH2 0xC76 JUMP JUMPDEST SWAP2 POP POP SWAP3 SWAP2 POP POP JUMP JUMPDEST PUSH0 PUSH20 0xFFFFFFFFFFFFFFFFFFFFFFFFFFFFFFFFFFFFFFFF DUP3 AND SWAP1 POP SWAP2 SWAP1 POP JUMP JUMPDEST PUSH0 PUSH2 0xCDE DUP3 PUSH2 0xCB5 JUMP JUMPDEST SWAP1 POP SWAP2 SWAP1 POP JUMP JUMPDEST PUSH2 0xCEE DUP2 PUSH2 0xCD4 JUMP JUMPDEST DUP3 MSTORE POP POP JUMP JUMPDEST PUSH0 PUSH1 0x20 DUP3 ADD SWAP1 POP PUSH2 0xD07 PUSH0 DUP4 ADD DUP5 PUSH2 0xCE5 JUMP JUMPDEST SWAP3 SWAP2 POP POP JUMP JUMPDEST PUSH0 DUP1 REVERT JUMPDEST PUSH0 PUSH1 0x1F NOT PUSH1 0x1F DUP4 ADD AND SWAP1 POP SWAP2 SWAP1 POP JUMP JUMPDEST PUSH32 0x4E487B7100000000000000000000000000000000000000000000000000000000 PUSH0 MSTORE PUSH1 0x41 PUSH1 0x4 MSTORE PUSH1 0x24 PUSH0 REVERT JUMPDEST PUSH2 0xD57 DUP3 PUSH2 0xD11 JUMP JUMPDEST DUP2 ADD DUP2 DUP2 LT PUSH8 0xFFFFFFFFFFFFFFFF DUP3 GT OR ISZERO PUSH2 0xD76 JUMPI PUSH2 0xD75 PUSH2 0xD21 JUMP JUMPDEST JUMPDEST DUP1 PUSH1 0x40 MSTORE POP POP POP JUMP JUMPDEST PUSH0 PUSH2 0xD88 PUSH2 0xC46 JUMP JUMPDEST SWAP1 POP PUSH2 0xD94 DUP3 DUP3 PUSH2 0xD4E JUMP JUMPDEST SWAP2 SWAP1 POP JUMP JUMPDEST PUSH0 PUSH8 0xFFFFFFFFFFFFFFFF DUP3 GT ISZERO PUSH2 0xDB3 JUMPI PUSH2 0xDB2 PUSH2 0xD21 JUMP JUMPDEST JUMPDEST PUSH1 0x20 DUP3 MUL SWAP1 POP PUSH1 0x20 DUP2 ADD SWAP1 POP SWAP2 SWAP1 POP JUMP JUMPDEST PUSH0 DUP1 REVERT JUMPDEST PUSH0 DUP1 REVERT JUMPDEST PUSH0 PUSH8 0xFFFFFFFFFFFFFFFF DUP3 GT ISZERO PUSH2 0xDE6 JUMPI PUSH2 0xDE5 PUSH2 0xD21 JUMP JUMPDEST JUMPDEST PUSH2 0xDEF DUP3 PUSH2 0xD11 JUMP JUMPDEST SWAP1 POP PUSH1 0x20 DUP2 ADD SWAP1 POP SWAP2 SWAP1 POP JUMP JUMPDEST DUP3 DUP2 DUP4 CALLDATACOPY PUSH0 DUP4 DUP4 ADD MSTORE POP POP POP JUMP JUMPDEST PUSH0 PUSH2 0xE1C PUSH2 0xE17 DUP5 PUSH2 0xDCC JUMP JUMPDEST PUSH2 0xD7F JUMP JUMPDEST SWAP1 POP DUP3 DUP2 MSTORE PUSH1 0x20 DUP2 ADD DUP5 DUP5 DUP5 ADD GT ISZERO PUSH2 0xE38 JUMPI PUSH2 0xE37 PUSH2 0xDC8 JUMP JUMPDEST JUMPDEST PUSH2 0xE43 DUP5 DUP3 DUP6 PUSH2 0xDFC JUMP JUMPDEST POP SWAP4 SWAP3 POP POP POP JUMP JUMPDEST PUSH0 DUP3 PUSH1 0x1F DUP4 ADD SLT PUSH2 0xE5F JUMPI PUSH2 0xE5E PUSH2 0xD0D JUMP JUMPDEST JUMPDEST DUP2 CALLDATALOAD PUSH2 0xE6F DUP5 DUP3 PUSH1 0x20 DUP7 ADD PUSH2 0xE0A JUMP JUMPDEST SWAP2 POP POP SWAP3 SWAP2 POP POP JUMP JUMPDEST PUSH0 PUSH2 0xE8A PUSH2 0xE85 DUP5 PUSH2 0xD99 JUMP JUMPDEST PUSH2 0xD7F JUMP JUMPDEST SWAP1 POP DUP1 DUP4 DUP3 MSTORE PUSH1 0x20 DUP3 ADD SWAP1 POP PUSH1 0x20 DUP5 MUL DUP4 ADD DUP6 DUP2 GT ISZERO PUSH2 0xEAD JUMPI PUSH2 0xEAC PUSH2 0xDC4 JUMP JUMPDEST JUMPDEST DUP4 JUMPDEST DUP2 DUP2 LT ISZERO PUSH2 0xEF4 JUMPI DUP1 CALLDATALOAD PUSH8 0xFFFFFFFFFFFFFFFF DUP2 GT ISZERO PUSH2 0xED2 JUMPI PUSH2 0xED1 PUSH2 0xD0D JUMP JUMPDEST JUMPDEST DUP1 DUP7 ADD PUSH2 0xEDF DUP10 DUP3 PUSH2 0xE4B JUMP JUMPDEST DUP6 MSTORE PUSH1 0x20 DUP6 ADD SWAP5 POP POP POP PUSH1 0x20 DUP2 ADD SWAP1 POP PUSH2 0xEAF JUMP JUMPDEST POP POP POP SWAP4 SWAP3 POP POP POP JUMP JUMPDEST PUSH0 DUP3 PUSH1 0x1F DUP4 ADD SLT PUSH2 0xF12 JUMPI PUSH2 0xF11 PUSH2 0xD0D JUMP JUMPDEST JUMPDEST DUP2 CALLDATALOAD PUSH2 0xF22 DUP5 DUP3 PUSH1 0x20 DUP7 ADD PUSH2 0xE78 JUMP JUMPDEST SWAP2 POP POP SWAP3 SWAP2 POP POP JUMP JUMPDEST PUSH0 PUSH1 0x20 DUP3 DUP5 SUB SLT ISZERO PUSH2 0xF40 JUMPI PUSH2 0xF3F PUSH2 0xC4F JUMP JUMPDEST JUMPDEST PUSH0 DUP3 ADD CALLDATALOAD PUSH8 0xFFFFFFFFFFFFFFFF DUP2 GT ISZERO PUSH2 0xF5D JUMPI PUSH2 0xF5C PUSH2 0xC53 JUMP JUMPDEST JUMPDEST PUSH2 0xF69 DUP5 DUP3 DUP6 ADD PUSH2 0xEFE JUMP JUMPDEST SWAP2 POP POP SWAP3 SWAP2 POP POP JUMP JUMPDEST PUSH0 DUP2 SWAP1 POP SWAP2 SWAP1 POP JUMP JUMPDEST PUSH0 PUSH2 0xF95 PUSH2 0xF90 PUSH2 0xF8B DUP5 PUSH2 0xCB5 JUMP JUMPDEST PUSH2 0xF72 JUMP JUMPDEST PUSH2 0xCB5 JUMP JUMPDEST SWAP1 POP SWAP2 SWAP1 POP JUMP JUMPDEST PUSH0 PUSH2 0xFA6 DUP3 PUSH2 0xF7B JUMP JUMPDEST SWAP1 POP SWAP2 SWAP1 POP JUMP JUMPDEST PUSH0 PUSH2 0xFB7 DUP3 PUSH2 0xF9C JUMP JUMPDEST SWAP1 POP SWAP2 SWAP1 POP JUMP JUMPDEST PUSH2 0xFC7 DUP2 PUSH2 0xFAD JUMP JUMPDEST DUP3 MSTORE POP POP JUMP JUMPDEST PUSH0 PUSH1 0x20 DUP3 ADD SWAP1 POP PUSH2 0xFE0 PUSH0 DUP4 ADD DUP5 PUSH2 0xFBE JUMP JUMPDEST SWAP3 SWAP2 POP POP JUMP JUMPDEST PUSH0 DUP1 PUSH1 0x40 DUP4 DUP6 SUB SLT ISZERO PUSH2 0xFFC JUMPI PUSH2 0xFFB PUSH2 0xC4F JUMP JUMPDEST JUMPDEST PUSH0 DUP4 ADD CALLDATALOAD PUSH8 0xFFFFFFFFFFFFFFFF DUP2 GT ISZERO PUSH2 0x1019 JUMPI PUSH2 0x1018 PUSH2 0xC53 JUMP JUMPDEST JUMPDEST PUSH2 0x1025 DUP6 DUP3 DUP7 ADD PUSH2 0xEFE JUMP JUMPDEST SWAP3 POP POP PUSH1 0x20 DUP4 ADD CALLDATALOAD PUSH8 0xFFFFFFFFFFFFFFFF DUP2 GT ISZERO PUSH2 0x1046 JUMPI PUSH2 0x1045 PUSH2 0xC53 JUMP JUMPDEST JUMPDEST PUSH2 0x1052 DUP6 DUP3 DUP7 ADD PUSH2 0xEFE JUMP JUMPDEST SWAP2 POP POP SWAP3 POP SWAP3 SWAP1 POP JUMP JUMPDEST PUSH0 PUSH1 0x20 DUP3 DUP5 SUB SLT ISZERO PUSH2 0x1071 JUMPI PUSH2 0x1070 PUSH2 0xC4F JUMP JUMPDEST JUMPDEST PUSH0 DUP3 ADD CALLDATALOAD PUSH8 0xFFFFFFFFFFFFFFFF DUP2 GT ISZERO PUSH2 0x108E JUMPI PUSH2 0x108D PUSH2 0xC53 JUMP JUMPDEST JUMPDEST PUSH2 0x109A DUP5 DUP3 DUP6 ADD PUSH2 0xE4B JUMP JUMPDEST SWAP2 POP POP SWAP3 SWAP2 POP POP JUMP JUMPDEST PUSH0 DUP2 MLOAD SWAP1 POP SWAP2 SWAP1 POP JUMP JUMPDEST PUSH0 DUP3 DUP3 MSTORE PUSH1 0x20 DUP3 ADD SWAP1 POP SWAP3 SWAP2 POP POP JUMP JUMPDEST PUSH0 JUMPDEST DUP4 DUP2 LT ISZERO PUSH2 0x10DA JUMPI DUP1 DUP3 ADD MLOAD DUP2 DUP5 ADD MSTORE PUSH1 0x20 DUP2 ADD SWAP1 POP PUSH2 0x10BF JUMP JUMPDEST PUSH0 DUP5 DUP5 ADD MSTORE POP POP POP POP JUMP JUMPDEST PUSH0 PUSH2 0x10EF DUP3 PUSH2 0x10A3 JUMP JUMPDEST PUSH2 0x10F9 DUP2 DUP6 PUSH2 0x10AD JUMP JUMPDEST SWAP4 POP PUSH2 0x1109 DUP2 DUP6 PUSH1 0x20 DUP7 ADD PUSH2 0x10BD JUMP JUMPDEST PUSH2 0x1112 DUP2 PUSH2 0xD11 JUMP JUMPDEST DUP5 ADD SWAP2 POP POP SWAP3 SWAP2 POP POP JUMP JUMPDEST PUSH0 PUSH1 0x20 DUP3 ADD SWAP1 POP DUP2 DUP2 SUB PUSH0 DUP4 ADD MSTORE PUSH2 0x1135 DUP2 DUP5 PUSH2 0x10E5 JUMP JUMPDEST SWAP1 POP SWAP3 SWAP2 POP POP JUMP JUMPDEST PUSH0 DUP2 MLOAD SWAP1 POP SWAP2 SWAP1 POP JUMP JUMPDEST PUSH0 DUP3 DUP3 MSTORE PUSH1 0x20 DUP3 ADD SWAP1 POP SWAP3 SWAP2 POP POP JUMP JUMPDEST PUSH0 DUP2 SWAP1 POP PUSH1 0x20 DUP3 ADD SWAP1 POP SWAP2 SWAP1 POP JUMP JUMPDEST PUSH0 DUP3 DUP3 MSTORE PUSH1 0x20 DUP3 ADD SWAP1 POP SWAP3 SWAP2 POP POP JUMP JUMPDEST PUSH0 PUSH2 0x1180 DUP3 PUSH2 0x10A3 JUMP JUMPDEST PUSH2 0x118A DUP2 DUP6 PUSH2 0x1166 JUMP JUMPDEST SWAP4 POP PUSH2 0x119A DUP2 DUP6 PUSH1 0x20 DUP7 ADD PUSH2 0x10BD JUMP JUMPDEST PUSH2 0x11A3 DUP2 PUSH2 0xD11 JUMP JUMPDEST DUP5 ADD SWAP2 POP POP SWAP3 SWAP2 POP POP JUMP JUMPDEST PUSH0 PUSH2 0x11B9 DUP4 DUP4 PUSH2 0x1176 JUMP JUMPDEST SWAP1 POP SWAP3 SWAP2 POP POP JUMP JUMPDEST PUSH0 PUSH1 0x20 DUP3 ADD SWAP1 POP SWAP2 SWAP1 POP JUMP JUMPDEST PUSH0 PUSH2 0x11D7 DUP3 PUSH2 0x113D JUMP JUMPDEST PUSH2 0x11E1 DUP2 DUP6 PUSH2 0x1147 JUMP JUMPDEST SWAP4 POP DUP4 PUSH1 0x20 DUP3 MUL DUP6 ADD PUSH2 0x11F3 DUP6 PUSH2 0x1157 JUMP JUMPDEST DUP1 PUSH0 JUMPDEST DUP6 DUP2 LT ISZERO PUSH2 0x122E JUMPI DUP5 DUP5 SUB DUP10 MSTORE DUP2 MLOAD PUSH2 0x120F DUP6 DUP3 PUSH2 0x11AE JUMP JUMPDEST SWAP5 POP PUSH2 0x121A DUP4 PUSH2 0x11C1 JUMP JUMPDEST SWAP3 POP PUSH1 0x20 DUP11 ADD SWAP10 POP POP PUSH1 0x1 DUP2 ADD SWAP1 POP PUSH2 0x11F6 JUMP JUMPDEST POP DUP3 SWAP8 POP DUP8 SWAP6 POP POP POP POP POP POP SWAP3 SWAP2 POP POP JUMP JUMPDEST PUSH0 PUSH1 0x20 DUP3 ADD SWAP1 POP DUP2 DUP2 SUB PUSH0 DUP4 ADD MSTORE PUSH2 0x1258 DUP2 DUP5 PUSH2 0x11CD JUMP JUMPDEST SWAP1 POP SWAP3 SWAP2 POP POP JUMP JUMPDEST PUSH32 0x4E487B7100000000000000000000000000000000000000000000000000000000 PUSH0 MSTORE PUSH1 0x32 PUSH1 0x4 MSTORE PUSH1 0x24 PUSH0 REVERT JUMPDEST PUSH32 0x4F6E6C792061646D696E732063616E2063616C6C20746869732066756E637469 PUSH0 DUP3 ADD MSTORE PUSH32 0x6F6E000000000000000000000000000000000000000000000000000000000000 PUSH1 0x20 DUP3 ADD MSTORE POP JUMP JUMPDEST PUSH0 PUSH2 0x12E7 PUSH1 0x22 DUP4 PUSH2 0x10AD JUMP JUMPDEST SWAP2 POP PUSH2 0x12F2 DUP3 PUSH2 0x128D JUMP JUMPDEST PUSH1 0x40 DUP3 ADD SWAP1 POP SWAP2 SWAP1 POP JUMP JUMPDEST PUSH0 PUSH1 0x20 DUP3 ADD SWAP1 POP DUP2 DUP2 SUB PUSH0 DUP4 ADD MSTORE PUSH2 0x1314 DUP2 PUSH2 0x12DB JUMP JUMPDEST SWAP1 POP SWAP2 SWAP1 POP JUMP JUMPDEST PUSH0 DUP2 SWAP1 POP SWAP3 SWAP2 POP POP JUMP JUMPDEST PUSH0 PUSH2 0x132F DUP3 PUSH2 0x10A3 JUMP JUMPDEST PUSH2 0x1339 DUP2 DUP6 PUSH2 0x131B JUMP JUMPDEST SWAP4 POP PUSH2 0x1349 DUP2 DUP6 PUSH1 0x20 DUP7 ADD PUSH2 0x10BD JUMP JUMPDEST DUP1 DUP5 ADD SWAP2 POP POP SWAP3 SWAP2 POP POP JUMP JUMPDEST PUSH0 PUSH2 0x1360 DUP3 DUP5 PUSH2 0x1325 JUMP JUMPDEST SWAP2 POP DUP2 SWAP1 POP SWAP3 SWAP2 POP POP JUMP JUMPDEST PUSH32 0x4E487B7100000000000000000000000000000000000000000000000000000000 PUSH0 MSTORE PUSH1 0x22 PUSH1 0x4 MSTORE PUSH1 0x24 PUSH0 REVERT JUMPDEST PUSH0 PUSH1 0x2 DUP3 DIV SWAP1 POP PUSH1 0x1 DUP3 AND DUP1 PUSH2 0x13AF JUMPI PUSH1 0x7F DUP3 AND SWAP2 POP JUMPDEST PUSH1 0x20 DUP3 LT DUP2 SUB PUSH2 0x13C2 JUMPI PUSH2 0x13C1 PUSH2 0x136B JUMP JUMPDEST JUMPDEST POP SWAP2 SWAP1 POP JUMP JUMPDEST PUSH0 DUP2 SWAP1 POP DUP2 PUSH0 MSTORE PUSH1 0x20 PUSH0 KECCAK256 SWAP1 POP SWAP2 SWAP1 POP JUMP JUMPDEST PUSH0 PUSH1 0x20 PUSH1 0x1F DUP4 ADD DIV SWAP1 POP SWAP2 SWAP1 POP JUMP JUMPDEST PUSH0 DUP3 DUP3 SHL SWAP1 POP SWAP3 SWAP2 POP POP JUMP JUMPDEST PUSH0 PUSH1 0x8 DUP4 MUL PUSH2 0x1424 PUSH32 0xFFFFFFFFFFFFFFFFFFFFFFFFFFFFFFFFFFFFFFFFFFFFFFFFFFFFFFFFFFFFFFFF DUP3 PUSH2 0x13E9 JUMP JUMPDEST PUSH2 0x142E DUP7 DUP4 PUSH2 0x13E9 JUMP JUMPDEST SWAP6 POP DUP1 NOT DUP5 AND SWAP4 POP DUP1 DUP7 AND DUP5 OR SWAP3 POP POP POP SWAP4 SWAP3 POP POP POP JUMP JUMPDEST PUSH0 PUSH2 0x1460 PUSH2 0x145B PUSH2 0x1456 DUP5 PUSH2 0xC57 JUMP JUMPDEST PUSH2 0xF72 JUMP JUMPDEST PUSH2 0xC57 JUMP JUMPDEST SWAP1 POP SWAP2 SWAP1 POP JUMP JUMPDEST PUSH0 DUP2 SWAP1 POP SWAP2 SWAP1 POP JUMP JUMPDEST PUSH2 0x1479 DUP4 PUSH2 0x1446 JUMP JUMPDEST PUSH2 0x148D PUSH2 0x1485 DUP3 PUSH2 0x1467 JUMP JUMPDEST DUP5 DUP5 SLOAD PUSH2 0x13F5 JUMP JUMPDEST DUP3 SSTORE POP POP POP POP JUMP JUMPDEST PUSH0 SWAP1 JUMP JUMPDEST PUSH2 0x14A1 PUSH2 0x1495 JUMP JUMPDEST PUSH2 0x14AC DUP2 DUP5 DUP5 PUSH2 0x1470 JUMP JUMPDEST POP POP POP JUMP JUMPDEST JUMPDEST DUP2 DUP2 LT ISZERO PUSH2 0x14CF JUMPI PUSH2 0x14C4 PUSH0 DUP3 PUSH2 0x1499 JUMP JUMPDEST PUSH1 0x1 DUP2 ADD SWAP1 POP PUSH2 0x14B2 JUMP JUMPDEST POP POP JUMP JUMPDEST PUSH1 0x1F DUP3 GT ISZERO PUSH2 0x1514 JUMPI PUSH2 0x14E5 DUP2 PUSH2 0x13C8 JUMP JUMPDEST PUSH2 0x14EE DUP5 PUSH2 0x13DA JUMP JUMPDEST DUP2 ADD PUSH1 0x20 DUP6 LT ISZERO PUSH2 0x14FD JUMPI DUP2 SWAP1 POP JUMPDEST PUSH2 0x1511 PUSH2 0x1509 DUP6 PUSH2 0x13DA JUMP JUMPDEST DUP4 ADD DUP3 PUSH2 0x14B1 JUMP JUMPDEST POP POP JUMPDEST POP POP POP JUMP JUMPDEST PUSH0 DUP3 DUP3 SHR SWAP1 POP SWAP3 SWAP2 POP POP JUMP JUMPDEST PUSH0 PUSH2 0x1534 PUSH0 NOT DUP5 PUSH1 0x8 MUL PUSH2 0x1519 JUMP JUMPDEST NOT DUP1 DUP4 AND SWAP2 POP POP SWAP3 SWAP2 POP POP JUMP JUMPDEST PUSH0 PUSH2 0x154C DUP4 DUP4 PUSH2 0x1525 JUMP JUMPDEST SWAP2 POP DUP3 PUSH1 0x2 MUL DUP3 OR SWAP1 POP SWAP3 SWAP2 POP POP JUMP JUMPDEST PUSH2 0x1565 DUP3 PUSH2 0x10A3 JUMP JUMPDEST PUSH8 0xFFFFFFFFFFFFFFFF DUP2 GT ISZERO PUSH2 0x157E JUMPI PUSH2 0x157D PUSH2 0xD21 JUMP JUMPDEST JUMPDEST PUSH2 0x1588 DUP3 SLOAD PUSH2 0x1398 JUMP JUMPDEST PUSH2 0x1593 DUP3 DUP3 DUP6 PUSH2 0x14D3 JUMP JUMPDEST PUSH0 PUSH1 0x20 SWAP1 POP PUSH1 0x1F DUP4 GT PUSH1 0x1 DUP2 EQ PUSH2 0x15C4 JUMPI PUSH0 DUP5 ISZERO PUSH2 0x15B2 JUMPI DUP3 DUP8 ADD MLOAD SWAP1 POP JUMPDEST PUSH2 0x15BC DUP6 DUP3 PUSH2 0x1541 JUMP JUMPDEST DUP7 SSTORE POP PUSH2 0x1623 JUMP JUMPDEST PUSH1 0x1F NOT DUP5 AND PUSH2 0x15D2 DUP7 PUSH2 0x13C8 JUMP JUMPDEST PUSH0 JUMPDEST DUP3 DUP2 LT ISZERO PUSH2 0x15F9 JUMPI DUP5 DUP10 ADD MLOAD DUP3 SSTORE PUSH1 0x1 DUP3 ADD SWAP2 POP PUSH1 0x20 DUP6 ADD SWAP5 POP PUSH1 0x20 DUP2 ADD SWAP1 POP PUSH2 0x15D4 JUMP JUMPDEST DUP7 DUP4 LT ISZERO PUSH2 0x1616 JUMPI DUP5 DUP10 ADD MLOAD PUSH2 0x1612 PUSH1 0x1F DUP10 AND DUP3 PUSH2 0x1525 JUMP JUMPDEST DUP4 SSTORE POP JUMPDEST PUSH1 0x1 PUSH1 0x2 DUP9 MUL ADD DUP9 SSTORE POP POP POP JUMPDEST POP POP POP POP POP POP JUMP JUMPDEST PUSH32 0x55454E732072656D6F7665640000000000000000000000000000000000000000 PUSH0 DUP3 ADD MSTORE POP JUMP JUMPDEST PUSH0 PUSH2 0x165F PUSH1 0xC DUP4 PUSH2 0x10AD JUMP JUMPDEST SWAP2 POP PUSH2 0x166A DUP3 PUSH2 0x162B JUMP JUMPDEST PUSH1 0x20 DUP3 ADD SWAP1 POP SWAP2 SWAP1 POP JUMP JUMPDEST PUSH0 PUSH1 0x40 DUP3 ADD SWAP1 POP DUP2 DUP2 SUB PUSH0 DUP4 ADD MSTORE PUSH2 0x168D DUP2 DUP5 PUSH2 0x11CD JUMP JUMPDEST SWAP1 POP DUP2 DUP2 SUB PUSH1 0x20 DUP4 ADD MSTORE PUSH2 0x16A0 DUP2 PUSH2 0x1653 JUMP JUMPDEST SWAP1 POP SWAP3 SWAP2 POP POP JUMP JUMPDEST PUSH32 0x4D617070696E6773206D7573742068617665207468652073616D65206C656E67 PUSH0 DUP3 ADD MSTORE PUSH32 0x7468000000000000000000000000000000000000000000000000000000000000 PUSH1 0x20 DUP3 ADD MSTORE POP JUMP JUMPDEST PUSH0 PUSH2 0x1702 PUSH1 0x22 DUP4 PUSH2 0x10AD JUMP JUMPDEST SWAP2 POP PUSH2 0x170D DUP3 PUSH2 0x16A8 JUMP JUMPDEST PUSH1 0x40 DUP3 ADD SWAP1 POP SWAP2 SWAP1 POP JUMP JUMPDEST PUSH0 PUSH1 0x20 DUP3 ADD SWAP1 POP DUP2 DUP2 SUB PUSH0 DUP4 ADD MSTORE PUSH2 0x172F DUP2 PUSH2 0x16F6 JUMP JUMPDEST SWAP1 POP SWAP2 SWAP1 POP JUMP JUMPDEST PUSH32 0x55454E20646F6573206E6F742065786973740000000000000000000000000000 PUSH0 DUP3 ADD MSTORE POP JUMP JUMPDEST PUSH0 PUSH2 0x176A PUSH1 0x12 DUP4 PUSH2 0x10AD JUMP JUMPDEST SWAP2 POP PUSH2 0x1775 DUP3 PUSH2 0x1736 JUMP JUMPDEST PUSH1 0x20 DUP3 ADD SWAP1 POP SWAP2 SWAP1 POP JUMP JUMPDEST PUSH0 PUSH1 0x20 DUP3 ADD SWAP1 POP DUP2 DUP2 SUB PUSH0 DUP4 ADD MSTORE PUSH2 0x1797 DUP2 PUSH2 0x175E JUMP JUMPDEST SWAP1 POP SWAP2 SWAP1 POP JUMP JUMPDEST PUSH32 0x55454E20616C7265616479206578697374730000000000000000000000000000 PUSH0 DUP3 ADD MSTORE POP JUMP JUMPDEST PUSH0 PUSH2 0x17D2 PUSH1 0x12 DUP4 PUSH2 0x10AD JUMP JUMPDEST SWAP2 POP PUSH2 0x17DD DUP3 PUSH2 0x179E JUMP JUMPDEST PUSH1 0x20 DUP3 ADD SWAP1 POP SWAP2 SWAP1 POP JUMP JUMPDEST PUSH0 PUSH1 0x20 DUP3 ADD SWAP1 POP DUP2 DUP2 SUB PUSH0 DUP4 ADD MSTORE PUSH2 0x17FF DUP2 PUSH2 0x17C6 JUMP JUMPDEST SWAP1 POP SWAP2 SWAP1 POP JUMP JUMPDEST PUSH32 0x4E487B7100000000000000000000000000000000000000000000000000000000 PUSH0 MSTORE PUSH1 0x11 PUSH1 0x4 MSTORE PUSH1 0x24 PUSH0 REVERT JUMPDEST PUSH0 PUSH2 0x183D DUP3 PUSH2 0xC57 JUMP JUMPDEST SWAP2 POP PUSH2 0x1848 DUP4 PUSH2 0xC57 JUMP JUMPDEST SWAP3 POP DUP3 DUP3 SUB SWAP1 POP DUP2 DUP2 GT ISZERO PUSH2 0x1860 JUMPI PUSH2 0x185F PUSH2 0x1806 JUMP JUMPDEST JUMPDEST SWAP3 SWAP2 POP POP JUMP JUMPDEST PUSH32 0x55454E7320616464656400000000000000000000000000000000000000000000 PUSH0 DUP3 ADD MSTORE POP JUMP JUMPDEST PUSH0 PUSH2 0x189A PUSH1 0xA DUP4 PUSH2 0x10AD JUMP JUMPDEST SWAP2 POP PUSH2 0x18A5 DUP3 PUSH2 0x1866 JUMP JUMPDEST PUSH1 0x20 DUP3 ADD SWAP1 POP SWAP2 SWAP1 POP JUMP JUMPDEST PUSH0 PUSH1 0x40 DUP3 ADD SWAP1 POP DUP2 DUP2 SUB PUSH0 DUP4 ADD MSTORE PUSH2 0x18C8 DUP2 DUP5 PUSH2 0x11CD JUMP JUMPDEST SWAP1 POP DUP2 DUP2 SUB PUSH1 0x20 DUP4 ADD MSTORE PUSH2 0x18DB DUP2 PUSH2 0x188E JUMP JUMPDEST SWAP1 POP SWAP3 SWAP2 POP POP JUMP INVALID LOG2 PUSH5 0x6970667358 0x22 SLT KECCAK256 0x1F DELEGATECALL PUSH10 0xD7574A234D9B0A2013FA CALLVALUE JUMPDEST JUMP 0xE6 AND PUSH19 0xFC5AECD9747B840CE70A31ABB064736F6C6343 STOP ADDMOD AND STOP CALLER "
				},
				"gasEstimates": {
					"creation": {
						"codeDepositCost": "1285000",
						"executionCost": "infinite",
						"totalCost": "infinite"
					},
					"external": {
						"add_uens(string[],string[])": "infinite",
						"admin_list_contract()": "2575",
						"admins(uint256)": "4945",
						"get_admin_contract()": "2581",
						"get_admin_list_contract()": "infinite",
						"get_all_uens()": "infinite",
						"get_name(string)": "infinite",
						"modify_uens(string[],string[])": "infinite",
						"remove_uens(string[])": "infinite",
						"uen_list(uint256)": "infinite"
					}
				},
				"methodIdentifiers": {
					"add_uens(string[],string[])": "f9b378c2",
					"admin_list_contract()": "46dc1ffc",
					"admins(uint256)": "14bfd6d0",
					"get_admin_contract()": "beada813",
					"get_admin_list_contract()": "36693c04",
					"get_all_uens()": "b3d6da6e",
					"get_name(string)": "a8f5d7a6",
					"modify_uens(string[],string[])": "9926aa34",
					"remove_uens(string[])": "35b13db2",
					"uen_list(uint256)": "b30282fa"
				}
			},
			"storageLayout": {
				"storage": [
					{
						"astId": 49,
						"contract": "uen_management.sol:uen_management",
						"label": "uen_list",
						"offset": 0,
						"slot": "0",
						"type": "t_array(t_string_storage)dyn_storage"
					},
					{
						"astId": 53,
						"contract": "uen_management.sol:uen_management",
						"label": "uen_to_name",
						"offset": 0,
						"slot": "1",
						"type": "t_mapping(t_string_memory_ptr,t_string_storage)"
					},
					{
						"astId": 57,
						"contract": "uen_management.sol:uen_management",
						"label": "uen_to_index",
						"offset": 0,
						"slot": "2",
						"type": "t_mapping(t_string_memory_ptr,t_uint256)"
					},
					{
						"astId": 59,
						"contract": "uen_management.sol:uen_management",
						"label": "admin_list_contract",
						"offset": 0,
						"slot": "3",
						"type": "t_address"
					},
					{
						"astId": 62,
						"contract": "uen_management.sol:uen_management",
						"label": "get_admin_list_contract",
						"offset": 0,
						"slot": "4",
						"type": "t_contract(Iadmin_management)8"
					},
					{
						"astId": 65,
						"contract": "uen_management.sol:uen_management",
						"label": "admins",
						"offset": 0,
						"slot": "5",
						"type": "t_array(t_address)dyn_storage"
					}
				],
				"types": {
					"t_address": {
						"encoding": "inplace",
						"label": "address",
						"numberOfBytes": "20"
					},
					"t_array(t_address)dyn_storage": {
						"base": "t_address",
						"encoding": "dynamic_array",
						"label": "address[]",
						"numberOfBytes": "32"
					},
					"t_array(t_string_storage)dyn_storage": {
						"base": "t_string_storage",
						"encoding": "dynamic_array",
						"label": "string[]",
						"numberOfBytes": "32"
					},
					"t_contract(Iadmin_management)8": {
						"encoding": "inplace",
						"label": "contract Iadmin_management",
						"numberOfBytes": "20"
					},
					"t_mapping(t_string_memory_ptr,t_string_storage)": {
						"encoding": "mapping",
						"key": "t_string_memory_ptr",
						"label": "mapping(string => string)",
						"numberOfBytes": "32",
						"value": "t_string_storage"
					},
					"t_mapping(t_string_memory_ptr,t_uint256)": {
						"encoding": "mapping",
						"key": "t_string_memory_ptr",
						"label": "mapping(string => uint256)",
						"numberOfBytes": "32",
						"value": "t_uint256"
					},
					"t_string_memory_ptr": {
						"encoding": "bytes",
						"label": "string",
						"numberOfBytes": "32"
					},
					"t_string_storage": {
						"encoding": "bytes",
						"label": "string",
						"numberOfBytes": "32"
					},
					"t_uint256": {
						"encoding": "inplace",
						"label": "uint256",
						"numberOfBytes": "32"
					}
				}
			},
			"userdoc": {
				"kind": "user",
				"methods": {},
				"version": 1
			}
		}
	}
}