{
	"admin.sol": {
		"admin_management": {
			"abi": [
				{
					"inputs": [],
					"stateMutability": "nonpayable",
					"type": "constructor"
				},
				{
					"anonymous": false,
					"inputs": [
						{
							"indexed": false,
							"internalType": "address[]",
							"name": "_admins",
							"type": "address[]"
						},
						{
							"indexed": false,
							"internalType": "string",
							"name": "_message",
							"type": "string"
						}
					],
					"name": "admin_event",
					"type": "event"
				},
				{
					"inputs": [
						{
							"internalType": "address[]",
							"name": "_newAdmins",
							"type": "address[]"
						}
					],
					"name": "add_admins",
					"outputs": [],
					"stateMutability": "nonpayable",
					"type": "function"
				},
				{
					"inputs": [
						{
							"internalType": "uint256",
							"name": "",
							"type": "uint256"
						}
					],
					"name": "admins",
					"outputs": [
						{
							"internalType": "address",
							"name": "",
							"type": "address"
						}
					],
					"stateMutability": "view",
					"type": "function"
				},
				{
					"inputs": [],
					"name": "get_admins",
					"outputs": [
						{
							"internalType": "address[]",
							"name": "",
							"type": "address[]"
						}
					],
					"stateMutability": "view",
					"type": "function"
				},
				{
					"inputs": [
						{
							"internalType": "address[]",
							"name": "_admins",
							"type": "address[]"
						}
					],
					"name": "remove_admin",
					"outputs": [],
					"stateMutability": "nonpayable",
					"type": "function"
				},
				{
					"inputs": [
						{
							"internalType": "uint256[]",
							"name": "_indexes",
							"type": "uint256[]"
						}
					],
					"name": "remove_admin_by_index",
					"outputs": [],
					"stateMutability": "nonpayable",
					"type": "function"
				}
			],
			"devdoc": {
				"kind": "dev",
				"methods": {},
				"version": 1
			},
			"evm": {
				"assembly": "    /* \"admin.sol\":363:3610  contract admin_management {... */\n  mstore(0x40, 0x80)\n    /* \"admin.sol\":770:824  constructor() {... */\n  callvalue\n  dup1\n  iszero\n  tag_1\n  jumpi\n  0x00\n  dup1\n  revert\ntag_1:\n  pop\n    /* \"admin.sol\":794:800  admins */\n  0x00\n    /* \"admin.sol\":806:816  msg.sender */\n  caller\n    /* \"admin.sol\":794:817  admins.push(msg.sender) */\n  swap1\n  dup1\n  0x01\n  dup2\n  sload\n  add\n  dup1\n  dup3\n  sstore\n  dup1\n  swap2\n  pop\n  pop\n  0x01\n  swap1\n  sub\n  swap1\n  0x00\n  mstore\n  keccak256(0x00, 0x20)\n  add\n  0x00\n  swap1\n  swap2\n  swap1\n  swap2\n  swap1\n  swap2\n  0x0100\n  exp\n  dup2\n  sload\n  dup2\n  0xffffffffffffffffffffffffffffffffffffffff\n  mul\n  not\n  and\n  swap1\n  dup4\n  0xffffffffffffffffffffffffffffffffffffffff\n  and\n  mul\n  or\n  swap1\n  sstore\n  pop\n    /* \"admin.sol\":363:3610  contract admin_management {... */\n  dataSize(sub_0)\n  dup1\n  dataOffset(sub_0)\n  0x00\n  codecopy\n  0x00\n  return\nstop\n\nsub_0: assembly {\n        /* \"admin.sol\":363:3610  contract admin_management {... */\n      mstore(0x40, 0x80)\n      callvalue\n      dup1\n      iszero\n      tag_1\n      jumpi\n      0x00\n      dup1\n      revert\n    tag_1:\n      pop\n      jumpi(tag_2, lt(calldatasize, 0x04))\n      shr(0xe0, calldataload(0x00))\n      dup1\n      0x14bfd6d0\n      eq\n      tag_3\n      jumpi\n      dup1\n      0x3ca00ed2\n      eq\n      tag_4\n      jumpi\n      dup1\n      0x843eedee\n      eq\n      tag_5\n      jumpi\n      dup1\n      0x8794b69d\n      eq\n      tag_6\n      jumpi\n      dup1\n      0xe13e95eb\n      eq\n      tag_7\n      jumpi\n    tag_2:\n      0x00\n      dup1\n      revert\n        /* \"admin.sol\":692:715  address[] public admins */\n    tag_3:\n      tag_8\n      0x04\n      dup1\n      calldatasize\n      sub\n      dup2\n      add\n      swap1\n      tag_9\n      swap2\n      swap1\n      tag_10\n      jump\t// in\n    tag_9:\n      tag_11\n      jump\t// in\n    tag_8:\n      mload(0x40)\n      tag_12\n      swap2\n      swap1\n      tag_13\n      jump\t// in\n    tag_12:\n      mload(0x40)\n      dup1\n      swap2\n      sub\n      swap1\n      return\n        /* \"admin.sol\":1631:2241  function add_admins(address[] memory _newAdmins) external only_admin {... */\n    tag_4:\n      tag_14\n      0x04\n      dup1\n      calldatasize\n      sub\n      dup2\n      add\n      swap1\n      tag_15\n      swap2\n      swap1\n      tag_16\n      jump\t// in\n    tag_15:\n      tag_17\n      jump\t// in\n    tag_14:\n      stop\n        /* \"admin.sol\":3178:3608  function remove_admin_by_index(uint256[] memory _indexes) external only_admin {... */\n    tag_5:\n      tag_18\n      0x04\n      dup1\n      calldatasize\n      sub\n      dup2\n      add\n      swap1\n      tag_19\n      swap2\n      swap1\n      tag_20\n      jump\t// in\n    tag_19:\n      tag_21\n      jump\t// in\n    tag_18:\n      stop\n        /* \"admin.sol\":1358:1449  function get_admins() public view returns (address[] memory) {... */\n    tag_6:\n      tag_22\n      tag_23\n      jump\t// in\n    tag_22:\n      mload(0x40)\n      tag_24\n      swap2\n      swap1\n      tag_25\n      jump\t// in\n    tag_24:\n      mload(0x40)\n      dup1\n      swap2\n      sub\n      swap1\n      return\n        /* \"admin.sol\":2419:2936  function remove_admin(address[] memory _admins) external only_admin {... */\n    tag_7:\n      tag_26\n      0x04\n      dup1\n      calldatasize\n      sub\n      dup2\n      add\n      swap1\n      tag_27\n      swap2\n      swap1\n      tag_16\n      jump\t// in\n    tag_27:\n      tag_28\n      jump\t// in\n    tag_26:\n      stop\n        /* \"admin.sol\":692:715  address[] public admins */\n    tag_11:\n      0x00\n      dup2\n      dup2\n      sload\n      dup2\n      lt\n      tag_29\n      jumpi\n      0x00\n      dup1\n      revert\n    tag_29:\n      swap1\n      0x00\n      mstore\n      keccak256(0x00, 0x20)\n      add\n      0x00\n      swap2\n      pop\n      sload\n      swap1\n      0x0100\n      exp\n      swap1\n      div\n      0xffffffffffffffffffffffffffffffffffffffff\n      and\n      dup2\n      jump\t// out\n        /* \"admin.sol\":1631:2241  function add_admins(address[] memory _newAdmins) external only_admin {... */\n    tag_17:\n        /* \"admin.sol\":1017:1030  bool is_owner */\n      0x00\n        /* \"admin.sol\":1053:1062  uint256 i */\n      dup1\n        /* \"admin.sol\":1048:1216  for (uint256 i = 0; i < admins.length; i++) {... */\n    tag_32:\n        /* \"admin.sol\":1072:1078  admins */\n      0x00\n        /* \"admin.sol\":1072:1085  admins.length */\n      dup1\n      sload\n      swap1\n      pop\n        /* \"admin.sol\":1068:1069  i */\n      dup2\n        /* \"admin.sol\":1068:1085  i < admins.length */\n      lt\n        /* \"admin.sol\":1048:1216  for (uint256 i = 0; i < admins.length; i++) {... */\n      iszero\n      tag_33\n      jumpi\n        /* \"admin.sol\":1124:1130  admins */\n      0x00\n        /* \"admin.sol\":1131:1132  i */\n      dup2\n        /* \"admin.sol\":1124:1133  admins[i] */\n      dup2\n      sload\n      dup2\n      lt\n      tag_35\n      jumpi\n      tag_36\n      tag_37\n      jump\t// in\n    tag_36:\n    tag_35:\n      swap1\n      0x00\n      mstore\n      keccak256(0x00, 0x20)\n      add\n      0x00\n      swap1\n      sload\n      swap1\n      0x0100\n      exp\n      swap1\n      div\n      0xffffffffffffffffffffffffffffffffffffffff\n      and\n        /* \"admin.sol\":1110:1133  msg.sender == admins[i] */\n      0xffffffffffffffffffffffffffffffffffffffff\n      and\n        /* \"admin.sol\":1110:1120  msg.sender */\n      caller\n        /* \"admin.sol\":1110:1133  msg.sender == admins[i] */\n      0xffffffffffffffffffffffffffffffffffffffff\n      and\n      sub\n        /* \"admin.sol\":1106:1206  if (msg.sender == admins[i]) {... */\n      tag_39\n      jumpi\n        /* \"admin.sol\":1164:1168  true */\n      0x01\n        /* \"admin.sol\":1153:1168  is_owner = true */\n      swap2\n      pop\n        /* \"admin.sol\":1186:1191  break */\n      jump(tag_33)\n        /* \"admin.sol\":1106:1206  if (msg.sender == admins[i]) {... */\n    tag_39:\n        /* \"admin.sol\":1087:1090  i++ */\n      dup1\n      dup1\n      0x01\n      add\n      swap2\n      pop\n      pop\n        /* \"admin.sol\":1048:1216  for (uint256 i = 0; i < admins.length; i++) {... */\n      jump(tag_32)\n    tag_33:\n      pop\n        /* \"admin.sol\":1233:1241  is_owner */\n      dup1\n        /* \"admin.sol\":1225:1280  require(is_owner, \"Only admins can call this function\") */\n      tag_40\n      jumpi\n      mload(0x40)\n      0x08c379a000000000000000000000000000000000000000000000000000000000\n      dup2\n      mstore\n      0x04\n      add\n      tag_41\n      swap1\n      tag_42\n      jump\t// in\n    tag_41:\n      mload(0x40)\n      dup1\n      swap2\n      sub\n      swap1\n      revert\n    tag_40:\n        /* \"admin.sol\":1715:1724  uint256 i */\n      0x00\n        /* \"admin.sol\":1710:2235  for (uint256 i = 0; i < _newAdmins.length; i++) {... */\n    tag_44:\n        /* \"admin.sol\":1734:1744  _newAdmins */\n      dup3\n        /* \"admin.sol\":1734:1751  _newAdmins.length */\n      mload\n        /* \"admin.sol\":1730:1731  i */\n      dup2\n        /* \"admin.sol\":1730:1751  i < _newAdmins.length */\n      lt\n        /* \"admin.sol\":1710:2235  for (uint256 i = 0; i < _newAdmins.length; i++) {... */\n      iszero\n      tag_45\n      jumpi\n        /* \"admin.sol\":1772:1789  bool alreadyAdmin */\n      0x00\n        /* \"admin.sol\":1816:1825  uint256 j */\n      dup1\n        /* \"admin.sol\":1811:2076  for (uint256 j = 0; j < admins.length; j++) {... */\n    tag_47:\n        /* \"admin.sol\":1835:1841  admins */\n      0x00\n        /* \"admin.sol\":1835:1848  admins.length */\n      dup1\n      sload\n      swap1\n      pop\n        /* \"admin.sol\":1831:1832  j */\n      dup2\n        /* \"admin.sol\":1831:1848  j < admins.length */\n      lt\n        /* \"admin.sol\":1811:2076  for (uint256 j = 0; j < admins.length; j++) {... */\n      iszero\n      tag_48\n      jumpi\n        /* \"admin.sol\":1894:1900  admins */\n      0x00\n        /* \"admin.sol\":1901:1902  j */\n      dup2\n        /* \"admin.sol\":1894:1903  admins[j] */\n      dup2\n      sload\n      dup2\n      lt\n      tag_50\n      jumpi\n      tag_51\n      tag_37\n      jump\t// in\n    tag_51:\n    tag_50:\n      swap1\n      0x00\n      mstore\n      keccak256(0x00, 0x20)\n      add\n      0x00\n      swap1\n      sload\n      swap1\n      0x0100\n      exp\n      swap1\n      div\n      0xffffffffffffffffffffffffffffffffffffffff\n      and\n        /* \"admin.sol\":1877:1903  _newAdmins[i] == admins[j] */\n      0xffffffffffffffffffffffffffffffffffffffff\n      and\n        /* \"admin.sol\":1877:1887  _newAdmins */\n      dup6\n        /* \"admin.sol\":1888:1889  i */\n      dup5\n        /* \"admin.sol\":1877:1890  _newAdmins[i] */\n      dup2\n      mload\n      dup2\n      lt\n      tag_53\n      jumpi\n      tag_54\n      tag_37\n      jump\t// in\n    tag_54:\n    tag_53:\n      0x20\n      mul\n      0x20\n      add\n      add\n      mload\n        /* \"admin.sol\":1877:1903  _newAdmins[i] == admins[j] */\n      0xffffffffffffffffffffffffffffffffffffffff\n      and\n      sub\n        /* \"admin.sol\":1873:2062  if (_newAdmins[i] == admins[j]) {... */\n      tag_55\n      jumpi\n        /* \"admin.sol\":1942:1946  true */\n      0x01\n        /* \"admin.sol\":1927:1946  alreadyAdmin = true */\n      swap2\n      pop\n        /* \"admin.sol\":1973:2016  admin_event(admins, \"Admins already exist\") */\n      0x7d2b11152d2c5ceedf90177a6964c7010cc73960d2b00b63779b8718322e0823\n        /* \"admin.sol\":1985:1991  admins */\n      0x00\n        /* \"admin.sol\":1973:2016  admin_event(admins, \"Admins already exist\") */\n      mload(0x40)\n      tag_56\n      swap2\n      swap1\n      tag_57\n      jump\t// in\n    tag_56:\n      mload(0x40)\n      dup1\n      swap2\n      sub\n      swap1\n      log1\n        /* \"admin.sol\":2038:2043  break */\n      jump(tag_48)\n        /* \"admin.sol\":1873:2062  if (_newAdmins[i] == admins[j]) {... */\n    tag_55:\n        /* \"admin.sol\":1850:1853  j++ */\n      dup1\n      dup1\n      0x01\n      add\n      swap2\n      pop\n      pop\n        /* \"admin.sol\":1811:2076  for (uint256 j = 0; j < admins.length; j++) {... */\n      jump(tag_47)\n    tag_48:\n      pop\n        /* \"admin.sol\":2094:2106  alreadyAdmin */\n      dup1\n        /* \"admin.sol\":2089:2225  if (!alreadyAdmin) {... */\n      tag_58\n      jumpi\n        /* \"admin.sol\":2126:2132  admins */\n      0x00\n        /* \"admin.sol\":2138:2148  _newAdmins */\n      dup5\n        /* \"admin.sol\":2149:2150  i */\n      dup4\n        /* \"admin.sol\":2138:2151  _newAdmins[i] */\n      dup2\n      mload\n      dup2\n      lt\n      tag_59\n      jumpi\n      tag_60\n      tag_37\n      jump\t// in\n    tag_60:\n    tag_59:\n      0x20\n      mul\n      0x20\n      add\n      add\n      mload\n        /* \"admin.sol\":2126:2152  admins.push(_newAdmins[i]) */\n      swap1\n      dup1\n      0x01\n      dup2\n      sload\n      add\n      dup1\n      dup3\n      sstore\n      dup1\n      swap2\n      pop\n      pop\n      0x01\n      swap1\n      sub\n      swap1\n      0x00\n      mstore\n      keccak256(0x00, 0x20)\n      add\n      0x00\n      swap1\n      swap2\n      swap1\n      swap2\n      swap1\n      swap2\n      0x0100\n      exp\n      dup2\n      sload\n      dup2\n      0xffffffffffffffffffffffffffffffffffffffff\n      mul\n      not\n      and\n      swap1\n      dup4\n      0xffffffffffffffffffffffffffffffffffffffff\n      and\n      mul\n      or\n      swap1\n      sstore\n      pop\n        /* \"admin.sol\":2175:2210  admin_event(admins, \"Admins added\") */\n      0x7d2b11152d2c5ceedf90177a6964c7010cc73960d2b00b63779b8718322e0823\n        /* \"admin.sol\":2187:2193  admins */\n      0x00\n        /* \"admin.sol\":2175:2210  admin_event(admins, \"Admins added\") */\n      mload(0x40)\n      tag_62\n      swap2\n      swap1\n      tag_63\n      jump\t// in\n    tag_62:\n      mload(0x40)\n      dup1\n      swap2\n      sub\n      swap1\n      log1\n        /* \"admin.sol\":2089:2225  if (!alreadyAdmin) {... */\n    tag_58:\n        /* \"admin.sol\":1758:2235  {... */\n      pop\n        /* \"admin.sol\":1753:1756  i++ */\n      dup1\n      dup1\n      0x01\n      add\n      swap2\n      pop\n      pop\n        /* \"admin.sol\":1710:2235  for (uint256 i = 0; i < _newAdmins.length; i++) {... */\n      jump(tag_44)\n    tag_45:\n      pop\n        /* \"admin.sol\":1007:1298  {... */\n      pop\n        /* \"admin.sol\":1631:2241  function add_admins(address[] memory _newAdmins) external only_admin {... */\n      pop\n      jump\t// out\n        /* \"admin.sol\":3178:3608  function remove_admin_by_index(uint256[] memory _indexes) external only_admin {... */\n    tag_21:\n        /* \"admin.sol\":1017:1030  bool is_owner */\n      0x00\n        /* \"admin.sol\":1053:1062  uint256 i */\n      dup1\n        /* \"admin.sol\":1048:1216  for (uint256 i = 0; i < admins.length; i++) {... */\n    tag_65:\n        /* \"admin.sol\":1072:1078  admins */\n      0x00\n        /* \"admin.sol\":1072:1085  admins.length */\n      dup1\n      sload\n      swap1\n      pop\n        /* \"admin.sol\":1068:1069  i */\n      dup2\n        /* \"admin.sol\":1068:1085  i < admins.length */\n      lt\n        /* \"admin.sol\":1048:1216  for (uint256 i = 0; i < admins.length; i++) {... */\n      iszero\n      tag_66\n      jumpi\n        /* \"admin.sol\":1124:1130  admins */\n      0x00\n        /* \"admin.sol\":1131:1132  i */\n      dup2\n        /* \"admin.sol\":1124:1133  admins[i] */\n      dup2\n      sload\n      dup2\n      lt\n      tag_68\n      jumpi\n      tag_69\n      tag_37\n      jump\t// in\n    tag_69:\n    tag_68:\n      swap1\n      0x00\n      mstore\n      keccak256(0x00, 0x20)\n      add\n      0x00\n      swap1\n      sload\n      swap1\n      0x0100\n      exp\n      swap1\n      div\n      0xffffffffffffffffffffffffffffffffffffffff\n      and\n        /* \"admin.sol\":1110:1133  msg.sender == admins[i] */\n      0xffffffffffffffffffffffffffffffffffffffff\n      and\n        /* \"admin.sol\":1110:1120  msg.sender */\n      caller\n        /* \"admin.sol\":1110:1133  msg.sender == admins[i] */\n      0xffffffffffffffffffffffffffffffffffffffff\n      and\n      sub\n        /* \"admin.sol\":1106:1206  if (msg.sender == admins[i]) {... */\n      tag_71\n      jumpi\n        /* \"admin.sol\":1164:1168  true */\n      0x01\n        /* \"admin.sol\":1153:1168  is_owner = true */\n      swap2\n      pop\n        /* \"admin.sol\":1186:1191  break */\n      jump(tag_66)\n        /* \"admin.sol\":1106:1206  if (msg.sender == admins[i]) {... */\n    tag_71:\n        /* \"admin.sol\":1087:1090  i++ */\n      dup1\n      dup1\n      0x01\n      add\n      swap2\n      pop\n      pop\n        /* \"admin.sol\":1048:1216  for (uint256 i = 0; i < admins.length; i++) {... */\n      jump(tag_65)\n    tag_66:\n      pop\n        /* \"admin.sol\":1233:1241  is_owner */\n      dup1\n        /* \"admin.sol\":1225:1280  require(is_owner, \"Only admins can call this function\") */\n      tag_72\n      jumpi\n      mload(0x40)\n      0x08c379a000000000000000000000000000000000000000000000000000000000\n      dup2\n      mstore\n      0x04\n      add\n      tag_73\n      swap1\n      tag_42\n      jump\t// in\n    tag_73:\n      mload(0x40)\n      dup1\n      swap2\n      sub\n      swap1\n      revert\n    tag_72:\n        /* \"admin.sol\":3290:3291  1 */\n      0x01\n        /* \"admin.sol\":3274:3280  admins */\n      0x00\n        /* \"admin.sol\":3274:3287  admins.length */\n      dup1\n      sload\n      swap1\n      pop\n        /* \"admin.sol\":3274:3291  admins.length > 1 */\n      gt\n        /* \"admin.sol\":3266:3324  require(admins.length > 1, \"Cannot remove the last admin\") */\n      tag_75\n      jumpi\n      mload(0x40)\n      0x08c379a000000000000000000000000000000000000000000000000000000000\n      dup2\n      mstore\n      0x04\n      add\n      tag_76\n      swap1\n      tag_77\n      jump\t// in\n    tag_76:\n      mload(0x40)\n      dup1\n      swap2\n      sub\n      swap1\n      revert\n    tag_75:\n        /* \"admin.sol\":3339:3348  uint256 i */\n      0x00\n        /* \"admin.sol\":3334:3550  for (uint256 i = 0; i < _indexes.length; i++) {... */\n    tag_78:\n        /* \"admin.sol\":3358:3366  _indexes */\n      dup3\n        /* \"admin.sol\":3358:3373  _indexes.length */\n      mload\n        /* \"admin.sol\":3354:3355  i */\n      dup2\n        /* \"admin.sol\":3354:3373  i < _indexes.length */\n      lt\n        /* \"admin.sol\":3334:3550  for (uint256 i = 0; i < _indexes.length; i++) {... */\n      iszero\n      tag_79\n      jumpi\n        /* \"admin.sol\":3416:3422  admins */\n      0x00\n        /* \"admin.sol\":3416:3429  admins.length */\n      dup1\n      sload\n      swap1\n      pop\n        /* \"admin.sol\":3402:3410  _indexes */\n      dup4\n        /* \"admin.sol\":3411:3412  i */\n      dup3\n        /* \"admin.sol\":3402:3413  _indexes[i] */\n      dup2\n      mload\n      dup2\n      lt\n      tag_81\n      jumpi\n      tag_82\n      tag_37\n      jump\t// in\n    tag_82:\n    tag_81:\n      0x20\n      mul\n      0x20\n      add\n      add\n      mload\n        /* \"admin.sol\":3402:3429  _indexes[i] < admins.length */\n      lt\n        /* \"admin.sol\":3394:3452  require(_indexes[i] < admins.length, \"Index out of range\") */\n      tag_83\n      jumpi\n      mload(0x40)\n      0x08c379a000000000000000000000000000000000000000000000000000000000\n      dup2\n      mstore\n      0x04\n      add\n      tag_84\n      swap1\n      tag_85\n      jump\t// in\n    tag_84:\n      mload(0x40)\n      dup1\n      swap2\n      sub\n      swap1\n      revert\n    tag_83:\n        /* \"admin.sol\":3488:3494  admins */\n      0x00\n        /* \"admin.sol\":3511:3512  1 */\n      0x01\n        /* \"admin.sol\":3495:3501  admins */\n      0x00\n        /* \"admin.sol\":3495:3508  admins.length */\n      dup1\n      sload\n      swap1\n      pop\n        /* \"admin.sol\":3495:3512  admins.length - 1 */\n      tag_86\n      swap2\n      swap1\n      tag_87\n      jump\t// in\n    tag_86:\n        /* \"admin.sol\":3488:3513  admins[admins.length - 1] */\n      dup2\n      sload\n      dup2\n      lt\n      tag_88\n      jumpi\n      tag_89\n      tag_37\n      jump\t// in\n    tag_89:\n    tag_88:\n      swap1\n      0x00\n      mstore\n      keccak256(0x00, 0x20)\n      add\n      0x00\n      swap1\n      sload\n      swap1\n      0x0100\n      exp\n      swap1\n      div\n      0xffffffffffffffffffffffffffffffffffffffff\n      and\n        /* \"admin.sol\":3466:3472  admins */\n      0x00\n        /* \"admin.sol\":3473:3481  _indexes */\n      dup5\n        /* \"admin.sol\":3482:3483  i */\n      dup4\n        /* \"admin.sol\":3473:3484  _indexes[i] */\n      dup2\n      mload\n      dup2\n      lt\n      tag_91\n      jumpi\n      tag_92\n      tag_37\n      jump\t// in\n    tag_92:\n    tag_91:\n      0x20\n      mul\n      0x20\n      add\n      add\n      mload\n        /* \"admin.sol\":3466:3485  admins[_indexes[i]] */\n      dup2\n      sload\n      dup2\n      lt\n      tag_93\n      jumpi\n      tag_94\n      tag_37\n      jump\t// in\n    tag_94:\n    tag_93:\n      swap1\n      0x00\n      mstore\n      keccak256(0x00, 0x20)\n      add\n      0x00\n        /* \"admin.sol\":3466:3513  admins[_indexes[i]] = admins[admins.length - 1] */\n      0x0100\n      exp\n      dup2\n      sload\n      dup2\n      0xffffffffffffffffffffffffffffffffffffffff\n      mul\n      not\n      and\n      swap1\n      dup4\n      0xffffffffffffffffffffffffffffffffffffffff\n      and\n      mul\n      or\n      swap1\n      sstore\n      pop\n        /* \"admin.sol\":3527:3533  admins */\n      0x00\n        /* \"admin.sol\":3527:3539  admins.pop() */\n      dup1\n      sload\n      dup1\n      tag_96\n      jumpi\n      tag_97\n      tag_98\n      jump\t// in\n    tag_97:\n    tag_96:\n      0x01\n      swap1\n      sub\n      dup2\n      dup2\n      swap1\n      0x00\n      mstore\n      keccak256(0x00, 0x20)\n      add\n      exp(0x0100, 0x00)\n      dup2\n      sload\n      swap1\n      0xffffffffffffffffffffffffffffffffffffffff\n      mul\n      not\n      and\n      swap1\n      sstore\n      swap1\n      sstore\n        /* \"admin.sol\":3375:3378  i++ */\n      dup1\n      dup1\n      0x01\n      add\n      swap2\n      pop\n      pop\n        /* \"admin.sol\":3334:3550  for (uint256 i = 0; i < _indexes.length; i++) {... */\n      jump(tag_78)\n    tag_79:\n      pop\n        /* \"admin.sol\":3564:3601  admin_event(admins, \"Admins removed\") */\n      0x7d2b11152d2c5ceedf90177a6964c7010cc73960d2b00b63779b8718322e0823\n        /* \"admin.sol\":3576:3582  admins */\n      0x00\n        /* \"admin.sol\":3564:3601  admin_event(admins, \"Admins removed\") */\n      mload(0x40)\n      tag_100\n      swap2\n      swap1\n      tag_101\n      jump\t// in\n    tag_100:\n      mload(0x40)\n      dup1\n      swap2\n      sub\n      swap1\n      log1\n        /* \"admin.sol\":1007:1298  {... */\n      pop\n        /* \"admin.sol\":3178:3608  function remove_admin_by_index(uint256[] memory _indexes) external only_admin {... */\n      pop\n      jump\t// out\n        /* \"admin.sol\":1358:1449  function get_admins() public view returns (address[] memory) {... */\n    tag_23:\n        /* \"admin.sol\":1401:1417  address[] memory */\n      0x60\n        /* \"admin.sol\":1436:1442  admins */\n      0x00\n        /* \"admin.sol\":1429:1442  return admins */\n      dup1\n      sload\n      dup1\n      0x20\n      mul\n      0x20\n      add\n      mload(0x40)\n      swap1\n      dup2\n      add\n      0x40\n      mstore\n      dup1\n      swap3\n      swap2\n      swap1\n      dup2\n      dup2\n      mstore\n      0x20\n      add\n      dup3\n      dup1\n      sload\n      dup1\n      iszero\n      tag_103\n      jumpi\n      0x20\n      mul\n      dup3\n      add\n      swap2\n      swap1\n      0x00\n      mstore\n      keccak256(0x00, 0x20)\n      swap1\n    tag_104:\n      dup2\n      0x00\n      swap1\n      sload\n      swap1\n      0x0100\n      exp\n      swap1\n      div\n      0xffffffffffffffffffffffffffffffffffffffff\n      and\n      0xffffffffffffffffffffffffffffffffffffffff\n      and\n      dup2\n      mstore\n      0x20\n      add\n      swap1\n      0x01\n      add\n      swap1\n      dup1\n      dup4\n      gt\n      tag_104\n      jumpi\n    tag_103:\n      pop\n      pop\n      pop\n      pop\n      pop\n      swap1\n      pop\n        /* \"admin.sol\":1358:1449  function get_admins() public view returns (address[] memory) {... */\n      swap1\n      jump\t// out\n        /* \"admin.sol\":2419:2936  function remove_admin(address[] memory _admins) external only_admin {... */\n    tag_28:\n        /* \"admin.sol\":1017:1030  bool is_owner */\n      0x00\n        /* \"admin.sol\":1053:1062  uint256 i */\n      dup1\n        /* \"admin.sol\":1048:1216  for (uint256 i = 0; i < admins.length; i++) {... */\n    tag_106:\n        /* \"admin.sol\":1072:1078  admins */\n      0x00\n        /* \"admin.sol\":1072:1085  admins.length */\n      dup1\n      sload\n      swap1\n      pop\n        /* \"admin.sol\":1068:1069  i */\n      dup2\n        /* \"admin.sol\":1068:1085  i < admins.length */\n      lt\n        /* \"admin.sol\":1048:1216  for (uint256 i = 0; i < admins.length; i++) {... */\n      iszero\n      tag_107\n      jumpi\n        /* \"admin.sol\":1124:1130  admins */\n      0x00\n        /* \"admin.sol\":1131:1132  i */\n      dup2\n        /* \"admin.sol\":1124:1133  admins[i] */\n      dup2\n      sload\n      dup2\n      lt\n      tag_109\n      jumpi\n      tag_110\n      tag_37\n      jump\t// in\n    tag_110:\n    tag_109:\n      swap1\n      0x00\n      mstore\n      keccak256(0x00, 0x20)\n      add\n      0x00\n      swap1\n      sload\n      swap1\n      0x0100\n      exp\n      swap1\n      div\n      0xffffffffffffffffffffffffffffffffffffffff\n      and\n        /* \"admin.sol\":1110:1133  msg.sender == admins[i] */\n      0xffffffffffffffffffffffffffffffffffffffff\n      and\n        /* \"admin.sol\":1110:1120  msg.sender */\n      caller\n        /* \"admin.sol\":1110:1133  msg.sender == admins[i] */\n      0xffffffffffffffffffffffffffffffffffffffff\n      and\n      sub\n        /* \"admin.sol\":1106:1206  if (msg.sender == admins[i]) {... */\n      tag_112\n      jumpi\n        /* \"admin.sol\":1164:1168  true */\n      0x01\n        /* \"admin.sol\":1153:1168  is_owner = true */\n      swap2\n      pop\n        /* \"admin.sol\":1186:1191  break */\n      jump(tag_107)\n        /* \"admin.sol\":1106:1206  if (msg.sender == admins[i]) {... */\n    tag_112:\n        /* \"admin.sol\":1087:1090  i++ */\n      dup1\n      dup1\n      0x01\n      add\n      swap2\n      pop\n      pop\n        /* \"admin.sol\":1048:1216  for (uint256 i = 0; i < admins.length; i++) {... */\n      jump(tag_106)\n    tag_107:\n      pop\n        /* \"admin.sol\":1233:1241  is_owner */\n      dup1\n        /* \"admin.sol\":1225:1280  require(is_owner, \"Only admins can call this function\") */\n      tag_113\n      jumpi\n      mload(0x40)\n      0x08c379a000000000000000000000000000000000000000000000000000000000\n      dup2\n      mstore\n      0x04\n      add\n      tag_114\n      swap1\n      tag_42\n      jump\t// in\n    tag_114:\n      mload(0x40)\n      dup1\n      swap2\n      sub\n      swap1\n      revert\n    tag_113:\n        /* \"admin.sol\":2521:2522  1 */\n      0x01\n        /* \"admin.sol\":2505:2511  admins */\n      0x00\n        /* \"admin.sol\":2505:2518  admins.length */\n      dup1\n      sload\n      swap1\n      pop\n        /* \"admin.sol\":2505:2522  admins.length > 1 */\n      gt\n        /* \"admin.sol\":2497:2555  require(admins.length > 1, \"Cannot remove the last admin\") */\n      tag_116\n      jumpi\n      mload(0x40)\n      0x08c379a000000000000000000000000000000000000000000000000000000000\n      dup2\n      mstore\n      0x04\n      add\n      tag_117\n      swap1\n      tag_77\n      jump\t// in\n    tag_117:\n      mload(0x40)\n      dup1\n      swap2\n      sub\n      swap1\n      revert\n    tag_116:\n        /* \"admin.sol\":2570:2579  uint256 i */\n      0x00\n        /* \"admin.sol\":2565:2878  for (uint256 i = 0; i < _admins.length; i++) {... */\n    tag_118:\n        /* \"admin.sol\":2589:2596  _admins */\n      dup3\n        /* \"admin.sol\":2589:2603  _admins.length */\n      mload\n        /* \"admin.sol\":2585:2586  i */\n      dup2\n        /* \"admin.sol\":2585:2603  i < _admins.length */\n      lt\n        /* \"admin.sol\":2565:2878  for (uint256 i = 0; i < _admins.length; i++) {... */\n      iszero\n      tag_119\n      jumpi\n        /* \"admin.sol\":2629:2638  uint256 j */\n      0x00\n        /* \"admin.sol\":2624:2868  for (uint256 j = 0; j < admins.length; j++) {... */\n    tag_121:\n        /* \"admin.sol\":2648:2654  admins */\n      0x00\n        /* \"admin.sol\":2648:2661  admins.length */\n      dup1\n      sload\n      swap1\n      pop\n        /* \"admin.sol\":2644:2645  j */\n      dup2\n        /* \"admin.sol\":2644:2661  j < admins.length */\n      lt\n        /* \"admin.sol\":2624:2868  for (uint256 j = 0; j < admins.length; j++) {... */\n      iszero\n      tag_122\n      jumpi\n        /* \"admin.sol\":2704:2710  admins */\n      0x00\n        /* \"admin.sol\":2711:2712  j */\n      dup2\n        /* \"admin.sol\":2704:2713  admins[j] */\n      dup2\n      sload\n      dup2\n      lt\n      tag_124\n      jumpi\n      tag_125\n      tag_37\n      jump\t// in\n    tag_125:\n    tag_124:\n      swap1\n      0x00\n      mstore\n      keccak256(0x00, 0x20)\n      add\n      0x00\n      swap1\n      sload\n      swap1\n      0x0100\n      exp\n      swap1\n      div\n      0xffffffffffffffffffffffffffffffffffffffff\n      and\n        /* \"admin.sol\":2690:2713  _admins[i] == admins[j] */\n      0xffffffffffffffffffffffffffffffffffffffff\n      and\n        /* \"admin.sol\":2690:2697  _admins */\n      dup5\n        /* \"admin.sol\":2698:2699  i */\n      dup4\n        /* \"admin.sol\":2690:2700  _admins[i] */\n      dup2\n      mload\n      dup2\n      lt\n      tag_127\n      jumpi\n      tag_128\n      tag_37\n      jump\t// in\n    tag_128:\n    tag_127:\n      0x20\n      mul\n      0x20\n      add\n      add\n      mload\n        /* \"admin.sol\":2690:2713  _admins[i] == admins[j] */\n      0xffffffffffffffffffffffffffffffffffffffff\n      and\n      sub\n        /* \"admin.sol\":2686:2854  if (_admins[i] == admins[j]) {... */\n      tag_129\n      jumpi\n        /* \"admin.sol\":2749:2755  admins */\n      0x00\n        /* \"admin.sol\":2772:2773  1 */\n      0x01\n        /* \"admin.sol\":2756:2762  admins */\n      0x00\n        /* \"admin.sol\":2756:2769  admins.length */\n      dup1\n      sload\n      swap1\n      pop\n        /* \"admin.sol\":2756:2773  admins.length - 1 */\n      tag_130\n      swap2\n      swap1\n      tag_87\n      jump\t// in\n    tag_130:\n        /* \"admin.sol\":2749:2774  admins[admins.length - 1] */\n      dup2\n      sload\n      dup2\n      lt\n      tag_131\n      jumpi\n      tag_132\n      tag_37\n      jump\t// in\n    tag_132:\n    tag_131:\n      swap1\n      0x00\n      mstore\n      keccak256(0x00, 0x20)\n      add\n      0x00\n      swap1\n      sload\n      swap1\n      0x0100\n      exp\n      swap1\n      div\n      0xffffffffffffffffffffffffffffffffffffffff\n      and\n        /* \"admin.sol\":2737:2743  admins */\n      0x00\n        /* \"admin.sol\":2744:2745  j */\n      dup3\n        /* \"admin.sol\":2737:2746  admins[j] */\n      dup2\n      sload\n      dup2\n      lt\n      tag_134\n      jumpi\n      tag_135\n      tag_37\n      jump\t// in\n    tag_135:\n    tag_134:\n      swap1\n      0x00\n      mstore\n      keccak256(0x00, 0x20)\n      add\n      0x00\n        /* \"admin.sol\":2737:2774  admins[j] = admins[admins.length - 1] */\n      0x0100\n      exp\n      dup2\n      sload\n      dup2\n      0xffffffffffffffffffffffffffffffffffffffff\n      mul\n      not\n      and\n      swap1\n      dup4\n      0xffffffffffffffffffffffffffffffffffffffff\n      and\n      mul\n      or\n      swap1\n      sstore\n      pop\n        /* \"admin.sol\":2796:2802  admins */\n      0x00\n        /* \"admin.sol\":2796:2808  admins.pop() */\n      dup1\n      sload\n      dup1\n      tag_137\n      jumpi\n      tag_138\n      tag_98\n      jump\t// in\n    tag_138:\n    tag_137:\n      0x01\n      swap1\n      sub\n      dup2\n      dup2\n      swap1\n      0x00\n      mstore\n      keccak256(0x00, 0x20)\n      add\n      exp(0x0100, 0x00)\n      dup2\n      sload\n      swap1\n      0xffffffffffffffffffffffffffffffffffffffff\n      mul\n      not\n      and\n      swap1\n      sstore\n      swap1\n      sstore\n        /* \"admin.sol\":2830:2835  break */\n      jump(tag_122)\n        /* \"admin.sol\":2686:2854  if (_admins[i] == admins[j]) {... */\n    tag_129:\n        /* \"admin.sol\":2663:2666  j++ */\n      dup1\n      dup1\n      0x01\n      add\n      swap2\n      pop\n      pop\n        /* \"admin.sol\":2624:2868  for (uint256 j = 0; j < admins.length; j++) {... */\n      jump(tag_121)\n    tag_122:\n      pop\n        /* \"admin.sol\":2605:2608  i++ */\n      dup1\n      dup1\n      0x01\n      add\n      swap2\n      pop\n      pop\n        /* \"admin.sol\":2565:2878  for (uint256 i = 0; i < _admins.length; i++) {... */\n      jump(tag_118)\n    tag_119:\n      pop\n        /* \"admin.sol\":2892:2929  admin_event(admins, \"Admins removed\") */\n      0x7d2b11152d2c5ceedf90177a6964c7010cc73960d2b00b63779b8718322e0823\n        /* \"admin.sol\":2904:2910  admins */\n      0x00\n        /* \"admin.sol\":2892:2929  admin_event(admins, \"Admins removed\") */\n      mload(0x40)\n      tag_140\n      swap2\n      swap1\n      tag_101\n      jump\t// in\n    tag_140:\n      mload(0x40)\n      dup1\n      swap2\n      sub\n      swap1\n      log1\n        /* \"admin.sol\":1007:1298  {... */\n      pop\n        /* \"admin.sol\":2419:2936  function remove_admin(address[] memory _admins) external only_admin {... */\n      pop\n      jump\t// out\n        /* \"#utility.yul\":7:82   */\n    tag_141:\n        /* \"#utility.yul\":40:46   */\n      0x00\n        /* \"#utility.yul\":73:75   */\n      0x40\n        /* \"#utility.yul\":67:76   */\n      mload\n        /* \"#utility.yul\":57:76   */\n      swap1\n      pop\n        /* \"#utility.yul\":7:82   */\n      swap1\n      jump\t// out\n        /* \"#utility.yul\":88:205   */\n    tag_142:\n        /* \"#utility.yul\":197:198   */\n      0x00\n        /* \"#utility.yul\":194:195   */\n      dup1\n        /* \"#utility.yul\":187:199   */\n      revert\n        /* \"#utility.yul\":211:328   */\n    tag_143:\n        /* \"#utility.yul\":320:321   */\n      0x00\n        /* \"#utility.yul\":317:318   */\n      dup1\n        /* \"#utility.yul\":310:322   */\n      revert\n        /* \"#utility.yul\":334:411   */\n    tag_144:\n        /* \"#utility.yul\":371:378   */\n      0x00\n        /* \"#utility.yul\":400:405   */\n      dup2\n        /* \"#utility.yul\":389:405   */\n      swap1\n      pop\n        /* \"#utility.yul\":334:411   */\n      swap2\n      swap1\n      pop\n      jump\t// out\n        /* \"#utility.yul\":417:539   */\n    tag_145:\n        /* \"#utility.yul\":490:514   */\n      tag_199\n        /* \"#utility.yul\":508:513   */\n      dup2\n        /* \"#utility.yul\":490:514   */\n      tag_144\n      jump\t// in\n    tag_199:\n        /* \"#utility.yul\":483:488   */\n      dup2\n        /* \"#utility.yul\":480:515   */\n      eq\n        /* \"#utility.yul\":470:533   */\n      tag_200\n      jumpi\n        /* \"#utility.yul\":529:530   */\n      0x00\n        /* \"#utility.yul\":526:527   */\n      dup1\n        /* \"#utility.yul\":519:531   */\n      revert\n        /* \"#utility.yul\":470:533   */\n    tag_200:\n        /* \"#utility.yul\":417:539   */\n      pop\n      jump\t// out\n        /* \"#utility.yul\":545:684   */\n    tag_146:\n        /* \"#utility.yul\":591:596   */\n      0x00\n        /* \"#utility.yul\":629:635   */\n      dup2\n        /* \"#utility.yul\":616:636   */\n      calldataload\n        /* \"#utility.yul\":607:636   */\n      swap1\n      pop\n        /* \"#utility.yul\":645:678   */\n      tag_202\n        /* \"#utility.yul\":672:677   */\n      dup2\n        /* \"#utility.yul\":645:678   */\n      tag_145\n      jump\t// in\n    tag_202:\n        /* \"#utility.yul\":545:684   */\n      swap3\n      swap2\n      pop\n      pop\n      jump\t// out\n        /* \"#utility.yul\":690:1019   */\n    tag_10:\n        /* \"#utility.yul\":749:755   */\n      0x00\n        /* \"#utility.yul\":798:800   */\n      0x20\n        /* \"#utility.yul\":786:795   */\n      dup3\n        /* \"#utility.yul\":777:784   */\n      dup5\n        /* \"#utility.yul\":773:796   */\n      sub\n        /* \"#utility.yul\":769:801   */\n      slt\n        /* \"#utility.yul\":766:885   */\n      iszero\n      tag_204\n      jumpi\n        /* \"#utility.yul\":804:883   */\n      tag_205\n      tag_142\n      jump\t// in\n    tag_205:\n        /* \"#utility.yul\":766:885   */\n    tag_204:\n        /* \"#utility.yul\":924:925   */\n      0x00\n        /* \"#utility.yul\":949:1002   */\n      tag_206\n        /* \"#utility.yul\":994:1001   */\n      dup5\n        /* \"#utility.yul\":985:991   */\n      dup3\n        /* \"#utility.yul\":974:983   */\n      dup6\n        /* \"#utility.yul\":970:992   */\n      add\n        /* \"#utility.yul\":949:1002   */\n      tag_146\n      jump\t// in\n    tag_206:\n        /* \"#utility.yul\":939:1002   */\n      swap2\n      pop\n        /* \"#utility.yul\":895:1012   */\n      pop\n        /* \"#utility.yul\":690:1019   */\n      swap3\n      swap2\n      pop\n      pop\n      jump\t// out\n        /* \"#utility.yul\":1025:1151   */\n    tag_147:\n        /* \"#utility.yul\":1062:1069   */\n      0x00\n        /* \"#utility.yul\":1102:1144   */\n      0xffffffffffffffffffffffffffffffffffffffff\n        /* \"#utility.yul\":1095:1100   */\n      dup3\n        /* \"#utility.yul\":1091:1145   */\n      and\n        /* \"#utility.yul\":1080:1145   */\n      swap1\n      pop\n        /* \"#utility.yul\":1025:1151   */\n      swap2\n      swap1\n      pop\n      jump\t// out\n        /* \"#utility.yul\":1157:1253   */\n    tag_148:\n        /* \"#utility.yul\":1194:1201   */\n      0x00\n        /* \"#utility.yul\":1223:1247   */\n      tag_209\n        /* \"#utility.yul\":1241:1246   */\n      dup3\n        /* \"#utility.yul\":1223:1247   */\n      tag_147\n      jump\t// in\n    tag_209:\n        /* \"#utility.yul\":1212:1247   */\n      swap1\n      pop\n        /* \"#utility.yul\":1157:1253   */\n      swap2\n      swap1\n      pop\n      jump\t// out\n        /* \"#utility.yul\":1259:1377   */\n    tag_149:\n        /* \"#utility.yul\":1346:1370   */\n      tag_211\n        /* \"#utility.yul\":1364:1369   */\n      dup2\n        /* \"#utility.yul\":1346:1370   */\n      tag_148\n      jump\t// in\n    tag_211:\n        /* \"#utility.yul\":1341:1344   */\n      dup3\n        /* \"#utility.yul\":1334:1371   */\n      mstore\n        /* \"#utility.yul\":1259:1377   */\n      pop\n      pop\n      jump\t// out\n        /* \"#utility.yul\":1383:1605   */\n    tag_13:\n        /* \"#utility.yul\":1476:1480   */\n      0x00\n        /* \"#utility.yul\":1514:1516   */\n      0x20\n        /* \"#utility.yul\":1503:1512   */\n      dup3\n        /* \"#utility.yul\":1499:1517   */\n      add\n        /* \"#utility.yul\":1491:1517   */\n      swap1\n      pop\n        /* \"#utility.yul\":1527:1598   */\n      tag_213\n        /* \"#utility.yul\":1595:1596   */\n      0x00\n        /* \"#utility.yul\":1584:1593   */\n      dup4\n        /* \"#utility.yul\":1580:1597   */\n      add\n        /* \"#utility.yul\":1571:1577   */\n      dup5\n        /* \"#utility.yul\":1527:1598   */\n      tag_149\n      jump\t// in\n    tag_213:\n        /* \"#utility.yul\":1383:1605   */\n      swap3\n      swap2\n      pop\n      pop\n      jump\t// out\n        /* \"#utility.yul\":1611:1728   */\n    tag_150:\n        /* \"#utility.yul\":1720:1721   */\n      0x00\n        /* \"#utility.yul\":1717:1718   */\n      dup1\n        /* \"#utility.yul\":1710:1722   */\n      revert\n        /* \"#utility.yul\":1734:1836   */\n    tag_151:\n        /* \"#utility.yul\":1775:1781   */\n      0x00\n        /* \"#utility.yul\":1826:1828   */\n      0x1f\n        /* \"#utility.yul\":1822:1829   */\n      not\n        /* \"#utility.yul\":1817:1819   */\n      0x1f\n        /* \"#utility.yul\":1810:1815   */\n      dup4\n        /* \"#utility.yul\":1806:1820   */\n      add\n        /* \"#utility.yul\":1802:1830   */\n      and\n        /* \"#utility.yul\":1792:1830   */\n      swap1\n      pop\n        /* \"#utility.yul\":1734:1836   */\n      swap2\n      swap1\n      pop\n      jump\t// out\n        /* \"#utility.yul\":1842:2022   */\n    tag_152:\n        /* \"#utility.yul\":1890:1967   */\n      0x4e487b7100000000000000000000000000000000000000000000000000000000\n        /* \"#utility.yul\":1887:1888   */\n      0x00\n        /* \"#utility.yul\":1880:1968   */\n      mstore\n        /* \"#utility.yul\":1987:1991   */\n      0x41\n        /* \"#utility.yul\":1984:1985   */\n      0x04\n        /* \"#utility.yul\":1977:1992   */\n      mstore\n        /* \"#utility.yul\":2011:2015   */\n      0x24\n        /* \"#utility.yul\":2008:2009   */\n      0x00\n        /* \"#utility.yul\":2001:2016   */\n      revert\n        /* \"#utility.yul\":2028:2309   */\n    tag_153:\n        /* \"#utility.yul\":2111:2138   */\n      tag_218\n        /* \"#utility.yul\":2133:2137   */\n      dup3\n        /* \"#utility.yul\":2111:2138   */\n      tag_151\n      jump\t// in\n    tag_218:\n        /* \"#utility.yul\":2103:2109   */\n      dup2\n        /* \"#utility.yul\":2099:2139   */\n      add\n        /* \"#utility.yul\":2241:2247   */\n      dup2\n        /* \"#utility.yul\":2229:2239   */\n      dup2\n        /* \"#utility.yul\":2226:2248   */\n      lt\n        /* \"#utility.yul\":2205:2223   */\n      0xffffffffffffffff\n        /* \"#utility.yul\":2193:2203   */\n      dup3\n        /* \"#utility.yul\":2190:2224   */\n      gt\n        /* \"#utility.yul\":2187:2249   */\n      or\n        /* \"#utility.yul\":2184:2272   */\n      iszero\n      tag_219\n      jumpi\n        /* \"#utility.yul\":2252:2270   */\n      tag_220\n      tag_152\n      jump\t// in\n    tag_220:\n        /* \"#utility.yul\":2184:2272   */\n    tag_219:\n        /* \"#utility.yul\":2292:2302   */\n      dup1\n        /* \"#utility.yul\":2288:2290   */\n      0x40\n        /* \"#utility.yul\":2281:2303   */\n      mstore\n        /* \"#utility.yul\":2071:2309   */\n      pop\n        /* \"#utility.yul\":2028:2309   */\n      pop\n      pop\n      jump\t// out\n        /* \"#utility.yul\":2315:2444   */\n    tag_154:\n        /* \"#utility.yul\":2349:2355   */\n      0x00\n        /* \"#utility.yul\":2376:2396   */\n      tag_222\n      tag_141\n      jump\t// in\n    tag_222:\n        /* \"#utility.yul\":2366:2396   */\n      swap1\n      pop\n        /* \"#utility.yul\":2405:2438   */\n      tag_223\n        /* \"#utility.yul\":2433:2437   */\n      dup3\n        /* \"#utility.yul\":2425:2431   */\n      dup3\n        /* \"#utility.yul\":2405:2438   */\n      tag_153\n      jump\t// in\n    tag_223:\n        /* \"#utility.yul\":2315:2444   */\n      swap2\n      swap1\n      pop\n      jump\t// out\n        /* \"#utility.yul\":2450:2761   */\n    tag_155:\n        /* \"#utility.yul\":2527:2531   */\n      0x00\n        /* \"#utility.yul\":2617:2635   */\n      0xffffffffffffffff\n        /* \"#utility.yul\":2609:2615   */\n      dup3\n        /* \"#utility.yul\":2606:2636   */\n      gt\n        /* \"#utility.yul\":2603:2659   */\n      iszero\n      tag_225\n      jumpi\n        /* \"#utility.yul\":2639:2657   */\n      tag_226\n      tag_152\n      jump\t// in\n    tag_226:\n        /* \"#utility.yul\":2603:2659   */\n    tag_225:\n        /* \"#utility.yul\":2689:2693   */\n      0x20\n        /* \"#utility.yul\":2681:2687   */\n      dup3\n        /* \"#utility.yul\":2677:2694   */\n      mul\n        /* \"#utility.yul\":2669:2694   */\n      swap1\n      pop\n        /* \"#utility.yul\":2749:2753   */\n      0x20\n        /* \"#utility.yul\":2743:2747   */\n      dup2\n        /* \"#utility.yul\":2739:2754   */\n      add\n        /* \"#utility.yul\":2731:2754   */\n      swap1\n      pop\n        /* \"#utility.yul\":2450:2761   */\n      swap2\n      swap1\n      pop\n      jump\t// out\n        /* \"#utility.yul\":2767:2884   */\n    tag_156:\n        /* \"#utility.yul\":2876:2877   */\n      0x00\n        /* \"#utility.yul\":2873:2874   */\n      dup1\n        /* \"#utility.yul\":2866:2878   */\n      revert\n        /* \"#utility.yul\":2890:3012   */\n    tag_157:\n        /* \"#utility.yul\":2963:2987   */\n      tag_229\n        /* \"#utility.yul\":2981:2986   */\n      dup2\n        /* \"#utility.yul\":2963:2987   */\n      tag_148\n      jump\t// in\n    tag_229:\n        /* \"#utility.yul\":2956:2961   */\n      dup2\n        /* \"#utility.yul\":2953:2988   */\n      eq\n        /* \"#utility.yul\":2943:3006   */\n      tag_230\n      jumpi\n        /* \"#utility.yul\":3002:3003   */\n      0x00\n        /* \"#utility.yul\":2999:3000   */\n      dup1\n        /* \"#utility.yul\":2992:3004   */\n      revert\n        /* \"#utility.yul\":2943:3006   */\n    tag_230:\n        /* \"#utility.yul\":2890:3012   */\n      pop\n      jump\t// out\n        /* \"#utility.yul\":3018:3157   */\n    tag_158:\n        /* \"#utility.yul\":3064:3069   */\n      0x00\n        /* \"#utility.yul\":3102:3108   */\n      dup2\n        /* \"#utility.yul\":3089:3109   */\n      calldataload\n        /* \"#utility.yul\":3080:3109   */\n      swap1\n      pop\n        /* \"#utility.yul\":3118:3151   */\n      tag_232\n        /* \"#utility.yul\":3145:3150   */\n      dup2\n        /* \"#utility.yul\":3118:3151   */\n      tag_157\n      jump\t// in\n    tag_232:\n        /* \"#utility.yul\":3018:3157   */\n      swap3\n      swap2\n      pop\n      pop\n      jump\t// out\n        /* \"#utility.yul\":3180:3890   */\n    tag_159:\n        /* \"#utility.yul\":3276:3281   */\n      0x00\n        /* \"#utility.yul\":3301:3382   */\n      tag_234\n        /* \"#utility.yul\":3317:3381   */\n      tag_235\n        /* \"#utility.yul\":3374:3380   */\n      dup5\n        /* \"#utility.yul\":3317:3381   */\n      tag_155\n      jump\t// in\n    tag_235:\n        /* \"#utility.yul\":3301:3382   */\n      tag_154\n      jump\t// in\n    tag_234:\n        /* \"#utility.yul\":3292:3382   */\n      swap1\n      pop\n        /* \"#utility.yul\":3402:3407   */\n      dup1\n        /* \"#utility.yul\":3431:3437   */\n      dup4\n        /* \"#utility.yul\":3424:3429   */\n      dup3\n        /* \"#utility.yul\":3417:3438   */\n      mstore\n        /* \"#utility.yul\":3465:3469   */\n      0x20\n        /* \"#utility.yul\":3458:3463   */\n      dup3\n        /* \"#utility.yul\":3454:3470   */\n      add\n        /* \"#utility.yul\":3447:3470   */\n      swap1\n      pop\n        /* \"#utility.yul\":3518:3522   */\n      0x20\n        /* \"#utility.yul\":3510:3516   */\n      dup5\n        /* \"#utility.yul\":3506:3523   */\n      mul\n        /* \"#utility.yul\":3498:3504   */\n      dup4\n        /* \"#utility.yul\":3494:3524   */\n      add\n        /* \"#utility.yul\":3547:3550   */\n      dup6\n        /* \"#utility.yul\":3539:3545   */\n      dup2\n        /* \"#utility.yul\":3536:3551   */\n      gt\n        /* \"#utility.yul\":3533:3655   */\n      iszero\n      tag_236\n      jumpi\n        /* \"#utility.yul\":3566:3645   */\n      tag_237\n      tag_156\n      jump\t// in\n    tag_237:\n        /* \"#utility.yul\":3533:3655   */\n    tag_236:\n        /* \"#utility.yul\":3681:3687   */\n      dup4\n        /* \"#utility.yul\":3664:3884   */\n    tag_238:\n        /* \"#utility.yul\":3698:3704   */\n      dup2\n        /* \"#utility.yul\":3693:3696   */\n      dup2\n        /* \"#utility.yul\":3690:3705   */\n      lt\n        /* \"#utility.yul\":3664:3884   */\n      iszero\n      tag_240\n      jumpi\n        /* \"#utility.yul\":3773:3776   */\n      dup1\n        /* \"#utility.yul\":3802:3839   */\n      tag_241\n        /* \"#utility.yul\":3835:3838   */\n      dup9\n        /* \"#utility.yul\":3823:3833   */\n      dup3\n        /* \"#utility.yul\":3802:3839   */\n      tag_158\n      jump\t// in\n    tag_241:\n        /* \"#utility.yul\":3797:3800   */\n      dup5\n        /* \"#utility.yul\":3790:3840   */\n      mstore\n        /* \"#utility.yul\":3869:3873   */\n      0x20\n        /* \"#utility.yul\":3864:3867   */\n      dup5\n        /* \"#utility.yul\":3860:3874   */\n      add\n        /* \"#utility.yul\":3853:3874   */\n      swap4\n      pop\n        /* \"#utility.yul\":3740:3884   */\n      pop\n        /* \"#utility.yul\":3724:3728   */\n      0x20\n        /* \"#utility.yul\":3719:3722   */\n      dup2\n        /* \"#utility.yul\":3715:3729   */\n      add\n        /* \"#utility.yul\":3708:3729   */\n      swap1\n      pop\n        /* \"#utility.yul\":3664:3884   */\n      jump(tag_238)\n    tag_240:\n        /* \"#utility.yul\":3668:3689   */\n      pop\n        /* \"#utility.yul\":3282:3890   */\n      pop\n      pop\n        /* \"#utility.yul\":3180:3890   */\n      swap4\n      swap3\n      pop\n      pop\n      pop\n      jump\t// out\n        /* \"#utility.yul\":3913:4283   */\n    tag_160:\n        /* \"#utility.yul\":3984:3989   */\n      0x00\n        /* \"#utility.yul\":4033:4036   */\n      dup3\n        /* \"#utility.yul\":4026:4030   */\n      0x1f\n        /* \"#utility.yul\":4018:4024   */\n      dup4\n        /* \"#utility.yul\":4014:4031   */\n      add\n        /* \"#utility.yul\":4010:4037   */\n      slt\n        /* \"#utility.yul\":4000:4122   */\n      tag_243\n      jumpi\n        /* \"#utility.yul\":4041:4120   */\n      tag_244\n      tag_150\n      jump\t// in\n    tag_244:\n        /* \"#utility.yul\":4000:4122   */\n    tag_243:\n        /* \"#utility.yul\":4158:4164   */\n      dup2\n        /* \"#utility.yul\":4145:4165   */\n      calldataload\n        /* \"#utility.yul\":4183:4277   */\n      tag_245\n        /* \"#utility.yul\":4273:4276   */\n      dup5\n        /* \"#utility.yul\":4265:4271   */\n      dup3\n        /* \"#utility.yul\":4258:4262   */\n      0x20\n        /* \"#utility.yul\":4250:4256   */\n      dup7\n        /* \"#utility.yul\":4246:4263   */\n      add\n        /* \"#utility.yul\":4183:4277   */\n      tag_159\n      jump\t// in\n    tag_245:\n        /* \"#utility.yul\":4174:4277   */\n      swap2\n      pop\n        /* \"#utility.yul\":3990:4283   */\n      pop\n        /* \"#utility.yul\":3913:4283   */\n      swap3\n      swap2\n      pop\n      pop\n      jump\t// out\n        /* \"#utility.yul\":4289:4828   */\n    tag_16:\n        /* \"#utility.yul\":4373:4379   */\n      0x00\n        /* \"#utility.yul\":4422:4424   */\n      0x20\n        /* \"#utility.yul\":4410:4419   */\n      dup3\n        /* \"#utility.yul\":4401:4408   */\n      dup5\n        /* \"#utility.yul\":4397:4420   */\n      sub\n        /* \"#utility.yul\":4393:4425   */\n      slt\n        /* \"#utility.yul\":4390:4509   */\n      iszero\n      tag_247\n      jumpi\n        /* \"#utility.yul\":4428:4507   */\n      tag_248\n      tag_142\n      jump\t// in\n    tag_248:\n        /* \"#utility.yul\":4390:4509   */\n    tag_247:\n        /* \"#utility.yul\":4576:4577   */\n      0x00\n        /* \"#utility.yul\":4565:4574   */\n      dup3\n        /* \"#utility.yul\":4561:4578   */\n      add\n        /* \"#utility.yul\":4548:4579   */\n      calldataload\n        /* \"#utility.yul\":4606:4624   */\n      0xffffffffffffffff\n        /* \"#utility.yul\":4598:4604   */\n      dup2\n        /* \"#utility.yul\":4595:4625   */\n      gt\n        /* \"#utility.yul\":4592:4709   */\n      iszero\n      tag_249\n      jumpi\n        /* \"#utility.yul\":4628:4707   */\n      tag_250\n      tag_143\n      jump\t// in\n    tag_250:\n        /* \"#utility.yul\":4592:4709   */\n    tag_249:\n        /* \"#utility.yul\":4733:4811   */\n      tag_251\n        /* \"#utility.yul\":4803:4810   */\n      dup5\n        /* \"#utility.yul\":4794:4800   */\n      dup3\n        /* \"#utility.yul\":4783:4792   */\n      dup6\n        /* \"#utility.yul\":4779:4801   */\n      add\n        /* \"#utility.yul\":4733:4811   */\n      tag_160\n      jump\t// in\n    tag_251:\n        /* \"#utility.yul\":4723:4811   */\n      swap2\n      pop\n        /* \"#utility.yul\":4519:4821   */\n      pop\n        /* \"#utility.yul\":4289:4828   */\n      swap3\n      swap2\n      pop\n      pop\n      jump\t// out\n        /* \"#utility.yul\":4834:5145   */\n    tag_161:\n        /* \"#utility.yul\":4911:4915   */\n      0x00\n        /* \"#utility.yul\":5001:5019   */\n      0xffffffffffffffff\n        /* \"#utility.yul\":4993:4999   */\n      dup3\n        /* \"#utility.yul\":4990:5020   */\n      gt\n        /* \"#utility.yul\":4987:5043   */\n      iszero\n      tag_253\n      jumpi\n        /* \"#utility.yul\":5023:5041   */\n      tag_254\n      tag_152\n      jump\t// in\n    tag_254:\n        /* \"#utility.yul\":4987:5043   */\n    tag_253:\n        /* \"#utility.yul\":5073:5077   */\n      0x20\n        /* \"#utility.yul\":5065:5071   */\n      dup3\n        /* \"#utility.yul\":5061:5078   */\n      mul\n        /* \"#utility.yul\":5053:5078   */\n      swap1\n      pop\n        /* \"#utility.yul\":5133:5137   */\n      0x20\n        /* \"#utility.yul\":5127:5131   */\n      dup2\n        /* \"#utility.yul\":5123:5138   */\n      add\n        /* \"#utility.yul\":5115:5138   */\n      swap1\n      pop\n        /* \"#utility.yul\":4834:5145   */\n      swap2\n      swap1\n      pop\n      jump\t// out\n        /* \"#utility.yul\":5168:5878   */\n    tag_162:\n        /* \"#utility.yul\":5264:5269   */\n      0x00\n        /* \"#utility.yul\":5289:5370   */\n      tag_256\n        /* \"#utility.yul\":5305:5369   */\n      tag_257\n        /* \"#utility.yul\":5362:5368   */\n      dup5\n        /* \"#utility.yul\":5305:5369   */\n      tag_161\n      jump\t// in\n    tag_257:\n        /* \"#utility.yul\":5289:5370   */\n      tag_154\n      jump\t// in\n    tag_256:\n        /* \"#utility.yul\":5280:5370   */\n      swap1\n      pop\n        /* \"#utility.yul\":5390:5395   */\n      dup1\n        /* \"#utility.yul\":5419:5425   */\n      dup4\n        /* \"#utility.yul\":5412:5417   */\n      dup3\n        /* \"#utility.yul\":5405:5426   */\n      mstore\n        /* \"#utility.yul\":5453:5457   */\n      0x20\n        /* \"#utility.yul\":5446:5451   */\n      dup3\n        /* \"#utility.yul\":5442:5458   */\n      add\n        /* \"#utility.yul\":5435:5458   */\n      swap1\n      pop\n        /* \"#utility.yul\":5506:5510   */\n      0x20\n        /* \"#utility.yul\":5498:5504   */\n      dup5\n        /* \"#utility.yul\":5494:5511   */\n      mul\n        /* \"#utility.yul\":5486:5492   */\n      dup4\n        /* \"#utility.yul\":5482:5512   */\n      add\n        /* \"#utility.yul\":5535:5538   */\n      dup6\n        /* \"#utility.yul\":5527:5533   */\n      dup2\n        /* \"#utility.yul\":5524:5539   */\n      gt\n        /* \"#utility.yul\":5521:5643   */\n      iszero\n      tag_258\n      jumpi\n        /* \"#utility.yul\":5554:5633   */\n      tag_259\n      tag_156\n      jump\t// in\n    tag_259:\n        /* \"#utility.yul\":5521:5643   */\n    tag_258:\n        /* \"#utility.yul\":5669:5675   */\n      dup4\n        /* \"#utility.yul\":5652:5872   */\n    tag_260:\n        /* \"#utility.yul\":5686:5692   */\n      dup2\n        /* \"#utility.yul\":5681:5684   */\n      dup2\n        /* \"#utility.yul\":5678:5693   */\n      lt\n        /* \"#utility.yul\":5652:5872   */\n      iszero\n      tag_262\n      jumpi\n        /* \"#utility.yul\":5761:5764   */\n      dup1\n        /* \"#utility.yul\":5790:5827   */\n      tag_263\n        /* \"#utility.yul\":5823:5826   */\n      dup9\n        /* \"#utility.yul\":5811:5821   */\n      dup3\n        /* \"#utility.yul\":5790:5827   */\n      tag_146\n      jump\t// in\n    tag_263:\n        /* \"#utility.yul\":5785:5788   */\n      dup5\n        /* \"#utility.yul\":5778:5828   */\n      mstore\n        /* \"#utility.yul\":5857:5861   */\n      0x20\n        /* \"#utility.yul\":5852:5855   */\n      dup5\n        /* \"#utility.yul\":5848:5862   */\n      add\n        /* \"#utility.yul\":5841:5862   */\n      swap4\n      pop\n        /* \"#utility.yul\":5728:5872   */\n      pop\n        /* \"#utility.yul\":5712:5716   */\n      0x20\n        /* \"#utility.yul\":5707:5710   */\n      dup2\n        /* \"#utility.yul\":5703:5717   */\n      add\n        /* \"#utility.yul\":5696:5717   */\n      swap1\n      pop\n        /* \"#utility.yul\":5652:5872   */\n      jump(tag_260)\n    tag_262:\n        /* \"#utility.yul\":5656:5677   */\n      pop\n        /* \"#utility.yul\":5270:5878   */\n      pop\n      pop\n        /* \"#utility.yul\":5168:5878   */\n      swap4\n      swap3\n      pop\n      pop\n      pop\n      jump\t// out\n        /* \"#utility.yul\":5901:6271   */\n    tag_163:\n        /* \"#utility.yul\":5972:5977   */\n      0x00\n        /* \"#utility.yul\":6021:6024   */\n      dup3\n        /* \"#utility.yul\":6014:6018   */\n      0x1f\n        /* \"#utility.yul\":6006:6012   */\n      dup4\n        /* \"#utility.yul\":6002:6019   */\n      add\n        /* \"#utility.yul\":5998:6025   */\n      slt\n        /* \"#utility.yul\":5988:6110   */\n      tag_265\n      jumpi\n        /* \"#utility.yul\":6029:6108   */\n      tag_266\n      tag_150\n      jump\t// in\n    tag_266:\n        /* \"#utility.yul\":5988:6110   */\n    tag_265:\n        /* \"#utility.yul\":6146:6152   */\n      dup2\n        /* \"#utility.yul\":6133:6153   */\n      calldataload\n        /* \"#utility.yul\":6171:6265   */\n      tag_267\n        /* \"#utility.yul\":6261:6264   */\n      dup5\n        /* \"#utility.yul\":6253:6259   */\n      dup3\n        /* \"#utility.yul\":6246:6250   */\n      0x20\n        /* \"#utility.yul\":6238:6244   */\n      dup7\n        /* \"#utility.yul\":6234:6251   */\n      add\n        /* \"#utility.yul\":6171:6265   */\n      tag_162\n      jump\t// in\n    tag_267:\n        /* \"#utility.yul\":6162:6265   */\n      swap2\n      pop\n        /* \"#utility.yul\":5978:6271   */\n      pop\n        /* \"#utility.yul\":5901:6271   */\n      swap3\n      swap2\n      pop\n      pop\n      jump\t// out\n        /* \"#utility.yul\":6277:6816   */\n    tag_20:\n        /* \"#utility.yul\":6361:6367   */\n      0x00\n        /* \"#utility.yul\":6410:6412   */\n      0x20\n        /* \"#utility.yul\":6398:6407   */\n      dup3\n        /* \"#utility.yul\":6389:6396   */\n      dup5\n        /* \"#utility.yul\":6385:6408   */\n      sub\n        /* \"#utility.yul\":6381:6413   */\n      slt\n        /* \"#utility.yul\":6378:6497   */\n      iszero\n      tag_269\n      jumpi\n        /* \"#utility.yul\":6416:6495   */\n      tag_270\n      tag_142\n      jump\t// in\n    tag_270:\n        /* \"#utility.yul\":6378:6497   */\n    tag_269:\n        /* \"#utility.yul\":6564:6565   */\n      0x00\n        /* \"#utility.yul\":6553:6562   */\n      dup3\n        /* \"#utility.yul\":6549:6566   */\n      add\n        /* \"#utility.yul\":6536:6567   */\n      calldataload\n        /* \"#utility.yul\":6594:6612   */\n      0xffffffffffffffff\n        /* \"#utility.yul\":6586:6592   */\n      dup2\n        /* \"#utility.yul\":6583:6613   */\n      gt\n        /* \"#utility.yul\":6580:6697   */\n      iszero\n      tag_271\n      jumpi\n        /* \"#utility.yul\":6616:6695   */\n      tag_272\n      tag_143\n      jump\t// in\n    tag_272:\n        /* \"#utility.yul\":6580:6697   */\n    tag_271:\n        /* \"#utility.yul\":6721:6799   */\n      tag_273\n        /* \"#utility.yul\":6791:6798   */\n      dup5\n        /* \"#utility.yul\":6782:6788   */\n      dup3\n        /* \"#utility.yul\":6771:6780   */\n      dup6\n        /* \"#utility.yul\":6767:6789   */\n      add\n        /* \"#utility.yul\":6721:6799   */\n      tag_163\n      jump\t// in\n    tag_273:\n        /* \"#utility.yul\":6711:6799   */\n      swap2\n      pop\n        /* \"#utility.yul\":6507:6809   */\n      pop\n        /* \"#utility.yul\":6277:6816   */\n      swap3\n      swap2\n      pop\n      pop\n      jump\t// out\n        /* \"#utility.yul\":6822:6936   */\n    tag_164:\n        /* \"#utility.yul\":6889:6895   */\n      0x00\n        /* \"#utility.yul\":6923:6928   */\n      dup2\n        /* \"#utility.yul\":6917:6929   */\n      mload\n        /* \"#utility.yul\":6907:6929   */\n      swap1\n      pop\n        /* \"#utility.yul\":6822:6936   */\n      swap2\n      swap1\n      pop\n      jump\t// out\n        /* \"#utility.yul\":6942:7126   */\n    tag_165:\n        /* \"#utility.yul\":7041:7052   */\n      0x00\n        /* \"#utility.yul\":7075:7081   */\n      dup3\n        /* \"#utility.yul\":7070:7073   */\n      dup3\n        /* \"#utility.yul\":7063:7082   */\n      mstore\n        /* \"#utility.yul\":7115:7119   */\n      0x20\n        /* \"#utility.yul\":7110:7113   */\n      dup3\n        /* \"#utility.yul\":7106:7120   */\n      add\n        /* \"#utility.yul\":7091:7120   */\n      swap1\n      pop\n        /* \"#utility.yul\":6942:7126   */\n      swap3\n      swap2\n      pop\n      pop\n      jump\t// out\n        /* \"#utility.yul\":7132:7264   */\n    tag_166:\n        /* \"#utility.yul\":7199:7203   */\n      0x00\n        /* \"#utility.yul\":7222:7225   */\n      dup2\n        /* \"#utility.yul\":7214:7225   */\n      swap1\n      pop\n        /* \"#utility.yul\":7252:7256   */\n      0x20\n        /* \"#utility.yul\":7247:7250   */\n      dup3\n        /* \"#utility.yul\":7243:7257   */\n      add\n        /* \"#utility.yul\":7235:7257   */\n      swap1\n      pop\n        /* \"#utility.yul\":7132:7264   */\n      swap2\n      swap1\n      pop\n      jump\t// out\n        /* \"#utility.yul\":7270:7378   */\n    tag_167:\n        /* \"#utility.yul\":7347:7371   */\n      tag_278\n        /* \"#utility.yul\":7365:7370   */\n      dup2\n        /* \"#utility.yul\":7347:7371   */\n      tag_148\n      jump\t// in\n    tag_278:\n        /* \"#utility.yul\":7342:7345   */\n      dup3\n        /* \"#utility.yul\":7335:7372   */\n      mstore\n        /* \"#utility.yul\":7270:7378   */\n      pop\n      pop\n      jump\t// out\n        /* \"#utility.yul\":7384:7563   */\n    tag_168:\n        /* \"#utility.yul\":7453:7463   */\n      0x00\n        /* \"#utility.yul\":7474:7520   */\n      tag_280\n        /* \"#utility.yul\":7516:7519   */\n      dup4\n        /* \"#utility.yul\":7508:7514   */\n      dup4\n        /* \"#utility.yul\":7474:7520   */\n      tag_167\n      jump\t// in\n    tag_280:\n        /* \"#utility.yul\":7552:7556   */\n      0x20\n        /* \"#utility.yul\":7547:7550   */\n      dup4\n        /* \"#utility.yul\":7543:7557   */\n      add\n        /* \"#utility.yul\":7529:7557   */\n      swap1\n      pop\n        /* \"#utility.yul\":7384:7563   */\n      swap3\n      swap2\n      pop\n      pop\n      jump\t// out\n        /* \"#utility.yul\":7569:7682   */\n    tag_169:\n        /* \"#utility.yul\":7639:7643   */\n      0x00\n        /* \"#utility.yul\":7671:7675   */\n      0x20\n        /* \"#utility.yul\":7666:7669   */\n      dup3\n        /* \"#utility.yul\":7662:7676   */\n      add\n        /* \"#utility.yul\":7654:7676   */\n      swap1\n      pop\n        /* \"#utility.yul\":7569:7682   */\n      swap2\n      swap1\n      pop\n      jump\t// out\n        /* \"#utility.yul\":7718:8450   */\n    tag_170:\n        /* \"#utility.yul\":7837:7840   */\n      0x00\n        /* \"#utility.yul\":7866:7920   */\n      tag_283\n        /* \"#utility.yul\":7914:7919   */\n      dup3\n        /* \"#utility.yul\":7866:7920   */\n      tag_164\n      jump\t// in\n    tag_283:\n        /* \"#utility.yul\":7936:8022   */\n      tag_284\n        /* \"#utility.yul\":8015:8021   */\n      dup2\n        /* \"#utility.yul\":8010:8013   */\n      dup6\n        /* \"#utility.yul\":7936:8022   */\n      tag_165\n      jump\t// in\n    tag_284:\n        /* \"#utility.yul\":7929:8022   */\n      swap4\n      pop\n        /* \"#utility.yul\":8046:8102   */\n      tag_285\n        /* \"#utility.yul\":8096:8101   */\n      dup4\n        /* \"#utility.yul\":8046:8102   */\n      tag_166\n      jump\t// in\n    tag_285:\n        /* \"#utility.yul\":8125:8132   */\n      dup1\n        /* \"#utility.yul\":8156:8157   */\n      0x00\n        /* \"#utility.yul\":8141:8425   */\n    tag_286:\n        /* \"#utility.yul\":8166:8172   */\n      dup4\n        /* \"#utility.yul\":8163:8164   */\n      dup2\n        /* \"#utility.yul\":8160:8173   */\n      lt\n        /* \"#utility.yul\":8141:8425   */\n      iszero\n      tag_288\n      jumpi\n        /* \"#utility.yul\":8242:8248   */\n      dup2\n        /* \"#utility.yul\":8236:8249   */\n      mload\n        /* \"#utility.yul\":8269:8332   */\n      tag_289\n        /* \"#utility.yul\":8328:8331   */\n      dup9\n        /* \"#utility.yul\":8313:8326   */\n      dup3\n        /* \"#utility.yul\":8269:8332   */\n      tag_168\n      jump\t// in\n    tag_289:\n        /* \"#utility.yul\":8262:8332   */\n      swap8\n      pop\n        /* \"#utility.yul\":8355:8415   */\n      tag_290\n        /* \"#utility.yul\":8408:8414   */\n      dup4\n        /* \"#utility.yul\":8355:8415   */\n      tag_169\n      jump\t// in\n    tag_290:\n        /* \"#utility.yul\":8345:8415   */\n      swap3\n      pop\n        /* \"#utility.yul\":8201:8425   */\n      pop\n        /* \"#utility.yul\":8188:8189   */\n      0x01\n        /* \"#utility.yul\":8185:8186   */\n      dup2\n        /* \"#utility.yul\":8181:8190   */\n      add\n        /* \"#utility.yul\":8176:8190   */\n      swap1\n      pop\n        /* \"#utility.yul\":8141:8425   */\n      jump(tag_286)\n    tag_288:\n        /* \"#utility.yul\":8145:8159   */\n      pop\n        /* \"#utility.yul\":8441:8444   */\n      dup6\n        /* \"#utility.yul\":8434:8444   */\n      swap4\n      pop\n        /* \"#utility.yul\":7842:8450   */\n      pop\n      pop\n      pop\n        /* \"#utility.yul\":7718:8450   */\n      swap3\n      swap2\n      pop\n      pop\n      jump\t// out\n        /* \"#utility.yul\":8456:8829   */\n    tag_25:\n        /* \"#utility.yul\":8599:8603   */\n      0x00\n        /* \"#utility.yul\":8637:8639   */\n      0x20\n        /* \"#utility.yul\":8626:8635   */\n      dup3\n        /* \"#utility.yul\":8622:8640   */\n      add\n        /* \"#utility.yul\":8614:8640   */\n      swap1\n      pop\n        /* \"#utility.yul\":8686:8695   */\n      dup2\n        /* \"#utility.yul\":8680:8684   */\n      dup2\n        /* \"#utility.yul\":8676:8696   */\n      sub\n        /* \"#utility.yul\":8672:8673   */\n      0x00\n        /* \"#utility.yul\":8661:8670   */\n      dup4\n        /* \"#utility.yul\":8657:8674   */\n      add\n        /* \"#utility.yul\":8650:8697   */\n      mstore\n        /* \"#utility.yul\":8714:8822   */\n      tag_292\n        /* \"#utility.yul\":8817:8821   */\n      dup2\n        /* \"#utility.yul\":8808:8814   */\n      dup5\n        /* \"#utility.yul\":8714:8822   */\n      tag_170\n      jump\t// in\n    tag_292:\n        /* \"#utility.yul\":8706:8822   */\n      swap1\n      pop\n        /* \"#utility.yul\":8456:8829   */\n      swap3\n      swap2\n      pop\n      pop\n      jump\t// out\n        /* \"#utility.yul\":8835:9015   */\n    tag_37:\n        /* \"#utility.yul\":8883:8960   */\n      0x4e487b7100000000000000000000000000000000000000000000000000000000\n        /* \"#utility.yul\":8880:8881   */\n      0x00\n        /* \"#utility.yul\":8873:8961   */\n      mstore\n        /* \"#utility.yul\":8980:8984   */\n      0x32\n        /* \"#utility.yul\":8977:8978   */\n      0x04\n        /* \"#utility.yul\":8970:8985   */\n      mstore\n        /* \"#utility.yul\":9004:9008   */\n      0x24\n        /* \"#utility.yul\":9001:9002   */\n      0x00\n        /* \"#utility.yul\":8994:9009   */\n      revert\n        /* \"#utility.yul\":9021:9190   */\n    tag_171:\n        /* \"#utility.yul\":9105:9116   */\n      0x00\n        /* \"#utility.yul\":9139:9145   */\n      dup3\n        /* \"#utility.yul\":9134:9137   */\n      dup3\n        /* \"#utility.yul\":9127:9146   */\n      mstore\n        /* \"#utility.yul\":9179:9183   */\n      0x20\n        /* \"#utility.yul\":9174:9177   */\n      dup3\n        /* \"#utility.yul\":9170:9184   */\n      add\n        /* \"#utility.yul\":9155:9184   */\n      swap1\n      pop\n        /* \"#utility.yul\":9021:9190   */\n      swap3\n      swap2\n      pop\n      pop\n      jump\t// out\n        /* \"#utility.yul\":9196:9417   */\n    tag_172:\n        /* \"#utility.yul\":9336:9370   */\n      0x4f6e6c792061646d696e732063616e2063616c6c20746869732066756e637469\n        /* \"#utility.yul\":9332:9333   */\n      0x00\n        /* \"#utility.yul\":9324:9330   */\n      dup3\n        /* \"#utility.yul\":9320:9334   */\n      add\n        /* \"#utility.yul\":9313:9371   */\n      mstore\n        /* \"#utility.yul\":9405:9409   */\n      0x6f6e000000000000000000000000000000000000000000000000000000000000\n        /* \"#utility.yul\":9400:9402   */\n      0x20\n        /* \"#utility.yul\":9392:9398   */\n      dup3\n        /* \"#utility.yul\":9388:9403   */\n      add\n        /* \"#utility.yul\":9381:9410   */\n      mstore\n        /* \"#utility.yul\":9196:9417   */\n      pop\n      jump\t// out\n        /* \"#utility.yul\":9423:9789   */\n    tag_173:\n        /* \"#utility.yul\":9565:9568   */\n      0x00\n        /* \"#utility.yul\":9586:9653   */\n      tag_297\n        /* \"#utility.yul\":9650:9652   */\n      0x22\n        /* \"#utility.yul\":9645:9648   */\n      dup4\n        /* \"#utility.yul\":9586:9653   */\n      tag_171\n      jump\t// in\n    tag_297:\n        /* \"#utility.yul\":9579:9653   */\n      swap2\n      pop\n        /* \"#utility.yul\":9662:9755   */\n      tag_298\n        /* \"#utility.yul\":9751:9754   */\n      dup3\n        /* \"#utility.yul\":9662:9755   */\n      tag_172\n      jump\t// in\n    tag_298:\n        /* \"#utility.yul\":9780:9782   */\n      0x40\n        /* \"#utility.yul\":9775:9778   */\n      dup3\n        /* \"#utility.yul\":9771:9783   */\n      add\n        /* \"#utility.yul\":9764:9783   */\n      swap1\n      pop\n        /* \"#utility.yul\":9423:9789   */\n      swap2\n      swap1\n      pop\n      jump\t// out\n        /* \"#utility.yul\":9795:10214   */\n    tag_42:\n        /* \"#utility.yul\":9961:9965   */\n      0x00\n        /* \"#utility.yul\":9999:10001   */\n      0x20\n        /* \"#utility.yul\":9988:9997   */\n      dup3\n        /* \"#utility.yul\":9984:10002   */\n      add\n        /* \"#utility.yul\":9976:10002   */\n      swap1\n      pop\n        /* \"#utility.yul\":10048:10057   */\n      dup2\n        /* \"#utility.yul\":10042:10046   */\n      dup2\n        /* \"#utility.yul\":10038:10058   */\n      sub\n        /* \"#utility.yul\":10034:10035   */\n      0x00\n        /* \"#utility.yul\":10023:10032   */\n      dup4\n        /* \"#utility.yul\":10019:10036   */\n      add\n        /* \"#utility.yul\":10012:10059   */\n      mstore\n        /* \"#utility.yul\":10076:10207   */\n      tag_300\n        /* \"#utility.yul\":10202:10206   */\n      dup2\n        /* \"#utility.yul\":10076:10207   */\n      tag_173\n      jump\t// in\n    tag_300:\n        /* \"#utility.yul\":10068:10207   */\n      swap1\n      pop\n        /* \"#utility.yul\":9795:10214   */\n      swap2\n      swap1\n      pop\n      jump\t// out\n        /* \"#utility.yul\":10220:10331   */\n    tag_174:\n        /* \"#utility.yul\":10284:10290   */\n      0x00\n        /* \"#utility.yul\":10318:10323   */\n      dup2\n        /* \"#utility.yul\":10312:10324   */\n      sload\n        /* \"#utility.yul\":10302:10324   */\n      swap1\n      pop\n        /* \"#utility.yul\":10220:10331   */\n      swap2\n      swap1\n      pop\n      jump\t// out\n        /* \"#utility.yul\":10337:10493   */\n    tag_175:\n        /* \"#utility.yul\":10401:10405   */\n      0x00\n        /* \"#utility.yul\":10424:10427   */\n      dup2\n        /* \"#utility.yul\":10416:10427   */\n      swap1\n      pop\n        /* \"#utility.yul\":10447:10450   */\n      dup2\n        /* \"#utility.yul\":10444:10445   */\n      0x00\n        /* \"#utility.yul\":10437:10451   */\n      mstore\n        /* \"#utility.yul\":10481:10485   */\n      0x20\n        /* \"#utility.yul\":10478:10479   */\n      0x00\n        /* \"#utility.yul\":10468:10486   */\n      keccak256\n        /* \"#utility.yul\":10460:10486   */\n      swap1\n      pop\n        /* \"#utility.yul\":10337:10493   */\n      swap2\n      swap1\n      pop\n      jump\t// out\n        /* \"#utility.yul\":10499:10601   */\n    tag_176:\n        /* \"#utility.yul\":10541:10549   */\n      0x00\n        /* \"#utility.yul\":10588:10593   */\n      dup2\n        /* \"#utility.yul\":10585:10586   */\n      0x00\n        /* \"#utility.yul\":10581:10594   */\n      shr\n        /* \"#utility.yul\":10560:10594   */\n      swap1\n      pop\n        /* \"#utility.yul\":10499:10601   */\n      swap2\n      swap1\n      pop\n      jump\t// out\n        /* \"#utility.yul\":10607:10746   */\n    tag_177:\n        /* \"#utility.yul\":10657:10664   */\n      0x00\n        /* \"#utility.yul\":10697:10739   */\n      0xffffffffffffffffffffffffffffffffffffffff\n        /* \"#utility.yul\":10690:10695   */\n      dup3\n        /* \"#utility.yul\":10686:10740   */\n      and\n        /* \"#utility.yul\":10675:10740   */\n      swap1\n      pop\n        /* \"#utility.yul\":10607:10746   */\n      swap2\n      swap1\n      pop\n      jump\t// out\n        /* \"#utility.yul\":10752:10918   */\n    tag_178:\n        /* \"#utility.yul\":10821:10826   */\n      0x00\n        /* \"#utility.yul\":10846:10912   */\n      tag_306\n        /* \"#utility.yul\":10877:10911   */\n      tag_307\n        /* \"#utility.yul\":10900:10910   */\n      dup4\n        /* \"#utility.yul\":10877:10911   */\n      tag_176\n      jump\t// in\n    tag_307:\n        /* \"#utility.yul\":10846:10912   */\n      tag_177\n      jump\t// in\n    tag_306:\n        /* \"#utility.yul\":10837:10912   */\n      swap1\n      pop\n        /* \"#utility.yul\":10752:10918   */\n      swap2\n      swap1\n      pop\n      jump\t// out\n        /* \"#utility.yul\":10924:11068   */\n    tag_179:\n        /* \"#utility.yul\":10979:10984   */\n      0x00\n        /* \"#utility.yul\":11004:11061   */\n      tag_309\n        /* \"#utility.yul\":11055:11059   */\n      dup3\n        /* \"#utility.yul\":11049:11060   */\n      sload\n        /* \"#utility.yul\":11004:11061   */\n      tag_178\n      jump\t// in\n    tag_309:\n        /* \"#utility.yul\":10995:11061   */\n      swap1\n      pop\n        /* \"#utility.yul\":10924:11068   */\n      swap2\n      swap1\n      pop\n      jump\t// out\n        /* \"#utility.yul\":11074:11184   */\n    tag_180:\n        /* \"#utility.yul\":11141:11145   */\n      0x00\n        /* \"#utility.yul\":11173:11177   */\n      0x01\n        /* \"#utility.yul\":11168:11171   */\n      dup3\n        /* \"#utility.yul\":11164:11178   */\n      add\n        /* \"#utility.yul\":11156:11178   */\n      swap1\n      pop\n        /* \"#utility.yul\":11074:11184   */\n      swap2\n      swap1\n      pop\n      jump\t// out\n        /* \"#utility.yul\":11220:11971   */\n    tag_181:\n        /* \"#utility.yul\":11336:11339   */\n      0x00\n        /* \"#utility.yul\":11365:11416   */\n      tag_312\n        /* \"#utility.yul\":11410:11415   */\n      dup3\n        /* \"#utility.yul\":11365:11416   */\n      tag_174\n      jump\t// in\n    tag_312:\n        /* \"#utility.yul\":11432:11518   */\n      tag_313\n        /* \"#utility.yul\":11511:11517   */\n      dup2\n        /* \"#utility.yul\":11506:11509   */\n      dup6\n        /* \"#utility.yul\":11432:11518   */\n      tag_165\n      jump\t// in\n    tag_313:\n        /* \"#utility.yul\":11425:11518   */\n      swap4\n      pop\n        /* \"#utility.yul\":11542:11595   */\n      tag_314\n        /* \"#utility.yul\":11589:11594   */\n      dup4\n        /* \"#utility.yul\":11542:11595   */\n      tag_175\n      jump\t// in\n    tag_314:\n        /* \"#utility.yul\":11618:11625   */\n      dup1\n        /* \"#utility.yul\":11649:11650   */\n      0x00\n        /* \"#utility.yul\":11634:11946   */\n    tag_315:\n        /* \"#utility.yul\":11659:11665   */\n      dup4\n        /* \"#utility.yul\":11656:11657   */\n      dup2\n        /* \"#utility.yul\":11653:11666   */\n      lt\n        /* \"#utility.yul\":11634:11946   */\n      iszero\n      tag_317\n      jumpi\n        /* \"#utility.yul\":11729:11773   */\n      tag_318\n        /* \"#utility.yul\":11766:11772   */\n      dup3\n        /* \"#utility.yul\":11729:11773   */\n      tag_179\n      jump\t// in\n    tag_318:\n        /* \"#utility.yul\":11793:11856   */\n      tag_319\n        /* \"#utility.yul\":11852:11855   */\n      dup9\n        /* \"#utility.yul\":11837:11850   */\n      dup3\n        /* \"#utility.yul\":11793:11856   */\n      tag_168\n      jump\t// in\n    tag_319:\n        /* \"#utility.yul\":11786:11856   */\n      swap8\n      pop\n        /* \"#utility.yul\":11879:11936   */\n      tag_320\n        /* \"#utility.yul\":11929:11935   */\n      dup4\n        /* \"#utility.yul\":11879:11936   */\n      tag_180\n      jump\t// in\n    tag_320:\n        /* \"#utility.yul\":11869:11936   */\n      swap3\n      pop\n        /* \"#utility.yul\":11694:11946   */\n      pop\n        /* \"#utility.yul\":11681:11682   */\n      0x01\n        /* \"#utility.yul\":11678:11679   */\n      dup2\n        /* \"#utility.yul\":11674:11683   */\n      add\n        /* \"#utility.yul\":11669:11683   */\n      swap1\n      pop\n        /* \"#utility.yul\":11634:11946   */\n      jump(tag_315)\n    tag_317:\n        /* \"#utility.yul\":11638:11652   */\n      pop\n        /* \"#utility.yul\":11962:11965   */\n      dup6\n        /* \"#utility.yul\":11955:11965   */\n      swap4\n      pop\n        /* \"#utility.yul\":11341:11971   */\n      pop\n      pop\n      pop\n        /* \"#utility.yul\":11220:11971   */\n      swap3\n      swap2\n      pop\n      pop\n      jump\t// out\n        /* \"#utility.yul\":11977:12147   */\n    tag_182:\n        /* \"#utility.yul\":12117:12139   */\n      0x41646d696e7320616c7265616479206578697374000000000000000000000000\n        /* \"#utility.yul\":12113:12114   */\n      0x00\n        /* \"#utility.yul\":12105:12111   */\n      dup3\n        /* \"#utility.yul\":12101:12115   */\n      add\n        /* \"#utility.yul\":12094:12140   */\n      mstore\n        /* \"#utility.yul\":11977:12147   */\n      pop\n      jump\t// out\n        /* \"#utility.yul\":12153:12519   */\n    tag_183:\n        /* \"#utility.yul\":12295:12298   */\n      0x00\n        /* \"#utility.yul\":12316:12383   */\n      tag_323\n        /* \"#utility.yul\":12380:12382   */\n      0x14\n        /* \"#utility.yul\":12375:12378   */\n      dup4\n        /* \"#utility.yul\":12316:12383   */\n      tag_171\n      jump\t// in\n    tag_323:\n        /* \"#utility.yul\":12309:12383   */\n      swap2\n      pop\n        /* \"#utility.yul\":12392:12485   */\n      tag_324\n        /* \"#utility.yul\":12481:12484   */\n      dup3\n        /* \"#utility.yul\":12392:12485   */\n      tag_182\n      jump\t// in\n    tag_324:\n        /* \"#utility.yul\":12510:12512   */\n      0x20\n        /* \"#utility.yul\":12505:12508   */\n      dup3\n        /* \"#utility.yul\":12501:12513   */\n      add\n        /* \"#utility.yul\":12494:12513   */\n      swap1\n      pop\n        /* \"#utility.yul\":12153:12519   */\n      swap2\n      swap1\n      pop\n      jump\t// out\n        /* \"#utility.yul\":12525:13199   */\n    tag_57:\n        /* \"#utility.yul\":12766:12770   */\n      0x00\n        /* \"#utility.yul\":12804:12806   */\n      0x40\n        /* \"#utility.yul\":12793:12802   */\n      dup3\n        /* \"#utility.yul\":12789:12807   */\n      add\n        /* \"#utility.yul\":12781:12807   */\n      swap1\n      pop\n        /* \"#utility.yul\":12853:12862   */\n      dup2\n        /* \"#utility.yul\":12847:12851   */\n      dup2\n        /* \"#utility.yul\":12843:12863   */\n      sub\n        /* \"#utility.yul\":12839:12840   */\n      0x00\n        /* \"#utility.yul\":12828:12837   */\n      dup4\n        /* \"#utility.yul\":12824:12841   */\n      add\n        /* \"#utility.yul\":12817:12864   */\n      mstore\n        /* \"#utility.yul\":12881:12986   */\n      tag_326\n        /* \"#utility.yul\":12981:12985   */\n      dup2\n        /* \"#utility.yul\":12972:12978   */\n      dup5\n        /* \"#utility.yul\":12881:12986   */\n      tag_181\n      jump\t// in\n    tag_326:\n        /* \"#utility.yul\":12873:12986   */\n      swap1\n      pop\n        /* \"#utility.yul\":13033:13042   */\n      dup2\n        /* \"#utility.yul\":13027:13031   */\n      dup2\n        /* \"#utility.yul\":13023:13043   */\n      sub\n        /* \"#utility.yul\":13018:13020   */\n      0x20\n        /* \"#utility.yul\":13007:13016   */\n      dup4\n        /* \"#utility.yul\":13003:13021   */\n      add\n        /* \"#utility.yul\":12996:13044   */\n      mstore\n        /* \"#utility.yul\":13061:13192   */\n      tag_327\n        /* \"#utility.yul\":13187:13191   */\n      dup2\n        /* \"#utility.yul\":13061:13192   */\n      tag_183\n      jump\t// in\n    tag_327:\n        /* \"#utility.yul\":13053:13192   */\n      swap1\n      pop\n        /* \"#utility.yul\":12525:13199   */\n      swap3\n      swap2\n      pop\n      pop\n      jump\t// out\n        /* \"#utility.yul\":13205:13367   */\n    tag_184:\n        /* \"#utility.yul\":13345:13359   */\n      0x41646d696e732061646465640000000000000000000000000000000000000000\n        /* \"#utility.yul\":13341:13342   */\n      0x00\n        /* \"#utility.yul\":13333:13339   */\n      dup3\n        /* \"#utility.yul\":13329:13343   */\n      add\n        /* \"#utility.yul\":13322:13360   */\n      mstore\n        /* \"#utility.yul\":13205:13367   */\n      pop\n      jump\t// out\n        /* \"#utility.yul\":13373:13739   */\n    tag_185:\n        /* \"#utility.yul\":13515:13518   */\n      0x00\n        /* \"#utility.yul\":13536:13603   */\n      tag_330\n        /* \"#utility.yul\":13600:13602   */\n      0x0c\n        /* \"#utility.yul\":13595:13598   */\n      dup4\n        /* \"#utility.yul\":13536:13603   */\n      tag_171\n      jump\t// in\n    tag_330:\n        /* \"#utility.yul\":13529:13603   */\n      swap2\n      pop\n        /* \"#utility.yul\":13612:13705   */\n      tag_331\n        /* \"#utility.yul\":13701:13704   */\n      dup3\n        /* \"#utility.yul\":13612:13705   */\n      tag_184\n      jump\t// in\n    tag_331:\n        /* \"#utility.yul\":13730:13732   */\n      0x20\n        /* \"#utility.yul\":13725:13728   */\n      dup3\n        /* \"#utility.yul\":13721:13733   */\n      add\n        /* \"#utility.yul\":13714:13733   */\n      swap1\n      pop\n        /* \"#utility.yul\":13373:13739   */\n      swap2\n      swap1\n      pop\n      jump\t// out\n        /* \"#utility.yul\":13745:14419   */\n    tag_63:\n        /* \"#utility.yul\":13986:13990   */\n      0x00\n        /* \"#utility.yul\":14024:14026   */\n      0x40\n        /* \"#utility.yul\":14013:14022   */\n      dup3\n        /* \"#utility.yul\":14009:14027   */\n      add\n        /* \"#utility.yul\":14001:14027   */\n      swap1\n      pop\n        /* \"#utility.yul\":14073:14082   */\n      dup2\n        /* \"#utility.yul\":14067:14071   */\n      dup2\n        /* \"#utility.yul\":14063:14083   */\n      sub\n        /* \"#utility.yul\":14059:14060   */\n      0x00\n        /* \"#utility.yul\":14048:14057   */\n      dup4\n        /* \"#utility.yul\":14044:14061   */\n      add\n        /* \"#utility.yul\":14037:14084   */\n      mstore\n        /* \"#utility.yul\":14101:14206   */\n      tag_333\n        /* \"#utility.yul\":14201:14205   */\n      dup2\n        /* \"#utility.yul\":14192:14198   */\n      dup5\n        /* \"#utility.yul\":14101:14206   */\n      tag_181\n      jump\t// in\n    tag_333:\n        /* \"#utility.yul\":14093:14206   */\n      swap1\n      pop\n        /* \"#utility.yul\":14253:14262   */\n      dup2\n        /* \"#utility.yul\":14247:14251   */\n      dup2\n        /* \"#utility.yul\":14243:14263   */\n      sub\n        /* \"#utility.yul\":14238:14240   */\n      0x20\n        /* \"#utility.yul\":14227:14236   */\n      dup4\n        /* \"#utility.yul\":14223:14241   */\n      add\n        /* \"#utility.yul\":14216:14264   */\n      mstore\n        /* \"#utility.yul\":14281:14412   */\n      tag_334\n        /* \"#utility.yul\":14407:14411   */\n      dup2\n        /* \"#utility.yul\":14281:14412   */\n      tag_185\n      jump\t// in\n    tag_334:\n        /* \"#utility.yul\":14273:14412   */\n      swap1\n      pop\n        /* \"#utility.yul\":13745:14419   */\n      swap3\n      swap2\n      pop\n      pop\n      jump\t// out\n        /* \"#utility.yul\":14425:14603   */\n    tag_186:\n        /* \"#utility.yul\":14565:14595   */\n      0x43616e6e6f742072656d6f766520746865206c6173742061646d696e00000000\n        /* \"#utility.yul\":14561:14562   */\n      0x00\n        /* \"#utility.yul\":14553:14559   */\n      dup3\n        /* \"#utility.yul\":14549:14563   */\n      add\n        /* \"#utility.yul\":14542:14596   */\n      mstore\n        /* \"#utility.yul\":14425:14603   */\n      pop\n      jump\t// out\n        /* \"#utility.yul\":14609:14975   */\n    tag_187:\n        /* \"#utility.yul\":14751:14754   */\n      0x00\n        /* \"#utility.yul\":14772:14839   */\n      tag_337\n        /* \"#utility.yul\":14836:14838   */\n      0x1c\n        /* \"#utility.yul\":14831:14834   */\n      dup4\n        /* \"#utility.yul\":14772:14839   */\n      tag_171\n      jump\t// in\n    tag_337:\n        /* \"#utility.yul\":14765:14839   */\n      swap2\n      pop\n        /* \"#utility.yul\":14848:14941   */\n      tag_338\n        /* \"#utility.yul\":14937:14940   */\n      dup3\n        /* \"#utility.yul\":14848:14941   */\n      tag_186\n      jump\t// in\n    tag_338:\n        /* \"#utility.yul\":14966:14968   */\n      0x20\n        /* \"#utility.yul\":14961:14964   */\n      dup3\n        /* \"#utility.yul\":14957:14969   */\n      add\n        /* \"#utility.yul\":14950:14969   */\n      swap1\n      pop\n        /* \"#utility.yul\":14609:14975   */\n      swap2\n      swap1\n      pop\n      jump\t// out\n        /* \"#utility.yul\":14981:15400   */\n    tag_77:\n        /* \"#utility.yul\":15147:15151   */\n      0x00\n        /* \"#utility.yul\":15185:15187   */\n      0x20\n        /* \"#utility.yul\":15174:15183   */\n      dup3\n        /* \"#utility.yul\":15170:15188   */\n      add\n        /* \"#utility.yul\":15162:15188   */\n      swap1\n      pop\n        /* \"#utility.yul\":15234:15243   */\n      dup2\n        /* \"#utility.yul\":15228:15232   */\n      dup2\n        /* \"#utility.yul\":15224:15244   */\n      sub\n        /* \"#utility.yul\":15220:15221   */\n      0x00\n        /* \"#utility.yul\":15209:15218   */\n      dup4\n        /* \"#utility.yul\":15205:15222   */\n      add\n        /* \"#utility.yul\":15198:15245   */\n      mstore\n        /* \"#utility.yul\":15262:15393   */\n      tag_340\n        /* \"#utility.yul\":15388:15392   */\n      dup2\n        /* \"#utility.yul\":15262:15393   */\n      tag_187\n      jump\t// in\n    tag_340:\n        /* \"#utility.yul\":15254:15393   */\n      swap1\n      pop\n        /* \"#utility.yul\":14981:15400   */\n      swap2\n      swap1\n      pop\n      jump\t// out\n        /* \"#utility.yul\":15406:15574   */\n    tag_188:\n        /* \"#utility.yul\":15546:15566   */\n      0x496e646578206f7574206f662072616e67650000000000000000000000000000\n        /* \"#utility.yul\":15542:15543   */\n      0x00\n        /* \"#utility.yul\":15534:15540   */\n      dup3\n        /* \"#utility.yul\":15530:15544   */\n      add\n        /* \"#utility.yul\":15523:15567   */\n      mstore\n        /* \"#utility.yul\":15406:15574   */\n      pop\n      jump\t// out\n        /* \"#utility.yul\":15580:15946   */\n    tag_189:\n        /* \"#utility.yul\":15722:15725   */\n      0x00\n        /* \"#utility.yul\":15743:15810   */\n      tag_343\n        /* \"#utility.yul\":15807:15809   */\n      0x12\n        /* \"#utility.yul\":15802:15805   */\n      dup4\n        /* \"#utility.yul\":15743:15810   */\n      tag_171\n      jump\t// in\n    tag_343:\n        /* \"#utility.yul\":15736:15810   */\n      swap2\n      pop\n        /* \"#utility.yul\":15819:15912   */\n      tag_344\n        /* \"#utility.yul\":15908:15911   */\n      dup3\n        /* \"#utility.yul\":15819:15912   */\n      tag_188\n      jump\t// in\n    tag_344:\n        /* \"#utility.yul\":15937:15939   */\n      0x20\n        /* \"#utility.yul\":15932:15935   */\n      dup3\n        /* \"#utility.yul\":15928:15940   */\n      add\n        /* \"#utility.yul\":15921:15940   */\n      swap1\n      pop\n        /* \"#utility.yul\":15580:15946   */\n      swap2\n      swap1\n      pop\n      jump\t// out\n        /* \"#utility.yul\":15952:16371   */\n    tag_85:\n        /* \"#utility.yul\":16118:16122   */\n      0x00\n        /* \"#utility.yul\":16156:16158   */\n      0x20\n        /* \"#utility.yul\":16145:16154   */\n      dup3\n        /* \"#utility.yul\":16141:16159   */\n      add\n        /* \"#utility.yul\":16133:16159   */\n      swap1\n      pop\n        /* \"#utility.yul\":16205:16214   */\n      dup2\n        /* \"#utility.yul\":16199:16203   */\n      dup2\n        /* \"#utility.yul\":16195:16215   */\n      sub\n        /* \"#utility.yul\":16191:16192   */\n      0x00\n        /* \"#utility.yul\":16180:16189   */\n      dup4\n        /* \"#utility.yul\":16176:16193   */\n      add\n        /* \"#utility.yul\":16169:16216   */\n      mstore\n        /* \"#utility.yul\":16233:16364   */\n      tag_346\n        /* \"#utility.yul\":16359:16363   */\n      dup2\n        /* \"#utility.yul\":16233:16364   */\n      tag_189\n      jump\t// in\n    tag_346:\n        /* \"#utility.yul\":16225:16364   */\n      swap1\n      pop\n        /* \"#utility.yul\":15952:16371   */\n      swap2\n      swap1\n      pop\n      jump\t// out\n        /* \"#utility.yul\":16377:16557   */\n    tag_190:\n        /* \"#utility.yul\":16425:16502   */\n      0x4e487b7100000000000000000000000000000000000000000000000000000000\n        /* \"#utility.yul\":16422:16423   */\n      0x00\n        /* \"#utility.yul\":16415:16503   */\n      mstore\n        /* \"#utility.yul\":16522:16526   */\n      0x11\n        /* \"#utility.yul\":16519:16520   */\n      0x04\n        /* \"#utility.yul\":16512:16527   */\n      mstore\n        /* \"#utility.yul\":16546:16550   */\n      0x24\n        /* \"#utility.yul\":16543:16544   */\n      0x00\n        /* \"#utility.yul\":16536:16551   */\n      revert\n        /* \"#utility.yul\":16563:16757   */\n    tag_87:\n        /* \"#utility.yul\":16603:16607   */\n      0x00\n        /* \"#utility.yul\":16623:16643   */\n      tag_349\n        /* \"#utility.yul\":16641:16642   */\n      dup3\n        /* \"#utility.yul\":16623:16643   */\n      tag_144\n      jump\t// in\n    tag_349:\n        /* \"#utility.yul\":16618:16643   */\n      swap2\n      pop\n        /* \"#utility.yul\":16657:16677   */\n      tag_350\n        /* \"#utility.yul\":16675:16676   */\n      dup4\n        /* \"#utility.yul\":16657:16677   */\n      tag_144\n      jump\t// in\n    tag_350:\n        /* \"#utility.yul\":16652:16677   */\n      swap3\n      pop\n        /* \"#utility.yul\":16701:16702   */\n      dup3\n        /* \"#utility.yul\":16698:16699   */\n      dup3\n        /* \"#utility.yul\":16694:16703   */\n      sub\n        /* \"#utility.yul\":16686:16703   */\n      swap1\n      pop\n        /* \"#utility.yul\":16725:16726   */\n      dup2\n        /* \"#utility.yul\":16719:16723   */\n      dup2\n        /* \"#utility.yul\":16716:16727   */\n      gt\n        /* \"#utility.yul\":16713:16750   */\n      iszero\n      tag_351\n      jumpi\n        /* \"#utility.yul\":16730:16748   */\n      tag_352\n      tag_190\n      jump\t// in\n    tag_352:\n        /* \"#utility.yul\":16713:16750   */\n    tag_351:\n        /* \"#utility.yul\":16563:16757   */\n      swap3\n      swap2\n      pop\n      pop\n      jump\t// out\n        /* \"#utility.yul\":16763:16943   */\n    tag_98:\n        /* \"#utility.yul\":16811:16888   */\n      0x4e487b7100000000000000000000000000000000000000000000000000000000\n        /* \"#utility.yul\":16808:16809   */\n      0x00\n        /* \"#utility.yul\":16801:16889   */\n      mstore\n        /* \"#utility.yul\":16908:16912   */\n      0x31\n        /* \"#utility.yul\":16905:16906   */\n      0x04\n        /* \"#utility.yul\":16898:16913   */\n      mstore\n        /* \"#utility.yul\":16932:16936   */\n      0x24\n        /* \"#utility.yul\":16929:16930   */\n      0x00\n        /* \"#utility.yul\":16922:16937   */\n      revert\n        /* \"#utility.yul\":16949:17113   */\n    tag_191:\n        /* \"#utility.yul\":17089:17105   */\n      0x41646d696e732072656d6f766564000000000000000000000000000000000000\n        /* \"#utility.yul\":17085:17086   */\n      0x00\n        /* \"#utility.yul\":17077:17083   */\n      dup3\n        /* \"#utility.yul\":17073:17087   */\n      add\n        /* \"#utility.yul\":17066:17106   */\n      mstore\n        /* \"#utility.yul\":16949:17113   */\n      pop\n      jump\t// out\n        /* \"#utility.yul\":17119:17485   */\n    tag_192:\n        /* \"#utility.yul\":17261:17264   */\n      0x00\n        /* \"#utility.yul\":17282:17349   */\n      tag_356\n        /* \"#utility.yul\":17346:17348   */\n      0x0e\n        /* \"#utility.yul\":17341:17344   */\n      dup4\n        /* \"#utility.yul\":17282:17349   */\n      tag_171\n      jump\t// in\n    tag_356:\n        /* \"#utility.yul\":17275:17349   */\n      swap2\n      pop\n        /* \"#utility.yul\":17358:17451   */\n      tag_357\n        /* \"#utility.yul\":17447:17450   */\n      dup3\n        /* \"#utility.yul\":17358:17451   */\n      tag_191\n      jump\t// in\n    tag_357:\n        /* \"#utility.yul\":17476:17478   */\n      0x20\n        /* \"#utility.yul\":17471:17474   */\n      dup3\n        /* \"#utility.yul\":17467:17479   */\n      add\n        /* \"#utility.yul\":17460:17479   */\n      swap1\n      pop\n        /* \"#utility.yul\":17119:17485   */\n      swap2\n      swap1\n      pop\n      jump\t// out\n        /* \"#utility.yul\":17491:18165   */\n    tag_101:\n        /* \"#utility.yul\":17732:17736   */\n      0x00\n        /* \"#utility.yul\":17770:17772   */\n      0x40\n        /* \"#utility.yul\":17759:17768   */\n      dup3\n        /* \"#utility.yul\":17755:17773   */\n      add\n        /* \"#utility.yul\":17747:17773   */\n      swap1\n      pop\n        /* \"#utility.yul\":17819:17828   */\n      dup2\n        /* \"#utility.yul\":17813:17817   */\n      dup2\n        /* \"#utility.yul\":17809:17829   */\n      sub\n        /* \"#utility.yul\":17805:17806   */\n      0x00\n        /* \"#utility.yul\":17794:17803   */\n      dup4\n        /* \"#utility.yul\":17790:17807   */\n      add\n        /* \"#utility.yul\":17783:17830   */\n      mstore\n        /* \"#utility.yul\":17847:17952   */\n      tag_359\n        /* \"#utility.yul\":17947:17951   */\n      dup2\n        /* \"#utility.yul\":17938:17944   */\n      dup5\n        /* \"#utility.yul\":17847:17952   */\n      tag_181\n      jump\t// in\n    tag_359:\n        /* \"#utility.yul\":17839:17952   */\n      swap1\n      pop\n        /* \"#utility.yul\":17999:18008   */\n      dup2\n        /* \"#utility.yul\":17993:17997   */\n      dup2\n        /* \"#utility.yul\":17989:18009   */\n      sub\n        /* \"#utility.yul\":17984:17986   */\n      0x20\n        /* \"#utility.yul\":17973:17982   */\n      dup4\n        /* \"#utility.yul\":17969:17987   */\n      add\n        /* \"#utility.yul\":17962:18010   */\n      mstore\n        /* \"#utility.yul\":18027:18158   */\n      tag_360\n        /* \"#utility.yul\":18153:18157   */\n      dup2\n        /* \"#utility.yul\":18027:18158   */\n      tag_192\n      jump\t// in\n    tag_360:\n        /* \"#utility.yul\":18019:18158   */\n      swap1\n      pop\n        /* \"#utility.yul\":17491:18165   */\n      swap3\n      swap2\n      pop\n      pop\n      jump\t// out\n\n    auxdata: 0xa2646970667358221220f947d4ae26222dedadc320722e5f7184b5a4043c62d417fa66fa0b8d2bd2090464736f6c63430008160033\n}\n",
				"bytecode": {
					"linkReferences": {},
					"object": "608060405234801561000f575f80fd5b505f33908060018154018082558091505060019003905f5260205f20015f9091909190916101000a81548173ffffffffffffffffffffffffffffffffffffffff021916908373ffffffffffffffffffffffffffffffffffffffff16021790555061132f8061007c5f395ff3fe608060405234801561000f575f80fd5b5060043610610055575f3560e01c806314bfd6d0146100595780633ca00ed214610089578063843eedee146100a55780638794b69d146100c1578063e13e95eb146100df575b5f80fd5b610073600480360381019061006e9190610a58565b6100fb565b6040516100809190610ac2565b60405180910390f35b6100a3600480360381019061009e9190610c55565b610135565b005b6100bf60048036038101906100ba9190610d5c565b6103c0565b005b6100c961068e565b6040516100d69190610e5a565b60405180910390f35b6100f960048036038101906100f49190610c55565b610718565b005b5f8181548110610109575f80fd5b905f5260205f20015f915054906101000a900473ffffffffffffffffffffffffffffffffffffffff1681565b5f805b5f805490508110156101c7575f818154811061015757610156610e7a565b5b905f5260205f20015f9054906101000a900473ffffffffffffffffffffffffffffffffffffffff1673ffffffffffffffffffffffffffffffffffffffff163373ffffffffffffffffffffffffffffffffffffffff16036101ba57600191506101c7565b8080600101915050610138565b5080610208576040517f08c379a00000000000000000000000000000000000000000000000000000000081526004016101ff90610f27565b60405180910390fd5b5f5b82518110156103bb575f805b5f805490508110156102f6575f818154811061023557610234610e7a565b5b905f5260205f20015f9054906101000a900473ffffffffffffffffffffffffffffffffffffffff1673ffffffffffffffffffffffffffffffffffffffff1685848151811061028657610285610e7a565b5b602002602001015173ffffffffffffffffffffffffffffffffffffffff16036102e957600191507f7d2b11152d2c5ceedf90177a6964c7010cc73960d2b00b63779b8718322e08235f6040516102dc919061106f565b60405180910390a16102f6565b8080600101915050610216565b50806103ad575f8483815181106103105761030f610e7a565b5b6020026020010151908060018154018082558091505060019003905f5260205f20015f9091909190916101000a81548173ffffffffffffffffffffffffffffffffffffffff021916908373ffffffffffffffffffffffffffffffffffffffff1602179055507f7d2b11152d2c5ceedf90177a6964c7010cc73960d2b00b63779b8718322e08235f6040516103a491906110ec565b60405180910390a15b50808060010191505061020a565b505050565b5f805b5f80549050811015610452575f81815481106103e2576103e1610e7a565b5b905f5260205f20015f9054906101000a900473ffffffffffffffffffffffffffffffffffffffff1673ffffffffffffffffffffffffffffffffffffffff163373ffffffffffffffffffffffffffffffffffffffff16036104455760019150610452565b80806001019150506103c3565b5080610493576040517f08c379a000000000000000000000000000000000000000000000000000000000815260040161048a90610f27565b60405180910390fd5b60015f80549050116104da576040517f08c379a00000000000000000000000000000000000000000000000000000000081526004016104d190611169565b60405180910390fd5b5f5b8251811015610652575f805490508382815181106104fd576104fc610e7a565b5b602002602001015110610545576040517f08c379a000000000000000000000000000000000000000000000000000000000815260040161053c906111d1565b60405180910390fd5b5f60015f80549050610557919061121c565b8154811061056857610567610e7a565b5b905f5260205f20015f9054906101000a900473ffffffffffffffffffffffffffffffffffffffff165f8483815181106105a4576105a3610e7a565b5b6020026020010151815481106105bd576105bc610e7a565b5b905f5260205f20015f6101000a81548173ffffffffffffffffffffffffffffffffffffffff021916908373ffffffffffffffffffffffffffffffffffffffff1602179055505f8054806106135761061261124f565b5b600190038181905f5260205f20015f6101000a81549073ffffffffffffffffffffffffffffffffffffffff0219169055905580806001019150506104dc565b507f7d2b11152d2c5ceedf90177a6964c7010cc73960d2b00b63779b8718322e08235f60405161068291906112c6565b60405180910390a15050565b60605f80548060200260200160405190810160405280929190818152602001828054801561070e57602002820191905f5260205f20905b815f9054906101000a900473ffffffffffffffffffffffffffffffffffffffff1673ffffffffffffffffffffffffffffffffffffffff16815260200190600101908083116106c5575b5050505050905090565b5f805b5f805490508110156107aa575f818154811061073a57610739610e7a565b5b905f5260205f20015f9054906101000a900473ffffffffffffffffffffffffffffffffffffffff1673ffffffffffffffffffffffffffffffffffffffff163373ffffffffffffffffffffffffffffffffffffffff160361079d57600191506107aa565b808060010191505061071b565b50806107eb576040517f08c379a00000000000000000000000000000000000000000000000000000000081526004016107e290610f27565b60405180910390fd5b60015f8054905011610832576040517f08c379a000000000000000000000000000000000000000000000000000000000815260040161082990611169565b60405180910390fd5b5f5b82518110156109d8575f5b5f805490508110156109ca575f818154811061085e5761085d610e7a565b5b905f5260205f20015f9054906101000a900473ffffffffffffffffffffffffffffffffffffffff1673ffffffffffffffffffffffffffffffffffffffff168483815181106108af576108ae610e7a565b5b602002602001015173ffffffffffffffffffffffffffffffffffffffff16036109bd575f60015f805490506108e4919061121c565b815481106108f5576108f4610e7a565b5b905f5260205f20015f9054906101000a900473ffffffffffffffffffffffffffffffffffffffff165f82815481106109305761092f610e7a565b5b905f5260205f20015f6101000a81548173ffffffffffffffffffffffffffffffffffffffff021916908373ffffffffffffffffffffffffffffffffffffffff1602179055505f8054806109865761098561124f565b5b600190038181905f5260205f20015f6101000a81549073ffffffffffffffffffffffffffffffffffffffff021916905590556109ca565b808060010191505061083f565b508080600101915050610834565b507f7d2b11152d2c5ceedf90177a6964c7010cc73960d2b00b63779b8718322e08235f604051610a0891906112c6565b60405180910390a15050565b5f604051905090565b5f80fd5b5f80fd5b5f819050919050565b610a3781610a25565b8114610a41575f80fd5b50565b5f81359050610a5281610a2e565b92915050565b5f60208284031215610a6d57610a6c610a1d565b5b5f610a7a84828501610a44565b91505092915050565b5f73ffffffffffffffffffffffffffffffffffffffff82169050919050565b5f610aac82610a83565b9050919050565b610abc81610aa2565b82525050565b5f602082019050610ad55f830184610ab3565b92915050565b5f80fd5b5f601f19601f8301169050919050565b7f4e487b71000000000000000000000000000000000000000000000000000000005f52604160045260245ffd5b610b2582610adf565b810181811067ffffffffffffffff82111715610b4457610b43610aef565b5b80604052505050565b5f610b56610a14565b9050610b628282610b1c565b919050565b5f67ffffffffffffffff821115610b8157610b80610aef565b5b602082029050602081019050919050565b5f80fd5b610b9f81610aa2565b8114610ba9575f80fd5b50565b5f81359050610bba81610b96565b92915050565b5f610bd2610bcd84610b67565b610b4d565b90508083825260208201905060208402830185811115610bf557610bf4610b92565b5b835b81811015610c1e5780610c0a8882610bac565b845260208401935050602081019050610bf7565b5050509392505050565b5f82601f830112610c3c57610c3b610adb565b5b8135610c4c848260208601610bc0565b91505092915050565b5f60208284031215610c6a57610c69610a1d565b5b5f82013567ffffffffffffffff811115610c8757610c86610a21565b5b610c9384828501610c28565b91505092915050565b5f67ffffffffffffffff821115610cb657610cb5610aef565b5b602082029050602081019050919050565b5f610cd9610cd484610c9c565b610b4d565b90508083825260208201905060208402830185811115610cfc57610cfb610b92565b5b835b81811015610d255780610d118882610a44565b845260208401935050602081019050610cfe565b5050509392505050565b5f82601f830112610d4357610d42610adb565b5b8135610d53848260208601610cc7565b91505092915050565b5f60208284031215610d7157610d70610a1d565b5b5f82013567ffffffffffffffff811115610d8e57610d8d610a21565b5b610d9a84828501610d2f565b91505092915050565b5f81519050919050565b5f82825260208201905092915050565b5f819050602082019050919050565b610dd581610aa2565b82525050565b5f610de68383610dcc565b60208301905092915050565b5f602082019050919050565b5f610e0882610da3565b610e128185610dad565b9350610e1d83610dbd565b805f5b83811015610e4d578151610e348882610ddb565b9750610e3f83610df2565b925050600181019050610e20565b5085935050505092915050565b5f6020820190508181035f830152610e728184610dfe565b905092915050565b7f4e487b71000000000000000000000000000000000000000000000000000000005f52603260045260245ffd5b5f82825260208201905092915050565b7f4f6e6c792061646d696e732063616e2063616c6c20746869732066756e6374695f8201527f6f6e000000000000000000000000000000000000000000000000000000000000602082015250565b5f610f11602283610ea7565b9150610f1c82610eb7565b604082019050919050565b5f6020820190508181035f830152610f3e81610f05565b9050919050565b5f81549050919050565b5f819050815f5260205f209050919050565b5f815f1c9050919050565b5f73ffffffffffffffffffffffffffffffffffffffff82169050919050565b5f610f9d610f9883610f61565b610f6c565b9050919050565b5f610faf8254610f8b565b9050919050565b5f600182019050919050565b5f610fcc82610f45565b610fd68185610dad565b9350610fe183610f4f565b805f5b8381101561101857610ff582610fa4565b610fff8882610ddb565b975061100a83610fb6565b925050600181019050610fe4565b5085935050505092915050565b7f41646d696e7320616c72656164792065786973740000000000000000000000005f82015250565b5f611059601483610ea7565b915061106482611025565b602082019050919050565b5f6040820190508181035f8301526110878184610fc2565b9050818103602083015261109a8161104d565b905092915050565b7f41646d696e7320616464656400000000000000000000000000000000000000005f82015250565b5f6110d6600c83610ea7565b91506110e1826110a2565b602082019050919050565b5f6040820190508181035f8301526111048184610fc2565b90508181036020830152611117816110ca565b905092915050565b7f43616e6e6f742072656d6f766520746865206c6173742061646d696e000000005f82015250565b5f611153601c83610ea7565b915061115e8261111f565b602082019050919050565b5f6020820190508181035f83015261118081611147565b9050919050565b7f496e646578206f7574206f662072616e676500000000000000000000000000005f82015250565b5f6111bb601283610ea7565b91506111c682611187565b602082019050919050565b5f6020820190508181035f8301526111e8816111af565b9050919050565b7f4e487b71000000000000000000000000000000000000000000000000000000005f52601160045260245ffd5b5f61122682610a25565b915061123183610a25565b9250828203905081811115611249576112486111ef565b5b92915050565b7f4e487b71000000000000000000000000000000000000000000000000000000005f52603160045260245ffd5b7f41646d696e732072656d6f7665640000000000000000000000000000000000005f82015250565b5f6112b0600e83610ea7565b91506112bb8261127c565b602082019050919050565b5f6040820190508181035f8301526112de8184610fc2565b905081810360208301526112f1816112a4565b90509291505056fea2646970667358221220f947d4ae26222dedadc320722e5f7184b5a4043c62d417fa66fa0b8d2bd2090464736f6c63430008160033",
					"opcodes": "PUSH1 0x80 PUSH1 0x40 MSTORE CALLVALUE DUP1 ISZERO PUSH2 0xF JUMPI PUSH0 DUP1 REVERT JUMPDEST POP PUSH0 CALLER SWAP1 DUP1 PUSH1 0x1 DUP2 SLOAD ADD DUP1 DUP3 SSTORE DUP1 SWAP2 POP POP PUSH1 0x1 SWAP1 SUB SWAP1 PUSH0 MSTORE PUSH1 0x20 PUSH0 KECCAK256 ADD PUSH0 SWAP1 SWAP2 SWAP1 SWAP2 SWAP1 SWAP2 PUSH2 0x100 EXP DUP2 SLOAD DUP2 PUSH20 0xFFFFFFFFFFFFFFFFFFFFFFFFFFFFFFFFFFFFFFFF MUL NOT AND SWAP1 DUP4 PUSH20 0xFFFFFFFFFFFFFFFFFFFFFFFFFFFFFFFFFFFFFFFF AND MUL OR SWAP1 SSTORE POP PUSH2 0x132F DUP1 PUSH2 0x7C PUSH0 CODECOPY PUSH0 RETURN INVALID PUSH1 0x80 PUSH1 0x40 MSTORE CALLVALUE DUP1 ISZERO PUSH2 0xF JUMPI PUSH0 DUP1 REVERT JUMPDEST POP PUSH1 0x4 CALLDATASIZE LT PUSH2 0x55 JUMPI PUSH0 CALLDATALOAD PUSH1 0xE0 SHR DUP1 PUSH4 0x14BFD6D0 EQ PUSH2 0x59 JUMPI DUP1 PUSH4 0x3CA00ED2 EQ PUSH2 0x89 JUMPI DUP1 PUSH4 0x843EEDEE EQ PUSH2 0xA5 JUMPI DUP1 PUSH4 0x8794B69D EQ PUSH2 0xC1 JUMPI DUP1 PUSH4 0xE13E95EB EQ PUSH2 0xDF JUMPI JUMPDEST PUSH0 DUP1 REVERT JUMPDEST PUSH2 0x73 PUSH1 0x4 DUP1 CALLDATASIZE SUB DUP2 ADD SWAP1 PUSH2 0x6E SWAP2 SWAP1 PUSH2 0xA58 JUMP JUMPDEST PUSH2 0xFB JUMP JUMPDEST PUSH1 0x40 MLOAD PUSH2 0x80 SWAP2 SWAP1 PUSH2 0xAC2 JUMP JUMPDEST PUSH1 0x40 MLOAD DUP1 SWAP2 SUB SWAP1 RETURN JUMPDEST PUSH2 0xA3 PUSH1 0x4 DUP1 CALLDATASIZE SUB DUP2 ADD SWAP1 PUSH2 0x9E SWAP2 SWAP1 PUSH2 0xC55 JUMP JUMPDEST PUSH2 0x135 JUMP JUMPDEST STOP JUMPDEST PUSH2 0xBF PUSH1 0x4 DUP1 CALLDATASIZE SUB DUP2 ADD SWAP1 PUSH2 0xBA SWAP2 SWAP1 PUSH2 0xD5C JUMP JUMPDEST PUSH2 0x3C0 JUMP JUMPDEST STOP JUMPDEST PUSH2 0xC9 PUSH2 0x68E JUMP JUMPDEST PUSH1 0x40 MLOAD PUSH2 0xD6 SWAP2 SWAP1 PUSH2 0xE5A JUMP JUMPDEST PUSH1 0x40 MLOAD DUP1 SWAP2 SUB SWAP1 RETURN JUMPDEST PUSH2 0xF9 PUSH1 0x4 DUP1 CALLDATASIZE SUB DUP2 ADD SWAP1 PUSH2 0xF4 SWAP2 SWAP1 PUSH2 0xC55 JUMP JUMPDEST PUSH2 0x718 JUMP JUMPDEST STOP JUMPDEST PUSH0 DUP2 DUP2 SLOAD DUP2 LT PUSH2 0x109 JUMPI PUSH0 DUP1 REVERT JUMPDEST SWAP1 PUSH0 MSTORE PUSH1 0x20 PUSH0 KECCAK256 ADD PUSH0 SWAP2 POP SLOAD SWAP1 PUSH2 0x100 EXP SWAP1 DIV PUSH20 0xFFFFFFFFFFFFFFFFFFFFFFFFFFFFFFFFFFFFFFFF AND DUP2 JUMP JUMPDEST PUSH0 DUP1 JUMPDEST PUSH0 DUP1 SLOAD SWAP1 POP DUP2 LT ISZERO PUSH2 0x1C7 JUMPI PUSH0 DUP2 DUP2 SLOAD DUP2 LT PUSH2 0x157 JUMPI PUSH2 0x156 PUSH2 0xE7A JUMP JUMPDEST JUMPDEST SWAP1 PUSH0 MSTORE PUSH1 0x20 PUSH0 KECCAK256 ADD PUSH0 SWAP1 SLOAD SWAP1 PUSH2 0x100 EXP SWAP1 DIV PUSH20 0xFFFFFFFFFFFFFFFFFFFFFFFFFFFFFFFFFFFFFFFF AND PUSH20 0xFFFFFFFFFFFFFFFFFFFFFFFFFFFFFFFFFFFFFFFF AND CALLER PUSH20 0xFFFFFFFFFFFFFFFFFFFFFFFFFFFFFFFFFFFFFFFF AND SUB PUSH2 0x1BA JUMPI PUSH1 0x1 SWAP2 POP PUSH2 0x1C7 JUMP JUMPDEST DUP1 DUP1 PUSH1 0x1 ADD SWAP2 POP POP PUSH2 0x138 JUMP JUMPDEST POP DUP1 PUSH2 0x208 JUMPI PUSH1 0x40 MLOAD PUSH32 0x8C379A000000000000000000000000000000000000000000000000000000000 DUP2 MSTORE PUSH1 0x4 ADD PUSH2 0x1FF SWAP1 PUSH2 0xF27 JUMP JUMPDEST PUSH1 0x40 MLOAD DUP1 SWAP2 SUB SWAP1 REVERT JUMPDEST PUSH0 JUMPDEST DUP3 MLOAD DUP2 LT ISZERO PUSH2 0x3BB JUMPI PUSH0 DUP1 JUMPDEST PUSH0 DUP1 SLOAD SWAP1 POP DUP2 LT ISZERO PUSH2 0x2F6 JUMPI PUSH0 DUP2 DUP2 SLOAD DUP2 LT PUSH2 0x235 JUMPI PUSH2 0x234 PUSH2 0xE7A JUMP JUMPDEST JUMPDEST SWAP1 PUSH0 MSTORE PUSH1 0x20 PUSH0 KECCAK256 ADD PUSH0 SWAP1 SLOAD SWAP1 PUSH2 0x100 EXP SWAP1 DIV PUSH20 0xFFFFFFFFFFFFFFFFFFFFFFFFFFFFFFFFFFFFFFFF AND PUSH20 0xFFFFFFFFFFFFFFFFFFFFFFFFFFFFFFFFFFFFFFFF AND DUP6 DUP5 DUP2 MLOAD DUP2 LT PUSH2 0x286 JUMPI PUSH2 0x285 PUSH2 0xE7A JUMP JUMPDEST JUMPDEST PUSH1 0x20 MUL PUSH1 0x20 ADD ADD MLOAD PUSH20 0xFFFFFFFFFFFFFFFFFFFFFFFFFFFFFFFFFFFFFFFF AND SUB PUSH2 0x2E9 JUMPI PUSH1 0x1 SWAP2 POP PUSH32 0x7D2B11152D2C5CEEDF90177A6964C7010CC73960D2B00B63779B8718322E0823 PUSH0 PUSH1 0x40 MLOAD PUSH2 0x2DC SWAP2 SWAP1 PUSH2 0x106F JUMP JUMPDEST PUSH1 0x40 MLOAD DUP1 SWAP2 SUB SWAP1 LOG1 PUSH2 0x2F6 JUMP JUMPDEST DUP1 DUP1 PUSH1 0x1 ADD SWAP2 POP POP PUSH2 0x216 JUMP JUMPDEST POP DUP1 PUSH2 0x3AD JUMPI PUSH0 DUP5 DUP4 DUP2 MLOAD DUP2 LT PUSH2 0x310 JUMPI PUSH2 0x30F PUSH2 0xE7A JUMP JUMPDEST JUMPDEST PUSH1 0x20 MUL PUSH1 0x20 ADD ADD MLOAD SWAP1 DUP1 PUSH1 0x1 DUP2 SLOAD ADD DUP1 DUP3 SSTORE DUP1 SWAP2 POP POP PUSH1 0x1 SWAP1 SUB SWAP1 PUSH0 MSTORE PUSH1 0x20 PUSH0 KECCAK256 ADD PUSH0 SWAP1 SWAP2 SWAP1 SWAP2 SWAP1 SWAP2 PUSH2 0x100 EXP DUP2 SLOAD DUP2 PUSH20 0xFFFFFFFFFFFFFFFFFFFFFFFFFFFFFFFFFFFFFFFF MUL NOT AND SWAP1 DUP4 PUSH20 0xFFFFFFFFFFFFFFFFFFFFFFFFFFFFFFFFFFFFFFFF AND MUL OR SWAP1 SSTORE POP PUSH32 0x7D2B11152D2C5CEEDF90177A6964C7010CC73960D2B00B63779B8718322E0823 PUSH0 PUSH1 0x40 MLOAD PUSH2 0x3A4 SWAP2 SWAP1 PUSH2 0x10EC JUMP JUMPDEST PUSH1 0x40 MLOAD DUP1 SWAP2 SUB SWAP1 LOG1 JUMPDEST POP DUP1 DUP1 PUSH1 0x1 ADD SWAP2 POP POP PUSH2 0x20A JUMP JUMPDEST POP POP POP JUMP JUMPDEST PUSH0 DUP1 JUMPDEST PUSH0 DUP1 SLOAD SWAP1 POP DUP2 LT ISZERO PUSH2 0x452 JUMPI PUSH0 DUP2 DUP2 SLOAD DUP2 LT PUSH2 0x3E2 JUMPI PUSH2 0x3E1 PUSH2 0xE7A JUMP JUMPDEST JUMPDEST SWAP1 PUSH0 MSTORE PUSH1 0x20 PUSH0 KECCAK256 ADD PUSH0 SWAP1 SLOAD SWAP1 PUSH2 0x100 EXP SWAP1 DIV PUSH20 0xFFFFFFFFFFFFFFFFFFFFFFFFFFFFFFFFFFFFFFFF AND PUSH20 0xFFFFFFFFFFFFFFFFFFFFFFFFFFFFFFFFFFFFFFFF AND CALLER PUSH20 0xFFFFFFFFFFFFFFFFFFFFFFFFFFFFFFFFFFFFFFFF AND SUB PUSH2 0x445 JUMPI PUSH1 0x1 SWAP2 POP PUSH2 0x452 JUMP JUMPDEST DUP1 DUP1 PUSH1 0x1 ADD SWAP2 POP POP PUSH2 0x3C3 JUMP JUMPDEST POP DUP1 PUSH2 0x493 JUMPI PUSH1 0x40 MLOAD PUSH32 0x8C379A000000000000000000000000000000000000000000000000000000000 DUP2 MSTORE PUSH1 0x4 ADD PUSH2 0x48A SWAP1 PUSH2 0xF27 JUMP JUMPDEST PUSH1 0x40 MLOAD DUP1 SWAP2 SUB SWAP1 REVERT JUMPDEST PUSH1 0x1 PUSH0 DUP1 SLOAD SWAP1 POP GT PUSH2 0x4DA JUMPI PUSH1 0x40 MLOAD PUSH32 0x8C379A000000000000000000000000000000000000000000000000000000000 DUP2 MSTORE PUSH1 0x4 ADD PUSH2 0x4D1 SWAP1 PUSH2 0x1169 JUMP JUMPDEST PUSH1 0x40 MLOAD DUP1 SWAP2 SUB SWAP1 REVERT JUMPDEST PUSH0 JUMPDEST DUP3 MLOAD DUP2 LT ISZERO PUSH2 0x652 JUMPI PUSH0 DUP1 SLOAD SWAP1 POP DUP4 DUP3 DUP2 MLOAD DUP2 LT PUSH2 0x4FD JUMPI PUSH2 0x4FC PUSH2 0xE7A JUMP JUMPDEST JUMPDEST PUSH1 0x20 MUL PUSH1 0x20 ADD ADD MLOAD LT PUSH2 0x545 JUMPI PUSH1 0x40 MLOAD PUSH32 0x8C379A000000000000000000000000000000000000000000000000000000000 DUP2 MSTORE PUSH1 0x4 ADD PUSH2 0x53C SWAP1 PUSH2 0x11D1 JUMP JUMPDEST PUSH1 0x40 MLOAD DUP1 SWAP2 SUB SWAP1 REVERT JUMPDEST PUSH0 PUSH1 0x1 PUSH0 DUP1 SLOAD SWAP1 POP PUSH2 0x557 SWAP2 SWAP1 PUSH2 0x121C JUMP JUMPDEST DUP2 SLOAD DUP2 LT PUSH2 0x568 JUMPI PUSH2 0x567 PUSH2 0xE7A JUMP JUMPDEST JUMPDEST SWAP1 PUSH0 MSTORE PUSH1 0x20 PUSH0 KECCAK256 ADD PUSH0 SWAP1 SLOAD SWAP1 PUSH2 0x100 EXP SWAP1 DIV PUSH20 0xFFFFFFFFFFFFFFFFFFFFFFFFFFFFFFFFFFFFFFFF AND PUSH0 DUP5 DUP4 DUP2 MLOAD DUP2 LT PUSH2 0x5A4 JUMPI PUSH2 0x5A3 PUSH2 0xE7A JUMP JUMPDEST JUMPDEST PUSH1 0x20 MUL PUSH1 0x20 ADD ADD MLOAD DUP2 SLOAD DUP2 LT PUSH2 0x5BD JUMPI PUSH2 0x5BC PUSH2 0xE7A JUMP JUMPDEST JUMPDEST SWAP1 PUSH0 MSTORE PUSH1 0x20 PUSH0 KECCAK256 ADD PUSH0 PUSH2 0x100 EXP DUP2 SLOAD DUP2 PUSH20 0xFFFFFFFFFFFFFFFFFFFFFFFFFFFFFFFFFFFFFFFF MUL NOT AND SWAP1 DUP4 PUSH20 0xFFFFFFFFFFFFFFFFFFFFFFFFFFFFFFFFFFFFFFFF AND MUL OR SWAP1 SSTORE POP PUSH0 DUP1 SLOAD DUP1 PUSH2 0x613 JUMPI PUSH2 0x612 PUSH2 0x124F JUMP JUMPDEST JUMPDEST PUSH1 0x1 SWAP1 SUB DUP2 DUP2 SWAP1 PUSH0 MSTORE PUSH1 0x20 PUSH0 KECCAK256 ADD PUSH0 PUSH2 0x100 EXP DUP2 SLOAD SWAP1 PUSH20 0xFFFFFFFFFFFFFFFFFFFFFFFFFFFFFFFFFFFFFFFF MUL NOT AND SWAP1 SSTORE SWAP1 SSTORE DUP1 DUP1 PUSH1 0x1 ADD SWAP2 POP POP PUSH2 0x4DC JUMP JUMPDEST POP PUSH32 0x7D2B11152D2C5CEEDF90177A6964C7010CC73960D2B00B63779B8718322E0823 PUSH0 PUSH1 0x40 MLOAD PUSH2 0x682 SWAP2 SWAP1 PUSH2 0x12C6 JUMP JUMPDEST PUSH1 0x40 MLOAD DUP1 SWAP2 SUB SWAP1 LOG1 POP POP JUMP JUMPDEST PUSH1 0x60 PUSH0 DUP1 SLOAD DUP1 PUSH1 0x20 MUL PUSH1 0x20 ADD PUSH1 0x40 MLOAD SWAP1 DUP2 ADD PUSH1 0x40 MSTORE DUP1 SWAP3 SWAP2 SWAP1 DUP2 DUP2 MSTORE PUSH1 0x20 ADD DUP3 DUP1 SLOAD DUP1 ISZERO PUSH2 0x70E JUMPI PUSH1 0x20 MUL DUP3 ADD SWAP2 SWAP1 PUSH0 MSTORE PUSH1 0x20 PUSH0 KECCAK256 SWAP1 JUMPDEST DUP2 PUSH0 SWAP1 SLOAD SWAP1 PUSH2 0x100 EXP SWAP1 DIV PUSH20 0xFFFFFFFFFFFFFFFFFFFFFFFFFFFFFFFFFFFFFFFF AND PUSH20 0xFFFFFFFFFFFFFFFFFFFFFFFFFFFFFFFFFFFFFFFF AND DUP2 MSTORE PUSH1 0x20 ADD SWAP1 PUSH1 0x1 ADD SWAP1 DUP1 DUP4 GT PUSH2 0x6C5 JUMPI JUMPDEST POP POP POP POP POP SWAP1 POP SWAP1 JUMP JUMPDEST PUSH0 DUP1 JUMPDEST PUSH0 DUP1 SLOAD SWAP1 POP DUP2 LT ISZERO PUSH2 0x7AA JUMPI PUSH0 DUP2 DUP2 SLOAD DUP2 LT PUSH2 0x73A JUMPI PUSH2 0x739 PUSH2 0xE7A JUMP JUMPDEST JUMPDEST SWAP1 PUSH0 MSTORE PUSH1 0x20 PUSH0 KECCAK256 ADD PUSH0 SWAP1 SLOAD SWAP1 PUSH2 0x100 EXP SWAP1 DIV PUSH20 0xFFFFFFFFFFFFFFFFFFFFFFFFFFFFFFFFFFFFFFFF AND PUSH20 0xFFFFFFFFFFFFFFFFFFFFFFFFFFFFFFFFFFFFFFFF AND CALLER PUSH20 0xFFFFFFFFFFFFFFFFFFFFFFFFFFFFFFFFFFFFFFFF AND SUB PUSH2 0x79D JUMPI PUSH1 0x1 SWAP2 POP PUSH2 0x7AA JUMP JUMPDEST DUP1 DUP1 PUSH1 0x1 ADD SWAP2 POP POP PUSH2 0x71B JUMP JUMPDEST POP DUP1 PUSH2 0x7EB JUMPI PUSH1 0x40 MLOAD PUSH32 0x8C379A000000000000000000000000000000000000000000000000000000000 DUP2 MSTORE PUSH1 0x4 ADD PUSH2 0x7E2 SWAP1 PUSH2 0xF27 JUMP JUMPDEST PUSH1 0x40 MLOAD DUP1 SWAP2 SUB SWAP1 REVERT JUMPDEST PUSH1 0x1 PUSH0 DUP1 SLOAD SWAP1 POP GT PUSH2 0x832 JUMPI PUSH1 0x40 MLOAD PUSH32 0x8C379A000000000000000000000000000000000000000000000000000000000 DUP2 MSTORE PUSH1 0x4 ADD PUSH2 0x829 SWAP1 PUSH2 0x1169 JUMP JUMPDEST PUSH1 0x40 MLOAD DUP1 SWAP2 SUB SWAP1 REVERT JUMPDEST PUSH0 JUMPDEST DUP3 MLOAD DUP2 LT ISZERO PUSH2 0x9D8 JUMPI PUSH0 JUMPDEST PUSH0 DUP1 SLOAD SWAP1 POP DUP2 LT ISZERO PUSH2 0x9CA JUMPI PUSH0 DUP2 DUP2 SLOAD DUP2 LT PUSH2 0x85E JUMPI PUSH2 0x85D PUSH2 0xE7A JUMP JUMPDEST JUMPDEST SWAP1 PUSH0 MSTORE PUSH1 0x20 PUSH0 KECCAK256 ADD PUSH0 SWAP1 SLOAD SWAP1 PUSH2 0x100 EXP SWAP1 DIV PUSH20 0xFFFFFFFFFFFFFFFFFFFFFFFFFFFFFFFFFFFFFFFF AND PUSH20 0xFFFFFFFFFFFFFFFFFFFFFFFFFFFFFFFFFFFFFFFF AND DUP5 DUP4 DUP2 MLOAD DUP2 LT PUSH2 0x8AF JUMPI PUSH2 0x8AE PUSH2 0xE7A JUMP JUMPDEST JUMPDEST PUSH1 0x20 MUL PUSH1 0x20 ADD ADD MLOAD PUSH20 0xFFFFFFFFFFFFFFFFFFFFFFFFFFFFFFFFFFFFFFFF AND SUB PUSH2 0x9BD JUMPI PUSH0 PUSH1 0x1 PUSH0 DUP1 SLOAD SWAP1 POP PUSH2 0x8E4 SWAP2 SWAP1 PUSH2 0x121C JUMP JUMPDEST DUP2 SLOAD DUP2 LT PUSH2 0x8F5 JUMPI PUSH2 0x8F4 PUSH2 0xE7A JUMP JUMPDEST JUMPDEST SWAP1 PUSH0 MSTORE PUSH1 0x20 PUSH0 KECCAK256 ADD PUSH0 SWAP1 SLOAD SWAP1 PUSH2 0x100 EXP SWAP1 DIV PUSH20 0xFFFFFFFFFFFFFFFFFFFFFFFFFFFFFFFFFFFFFFFF AND PUSH0 DUP3 DUP2 SLOAD DUP2 LT PUSH2 0x930 JUMPI PUSH2 0x92F PUSH2 0xE7A JUMP JUMPDEST JUMPDEST SWAP1 PUSH0 MSTORE PUSH1 0x20 PUSH0 KECCAK256 ADD PUSH0 PUSH2 0x100 EXP DUP2 SLOAD DUP2 PUSH20 0xFFFFFFFFFFFFFFFFFFFFFFFFFFFFFFFFFFFFFFFF MUL NOT AND SWAP1 DUP4 PUSH20 0xFFFFFFFFFFFFFFFFFFFFFFFFFFFFFFFFFFFFFFFF AND MUL OR SWAP1 SSTORE POP PUSH0 DUP1 SLOAD DUP1 PUSH2 0x986 JUMPI PUSH2 0x985 PUSH2 0x124F JUMP JUMPDEST JUMPDEST PUSH1 0x1 SWAP1 SUB DUP2 DUP2 SWAP1 PUSH0 MSTORE PUSH1 0x20 PUSH0 KECCAK256 ADD PUSH0 PUSH2 0x100 EXP DUP2 SLOAD SWAP1 PUSH20 0xFFFFFFFFFFFFFFFFFFFFFFFFFFFFFFFFFFFFFFFF MUL NOT AND SWAP1 SSTORE SWAP1 SSTORE PUSH2 0x9CA JUMP JUMPDEST DUP1 DUP1 PUSH1 0x1 ADD SWAP2 POP POP PUSH2 0x83F JUMP JUMPDEST POP DUP1 DUP1 PUSH1 0x1 ADD SWAP2 POP POP PUSH2 0x834 JUMP JUMPDEST POP PUSH32 0x7D2B11152D2C5CEEDF90177A6964C7010CC73960D2B00B63779B8718322E0823 PUSH0 PUSH1 0x40 MLOAD PUSH2 0xA08 SWAP2 SWAP1 PUSH2 0x12C6 JUMP JUMPDEST PUSH1 0x40 MLOAD DUP1 SWAP2 SUB SWAP1 LOG1 POP POP JUMP JUMPDEST PUSH0 PUSH1 0x40 MLOAD SWAP1 POP SWAP1 JUMP JUMPDEST PUSH0 DUP1 REVERT JUMPDEST PUSH0 DUP1 REVERT JUMPDEST PUSH0 DUP2 SWAP1 POP SWAP2 SWAP1 POP JUMP JUMPDEST PUSH2 0xA37 DUP2 PUSH2 0xA25 JUMP JUMPDEST DUP2 EQ PUSH2 0xA41 JUMPI PUSH0 DUP1 REVERT JUMPDEST POP JUMP JUMPDEST PUSH0 DUP2 CALLDATALOAD SWAP1 POP PUSH2 0xA52 DUP2 PUSH2 0xA2E JUMP JUMPDEST SWAP3 SWAP2 POP POP JUMP JUMPDEST PUSH0 PUSH1 0x20 DUP3 DUP5 SUB SLT ISZERO PUSH2 0xA6D JUMPI PUSH2 0xA6C PUSH2 0xA1D JUMP JUMPDEST JUMPDEST PUSH0 PUSH2 0xA7A DUP5 DUP3 DUP6 ADD PUSH2 0xA44 JUMP JUMPDEST SWAP2 POP POP SWAP3 SWAP2 POP POP JUMP JUMPDEST PUSH0 PUSH20 0xFFFFFFFFFFFFFFFFFFFFFFFFFFFFFFFFFFFFFFFF DUP3 AND SWAP1 POP SWAP2 SWAP1 POP JUMP JUMPDEST PUSH0 PUSH2 0xAAC DUP3 PUSH2 0xA83 JUMP JUMPDEST SWAP1 POP SWAP2 SWAP1 POP JUMP JUMPDEST PUSH2 0xABC DUP2 PUSH2 0xAA2 JUMP JUMPDEST DUP3 MSTORE POP POP JUMP JUMPDEST PUSH0 PUSH1 0x20 DUP3 ADD SWAP1 POP PUSH2 0xAD5 PUSH0 DUP4 ADD DUP5 PUSH2 0xAB3 JUMP JUMPDEST SWAP3 SWAP2 POP POP JUMP JUMPDEST PUSH0 DUP1 REVERT JUMPDEST PUSH0 PUSH1 0x1F NOT PUSH1 0x1F DUP4 ADD AND SWAP1 POP SWAP2 SWAP1 POP JUMP JUMPDEST PUSH32 0x4E487B7100000000000000000000000000000000000000000000000000000000 PUSH0 MSTORE PUSH1 0x41 PUSH1 0x4 MSTORE PUSH1 0x24 PUSH0 REVERT JUMPDEST PUSH2 0xB25 DUP3 PUSH2 0xADF JUMP JUMPDEST DUP2 ADD DUP2 DUP2 LT PUSH8 0xFFFFFFFFFFFFFFFF DUP3 GT OR ISZERO PUSH2 0xB44 JUMPI PUSH2 0xB43 PUSH2 0xAEF JUMP JUMPDEST JUMPDEST DUP1 PUSH1 0x40 MSTORE POP POP POP JUMP JUMPDEST PUSH0 PUSH2 0xB56 PUSH2 0xA14 JUMP JUMPDEST SWAP1 POP PUSH2 0xB62 DUP3 DUP3 PUSH2 0xB1C JUMP JUMPDEST SWAP2 SWAP1 POP JUMP JUMPDEST PUSH0 PUSH8 0xFFFFFFFFFFFFFFFF DUP3 GT ISZERO PUSH2 0xB81 JUMPI PUSH2 0xB80 PUSH2 0xAEF JUMP JUMPDEST JUMPDEST PUSH1 0x20 DUP3 MUL SWAP1 POP PUSH1 0x20 DUP2 ADD SWAP1 POP SWAP2 SWAP1 POP JUMP JUMPDEST PUSH0 DUP1 REVERT JUMPDEST PUSH2 0xB9F DUP2 PUSH2 0xAA2 JUMP JUMPDEST DUP2 EQ PUSH2 0xBA9 JUMPI PUSH0 DUP1 REVERT JUMPDEST POP JUMP JUMPDEST PUSH0 DUP2 CALLDATALOAD SWAP1 POP PUSH2 0xBBA DUP2 PUSH2 0xB96 JUMP JUMPDEST SWAP3 SWAP2 POP POP JUMP JUMPDEST PUSH0 PUSH2 0xBD2 PUSH2 0xBCD DUP5 PUSH2 0xB67 JUMP JUMPDEST PUSH2 0xB4D JUMP JUMPDEST SWAP1 POP DUP1 DUP4 DUP3 MSTORE PUSH1 0x20 DUP3 ADD SWAP1 POP PUSH1 0x20 DUP5 MUL DUP4 ADD DUP6 DUP2 GT ISZERO PUSH2 0xBF5 JUMPI PUSH2 0xBF4 PUSH2 0xB92 JUMP JUMPDEST JUMPDEST DUP4 JUMPDEST DUP2 DUP2 LT ISZERO PUSH2 0xC1E JUMPI DUP1 PUSH2 0xC0A DUP9 DUP3 PUSH2 0xBAC JUMP JUMPDEST DUP5 MSTORE PUSH1 0x20 DUP5 ADD SWAP4 POP POP PUSH1 0x20 DUP2 ADD SWAP1 POP PUSH2 0xBF7 JUMP JUMPDEST POP POP POP SWAP4 SWAP3 POP POP POP JUMP JUMPDEST PUSH0 DUP3 PUSH1 0x1F DUP4 ADD SLT PUSH2 0xC3C JUMPI PUSH2 0xC3B PUSH2 0xADB JUMP JUMPDEST JUMPDEST DUP2 CALLDATALOAD PUSH2 0xC4C DUP5 DUP3 PUSH1 0x20 DUP7 ADD PUSH2 0xBC0 JUMP JUMPDEST SWAP2 POP POP SWAP3 SWAP2 POP POP JUMP JUMPDEST PUSH0 PUSH1 0x20 DUP3 DUP5 SUB SLT ISZERO PUSH2 0xC6A JUMPI PUSH2 0xC69 PUSH2 0xA1D JUMP JUMPDEST JUMPDEST PUSH0 DUP3 ADD CALLDATALOAD PUSH8 0xFFFFFFFFFFFFFFFF DUP2 GT ISZERO PUSH2 0xC87 JUMPI PUSH2 0xC86 PUSH2 0xA21 JUMP JUMPDEST JUMPDEST PUSH2 0xC93 DUP5 DUP3 DUP6 ADD PUSH2 0xC28 JUMP JUMPDEST SWAP2 POP POP SWAP3 SWAP2 POP POP JUMP JUMPDEST PUSH0 PUSH8 0xFFFFFFFFFFFFFFFF DUP3 GT ISZERO PUSH2 0xCB6 JUMPI PUSH2 0xCB5 PUSH2 0xAEF JUMP JUMPDEST JUMPDEST PUSH1 0x20 DUP3 MUL SWAP1 POP PUSH1 0x20 DUP2 ADD SWAP1 POP SWAP2 SWAP1 POP JUMP JUMPDEST PUSH0 PUSH2 0xCD9 PUSH2 0xCD4 DUP5 PUSH2 0xC9C JUMP JUMPDEST PUSH2 0xB4D JUMP JUMPDEST SWAP1 POP DUP1 DUP4 DUP3 MSTORE PUSH1 0x20 DUP3 ADD SWAP1 POP PUSH1 0x20 DUP5 MUL DUP4 ADD DUP6 DUP2 GT ISZERO PUSH2 0xCFC JUMPI PUSH2 0xCFB PUSH2 0xB92 JUMP JUMPDEST JUMPDEST DUP4 JUMPDEST DUP2 DUP2 LT ISZERO PUSH2 0xD25 JUMPI DUP1 PUSH2 0xD11 DUP9 DUP3 PUSH2 0xA44 JUMP JUMPDEST DUP5 MSTORE PUSH1 0x20 DUP5 ADD SWAP4 POP POP PUSH1 0x20 DUP2 ADD SWAP1 POP PUSH2 0xCFE JUMP JUMPDEST POP POP POP SWAP4 SWAP3 POP POP POP JUMP JUMPDEST PUSH0 DUP3 PUSH1 0x1F DUP4 ADD SLT PUSH2 0xD43 JUMPI PUSH2 0xD42 PUSH2 0xADB JUMP JUMPDEST JUMPDEST DUP2 CALLDATALOAD PUSH2 0xD53 DUP5 DUP3 PUSH1 0x20 DUP7 ADD PUSH2 0xCC7 JUMP JUMPDEST SWAP2 POP POP SWAP3 SWAP2 POP POP JUMP JUMPDEST PUSH0 PUSH1 0x20 DUP3 DUP5 SUB SLT ISZERO PUSH2 0xD71 JUMPI PUSH2 0xD70 PUSH2 0xA1D JUMP JUMPDEST JUMPDEST PUSH0 DUP3 ADD CALLDATALOAD PUSH8 0xFFFFFFFFFFFFFFFF DUP2 GT ISZERO PUSH2 0xD8E JUMPI PUSH2 0xD8D PUSH2 0xA21 JUMP JUMPDEST JUMPDEST PUSH2 0xD9A DUP5 DUP3 DUP6 ADD PUSH2 0xD2F JUMP JUMPDEST SWAP2 POP POP SWAP3 SWAP2 POP POP JUMP JUMPDEST PUSH0 DUP2 MLOAD SWAP1 POP SWAP2 SWAP1 POP JUMP JUMPDEST PUSH0 DUP3 DUP3 MSTORE PUSH1 0x20 DUP3 ADD SWAP1 POP SWAP3 SWAP2 POP POP JUMP JUMPDEST PUSH0 DUP2 SWAP1 POP PUSH1 0x20 DUP3 ADD SWAP1 POP SWAP2 SWAP1 POP JUMP JUMPDEST PUSH2 0xDD5 DUP2 PUSH2 0xAA2 JUMP JUMPDEST DUP3 MSTORE POP POP JUMP JUMPDEST PUSH0 PUSH2 0xDE6 DUP4 DUP4 PUSH2 0xDCC JUMP JUMPDEST PUSH1 0x20 DUP4 ADD SWAP1 POP SWAP3 SWAP2 POP POP JUMP JUMPDEST PUSH0 PUSH1 0x20 DUP3 ADD SWAP1 POP SWAP2 SWAP1 POP JUMP JUMPDEST PUSH0 PUSH2 0xE08 DUP3 PUSH2 0xDA3 JUMP JUMPDEST PUSH2 0xE12 DUP2 DUP6 PUSH2 0xDAD JUMP JUMPDEST SWAP4 POP PUSH2 0xE1D DUP4 PUSH2 0xDBD JUMP JUMPDEST DUP1 PUSH0 JUMPDEST DUP4 DUP2 LT ISZERO PUSH2 0xE4D JUMPI DUP2 MLOAD PUSH2 0xE34 DUP9 DUP3 PUSH2 0xDDB JUMP JUMPDEST SWAP8 POP PUSH2 0xE3F DUP4 PUSH2 0xDF2 JUMP JUMPDEST SWAP3 POP POP PUSH1 0x1 DUP2 ADD SWAP1 POP PUSH2 0xE20 JUMP JUMPDEST POP DUP6 SWAP4 POP POP POP POP SWAP3 SWAP2 POP POP JUMP JUMPDEST PUSH0 PUSH1 0x20 DUP3 ADD SWAP1 POP DUP2 DUP2 SUB PUSH0 DUP4 ADD MSTORE PUSH2 0xE72 DUP2 DUP5 PUSH2 0xDFE JUMP JUMPDEST SWAP1 POP SWAP3 SWAP2 POP POP JUMP JUMPDEST PUSH32 0x4E487B7100000000000000000000000000000000000000000000000000000000 PUSH0 MSTORE PUSH1 0x32 PUSH1 0x4 MSTORE PUSH1 0x24 PUSH0 REVERT JUMPDEST PUSH0 DUP3 DUP3 MSTORE PUSH1 0x20 DUP3 ADD SWAP1 POP SWAP3 SWAP2 POP POP JUMP JUMPDEST PUSH32 0x4F6E6C792061646D696E732063616E2063616C6C20746869732066756E637469 PUSH0 DUP3 ADD MSTORE PUSH32 0x6F6E000000000000000000000000000000000000000000000000000000000000 PUSH1 0x20 DUP3 ADD MSTORE POP JUMP JUMPDEST PUSH0 PUSH2 0xF11 PUSH1 0x22 DUP4 PUSH2 0xEA7 JUMP JUMPDEST SWAP2 POP PUSH2 0xF1C DUP3 PUSH2 0xEB7 JUMP JUMPDEST PUSH1 0x40 DUP3 ADD SWAP1 POP SWAP2 SWAP1 POP JUMP JUMPDEST PUSH0 PUSH1 0x20 DUP3 ADD SWAP1 POP DUP2 DUP2 SUB PUSH0 DUP4 ADD MSTORE PUSH2 0xF3E DUP2 PUSH2 0xF05 JUMP JUMPDEST SWAP1 POP SWAP2 SWAP1 POP JUMP JUMPDEST PUSH0 DUP2 SLOAD SWAP1 POP SWAP2 SWAP1 POP JUMP JUMPDEST PUSH0 DUP2 SWAP1 POP DUP2 PUSH0 MSTORE PUSH1 0x20 PUSH0 KECCAK256 SWAP1 POP SWAP2 SWAP1 POP JUMP JUMPDEST PUSH0 DUP2 PUSH0 SHR SWAP1 POP SWAP2 SWAP1 POP JUMP JUMPDEST PUSH0 PUSH20 0xFFFFFFFFFFFFFFFFFFFFFFFFFFFFFFFFFFFFFFFF DUP3 AND SWAP1 POP SWAP2 SWAP1 POP JUMP JUMPDEST PUSH0 PUSH2 0xF9D PUSH2 0xF98 DUP4 PUSH2 0xF61 JUMP JUMPDEST PUSH2 0xF6C JUMP JUMPDEST SWAP1 POP SWAP2 SWAP1 POP JUMP JUMPDEST PUSH0 PUSH2 0xFAF DUP3 SLOAD PUSH2 0xF8B JUMP JUMPDEST SWAP1 POP SWAP2 SWAP1 POP JUMP JUMPDEST PUSH0 PUSH1 0x1 DUP3 ADD SWAP1 POP SWAP2 SWAP1 POP JUMP JUMPDEST PUSH0 PUSH2 0xFCC DUP3 PUSH2 0xF45 JUMP JUMPDEST PUSH2 0xFD6 DUP2 DUP6 PUSH2 0xDAD JUMP JUMPDEST SWAP4 POP PUSH2 0xFE1 DUP4 PUSH2 0xF4F JUMP JUMPDEST DUP1 PUSH0 JUMPDEST DUP4 DUP2 LT ISZERO PUSH2 0x1018 JUMPI PUSH2 0xFF5 DUP3 PUSH2 0xFA4 JUMP JUMPDEST PUSH2 0xFFF DUP9 DUP3 PUSH2 0xDDB JUMP JUMPDEST SWAP8 POP PUSH2 0x100A DUP4 PUSH2 0xFB6 JUMP JUMPDEST SWAP3 POP POP PUSH1 0x1 DUP2 ADD SWAP1 POP PUSH2 0xFE4 JUMP JUMPDEST POP DUP6 SWAP4 POP POP POP POP SWAP3 SWAP2 POP POP JUMP JUMPDEST PUSH32 0x41646D696E7320616C7265616479206578697374000000000000000000000000 PUSH0 DUP3 ADD MSTORE POP JUMP JUMPDEST PUSH0 PUSH2 0x1059 PUSH1 0x14 DUP4 PUSH2 0xEA7 JUMP JUMPDEST SWAP2 POP PUSH2 0x1064 DUP3 PUSH2 0x1025 JUMP JUMPDEST PUSH1 0x20 DUP3 ADD SWAP1 POP SWAP2 SWAP1 POP JUMP JUMPDEST PUSH0 PUSH1 0x40 DUP3 ADD SWAP1 POP DUP2 DUP2 SUB PUSH0 DUP4 ADD MSTORE PUSH2 0x1087 DUP2 DUP5 PUSH2 0xFC2 JUMP JUMPDEST SWAP1 POP DUP2 DUP2 SUB PUSH1 0x20 DUP4 ADD MSTORE PUSH2 0x109A DUP2 PUSH2 0x104D JUMP JUMPDEST SWAP1 POP SWAP3 SWAP2 POP POP JUMP JUMPDEST PUSH32 0x41646D696E732061646465640000000000000000000000000000000000000000 PUSH0 DUP3 ADD MSTORE POP JUMP JUMPDEST PUSH0 PUSH2 0x10D6 PUSH1 0xC DUP4 PUSH2 0xEA7 JUMP JUMPDEST SWAP2 POP PUSH2 0x10E1 DUP3 PUSH2 0x10A2 JUMP JUMPDEST PUSH1 0x20 DUP3 ADD SWAP1 POP SWAP2 SWAP1 POP JUMP JUMPDEST PUSH0 PUSH1 0x40 DUP3 ADD SWAP1 POP DUP2 DUP2 SUB PUSH0 DUP4 ADD MSTORE PUSH2 0x1104 DUP2 DUP5 PUSH2 0xFC2 JUMP JUMPDEST SWAP1 POP DUP2 DUP2 SUB PUSH1 0x20 DUP4 ADD MSTORE PUSH2 0x1117 DUP2 PUSH2 0x10CA JUMP JUMPDEST SWAP1 POP SWAP3 SWAP2 POP POP JUMP JUMPDEST PUSH32 0x43616E6E6F742072656D6F766520746865206C6173742061646D696E00000000 PUSH0 DUP3 ADD MSTORE POP JUMP JUMPDEST PUSH0 PUSH2 0x1153 PUSH1 0x1C DUP4 PUSH2 0xEA7 JUMP JUMPDEST SWAP2 POP PUSH2 0x115E DUP3 PUSH2 0x111F JUMP JUMPDEST PUSH1 0x20 DUP3 ADD SWAP1 POP SWAP2 SWAP1 POP JUMP JUMPDEST PUSH0 PUSH1 0x20 DUP3 ADD SWAP1 POP DUP2 DUP2 SUB PUSH0 DUP4 ADD MSTORE PUSH2 0x1180 DUP2 PUSH2 0x1147 JUMP JUMPDEST SWAP1 POP SWAP2 SWAP1 POP JUMP JUMPDEST PUSH32 0x496E646578206F7574206F662072616E67650000000000000000000000000000 PUSH0 DUP3 ADD MSTORE POP JUMP JUMPDEST PUSH0 PUSH2 0x11BB PUSH1 0x12 DUP4 PUSH2 0xEA7 JUMP JUMPDEST SWAP2 POP PUSH2 0x11C6 DUP3 PUSH2 0x1187 JUMP JUMPDEST PUSH1 0x20 DUP3 ADD SWAP1 POP SWAP2 SWAP1 POP JUMP JUMPDEST PUSH0 PUSH1 0x20 DUP3 ADD SWAP1 POP DUP2 DUP2 SUB PUSH0 DUP4 ADD MSTORE PUSH2 0x11E8 DUP2 PUSH2 0x11AF JUMP JUMPDEST SWAP1 POP SWAP2 SWAP1 POP JUMP JUMPDEST PUSH32 0x4E487B7100000000000000000000000000000000000000000000000000000000 PUSH0 MSTORE PUSH1 0x11 PUSH1 0x4 MSTORE PUSH1 0x24 PUSH0 REVERT JUMPDEST PUSH0 PUSH2 0x1226 DUP3 PUSH2 0xA25 JUMP JUMPDEST SWAP2 POP PUSH2 0x1231 DUP4 PUSH2 0xA25 JUMP JUMPDEST SWAP3 POP DUP3 DUP3 SUB SWAP1 POP DUP2 DUP2 GT ISZERO PUSH2 0x1249 JUMPI PUSH2 0x1248 PUSH2 0x11EF JUMP JUMPDEST JUMPDEST SWAP3 SWAP2 POP POP JUMP JUMPDEST PUSH32 0x4E487B7100000000000000000000000000000000000000000000000000000000 PUSH0 MSTORE PUSH1 0x31 PUSH1 0x4 MSTORE PUSH1 0x24 PUSH0 REVERT JUMPDEST PUSH32 0x41646D696E732072656D6F766564000000000000000000000000000000000000 PUSH0 DUP3 ADD MSTORE POP JUMP JUMPDEST PUSH0 PUSH2 0x12B0 PUSH1 0xE DUP4 PUSH2 0xEA7 JUMP JUMPDEST SWAP2 POP PUSH2 0x12BB DUP3 PUSH2 0x127C JUMP JUMPDEST PUSH1 0x20 DUP3 ADD SWAP1 POP SWAP2 SWAP1 POP JUMP JUMPDEST PUSH0 PUSH1 0x40 DUP3 ADD SWAP1 POP DUP2 DUP2 SUB PUSH0 DUP4 ADD MSTORE PUSH2 0x12DE DUP2 DUP5 PUSH2 0xFC2 JUMP JUMPDEST SWAP1 POP DUP2 DUP2 SUB PUSH1 0x20 DUP4 ADD MSTORE PUSH2 0x12F1 DUP2 PUSH2 0x12A4 JUMP JUMPDEST SWAP1 POP SWAP3 SWAP2 POP POP JUMP INVALID LOG2 PUSH5 0x6970667358 0x22 SLT KECCAK256 0xF9 SELFBALANCE 0xD4 0xAE 0x26 0x22 0x2D 0xED 0xAD 0xC3 KECCAK256 PUSH19 0x2E5F7184B5A4043C62D417FA66FA0B8D2BD209 DIV PUSH5 0x736F6C6343 STOP ADDMOD AND STOP CALLER "
				},
				"gasEstimates": {
					"creation": {
						"codeDepositCost": "982200",
						"executionCost": "49593",
						"totalCost": "1031793"
					},
					"external": {
						"add_admins(address[])": "infinite",
						"admins(uint256)": "4921",
						"get_admins()": "infinite",
						"remove_admin(address[])": "infinite",
						"remove_admin_by_index(uint256[])": "infinite"
					}
				},
				"methodIdentifiers": {
					"add_admins(address[])": "3ca00ed2",
					"admins(uint256)": "14bfd6d0",
					"get_admins()": "8794b69d",
					"remove_admin(address[])": "e13e95eb",
					"remove_admin_by_index(uint256[])": "843eedee"
				}
			},
			"storageLayout": {
				"storage": [
					{
						"astId": 29,
						"contract": "admin.sol:admin_management",
						"label": "admins",
						"offset": 0,
						"slot": "0",
						"type": "t_array(t_address)dyn_storage"
					}
				],
				"types": {
					"t_address": {
						"encoding": "inplace",
						"label": "address",
						"numberOfBytes": "20"
					},
					"t_array(t_address)dyn_storage": {
						"base": "t_address",
						"encoding": "dynamic_array",
						"label": "address[]",
						"numberOfBytes": "32"
					}
				}
			},
			"userdoc": {
				"kind": "user",
				"methods": {},
				"version": 1
			}
		}
	}
}