{"abi":[{"type":"constructor","inputs":[{"name":"_targetToken","type":"address","internalType":"address"},{"name":"_uen_management_contract_address","type":"address","internalType":"address"},{"name":"_admin_management_contract_address","type":"address","internalType":"address"},{"name":"_whitelist_management_contract_address","type":"address","internalType":"address"}],"stateMutability":"nonpayable"},{"type":"function","name":"admin_withdraw","inputs":[{"name":"_to","type":"address","internalType":"address"},{"name":"_amount","type":"uint256","internalType":"uint256"}],"outputs":[{"name":"","type":"bool","internalType":"bool"}],"stateMutability":"nonpayable"},{"type":"function","name":"admins","inputs":[{"name":"","type":"uint256","internalType":"uint256"}],"outputs":[{"name":"","type":"address","internalType":"address"}],"stateMutability":"view"},{"type":"function","name":"allowance","inputs":[{"name":"_owner","type":"address","internalType":"address"},{"name":"_spender","type":"address","internalType":"address"}],"outputs":[{"name":"","type":"uint256","internalType":"uint256"}],"stateMutability":"view"},{"type":"function","name":"approve","inputs":[{"name":"","type":"address","internalType":"address"},{"name":"","type":"uint256","internalType":"uint256"}],"outputs":[{"name":"","type":"bool","internalType":"bool"}],"stateMutability":"pure"},{"type":"function","name":"balanceOf","inputs":[{"name":"_owner","type":"address","internalType":"address"}],"outputs":[{"name":"balance","type":"uint256","internalType":"uint256"}],"stateMutability":"view"},{"type":"function","name":"balance_of_uen","inputs":[{"name":"_uen","type":"string","internalType":"string"}],"outputs":[{"name":"","type":"uint256","internalType":"uint256"}],"stateMutability":"view"},{"type":"function","name":"check_whitelist","inputs":[],"outputs":[{"name":"","type":"string","internalType":"string"}],"stateMutability":"view"},{"type":"function","name":"decimals","inputs":[],"outputs":[{"name":"","type":"uint8","internalType":"uint8"}],"stateMutability":"pure"},{"type":"function","name":"get_name","inputs":[{"name":"_uen","type":"string","internalType":"string"}],"outputs":[{"name":"","type":"string","internalType":"string"}],"stateMutability":"view"},{"type":"function","name":"name","inputs":[],"outputs":[{"name":"","type":"string","internalType":"string"}],"stateMutability":"view"},{"type":"function","name":"send_token_to_uen","inputs":[{"name":"_uen","type":"string","internalType":"string"},{"name":"_amount","type":"uint256","internalType":"uint256"}],"outputs":[{"name":"","type":"bool","internalType":"bool"}],"stateMutability":"nonpayable"},{"type":"function","name":"symbol","inputs":[],"outputs":[{"name":"","type":"string","internalType":"string"}],"stateMutability":"view"},{"type":"function","name":"targetToken","inputs":[],"outputs":[{"name":"","type":"address","internalType":"contract IERC20"}],"stateMutability":"view"},{"type":"function","name":"token_address","inputs":[],"outputs":[{"name":"","type":"address","internalType":"address"}],"stateMutability":"view"},{"type":"function","name":"totalSupply","inputs":[],"outputs":[{"name":"","type":"uint256","internalType":"uint256"}],"stateMutability":"view"},{"type":"function","name":"transfer","inputs":[{"name":"_to","type":"address","internalType":"address"},{"name":"_amount","type":"uint256","internalType":"uint256"}],"outputs":[{"name":"","type":"bool","internalType":"bool"}],"stateMutability":"nonpayable"},{"type":"function","name":"transferFrom","inputs":[{"name":"_from","type":"address","internalType":"address"},{"name":"_to","type":"address","internalType":"address"},{"name":"_amount","type":"uint256","internalType":"uint256"}],"outputs":[{"name":"","type":"bool","internalType":"bool"}],"stateMutability":"nonpayable"},{"type":"function","name":"uen_send","inputs":[{"name":"_uen_target","type":"string","internalType":"string"},{"name":"_amount","type":"uint256","internalType":"uint256"}],"outputs":[{"name":"","type":"bool","internalType":"bool"}],"stateMutability":"nonpayable"},{"type":"function","name":"uen_to_balance","inputs":[{"name":"","type":"string","internalType":"string"}],"outputs":[{"name":"","type":"uint256","internalType":"uint256"}],"stateMutability":"view"},{"type":"event","name":"Approval","inputs":[{"name":"owner","type":"address","indexed":true,"internalType":"address"},{"name":"spender","type":"address","indexed":true,"internalType":"address"},{"name":"value","type":"uint256","indexed":false,"internalType":"uint256"}],"anonymous":false},{"type":"event","name":"Transfer","inputs":[{"name":"from","type":"address","indexed":true,"internalType":"address"},{"name":"to","type":"address","indexed":true,"internalType":"address"},{"name":"value","type":"uint256","indexed":false,"internalType":"uint256"}],"anonymous":false},{"type":"error","name":"ERC20InsufficientAllowance","inputs":[{"name":"spender","type":"address","internalType":"address"},{"name":"allowance","type":"uint256","internalType":"uint256"},{"name":"needed","type":"uint256","internalType":"uint256"}]},{"type":"error","name":"ERC20InsufficientBalance","inputs":[{"name":"sender","type":"address","internalType":"address"},{"name":"balance","type":"uint256","internalType":"uint256"},{"name":"needed","type":"uint256","internalType":"uint256"}]},{"type":"error","name":"ERC20InvalidApprover","inputs":[{"name":"approver","type":"address","internalType":"address"}]},{"type":"error","name":"ERC20InvalidReceiver","inputs":[{"name":"receiver","type":"address","internalType":"address"}]},{"type":"error","name":"ERC20InvalidSender","inputs":[{"name":"sender","type":"address","internalType":"address"}]},{"type":"error","name":"ERC20InvalidSpender","inputs":[{"name":"spender","type":"address","internalType":"address"}]}],"bytecode":{"object":"0x60806040523480156200001157600080fd5b5060405162001aa038038062001aa0833981016040819052620000349162000203565b6040805180820182526004808252635347446d60e01b602080840182905284518086019095529184529083015290600362000070838262000307565b5060046200007f828262000307565b5050600580546001600160a01b038088166001600160a01b0319928316179092556009805487841690831617905560078054928616929091168217905560408051638794b69d60e01b81529051919250638794b69d9160048083019260009291908290030181865afa158015620000fa573d6000803e3d6000fd5b505050506040513d6000823e601f3d908101601f19168201604052620001249190810190620003d3565b80516200013a9160089160209091019062000165565b50600a80546001600160a01b0319166001600160a01b039290921691909117905550620004a5915050565b828054828255906000526020600020908101928215620001bd579160200282015b82811115620001bd57825182546001600160a01b0319166001600160a01b0390911617825560209092019160019091019062000186565b50620001cb929150620001cf565b5090565b5b80821115620001cb5760008155600101620001d0565b80516001600160a01b0381168114620001fe57600080fd5b919050565b600080600080608085870312156200021a57600080fd5b6200022585620001e6565b93506200023560208601620001e6565b92506200024560408601620001e6565b91506200025560608601620001e6565b905092959194509250565b634e487b7160e01b600052604160045260246000fd5b600181811c908216806200028b57607f821691505b602082108103620002ac57634e487b7160e01b600052602260045260246000fd5b50919050565b601f82111562000302576000816000526020600020601f850160051c81016020861015620002dd5750805b601f850160051c820191505b81811015620002fe57828155600101620002e9565b5050505b505050565b81516001600160401b0381111562000323576200032362000260565b6200033b8162000334845462000276565b84620002b2565b602080601f8311600181146200037357600084156200035a5750858301515b600019600386901b1c1916600185901b178555620002fe565b600085815260208120601f198616915b82811015620003a45788860151825594840194600190910190840162000383565b5085821015620003c35787850151600019600388901b60f8161c191681555b5050505050600190811b01905550565b60006020808385031215620003e757600080fd5b82516001600160401b0380821115620003ff57600080fd5b818501915085601f8301126200041457600080fd5b81518181111562000429576200042962000260565b8060051b604051601f19603f8301168101818110858211171562000451576200045162000260565b6040529182528482019250838101850191888311156200047057600080fd5b938501935b8285101562000499576200048985620001e6565b8452938501939285019262000475565b98975050505050505050565b6115eb80620004b56000396000f3fe608060405234801561001057600080fd5b50600436106101215760003560e01c806370a08231116100ad578063a8f5d7a611610071578063a8f5d7a61461024a578063a9059cbb1461025d578063dd62ed3e14610270578063f22fbdd714610283578063fa863d30146102ae57600080fd5b806370a08231146102035780638c8e8fee1461021657806390f31f3b1461022757806395d89b411461023a578063a3e5b0b21461024257600080fd5b806323b872dd116100f457806323b872dd146101a8578063313ce567146101bb578063327107f7146101ca578063332656fd146101dd5780635ab16b26146101f057600080fd5b806306fdde0314610126578063095ea7b31461014457806314bfd6d01461016757806318160ddd14610192575b600080fd5b61012e6102c1565b60405161013b91906111a4565b60405180910390f35b6101576101523660046111ef565b610353565b604051901515815260200161013b565b61017a61017536600461121b565b6103a3565b6040516001600160a01b03909116815260200161013b565b61019a6103cd565b60405190815260200161013b565b6101576101b6366004611234565b610440565b6040516006815260200161013b565b60055461017a906001600160a01b031681565b6101576101eb36600461133a565b610651565b6101576101fe36600461133a565b610932565b61019a61021136600461137f565b610b7a565b6005546001600160a01b031661017a565b61019a61023536600461139c565b610c19565b61012e610c41565b61012e610c50565b61012e61025836600461139c565b610cc1565b61015761026b3660046111ef565b610d3d565b61019a61027e3660046113d9565b610f3d565b61019a61029136600461139c565b805160208183018101805160068252928201919093012091525481565b6101576102bc3660046111ef565b610fbb565b6060600380546102d090611412565b80601f01602080910402602001604051908101604052809291908181526020018280546102fc90611412565b80156103495780601f1061031e57610100808354040283529160200191610349565b820191906000526020600020905b81548152906001019060200180831161032c57829003601f168201915b5050505050905090565b60405162461bcd60e51b815260206004820152601c60248201527f417070726f76652066756e6374696f6e2069732064697361626c65640000000060448201526000906064015b60405180910390fd5b600881815481106103b357600080fd5b6000918252602090912001546001600160a01b0316905081565b600554604080516318160ddd60e01b815290516000926001600160a01b0316916318160ddd9160048083019260209291908290030181865afa158015610417573d6000803e3d6000fd5b505050506040513d601f19601f8201168201806040525081019061043b919061144c565b905090565b60006001600160a01b0383166104935760405162461bcd60e51b81526020600482015260186024820152775472616e7366657220746f207a65726f206164647265737360401b604482015260640161039a565b600a54604051635858138360e01b81526001600160a01b0386811660048301526000921690635858138390602401600060405180830381865afa1580156104de573d6000803e3d6000fd5b505050506040513d6000823e601f3d908101601f191682016040526105069190810190611465565b9050600060068260405161051a91906114dc565b90815260200160405180910390205490508381101561054b5760405162461bcd60e51b815260040161039a906114f8565b8360068360405161055c91906114dc565b90815260200160405180910390206000828254610579919061153a565b92505081905550846001600160a01b0316866001600160a01b03167fddf252ad1be2c89b69c2b068fc378daa952ba7f163c4a11628f55a4df523b3ef866040516105c591815260200190565b60405180910390a360055460405163a9059cbb60e01b81526001600160a01b038781166004830152602482018790529091169063a9059cbb906044016020604051808303816000875af1158015610620573d6000803e3d6000fd5b505050506040513d601f19601f82011682018060405250810190610644919061154d565b5060019695505050505050565b60095460405163547aebd360e11b8152600091849183916001600160a01b03169063a8f5d7a6906106869085906004016111a4565b600060405180830381865afa1580156106a3573d6000803e3d6000fd5b505050506040513d6000823e601f3d908101601f191682016040526106cb9190810190611465565b511161070e5760405162461bcd60e51b815260206004820152601260248201527115515388191bd95cc81b9bdd08195e1a5cdd60721b604482015260640161039a565b60008451116107555760405162461bcd60e51b815260206004820152601360248201527255454e2074617267657420697320656d70747960681b604482015260640161039a565b600a54604051635858138360e01b81523360048201526000916001600160a01b031690635858138390602401600060405180830381865afa15801561079e573d6000803e3d6000fd5b505050506040513d6000823e601f3d908101601f191682016040526107c69190810190611465565b9050836006826040516107d991906114dc565b90815260200160405180910390205410156107f857600092505061092b565b8360068260405161080991906114dc565b90815260200160405180910390206000828254610826919061153a565b925050819055508360068660405161083e91906114dc565b9081526020016040518091039020600082825461085b919061156f565b9091555050600a5460405163a9b295e360e01b81526000916001600160a01b03169063a9b295e3906108919089906004016111a4565b602060405180830381865afa1580156108ae573d6000803e3d6000fd5b505050506040513d601f19601f820116820180604052508101906108d29190611582565b90506001600160a01b03811615610924576040518581526001600160a01b0382169033907fddf252ad1be2c89b69c2b068fc378daa952ba7f163c4a11628f55a4df523b3ef9060200160405180910390a35b6001935050505b5092915050565b60095460405163547aebd360e11b8152600091849183916001600160a01b03169063a8f5d7a6906109679085906004016111a4565b600060405180830381865afa158015610984573d6000803e3d6000fd5b505050506040513d6000823e601f3d908101601f191682016040526109ac9190810190611465565b51116109ef5760405162461bcd60e51b815260206004820152601260248201527115515388191bd95cc81b9bdd08195e1a5cdd60721b604482015260640161039a565b6000845111610a2f5760405162461bcd60e51b815260206004820152600c60248201526b55454e20697320656d70747960a01b604482015260640161039a565b600554604051636eb1769f60e11b81523360048201523060248201526000916001600160a01b03169063dd62ed3e90604401602060405180830381865afa158015610a7e573d6000803e3d6000fd5b505050506040513d601f19601f82011682018060405250810190610aa2919061144c565b905083811015610aed5760405162461bcd60e51b8152602060048201526016602482015275496e6372656173652074686520616c6c6f77616e636560501b604482015260640161039a565b6005546040516323b872dd60e01b8152336004820152306024820152604481018690526001600160a01b03909116906323b872dd906064016020604051808303816000875af1158015610b44573d6000803e3d6000fd5b505050506040513d601f19601f82011682018060405250810190610b68919061154d565b508360068660405161083e91906114dc565b600a54604051635858138360e01b81526001600160a01b0383811660048301526000928392911690635858138390602401600060405180830381865afa158015610bc8573d6000803e3d6000fd5b505050506040513d6000823e601f3d908101601f19168201604052610bf09190810190611465565b9050600681604051610c0291906114dc565b908152602001604051809103902054915050919050565b6000600682604051610c2b91906114dc565b9081526020016040518091039020549050919050565b6060600480546102d090611412565b600a54604051635858138360e01b81523360048201526060916001600160a01b031690635858138390602401600060405180830381865afa158015610c99573d6000803e3d6000fd5b505050506040513d6000823e601f3d908101601f1916820160405261043b9190810190611465565b60095460405163547aebd360e11b81526060916001600160a01b03169063a8f5d7a690610cf29085906004016111a4565b600060405180830381865afa158015610d0f573d6000803e3d6000fd5b505050506040513d6000823e601f3d908101601f19168201604052610d379190810190611465565b92915050565b60006001600160a01b038316610d905760405162461bcd60e51b81526020600482015260186024820152775472616e7366657220746f207a65726f206164647265737360401b604482015260640161039a565b600a54604051635858138360e01b81523360048201526000916001600160a01b031690635858138390602401600060405180830381865afa158015610dd9573d6000803e3d6000fd5b505050506040513d6000823e601f3d908101601f19168201604052610e019190810190611465565b90506000600682604051610e1591906114dc565b908152602001604051809103902054905083811015610e465760405162461bcd60e51b815260040161039a906114f8565b83600683604051610e5791906114dc565b90815260200160405180910390206000828254610e74919061153a565b90915550506040518481526001600160a01b0386169033907fddf252ad1be2c89b69c2b068fc378daa952ba7f163c4a11628f55a4df523b3ef9060200160405180910390a360055460405163a9059cbb60e01b81526001600160a01b038781166004830152602482018790529091169063a9059cbb906044015b6020604051808303816000875af1158015610f0d573d6000803e3d6000fd5b505050506040513d601f19601f82011682018060405250810190610f31919061154d565b50600195945050505050565b600554604051636eb1769f60e11b81526001600160a01b0384811660048301528381166024830152600092169063dd62ed3e90604401602060405180830381865afa158015610f90573d6000803e3d6000fd5b505050506040513d601f19601f82011682018060405250810190610fb4919061144c565b9392505050565b600080805b6008548110156110095760088181548110610fdd57610fdd61159f565b6000918252602090912001546001600160a01b031633036110015760019150611009565b600101610fc0565b50806110625760405162461bcd60e51b815260206004820152602260248201527f4f6e6c792061646d696e732063616e2063616c6c20746869732066756e63746960448201526137b760f11b606482015260840161039a565b6001600160a01b0384166110b85760405162461bcd60e51b815260206004820152601c60248201527f576974686472617720746f20746865207a65726f206164647265737300000000604482015260640161039a565b6005546040516370a0823160e01b81523060048201526000916001600160a01b0316906370a0823190602401602060405180830381865afa158015611101573d6000803e3d6000fd5b505050506040513d601f19601f82011682018060405250810190611125919061144c565b9050838110156111475760405162461bcd60e51b815260040161039a906114f8565b60055460405163a9059cbb60e01b81526001600160a01b038781166004830152602482018790529091169063a9059cbb90604401610eee565b60005b8381101561119b578181015183820152602001611183565b50506000910152565b60208152600082518060208401526111c3816040850160208701611180565b601f01601f19169190910160400192915050565b6001600160a01b03811681146111ec57600080fd5b50565b6000806040838503121561120257600080fd5b823561120d816111d7565b946020939093013593505050565b60006020828403121561122d57600080fd5b5035919050565b60008060006060848603121561124957600080fd5b8335611254816111d7565b92506020840135611264816111d7565b929592945050506040919091013590565b634e487b7160e01b600052604160045260246000fd5b604051601f8201601f1916810167ffffffffffffffff811182821017156112b4576112b4611275565b604052919050565b600067ffffffffffffffff8211156112d6576112d6611275565b50601f01601f191660200190565b600082601f8301126112f557600080fd5b8135611308611303826112bc565b61128b565b81815284602083860101111561131d57600080fd5b816020850160208301376000918101602001919091529392505050565b6000806040838503121561134d57600080fd5b823567ffffffffffffffff81111561136457600080fd5b611370858286016112e4565b95602094909401359450505050565b60006020828403121561139157600080fd5b8135610fb4816111d7565b6000602082840312156113ae57600080fd5b813567ffffffffffffffff8111156113c557600080fd5b6113d1848285016112e4565b949350505050565b600080604083850312156113ec57600080fd5b82356113f7816111d7565b91506020830135611407816111d7565b809150509250929050565b600181811c9082168061142657607f821691505b60208210810361144657634e487b7160e01b600052602260045260246000fd5b50919050565b60006020828403121561145e57600080fd5b5051919050565b60006020828403121561147757600080fd5b815167ffffffffffffffff81111561148e57600080fd5b8201601f8101841361149f57600080fd5b80516114ad611303826112bc565b8181528560208385010111156114c257600080fd5b6114d3826020830160208601611180565b95945050505050565b600082516114ee818460208701611180565b9190910192915050565b6020808252601290820152714e6f7420656e6f7567682062616c616e636560701b604082015260600190565b634e487b7160e01b600052601160045260246000fd5b81810381811115610d3757610d37611524565b60006020828403121561155f57600080fd5b81518015158114610fb457600080fd5b80820180821115610d3757610d37611524565b60006020828403121561159457600080fd5b8151610fb4816111d7565b634e487b7160e01b600052603260045260246000fdfea26469706673582212205f774f1cf75d7adb64455d37205e1c293dcc69a3e37544f4ea2efec904775a4864736f6c63430008160033","linkReferences":{}},"methodIdentifiers":{"admin_withdraw(address,uint256)":"fa863d30","admins(uint256)":"14bfd6d0","allowance(address,address)":"dd62ed3e","approve(address,uint256)":"095ea7b3","balanceOf(address)":"70a08231","balance_of_uen(string)":"90f31f3b","check_whitelist()":"a3e5b0b2","decimals()":"313ce567","get_name(string)":"a8f5d7a6","name()":"06fdde03","send_token_to_uen(string,uint256)":"5ab16b26","symbol()":"95d89b41","targetToken()":"327107f7","token_address()":"8c8e8fee","totalSupply()":"18160ddd","transfer(address,uint256)":"a9059cbb","transferFrom(address,address,uint256)":"23b872dd","uen_send(string,uint256)":"332656fd","uen_to_balance(string)":"f22fbdd7"},"id":28}