{"abi":[{"type":"constructor","inputs":[{"name":"_admin_list_contract","type":"address","internalType":"address"}],"stateMutability":"nonpayable"},{"type":"function","name":"add_uens","inputs":[{"name":"_uens","type":"string[]","internalType":"string[]"},{"name":"_names","type":"string[]","internalType":"string[]"}],"outputs":[],"stateMutability":"nonpayable"},{"type":"function","name":"admin_list_contract","inputs":[],"outputs":[{"name":"","type":"address","internalType":"address"}],"stateMutability":"view"},{"type":"function","name":"admins","inputs":[{"name":"","type":"uint256","internalType":"uint256"}],"outputs":[{"name":"","type":"address","internalType":"address"}],"stateMutability":"view"},{"type":"function","name":"get_admin_contract","inputs":[],"outputs":[{"name":"","type":"address","internalType":"address"}],"stateMutability":"view"},{"type":"function","name":"get_admin_list_contract","inputs":[],"outputs":[{"name":"","type":"address","internalType":"contract Iadmin_management"}],"stateMutability":"view"},{"type":"function","name":"get_all_uens","inputs":[],"outputs":[{"name":"","type":"string[]","internalType":"string[]"}],"stateMutability":"view"},{"type":"function","name":"get_name","inputs":[{"name":"_uen","type":"string","internalType":"string"}],"outputs":[{"name":"","type":"string","internalType":"string"}],"stateMutability":"view"},{"type":"function","name":"modify_uens","inputs":[{"name":"_uens","type":"string[]","internalType":"string[]"},{"name":"_names","type":"string[]","internalType":"string[]"}],"outputs":[],"stateMutability":"nonpayable"},{"type":"function","name":"remove_uens","inputs":[{"name":"_uens","type":"string[]","internalType":"string[]"}],"outputs":[],"stateMutability":"nonpayable"},{"type":"function","name":"uen_list","inputs":[{"name":"","type":"uint256","internalType":"uint256"}],"outputs":[{"name":"","type":"string","internalType":"string"}],"stateMutability":"view"},{"type":"event","name":"uen_event","inputs":[{"name":"_uens","type":"string[]","indexed":false,"internalType":"string[]"},{"name":"_message","type":"string","indexed":false,"internalType":"string"}],"anonymous":false}],"bytecode":{"object":"0x60806040523480156200001157600080fd5b506040516200125d3803806200125d83398101604081905262000034916200017d565b600380546001600160a01b0383166001600160a01b03199182168117909255600480549091168217815560408051638794b69d60e01b81529051638794b69d928281019260009291908290030181865afa15801562000097573d6000803e3d6000fd5b505050506040513d6000823e601f3d908101601f19168201604052620000c19190810190620001b8565b8051620000d791600591602090910190620000df565b50506200028a565b82805482825590600052602060002090810192821562000137579160200282015b828111156200013757825182546001600160a01b0319166001600160a01b0390911617825560209092019160019091019062000100565b506200014592915062000149565b5090565b5b808211156200014557600081556001016200014a565b80516001600160a01b03811681146200017857600080fd5b919050565b6000602082840312156200019057600080fd5b6200019b8262000160565b9392505050565b634e487b7160e01b600052604160045260246000fd5b60006020808385031215620001cc57600080fd5b82516001600160401b0380821115620001e457600080fd5b818501915085601f830112620001f957600080fd5b8151818111156200020e576200020e620001a2565b8060051b604051601f19603f83011681018181108582111715620002365762000236620001a2565b6040529182528482019250838101850191888311156200025557600080fd5b938501935b828510156200027e576200026e8562000160565b845293850193928501926200025a565b98975050505050505050565b610fc3806200029a6000396000f3fe608060405234801561001057600080fd5b506004361061009e5760003560e01c8063a8f5d7a611610066578063a8f5d7a614610121578063b30282fa14610141578063b3d6da6e14610154578063beada81314610169578063f9b378c21461017a57600080fd5b806314bfd6d0146100a357806335b13db2146100d357806336693c04146100e857806346dc1ffc146100fb5780639926aa341461010e575b600080fd5b6100b66100b13660046109c9565b61018d565b6040516001600160a01b0390911681526020015b60405180910390f35b6100e66100e1366004610b38565b6101b7565b005b6004546100b6906001600160a01b031681565b6003546100b6906001600160a01b031681565b6100e661011c366004610b75565b61036b565b61013461012f366004610bd9565b6104f7565b6040516100ca9190610c5e565b61013461014f3660046109c9565b6105a7565b61015c610653565b6040516100ca9190610cd2565b6003546001600160a01b03166100b6565b6100e6610188366004610b75565b61072c565b6005818154811061019d57600080fd5b6000918252602090912001546001600160a01b0316905081565b6000805b60055481101561020457600581815481106101d8576101d8610ce5565b6000918252602090912001546001600160a01b031633036101fc5760019150610204565b6001016101bb565b508061022b5760405162461bcd60e51b815260040161022290610cfb565b60405180910390fd5b60005b825181101561032f57600183828151811061024b5761024b610ce5565b60200260200101516040516102609190610d3d565b9081526020016040518091039020600061027a9190610973565b60405180602001604052806000815250600060028584815181106102a0576102a0610ce5565b60200260200101516040516102b59190610d3d565b908152602001604051809103902054815481106102d4576102d4610ce5565b9060005260206000200190816102ea9190610de4565b5060028382815181106102ff576102ff610ce5565b60200260200101516040516103149190610d3d565b9081526040519081900360200190206000905560010161022e565b507f5462cca44bd73f863d8a33c18eddea04a24e4ac8e252404333dd97ac7a732ac88260405161035f9190610ea4565b60405180910390a15050565b6000805b6005548110156103b8576005818154811061038c5761038c610ce5565b6000918252602090912001546001600160a01b031633036103b057600191506103b8565b60010161036f565b50806103d65760405162461bcd60e51b815260040161022290610cfb565b81518351146103f75760405162461bcd60e51b815260040161022290610ee5565b60005b83518110156104f157600184828151811061041757610417610ce5565b602002602001015160405161042c9190610d3d565b9081526020016040518091039020805461044590610d59565b905060000361048b5760405162461bcd60e51b815260206004820152601260248201527115515388191bd95cc81b9bdd08195e1a5cdd60721b6044820152606401610222565b82818151811061049d5761049d610ce5565b602002602001015160018583815181106104b9576104b9610ce5565b60200260200101516040516104ce9190610d3d565b908152602001604051809103902090816104e89190610de4565b506001016103fa565b50505050565b60606001826040516105099190610d3d565b9081526020016040518091039020805461052290610d59565b80601f016020809104026020016040519081016040528092919081815260200182805461054e90610d59565b801561059b5780601f106105705761010080835404028352916020019161059b565b820191906000526020600020905b81548152906001019060200180831161057e57829003601f168201915b50505050509050919050565b600081815481106105b757600080fd5b9060005260206000200160009150905080546105d290610d59565b80601f01602080910402602001604051908101604052809291908181526020018280546105fe90610d59565b801561064b5780601f106106205761010080835404028352916020019161064b565b820191906000526020600020905b81548152906001019060200180831161062e57829003601f168201915b505050505081565b60606000805480602002602001604051908101604052809291908181526020016000905b8282101561072357838290600052602060002001805461069690610d59565b80601f01602080910402602001604051908101604052809291908181526020018280546106c290610d59565b801561070f5780601f106106e45761010080835404028352916020019161070f565b820191906000526020600020905b8154815290600101906020018083116106f257829003601f168201915b505050505081526020019060010190610677565b50505050905090565b6000805b600554811015610779576005818154811061074d5761074d610ce5565b6000918252602090912001546001600160a01b031633036107715760019150610779565b600101610730565b50806107975760405162461bcd60e51b815260040161022290610cfb565b81518351146107b85760405162461bcd60e51b815260040161022290610ee5565b60005b83518110156109365760018482815181106107d8576107d8610ce5565b60200260200101516040516107ed9190610d3d565b9081526020016040518091039020805461080690610d59565b15905061084a5760405162461bcd60e51b815260206004820152601260248201527155454e20616c72656164792065786973747360701b6044820152606401610222565b82818151811061085c5761085c610ce5565b6020026020010151600185838151811061087857610878610ce5565b602002602001015160405161088d9190610d3d565b908152602001604051809103902090816108a79190610de4565b5060008482815181106108bc576108bc610ce5565b602090810291909101810151825460018101845560009384529190922001906108e59082610de4565b506000546108f590600190610f27565b600285838151811061090957610909610ce5565b602002602001015160405161091e9190610d3d565b908152604051908190036020019020556001016107bb565b507f5462cca44bd73f863d8a33c18eddea04a24e4ac8e252404333dd97ac7a732ac8836040516109669190610f4e565b60405180910390a1505050565b50805461097f90610d59565b6000825580601f1061098f575050565b601f0160209004906000526020600020908101906109ad91906109b0565b50565b5b808211156109c557600081556001016109b1565b5090565b6000602082840312156109db57600080fd5b5035919050565b634e487b7160e01b600052604160045260246000fd5b604051601f8201601f1916810167ffffffffffffffff81118282101715610a2157610a216109e2565b604052919050565b600082601f830112610a3a57600080fd5b813567ffffffffffffffff811115610a5457610a546109e2565b610a67601f8201601f19166020016109f8565b818152846020838601011115610a7c57600080fd5b816020850160208301376000918101602001919091529392505050565b600082601f830112610aaa57600080fd5b8135602067ffffffffffffffff80831115610ac757610ac76109e2565b8260051b610ad68382016109f8565b9384528581018301938381019088861115610af057600080fd5b84880192505b85831015610b2c57823584811115610b0e5760008081fd5b610b1c8a87838c0101610a29565b8352509184019190840190610af6565b98975050505050505050565b600060208284031215610b4a57600080fd5b813567ffffffffffffffff811115610b6157600080fd5b610b6d84828501610a99565b949350505050565b60008060408385031215610b8857600080fd5b823567ffffffffffffffff80821115610ba057600080fd5b610bac86838701610a99565b93506020850135915080821115610bc257600080fd5b50610bcf85828601610a99565b9150509250929050565b600060208284031215610beb57600080fd5b813567ffffffffffffffff811115610c0257600080fd5b610b6d84828501610a29565b60005b83811015610c29578181015183820152602001610c11565b50506000910152565b60008151808452610c4a816020860160208601610c0e565b601f01601f19169290920160200192915050565b602081526000610c716020830184610c32565b9392505050565b60008282518085526020808601955060208260051b8401016020860160005b84811015610cc557601f19868403018952610cb3838351610c32565b98840198925090830190600101610c97565b5090979650505050505050565b602081526000610c716020830184610c78565b634e487b7160e01b600052603260045260246000fd5b60208082526022908201527f4f6e6c792061646d696e732063616e2063616c6c20746869732066756e63746960408201526137b760f11b606082015260800190565b60008251610d4f818460208701610c0e565b9190910192915050565b600181811c90821680610d6d57607f821691505b602082108103610d8d57634e487b7160e01b600052602260045260246000fd5b50919050565b601f821115610ddf576000816000526020600020601f850160051c81016020861015610dbc5750805b601f850160051c820191505b81811015610ddb57828155600101610dc8565b5050505b505050565b815167ffffffffffffffff811115610dfe57610dfe6109e2565b610e1281610e0c8454610d59565b84610d93565b602080601f831160018114610e475760008415610e2f5750858301515b600019600386901b1c1916600185901b178555610ddb565b600085815260208120601f198616915b82811015610e7657888601518255948401946001909101908401610e57565b5085821015610e945787850151600019600388901b60f8161c191681555b5050505050600190811b01905550565b604081526000610eb76040830184610c78565b8281036020840152600c81526b1551539cc81c995b5bdd995960a21b60208201526040810191505092915050565b60208082526022908201527f4d617070696e6773206d7573742068617665207468652073616d65206c656e676040820152610e8d60f31b606082015260800190565b81810381811115610f4857634e487b7160e01b600052601160045260246000fd5b92915050565b604081526000610f616040830184610c78565b8281036020840152600a8152691551539cc8185919195960b21b6020820152604081019150509291505056fea26469706673582212205fe65fd0bd80e7d4d5bfc5c1d2a6878ad7569bf0020402612a324c04fe20b71d64736f6c63430008160033","linkReferences":{}},"methodIdentifiers":{"add_uens(string[],string[])":"f9b378c2","admin_list_contract()":"46dc1ffc","admins(uint256)":"14bfd6d0","get_admin_contract()":"beada813","get_admin_list_contract()":"36693c04","get_all_uens()":"b3d6da6e","get_name(string)":"a8f5d7a6","modify_uens(string[],string[])":"9926aa34","remove_uens(string[])":"35b13db2","uen_list(uint256)":"b30282fa"},"id":29}